:020000040800F2
:1000000058140020F9410008350F00083D0F000882
:10001000450F00084D0F0008550F000800000000B4
:10002000000000000000000000000000350F000884
:10003000350F000800000000350F00087D0B000898
:10004000000000000000000000000000350F000864
:100050000000000000000000DD110008F1110008A0
:10006000350F00081D12000831120008350F000876
:10007000350F0008350F0008350F0008350F000850
:10008000350F0008350F0008350F0008350F000840
:10009000350F0008350F0008350F0008451200081D
:1000A000350F0008350F0008350F0008350F000820
:1000B0005D0F0008B1110008350F0008350F00086A
:1000C000350F0008350F0008350F0008350F000800
:1000D000350F0008A10C0008350F0008350F000887
:1000E00005120008350F0008350F0008054B58634E
:1000F0001A6A18B922F001021A62704742F001022E
:10010000FAE700BF002C0140084B5A786AB910F09A
:10011000400F14BF4FF400514FF0005102F18042E4
:1001200002F5883211610022DA7270475000002017
:1001300010B50B4A117D4B1CDBB2692B08BF0023A5
:10014000947D9C4208D011441375064AC875D36843
:1001500043F08003D36002E0547DE406F0D510BD87
:1001600050000020003801400F4A92F8C83013F0C8
:10017000040F14BF40214FF480010C4B196148213A
:1001800092F8043182F8EA3092F8B030023B4B43E7
:10019000DB105B4282F8E9304FF08042D36843F0D5
:1001A0000103D360704700BF5000002000080140E9
:1001B000002330B5164A92F8B10092F8B24082F8A6
:1001C000043182F8053140FA03F1CD0709D5D3B1E6
:1001D000012B0CBF0221042192F80451294382F81B
:1001E000041144FA03F1CD0709D573B1012B0CBFFB
:1001F0001021202192F80551294382F8051101337D
:10020000032BE0D130BD0121E6E70821F2E700BF72
:100210005000002038B50A4CD4F8085175B194F854
:100220000D31D4F8281143F0010384F80D3108464C
:1002300005F050FB00236861C4F8083138BD00BFE9
:10024000500000202DE9F04F00276A4D85B095F849
:10025000443195F84541BB4214BF98464FF0100811
:1002600008F1FF385FFA88F8444500937BD03426C4
:1002700006FB0859D9F86411D9F860A1084605F0C1
:1002800021FAD9F8681105F025FB81460146504650
:1002900005F0BEFC00B1D14606FB08F6B8F1000F30
:1002A00005EB0603C3F85C9114BF43461023013BE2
:1002B0005FFA83FA5445DFF840813BD008EB060330
:1002C00001933423BAF1000F03FB0A83564608BF9B
:1002D0004FF0100ADDF804B095F8882401930AF174
:1002E000FF335FFA83FA524501D1FFF793FF3423BE
:1002F00003FB0656D6F86091D6F85C01494605F036
:100300007DFCA0B9D6F86411084605F0DBF9D6F8F3
:10031000681105F0DFFADBF8141005F0D3F9834615
:100320000146484605F092FC00B3C6F85CB154455E
:10033000C7D105E095F88834A34201D1FFF76AFFE1
:100340004FF0340909FB048B01345FFA84FABAF1E7
:10035000100F08BF4FF0000A0024009B534508D13E
:100360000CB185F8457105B0BDE8F08FC6F85C9119
:10037000DDE709FB0AF608EB06030393DBF814300C
:100380002E440193D6F85C3101981946029305F08A
:100390003FFCA8B1DBF81C10084605F093F9DBF828
:1003A000201005F097FA019905F08CF98346014673
:1003B000029805F04BFC18B157460124C6F85CB111
:1003C00009FB0A52D2F86011D2F85C0105F016FC64
:1003D0000AF10103002818BF57465FFA83FA18BFD5
:1003E0000124BAF1100F08BF4FF0000ADDF80CB07D
:1003F000B3E700BF5000002098010020064890F8A5
:10040000882490F8441191421DBF342300F5A47054
:1004100003FB0200002070475000002038B5437CE9
:100420000446DA07C56A14D5154B187A05F0FEF9AB
:10043000144905F04FFA294605F04CFA04464FF0EE
:100440007E51204605F002FC08B94FF07E5420464C
:1004500038BD5B070BD40A4BD87905F0E7F9094999
:1004600005F038FA0146284605F034FA0546A46A34
:100470002946204605F0CCFB0028E0D12C46DEE7DB
:10048000500000200AD7233C064BD3F8A824C3F819
:100490008C24D3F8AC24C3F89024D3F8B024C3F848
:1004A0009424704750000020064B00B97047D3F8E1
:1004B000B414D3F8B424914202D0013880B2F4E7E6
:1004C00000BFF6E7500000204FF08043DA6810B517
:1004D00022F00102DA600022124C9A6294F8B30012
:1004E00084F8B824FF28227811D194F8B91401F0C7
:1004F000FF0361B9802A0CD094F8C820520748BF86
:1005000083F00103084A53B14023136110BD042A4C
:1005100003D0FFF7C9FF0123EEE70023ECE74FF418
:100520008003F2E750000020000801402DE9F84365
:100530000746884600244FF000090D4E58F8245015
:100540004946284605F05AFB60B9294657F8240069
:1005500005F074FA20F000453146284605F076FB98
:1005600000B92E460134032CE8D13046BDE8F883AB
:100570009976967E0A4B98680A4B00F0030093F830
:10058000C8305A0658BF80F0030038B1830704D53D
:1005900000F0010040F0020070470120704700BFEA
:1005A000000C01405000002010B5044614F8010B67
:1005B00000B910BDFFF7BCFDF8E7632838B51CD9BA
:1005C0000A22B0FBF2F302FB13003030C4B2D8B2FF
:1005D0000A22B0FBF2F302FB13003030C5B2D8B2EE
:1005E0003030C0B2FFF7A4FD15B12846FFF7A0FDDB
:1005F0004CB12046BDE838409AE509284FF0000488
:10060000E6D82546ECE738BDF0B50D4685B00021AB
:10061000044605F0FDFA20B12D20FFF789FD04F115
:1006200000442E462C4F012E33D86B08C3EBC31366
:1006300005EB4303DBB223B12046284905F04AF914
:1006400004464FF07C51204605F03CF805F01EFBB7
:1006500000240A23611CE4B218BB2E1BF6B2A5428B
:1006600038BF00260DEB0400344432463021E4B29A
:1006700005F052FBA54207D1302205F110036C1C96
:100680006B4403F8102CE4B20DEB0406BCB905B0C2
:10069000F0BD2046394605F01DF9023E0446F6B28B
:1006A000C1E704F110020DEB0204B0FBF3F203FB0F
:1006B0001200303004F8100C10460C46CAE7AC4269
:1006C00002D12E20FFF734FD16F8010D013CFFF793
:1006D0002FFDE4B2DAE700BF0000C842000020416D
:1006E00008B5074B93F8C830DB0706D5054905F078
:1006F000F1F80421BDE8084086E70321FAE700BFCE
:10070000500000208B42213D08B5064B93F8C810DD
:1007100011F0010103D0044905F0DCF80121BDE826
:10072000084071E7500000208B42213D00483BE724
:100730001D6F000808B55D20FFF7FAFCBDE8084012
:10074000F4E710B504460068FFF7CAFF2C20FFF756
:10075000EFFC6068FFF7C4FF2C20FFF7E9FCA068FE
:10076000BDE81040BCE738B505460C462420FFF72D
:10077000DFFC2846FFF721FF3D20FFF7D9FCE0B260
:10078000FFF71BFFBDE83840D0E770B506460C46C2
:1007900015462420FFF7CCFC3046FFF70EFF3D2026
:1007A000FFF7C6FC29462046FFF72EFFBDE8704044
:1007B000BCE72DE9F8435A4C002094F8B010FFF73D
:1007C000D2FF012094F8B310FFF7CDFF022094F878
:1007D000B110FFF7C8FF032094F8B210FFF7C3FF72
:1007E00094F8C8100420C1F38001FFF7BCFF94F80F
:1007F000C8100520C1F38011FFF7B5FF94F9C810A8
:100800000620C90FFFF7AFFF0A2094F8B410FFF7D6
:10081000AAFF03220B20D4F8B810FFF7B6FF03227B
:100820000C20D4F8BC10FFF7B0FF94F8C8100D20CE
:1008300001F00101FFF797FF94F8C8101420C1F3ED
:100840004011FFF790FF94F8C8101520C1F3C001C4
:10085000FFF789FF94F8C8101620C1F30011FFF7C5
:1008600082FF172094F8C910FFF77DFF032218209C
:10087000D4F8CC10FFF789FF03221920D4F8D01048
:10088000FFF783FF1A20B4F8D410FFF76CFF0322A0
:100890001B20D4F8D810FFF778FF00221E20D4F8D0
:1008A000C010FFF772FF00221F20D4F8C410FFF71A
:1008B0006CFF94F8C8102020C1F34001FFF753FFEC
:1008C00000276425DFF85C902C4605F10308164EDE
:1008D0005FFA88F8022F17D0032F1CD00322012FB4
:1008E00014BF3168F16820460134E4B2FFF74DFFD0
:1008F000444506F10406EDD10A35EDB28C2D07F121
:100900000107E1D1BDE8F8834946B06905F096F8E2
:1009100003220146E7E7716A3A4601F10041E2E746
:100920005000002000006145D000002010B50446B2
:100930000448FFF739FE2046FFF73FFEBDE81040B0
:10094000F4E600BF486E000808B901482CE6EDE760
:100950004F6E0008094B9868C043C3B210F078008E
:100960000AD0C3F3001040001A0748BF40F001004E
:100970009B0648BF40F00400704700BF000C0140D8
:100980002DE9F041094F0E1F051F01F1080457F82A
:10099000048B56F8040F04F049FF414605F04EF869
:1009A000A64245F8040FF2D1BDE8F081D000002046
:1009B000024800F5956100F59B60E1E750000020DA
:1009C0001FB50B4C0B48FFF7EFFD04F5A06101A824
:1009D000FFF7D6FF01A8FFF7B4FE3A20FFF7A8FB08
:1009E0006079FFF7EAFD04B0BDE81040A2E600BF61
:1009F00050000020546E00082DE9F0414FF000082F
:100A00000B4E051F00F1080455F8047F4146384697
:100A100005F01CF948B9384656F8041F05F0F8F8F7
:100A200018B9A542F0D1BDE8F0810120FBE700BF75
:100A3000F0000020EFF3108172B6034A537D184393
:100A4000507581F3108870475000002008B5FFF7FB
:100A5000D5FC18B1BDE808400220EBE708BDEFF374
:100A6000108172B6034A537D23EA0000507581F36A
:100A70001088704750000020EFF3108372B6034ACD
:100A800082F8B90483F31088704700BF500000203B
:100A900010B5134C637DDB0620D41020FFF7CAFF8E
:100AA000104A136A23F0010313624FF000520E4BF9
:100AB0001A612278237902F02C0103F006030B431C
:100AC0000CD0042A08D194F8B93413B90620FFF7E2
:100AD000D3FFBDE81040F7E40320F8E710BD00BFE6
:100AE00050000020002C01400010014010B5FFF71D
:100AF00031FF044688B1C10701D5FFF7C9FF62077E
:100B000041BF064A537D43F002035375A30741BF1B
:100B1000024A537D43F00803537510BD5000002076
:100B200008B5074B1A78012A08D093F8B9342BB9C5
:100B3000FFF7AEFFBDE8084001209DE708BD00BFFC
:100B400050000020EFF3108172B6044A92F80C3581
:100B5000184382F80C0581F310887047500000207C
:100B6000EFF3108172B6044A92F80D35184382F8FB
:100B70000D0581F31088704750000020034AD2F819
:100B8000B4340133C2F8B434704700BF50000020C1
:100B900010B50F24072988BF04308900036801F0CD
:100BA0001C018C4023EA04038A401343036010BDF8
:100BB000F8B505460E460024012707FA04F3334230
:100BC00004D003222846E1B2FFF7E2FF0134102CE3
:100BD000F3D1F8BD38B54FF480711748FFF7E8FF3F
:100BE000164A174C9369174D43F400639361002331
:100BF000FF222360A362E2626822A2614FF40042F6
:100C000023626264636301234FF4005123600E4842
:100C1000FFF7CEFFD5F8C410D5F8C00004F050FDA2
:100C200001460A4804F00AFF236AC5F8100523F0BC
:100C30000103236238BD00BF0008014000100240DC
:100C4000002C014050000020000C014000007E43B9
:100C5000F8B505460E460024012707FA04F333428F
:100C600004D004222846E1B2FFF792FF0134102C91
:100C7000F3D1F8BD2DE9F04105460E4600244FF0B2
:100C8000010808FA04F7374205D008222846E1B2E5
:100C9000FFF77EFF2F610134102CF2D1BDE8F08107
:100CA000424B10B51A68900626D55868C3B23F2B40
:100CB00039D010F0C00F19D1182B1BD0212B36D0F2
:100CC000010660D5843B1C2B16D8DFE803F03234D4
:100CD000151515151515151515153A3E40424446BE
:100CE000484A154C5052545658155A007E2BE7D19D
:100CF000022019E0FFF7CCFE2C4A13681B0611D521
:100D00002B498B7DC8180133DBB2692B08BF002348
:100D1000C07D50608B75097D994202BFD36823F076
:100D20008003D36010BD0120FFF784FEE4E70820B4
:100D3000FAE72020F8E71E4B1B789A06DCD5402006
:100D4000F2E70120FFF7FEFED6E70220FAE70420D3
:100D5000F8E70820F6E71020F4E72020F2E740202B
:100D6000F0E78020EEE70120FFF7FAFEC4E702205B
:100D7000FAE70420F8E70820F6E71020F4E720203F
:100D8000F2E74020F0E70A4A92F8141592F8154568
:100D90004B1CDBB2812B08BF00239C421EBF89186D
:100DA00081F8160582F81435A6E700BF0038014027
:100DB00050000020064A074B074913F8010B8B42ED
:100DC00002F8010BF9D10122044B83F8972D7047EB
:100DD000E705002000F8000800000108500000208E
:100DE00038B5074C054694F8973D0BB9FFF7E2FF7D
:100DF000B5F5006F36BF6419FF2094F8970538BD2C
:100E0000500000202DE9F84304460E461546002701
:100E100000EB0208A1EB000904EB0900FFF7E0FF7B
:100E2000002F0CBF0346431C04F8010BA045DFB2A2
:100E3000F2D17019FFF7D4FFC31B58425841BDE8E7
:100E4000F88370B5094C064694F8973D0D460BB9EA
:100E5000FFF7B0FFB6F5006F06D2344494F897352B
:100E6000AB4218BF84F8975570BD00BF50000020FA
:100E70002DE9F84306460C461546002701EB02080B
:100E8000A0EB010904EB090014F8011B002F0CBFB3
:100E90000B464B1CDFB2FFF7D4FFA045F2D1394619
:100EA0007019BDE8F843CCE708B50A210020FFF728
:100EB000C8FFBDE808405C2201200149D8E700BF17
:100EC000D00000208FB572B67022164B4FF000573D
:100ED0001A614FF080724FF400561A610023124CD1
:100EE000124DDFF84CC00022276101930199A942FD
:100EF0000FD9266102930299A9420ED9013290427C
:100F0000F2D10393039A6245EDD8039A013203921A
:100F1000F8E7019901310191E8E702990131029165
:100F2000E9E700BF00080140001001403F0D030049
:100F30007F841E00092008B5FFF7C4FF012008B513
:100F4000FFF7C0FF022008B5FFF7BCFF032008B57C
:100F5000FFF7B8FF042008B5FFF7B4FF38B54FF02E
:100F6000804000238C4C036194F8B834002B40F08F
:100F700001818A4A94F8EB30D16803F0380321F0FC
:100F800038010B43D360D36894F8EA1023F00703C9
:100F90000B43D36094F8E920814B42F47F425A62BC
:100FA0001A6842F001021A60012384F8B83462B66C
:100FB000D4F80051002D4AD194F8983D94F8992D19
:100FC0009A4200F0D88094F8983D04F69A5101EBCB
:100FD000C301DA0004EBC303C4F80011B3F89C1D8D
:100FE000C162B3F89A1D93F89E3DA4F8F81094F8E6
:100FF000FA10994210D0142084F8FA30434304F6D2
:10100000CC5119442344D3F8D83DC4F8FC105B08F4
:10101000C4E93833C4F8DC30D4F8FC1094F8050186
:101020000B7C434084F8EB30A31893F89F0D0A68BB
:10103000C240C4F8EC204A68C240C4F8F0208A6874
:10104000C24093F8A00DC4F8F420FFF74FF894F8CD
:10105000303E012B11D1534B9B6894F8313E63B164
:10106000002384F8303E504BA3F1580207CA83E8AE
:101070000700637D43F0400363750023D4F8EC2040
:1010800084F8EA30D4F8FC10D4F8DC301344CA6891
:10109000C4F8DC3093420FD901209B1A84F8EA008F
:1010A000087CC4F8DC30D4F8A83405074CBF03F141
:1010B000FF330133C4F8A834D4F8E030D4F8F0009A
:1010C00003449A42C4F8E03012D294F8EA009B1A22
:1010D00040F0020084F8EA00087CC4F8E030D4F85C
:1010E000AC34C0064CBF03F1FF330133C4F8AC3459
:1010F000D4F8E430D4F8F40003449A42C4F8E4305D
:1011000012D29B1A0A7C94F8EA00C4F8E430D4F8AE
:10111000B034920640F004004CBF03F1FF330133BA
:1011200084F8EA00C4F8B0342378042B01BFA37913
:1011300094F8EA20134084F8EA30B4F8F830013B20
:101140009BB2A4F8F8305BB994F8982DC4F800313C
:101150000132D2B2062A84F8982D08BF84F8983D4F
:1011600094F8EA3094F80421534084F8EA300023DC
:1011700084F8B83438BDFFF7A7F9D4F8FC305B7CAD
:101180002BB10A4B5D631A6A22F001021A62042035
:10119000BDE838404EE400BF500000200008014088
:1011A000000400400010014050050020002C0140C8
:1011B0000022074B074908481A61CA6890F80401E1
:1011C00060F30202CA601A6822F001021A607047D6
:1011D000000400400008014050000020034B5A6901
:1011E000D20702D501225A619AE4704700040140F7
:1011F000034B5A69920702D502225A6190E4704764
:1012000000040140044B5A69520503D54FF4806233
:101210005A6185E4704700BF00040140034B5A69DE
:10122000120702D508225A6160E4704700040140A9
:10123000034B5A69D20602D510225A6156E4704710
:1012400000040140034A536913F0600301D0536165
:101250004CE470470004014010B5044C14F8010B35
:1012600000B910BDFEF764FFF8E700BF820E002052
:10127000274A2DE9F04F9369012643F0010393615A
:101280004FF00F0C00234FF4807E4FF40008214CE8
:10129000214F06FA03F919EA000F03F1010532D0D4
:1012A00003F0FC0202F1804202F5803203F00301F8
:1012B000D2F808A089000CFA01FB2AEA0B0AC2F84E
:1012C00008A0D2F808A006FA01F141EA0A019160EB
:1012D0002268042B49EA02022260A26849EA02025B
:1012E000A260E26849EA0202E26005D8063306FA23
:1012F00003F33B602B46CCE7092B02D8C7F80080EC
:10130000F8E7C7F804E0102D2B46C2D1BDE8F08FF6
:10131000001002400004014000E100E030B500236D
:10132000012440F20345074904FA03F0284218BF9C
:101330000A6803F101031CBF82430A60102BF3D13A
:1013400030BD00BF0004014008B540F203410A4827
:10135000FFF77EFC40F203410748FFF78BFC074B89
:1013600093F8C8301B0704D5BDE8084040F203409D
:101370007EE7BDE80840D1E7000C014050000020A6
:101380002DE9F84FDFF8D8800378074608EB030211
:1013900018F8033089462D2B19D14FF0010A5378E4
:1013A000961C00210A460D460846303BDBB2092B4D
:1013B0001AD80132D2B2082A11D809B1013D6DB252
:1013C00000EB800003EB400016F8013BEDE72B2B10
:1013D0004FF0000A0ABF5378561C961CE1E700291B
:1013E000F2D101356DB2EFE7FE2B02D109B901212F
:1013F000EAE7E2B104F016FA0021044604F0FEFB2D
:1014000048B9DFF860B06B1C14DB1BD120461649CD
:1014100004F060FA0446BAF1000F01D004F1004470
:101420000122A6EB0806013EC9F800403E701046B6
:10143000BDE8F88F2046594604F04CFA02350446C0
:101440006DB2E0E7002DE6D0DFF820B02046594627
:1014500004F040FA013D6DB20446002DF6D1DAE702
:10146000820E00200AD7233CCDCCCC3D0000204189
:1014700010B5174CFFF728F83822002104F58670C4
:1014800004F04AFC0021282204F1DC0004F044FCB2
:101490000023012284F8983DC4F8083184F8993D6E
:1014A00084F8822E84F8B834FEF782FE94F8051191
:1014B000084A84F8EB10D36894F8040123F007037A
:1014C0000343D360D36823F038030B43D36010BDCC
:1014D000500000200008014010B5094C1C220021DA
:1014E00004F28C4004F018FC0023012284F88834B4
:1014F00084F8443184F8832E84F8453110BD00BF50
:10150000500000202DE9F041214C0546D4F8C4607C
:10151000D4F8C0703046394694F8098004F08CFB4A
:1015200070B9404604F082F91A4904F0D3F929460B
:1015300004F0D0F905460146384604F073FB18B1B3
:10154000FF202761BDE8F0812946304604F074FB96
:1015500058B100272846394604F050FB10B100204E
:101560002761EFE701202661ECE731462846256137
:1015700004F0A6F8D4F8101504F0ACF903F024F840
:101580004FF07E5104F09EF804F0A6FBC0B2D9E7FC
:10159000500000200AD7233C10B5124C0346627855
:1015A00008464AB94BB900230F4A2361136A23F056
:1015B000010313620023E37210BD102B0CBF4FF028
:1015C00000514FF40051094A116194F8C820920764
:1015D00002D5202B08BF0020FFF794FFFEF786FD01
:1015E000E8E700BF50000020002C0140000C014043
:1015F0002DE9F84300250446A946061F00F1080816
:1016000056F8047F4946384604F0F8FA40B939469E
:10161000384604F05FF90146284604F053F80546C1
:101620004645EDD1284602F07FFE064601464FF0C2
:101630007E5004F003FA05460146206804F04AF99A
:1016400029462060606804F045F929466060A0687A
:1016500004F040F9A0603046BDE8F8832DE9F04F72
:10166000B04B8DB01B79DC0700F1EE80DFF8B4A23F
:101670009AF8823E9AF8982D08939A4200F0E480F6
:101680009AF80430DAF808210193002A53D113F0B4
:10169000040500F0D18034219AF844210AF5A4769B
:1016A00001FB0266CAF808619AF80D41019B14F02B
:1016B00001079AF80C2103F0020800F0C88000220C
:1016C0008AF80D210023D6F81CB04FF07C50594603
:1016D000CAF8243104F0B2F9346A074608F0FF0270
:1016E000B8F1000F00F0268102228AF820217569E6
:1016F000294604F0EFF80146204603F0E1FF0021FF
:10170000064604F085FA002800F00581594658463F
:1017100003F0D8FF214604F0DDF80146284603F027
:10172000CFFF02F001FECAF83001019B7D4A43F071
:10173000080982F804909AF8993D9AF80C110AEB7E
:10174000C3020793DAF8083182F89E1D00931B6AE2
:10175000DAF81C111846049303F0B2FF0021099037
:1017600004F056FA08B100230993DAF83431DAF8B4
:101770002CB10193DAF83831019819469AF8208192
:10178000DAF82851059304F039FA002800F09A811C
:101790004FF002030027DBB20B93624BBA46D3F83B
:1017A0002421D3F83031604C0A930023DDF81090E7
:1017B000029203930694B8F1010F00F01282B8F17F
:1017C000030F00F08281B8F1000F00F0D181009B7F
:1017D0002046D96904F07EF82946074604F018FA35
:1017E000B0B14FF07C51384604F074F801462846F9
:1017F00003F066FF214604F06DF80146484603F009
:101800005FFF0299064604F021FA002840F0AB8100
:101810000299484603F054FF014603F053FF29465E
:1018200004460A9803F04EFF0146204604F006F9EC
:101830000A9D0446029ED2E1FEF7E0FD0646CAF884
:10184000080100287FF430AF0DB0BDE8F08F013201
:10185000D2B2052A18BF174614227A4333498AF8B0
:101860000C711144CAF8841E317C524482F8DC1D8C
:101870003168F068C900C2F8CC1D7168C900C2F8AF
:10188000D01DB168C900C2F8D41DC100C2F8D81D6E
:1018900003F0C8FF316ACAF8140104F0CFF801461A
:1018A000CAF81801224804F0C9F8002304F008021D
:1018B00058EA0202CAF81C01CAF8103125D0DAF839
:1018C000301124F008040846CAF8281104F002F880
:1018D0008AF80D4170611424002204FB07A484F8E7
:1018E000DD2D9AF8C82090077FF5ECAE727C91064A
:1018F0007FF5E8AEF16A4FF07E5004F09FF80122C8
:10190000CAF83C0184F8DD2DDCE6706902F00CFDBC
:10191000CAF82801DFE70023CAF82461CAF8303189
:1019200003E700BF500000203EC32E391C0E0020EC
:101930000000A03F8AF82021CAF83441002D51D17F
:101940009AF888240132D2B2102A18BF15469AF8A4
:101950004421AA4217BF3422002502FB05A5D5F871
:101960005C51284602F0E0FC02463046CAF83021BD
:101970000292FEF753FD0146009003F0ABFFD6F84C
:1019800014908046494604F043F9029A00283CD05E
:101990004146484603F094FE394603F09BFF01465A
:1019A000204603F08DFE0021CAF8340104F03AF914
:1019B000D8B1022259468AF82021584603F082FE07
:1019C000214603F087FF0146484603F079FE02F006
:1019D000ABFC9AF80D21CAF8300142F008028AF8EF
:1019E0000D21A2E600221546BFE72946404603F036
:1019F00067FE394603F06EFF0322009BCAF83801E8
:101A0000CAF82C318AF820218FE6294648460292EE
:101A100003F056FE394603F05DFF214603F052FE07
:101A20004FF07C5103F056FF0021064604F00EF9FA
:101A3000029A002840D02146304604F0E9F80028F8
:101A400038D02946404603F03BFE394603F042FFBA
:101A50000146CAF83801304604F0F8F8B8B1009BE6
:101A600049464046CAF82C3104F0C8F808B10122B2
:101A7000C8E74946404603F023FE394603F02AFFF3
:101A80000146204603F01CFECAF834014DE65946D3
:101A90005846CAF83461CAF8386103F013FE31467B
:101AA00003F018FF294603F00DFE02F03DFCCAF8D2
:101AB0002C013AE60222A5E70023CAF82C21CAF835
:101AC000343132E64FF0010364E6009B2046D969C9
:101AD00003F000FF59460746284603F0F1FD014692
:101AE000384604F0A9F800282CD00199049803F096
:101AF000E7FD014603F0E6FD29460446584603F09B
:101B0000E1FD0146204603F099FF012704465D46AA
:101B1000BA46B846019E2146039803F0D3FD0699C4
:101B2000039004F075F8002876D00399069803F026
:101B3000C7FD31460446029804F06AF8002871D0C7
:101B4000B14638E64FF07C51384603F0C3FE0146FB
:101B5000284603F0B5FD214603F0BCFE0146484689
:101B600003F0AEFD06463946284603F0A9FD35E0F0
:101B7000009B2046D96903F0ADFE4FF07C5107462B
:101B800003F0A8FE294603F09DFD214603F0A2FEC6
:101B90000146484603F094FD06460146019804F0CC
:101BA00055F8B8B10199049803F08AFD014603F095
:101BB00089FD29460446584603F084FD0146204627
:101BC00003F03CFF012704465D46BA46DDF82C8051
:101BD000019EA0E73946284603F074FD054601271B
:101BE00099E75946204603F075FE0146484603F042
:101BF00067FD0599064604F00BF800288BD005997F
:101C0000484603F05DFD594603F018FFC2460446FE
:101C10004FF00208059E7EE73046099904F016F859
:101C2000002853D16E4B0FB1C3F82851BAF1000F01
:101C300001D083F820816A4CD4F8843E5A7C237901
:101C400003F0080313431AD0009B587C10F03000B7
:101C500043D01D6B52B1D4F83C11D4F8280103F0E5
:101C600039FE0146284603F035FE05462846FFF7B3
:101C700049FC237984F8400123F008032371079B72
:101C8000D4F8181104EBC3094FEAC30B94F84031A0
:101C9000304689F8A03D03F01DFE804602F088FB27
:101CA0000746D4F8140102F083FB3946824603F05C
:101CB00007FD04F011F885B2A9F89A5D85B923797A
:101CC0009A070DD543F001032371BDE545490698F8
:101CD00003F0F8FC0399069029E700232361C8E785
:101CE000D4F81011039803F0EDFC414681465046AC
:101CF00003F0E6FC0146484603F0A0FE3A4981465F
:101D000003F0E8FD02F054FB03F0E6FF42F2273354
:101D1000984231D8002204EB0B0383F89F2D80B248
:101D2000089B089A0133DBB2062B08BF002384F816
:101D3000823E009BA344ABF89C0D414684F8992D4C
:101D40001E623846C4F8147103F0BAFC494603F029
:101D5000C1FD3146C4F81001029803F04FFF00287E
:101D60003FF484AC00213046257903F06FFFE8B1E1
:101D700045F00105257167E544F24F63984213D998
:101D800048F69F43984294BF02230323D84004EBB4
:101D90000B029D40B0F5803F82F89F3DA2F89A5D0E
:101DA000BDD34FF6FF70BBE70123EFE715F0040347
:101DB000DED194F8881494F84421C4F808318A429A
:101DC0003FF454AC4A1CD2B2102A18BF134694F800
:101DD000452184F888348A4208BF84F8453145E4B7
:101DE000500000203EC32E3900FCBE4B2DE9F04FC1
:101DF000AC4C8DB094F8B93403F0FF05C3B10123A6
:101E0000A9482370FEF7D0FB2846FEF7D6FB013D1C
:101E1000FEF78CFC4FF4FA70FEF746FB012D14D947
:101E2000EFF3108372B6002284F8B92483F310888C
:101E3000637D03F0FF05002B00F07C82EE0613D5D6
:101E4000012363700DB0BDE8F08F9848FEF7ACFB3E
:101E50009748FEF7A9FBFEF76DFC1020FEF7FFFD8B
:101E6000637DDF06FCD5DBE715F0010600F0C980D5
:101E7000904A03AB07CA83E80700194606A8FEF795
:101E80007FFD3C20FEF754F92378102B14D8102B3B
:101E90001BD8DFE813F00001330135011A003101CE
:101EA0001A001A001A0004011A001A001A001A0077
:101EB0001A001A001A002101402B00F02381802B08
:101EC00000F03081202B00F0158194F8B47017F0E9
:101ED000010700F02981237B002B00F02581764843
:101EE000FEF762FB06A8FEF72CFC94F8B4309F07BF
:101EF00020D57248FEF758FB94F8443194F88804D2
:101F000083422CBF0F3000F1FF30C01AC0B2FEF781
:101F100054FB2C20FEF70CF994F8152594F8143591
:101F2000D0B29A4294BF803800F1FF30C01AC0B2DC
:101F3000FEF743FB6248FEF737FB2378DFF8849116
:101F400013F07C0F0CBF0020D4F82801FEF7DCFB57
:101F50002C20FEF7EDF820690021FEF755FBFEF777
:101F600009FB8046FEF7F6FC94F831AED9F808304C
:101F700048EA00034AEA0303DBB207466BB3524860
:101F8000FEF712FBBAF1000F02D05020FEF7D0F896
:101F9000B8F1000F11D018F0010F02D05820FEF751
:101FA000C7F818F0020F02D05920FEF7C1F818F058
:101FB000040F02D05A20FEF7BBF877B1F80702D51C
:101FC0005220FEF7B5F8B90702D54820FEF7B0F861
:101FD0007A0702D55320FEF7ABF8237B002B00F0E5
:101FE000D380013B2373E77A002F00F0DF80013FAD
:101FF000E7723E20FEF79CF8FEF798FB0120FEF703
:102000002EFD15F0E80F00F0498126784FFA85F88B
:10201000B70740F0348116F0280F00F00681A7784A
:102020003F2F0BD8FEF7F6F80223202E237105D19F
:10203000B8F1000F02DB67F07F07A770680605D5CF
:10204000B1065EBFA37843F04003A3702A0703D50F
:102050001F2E9CBF10232370AB0640F11081134844
:10206000FEF7A2FA1948FEF79FFAFEF763FB94F910
:102070000220A378002AC0F2FE802278402A40F095
:10208000F7801F0704D523F01C0343F00203A3705D
:1020900040232370EFE00E48FEF786FA15E70D485F
:1020A000FAE700BF500000205A6E0008616E000879
:1020B000676E0008F8040020A96E0008B76E0008DB
:1020C000BC6E000800100140C16E0008D56E00080B
:1020D000796E00087E6E000894F90230002B09DB4F
:1020E0005548FEF761FAA378D80717D53020FEF7D8
:1020F0001FF8EAE65148CFE75148CDE75148CBE712
:102100005148C9E75148FEF74FFAA378190701D59E
:102110003320ECE75A0703D59B06E7D53120E6E7E5
:102120003220E4E74A48B7E74FF00008DFF824A17F
:102130000DF1240B0DF11809DAF81010DAF804008B
:1021400003F0C0FAB8F1020F0AF1040A01464BF895
:10215000040B04D1D4F8FC0403F0B4FA0B903FB99B
:10216000D9F800005BF8041C03F0AAFAC9F80000D3
:1021700008F10108B8F1030F09F10409DCD1002FBF
:102180007FF4ADAE3448ABE6237813F07C0F0CBF80
:1021900009231D232373E37A0BB90123E3722F482C
:1021A000FEF702FA09A8FEF7CCFA1CE723782C48C0
:1021B00013F07C0F0CBF09231323E372FEF7F4F92D
:1021C000E079FEF7FAF92C20FDF7B2FF207AFEF74E
:1021D000F4F92C20FDF7ACFF607AFEF7EEF9214B05
:1021E0001B6ADB0706D5204BDB6813F4005F0CBFCE
:1021F00037460227D9F80C3003F40056C3F34033B6
:1022000057EA83133FF4F5AE1848FEF7CDF92FB126
:10221000012F0CBF53204320FDF78AFF002E3FF40F
:10222000E8AE4620FDF784FFE3E6002E7FF406AF1C
:102230000123A37002E700BF826E0008886E0008C9
:102240008C6E0008916E0008976E00089D6E000865
:10225000A36E000830050020B06E0008C66E0008AE
:10226000CC6E0008002C0140000C0140D16E00082B
:10227000802A7FF40DAFA37843F02003A370B8F158
:10228000000F08DA2378012B02BFA37843F005037F
:10229000A37080232370E820FEF7E1FBAE0723D56F
:1022A00015F0680F1DD12378402B07D1A37813F0C8
:1022B000200203D1D80640F1E18022702378002B60
:1022C00000F0E280DA060CD5A278D70709D5102BEA
:1022D00040F0DA80A37A002B00F0D68043F00803A8
:1022E000A3720220FEF7BBFB6E0723D5227894F978
:1022F000023012F0D00F00F0DC80E278002A40F0CB
:10230000D880002BC0F2D780FDF784FF94F8883482
:1023100084F84531FDF796FF23799D0748BFA278E1
:1023200023F0060344BF42F00102A270237104208F
:10233000FEF795FB94F80C3503F0FF02002B50D00C
:10234000EFF3108372B6002184F80C1583F3108824
:10235000E57912F0010F0CBF2B466423900744BFB0
:102360000A33DBB2570744BF0A3BDBB2160744BF50
:102370000133DBB2D00644BF03F1FF33DBB2C82B1D
:1023800028BFC8230A2B38BF0A23207A12F0200F57
:1023900014BF6421014612F0400F18BF322112F021
:1023A000800F18BF19219D4201D1814219D094F8A4
:1023B0008874E37100233D464FF0340894F844914B
:1023C000DFF8B8B1DFF8B8A12172E3724D4540F0F3
:1023D0008B80C4F8A4B4FDF71DFF84F84571FDF7A8
:1023E00031FF94F80D3503F0FF05002B00F0C0809D
:1023F000EFF3108372B6002284F80D2583F3108862
:10240000627A15F0010F0CBF13466423A90744BF7D
:102410000A33DBB26F0744BF0A3BDBB22E0744BF6F
:102420000133DBB2E80644BF03F1FF33DBB2C82B54
:1024300028BFC8230A2B38BF0A239A420BD0227820
:102440006372002A74D1D4F8C81494F8C504FFF755
:10245000A3F80023E372A906237840F18780102BAC
:1024600040F08480A37A002B78D102233F2DA37201
:1024700067D80DB0BDE8F04FFFF7F0B8590744BF7B
:1024800043F00803A37019E700232371FDF7B6FF9B
:1024900058B1A37813F0400307D1A3700823237029
:1024A000FFF7DCF8FDF760FE1BE70023A370237045
:1024B00017E7002B09DA00232371FFF70DF8FEF769
:1024C000D7FFFEF775FAFDF7DFFFA37813F02002C0
:1024D0001FBF03F07F0343F00103A37040230ABF33
:1024E000A2702370227022E708FB05A0FDF796FF7B
:1024F0005946064603F0AAFBB8B15946584603F0C0
:10250000E9F908FB054BDBF86C11CBF86001019190
:1025100003F09CFB10B10199CBF860110135EDB2CD
:10252000102D08BF0025B34650E731463046E6E798
:10253000237943F0080323718BE713B113F0380FAD
:1025400016D094F8C40443064CBF00F0BF0040F01E
:102550004000FDF7D9FD84F8C40409E0DA0702D58C
:1025600043F00403A3723F2DEBD801E03F2DE4D8E4
:102570002378032B7FF666AC7BE700BF9976967EC7
:102580009801002070B50E46104903F0A3F901F040
:102590000FFF03F0A1FB0E4D84B29CB16B788BB999
:1025A0005EB900F017F8D5F8B424D5F8B4349B1A06
:1025B000312B08D9013CA4B2EFE7FFF717FCAB7849
:1025C0009B07F0D570BD00BFEFE700BF0000A04142
:1025D000500000202DE9F0476D4CFFF707FCA37871
:1025E000002B56D0FDF70AFF88B994F8C55494F82B
:1025F000C434D4F8C8641D4394F8C830980702D591
:102600002020FEF7ADFA00274FF0000828E0614BCC
:10261000457CDB6805F03005C3F34033066B45EAC3
:102620008315E9E794F80190B9F1000F31D1D9078A
:1026300014D522783F2A6AD913F0040A14D14146EE
:10264000504684F80AA0FEF7A7FF5046FDF75CFD50
:10265000A37823F0020343F00403A370FFF7C6FB43
:10266000A378002BDED114E0802A17D14A48FDF769
:102670009BFF4A48FDF798FFFEF75CF800214846AB
:10268000FEF78AFF4846FDF73FFDFDF71DFF637823
:102690000BB1BDE8F087FFF7A9FBF8E7402A04BFBC
:1026A00023F02003A370A3781A07D7D594F8C52484
:1026B0004AB19B0707D494F8C83098071CD52379F2
:1026C00043F00803237194F8C4345BB1A3789907ED
:1026D00008D405F0C000FDF717FD01214FF07E5032
:1026E000FFF750FFA3789A07B8D443F010030220F5
:1026F000A370FEF79FF9B1E7314605F03000FEF711
:102700004BFF01214FF08140FFF73CFFDBE7A37A4D
:102710007BB3980709D594F8C53413B30021484614
:10272000FEF73AFF0123A37298E713F00C0F95D040
:1027300094F8C5347BB11848FDF736FF1848FDF70B
:1027400033FFFDF7F7FF94F8C83099070BD52379CD
:1027500043F008032371A37A1A0702D50220FEF77B
:1027600069F9A7727AE7314605F03000FEF714FFE9
:10277000F1E723791B077FF571AF314605F0300093
:10278000FEF70AFF237923F00803237166E700BFF1
:102790005000002000100140616E0008E06E00084B
:1027A000E96E000810B5FEF751F9064CFFF712FF6D
:1027B000637833B9FDF722FE0028F7D12378082B80
:1027C000F4D010BD50000020512370B503FB00F57C
:1027D0000C4E05F540755022294606F63260FEF78C
:1027E00011FB044658B986F8320EFFF7DBFF284686
:1027F000502206F63261FEF73BFB204670BD0120F9
:10280000FCE700BF5000002038B5074B04461B789A
:102810000D46022B07D0FFF7C5FF29462046BDE82D
:102820003840FEF7B9BE38BD5000002038B5044628
:102830000D46FFF7B7FF0D2303FB04F02946BDE863
:1028400038400C2200F50070FEF712BB30B505468B
:10285000E80785B006D55C221C491D4803F0B2FA92
:10286000FEF722FBA9070AD50024CDE90144039411
:10287000E0B201A90134FFF7D9FF082CF8D16A07AB
:1028800013D500214FF44070FEF7DBFA002140F22F
:102890000130FEF7D6FA002140F25130FEF7D1FAAE
:1028A000002140F25230FEF7CCFA2B070CD5002164
:1028B00040F2AE30FEF7C5FA002140F2AF3005B06D
:1028C000BDE83040FEF7BDBA05B030BDDC69000898
:1028D000D000002070B50D460D21414306460C2264
:1028E000284601F50071FEF78DFA044640B9C5E9A6
:1028F0000000A86029463046FFF798FF204670BDCB
:102900000120FCE708B5FFF74DFF0022014B1A73C9
:1029100008BD00BF5000002034222DE9F04FDFF841
:1029200094B289469BF844510BF5A47302FB05F45D
:1029300095B02344002106901846019303F0ECF96A
:1029400099F80880D9F804305C44C4F8783118F05C
:10295000020384F85981039318BF0BF595620BAB02
:1029600008BF0BF28C4207CA83E80700019B0027CF
:10297000049334236B43DFF840A20593AAF180044B
:10298000E31807935AF8043B0293069B029853F806
:10299000271002F09FFF01F05DFC0BAA52F82720E0
:1029A0000EAB43F82700801A049B80EAE076A6EB82
:1029B000E07643F8046B0493059BE118D1F85421A9
:1029C000964238BF1646C1F8546102F02FFF0299B3
:1029D00003F034F808AB43F82700002103F018F99E
:1029E000079B50B1002F7ED0012F0CBF1022202258
:1029F00093F858110A4383F858210137032FC0D1A7
:102A0000002E00F0D580342608A8FEF7F1FD06FB65
:102A1000054608A9C6F8680107466848FDF786FD1F
:102A200008A9C6F864016648FDF780FD18F0010F9B
:102A3000C6F8700107D118F0080FD9F8000002D0CD
:102A4000394602F047FF342303FB0542C2F8740104
:102A500094F888240026AA4202D0039A002A44D07F
:102A600003FB0543C3F85C61C3F86C61039B002B57
:102A700035D10198FDF7D2FCD4F8A474064601467E
:102A8000384603F0C5F8002800F08F8039463846F4
:102A900002F020FF342303FB0545D5F86C71C5F81F
:102AA0006001394603F0D2F808B1C5F86071454BB2
:102AB00008AA07CAC4F8A46483E807000EAA07CAD4
:102AC00003E9070094F8833E84F844310133DBB214
:102AD000102B08BF002384F8833EFDF7B3FB0120D1
:102AE00015B0BDE8F08F082282E70DF144080327F6
:102AF000C146354A08AB52F8041F53F804AB0291A3
:102B0000029851460492039302F0E4FE01463046D7
:102B100002F0D6FD02990646504602F0D1FDDDE9ED
:102B20000332013F17F0FF0748F8040BE3D13046AA
:102B3000264903F08BF878BB3046254903F068F846
:102B400088BB4846FEF754FD49461C48FDF7EEFC9D
:102B5000314607464FF07E5002F0B2FD4FF07C51F7
:102B600002F0B8FE01F0E0FB0646DBF8B81038468C
:102B700002F0B0FE314602F0ADFE314607464FF09E
:102B80007E5002F09DFD0146384602F057FF0021BD
:102B9000064603F03DF800B10026342303FB05434D
:102BA000C3F86C6165E70B4EF7E7314630466FE7D7
:102BB000304695E750000020D0000020E8000020BB
:102BC000DC000020E8040020E4040020EFFF7F3F49
:102BD000EFFF7FBF9976967EF8B5234C0D4694F8AB
:102BE000C8300646990627780FD5202F10D0FDF75C
:102BF00003FF50B10123082FE37019D0FDF748FF00
:102C00000220FDF739FFFFF7E5FC2378022B0ED0F9
:102C1000FFF7E0FC637853B994F8882494F8833E76
:102C20009A4211D029463046FFF776FE78B1F8BDBA
:102C30003846FDF7FFFEFFF7CDFC6378002BE4D1AB
:102C40002378002BF7D1D9E7FDF700FFE0E794F8F0
:102C5000C8309A07EBD52B7ADB06E8D569681020D7
:102C6000BDE8F840D0E500BF500000202DE9F04F4E
:102C7000804C804665788BB0002D40F0EB800623B9
:102C80000026CDE90755DFF8F09109950DF10C0A02
:102C90008DF8243004F1800B002D00F08980012D87
:102CA0000CBF022304230AF8013B48FA05F3D807B6
:102CB0000BD50BEB85034946586A02F00BFE3146F3
:102CC000074602F0A5FF00B93E460135032DE3D1CA
:102CD00004250127D4F8D0900DF1100A5046674919
:102CE000FDF74EFE002083460246844694F8C93024
:102CF0000DF10C0E019348FA02F1C90713D5019B9F
:102D0000013043FA02F1CB07C0B253D5002F53D0A4
:102D100006F10041594B4AF8221012F80E1043F800
:102D200022C04BEA010B0132032AE4D102F07AFD02
:102D300001F0FAFA84F806B00146484602F0CAFDEE
:102D400007A907905046FFF7E7FD04222271FEF71E
:102D500085FCFDF709FAA7B1FDF70CFC002203A9D9
:102D600011F8016B16EA0B0F06D040FA02FC1CF0BA
:102D7000010F18BF2BEA060B0132032AF0D184F8A9
:102D800006B0FEF76BFC627D12F0340F65D0637DF8
:102D9000DE06D9B202D50620FDF76EFE880602D502
:102DA0000720FDF769FE4FB149070FD509200BE059
:102DB000012378E7002FABD03146ABE7FDF7DAFB14
:102DC00010EA080F02D00820FDF756FE94F8B93437
:102DD00033B1FDF75DFE0BB0BDE8F04FFFF7FABB76
:102DE0000420FDF73CFEFEF743FBB4F8D400FDF7EA
:102DF0005BFB97F0010735D02149D4F8D80002F0E9
:102E000069FD0646D4F8CC90013D15F0FF057FF42E
:102E100063AF1C4E06F5856748FA05F3DA0712D54D
:102E200094F8C930D6F800902B41DB07D4F8D800CD
:102E30001DD5716A02F046FC494602F04BFD01F0D7
:102E400009FA47F825000135032D06F10406E3D100
:102E5000002323710BB0BDE8F08F1BF0070F7FF448
:102E60007AAFC0E7D4F8D860D4F8D090CCE700F1BE
:102E70000040E1E7500000200000C0BFF80400203F
:102E80000000A040D00000202DE9F04FDFF8AC8218
:102E90004022002195B008F6886002F03DFF08F25C
:102EA000BC4303CB1A889B78C8F8890E88F8933EF8
:102EB00098F8323EC8F88D1E242BA8F8912E4FF0BA
:102EC000000340F05B82012688F88A3E032388F8DD
:102ED000896E0024DFF8689227462546CDE9034431
:102EE0008DF8333056E1009A413A192A01F22581D2
:102EF00001330DA90DF133008DF83330FEF740FAA0
:102F0000002801F01D81DDF834B0584601F0DAFBED
:102F100002F0E2FE5FFA80FA504602F087FC0146BA
:102F2000584602F0CDFB494602F0D4FC01F01CFAF1
:102F300002F0D2FE009B80B2472B1ED04D2B00F03A
:102F40006081009B463B142B00F28E80DFE813F07B
:102F5000A2018C008C00BE01C701D001D9018C00F8
:102F6000DE018C00E6018C00EB01F001F5018C0024
:102F70008C008C00010208020F02BAF13D0F75D8D7
:102F8000BAF1250F24D8BAF11E0F6DD8BAF1090F86
:102F900056D8BAF1030F64D8002D41F0D480022531
:102FA000BAF1260F88F889AE40F0EB80A0F1140347
:102FB0009BB21E2B58D8634A22FA03F3D90753D584
:102FC0000A23B0FBF3F3763B88F8893E01238AE0BD
:102FD000AAF12603172B47D801A252F823F000BF0D
:102FE000992F0008693000087B310008693000081B
:102FF000693000084931000869300008693000086C
:10300000693000086930000869300008493100085B
:10301000693000086930000869300008C7300008CE
:103020006531000865310008653100086531000828
:103030006531000865310008693000087131000809
:10304000AAF10A03142B0FD8DFE803F0380E0E0E96
:103050000E0E0E53535371710E0E0E0E0E0E380ED1
:103060003800BAF1040F2ED014234AE0AAF150031D
:10307000DAB20E2AF8D80E2BF6D801A252F823F0B5
:10308000A12F000869300008693000086930000885
:1030900069300008693000086930000869300008AC
:1030A000693000086930000807310008073100085E
:1030B000BD300008233100082331000818B9002D65
:1030C00041F0418001250AF0FD031C2B88F888AEF1
:1030D00002D0BAF15C0F52D108B10A28C4D1002342
:1030E000504488F8880E039A1A41D2074BD515230D
:1030F00007E00223AAF1110A88F88DAE0028F2D069
:1031000017230093AAE328B9AAF15A0A032388F8DF
:103110008CAEE8E70A28A7D1BAF15A0FA4D004234D
:10312000E1E7CAF15E0A052388F88AAEE6E7CAF14C
:10313000150A062388F88BAEE0E700BF5000002098
:103140000000C84201041040002D40F0FC87BAF195
:10315000310F02D00A2887D1012588F88E5E082316
:103160000325C0E7AAF1360A092388F88FAEC5E720
:1031700000287FF479AF0A23B5E70723BEE70023D1
:10318000BCE70123BAE7012202FA03F3039A1A43C8
:1031900093B203939DF8333008EB030292F8322E7A
:1031A0000092002A7FF49FAE17B1002D08BF0225C0
:1031B000A20605D5D8F8A82EB94B9A4200F3CF87BE
:1031C000002E00F0DD80E30740F1EC8098F88B3EA4
:1031D000012B06D1D8F8940EB24902F07BFBC8F857
:1031E000940EE2055CBFD8F8C834C8F8B43E98F82D
:1031F000883E042B40F0E880630600F1E2801C2347
:103200007FE700287FF47CAFBAF1090F18D8BAF134
:10321000070F32D8BAF1020F19D9AAF10303022B12
:103220003FF622AFBAF1040F24D0BAF1050A18BF55
:103230004FF0010A4FEA0A1A0C2288F892AE0DE00C
:10324000BAF11E0F7FF410AF88F890AE05E0BAF126
:10325000000F0BD0BAF1010FF6D10B22039B1341E3
:10326000DB073FF544AF012393408FE7032388F842
:10327000903EF2E74FF0200ADEE7BAF1090F18BFDF
:1032800098F8910E4FF00D0218BF40F0400088F8FA
:10329000910EE3E74FF0000AC8F894BE44FA0AF32F
:1032A000D80700F1568740F2613343FA0AF3D90791
:1032B00006D50021584602F0ABFC002840F04C87B0
:1032C000012303FA0AF323439CB263E7049B4FF004
:1032D000010A43F00103C8F898BE0493DEE7049B9B
:1032E0004FF0020A43F00203C8F89CBE0493D5E7EE
:1032F000049B4FF0030A43F00403C8F8A0BE0493F4
:10330000CCE788F8A4AE4FF0040AC7E7584602F0AD
:10331000BDFC4FF0050AC8F8A80EBFE74FF0060A3B
:10332000C8F8ACBEBAE74FF0070AC8F8B0BEB5E7B8
:103330004FF0080AC8F8B4BEB0E758465A4902F040
:1033400085FC002840F0028788F8B8AE4FF0090AE3
:10335000A4E74FF00A0AC8F8BCBE47F001079DE792
:103360004FF00B0AC8F8C0BE47F0020796E74FF0CF
:103370000C0AC8F8C4BE47F004078FE71E46A8E54C
:1033800098F88A3E012B0FD1022D7FF42AAF98F8CE
:10339000893E502B3FF425AF002B3FF422AFE007CE
:1033A0003FF51FAF1623ACE698F8BD34002B7FF431
:1033B00018AFE1073FF50AAFD8F8CC34C8F8943E0F
:1033C0000FE724F04004A4B298F88D3E019343B176
:1033D000012B45D00023089302230293012301937C
:1033E00003E0022308930123029398F88B3E012BFC
:1033F0003CD0032D06D198F88E3E012B02D1042F2C
:1034000040F0B086294A0EAB07CA83E80700039A4A
:10341000920553D4DFF8988098F8889EB9F10A0F86
:103420005DD0B9F15C0F00F0C580032D40F0F8804D
:10343000B9F11E0F00F03B81B9F1350F00F050815A
:10344000B9F11C0F40F0E48006201A49FFF742FA58
:10345000002842D0002F40F02D813D46059797E08F
:10346000019B0893002302930223B8E74FF0000961
:10347000DFF844A0DFF82CB047FA09F3D90706D5E6
:10348000DAF80000594602F025FACAF8000009F1FE
:103490000109B9F1030F0AF1040AEDD1A9E700BF50
:1034A000809698003333CB4100007F4334050020E1
:1034B00050000020E80E00200C0F002098F88F0E1E
:1034C000062801D91D231CE698F8C2248242A1D007
:1034D0001946FFF7FFF900289CD1072311E60FB921
:1034E0001A230EE614F0500F3FF489AED8F8AC0E54
:1034F00001F0E8F802F0F0FBC0B20628E2D898F834
:10350000A43E142B05D0022B7FF4AEAD23063FF56D
:10351000ABAD002848D00138C3B20593A049059847
:10352000FFF7D8F90028D8D04FF0000998F8A43E4A
:10353000DFF86C820693A8F6DC1A47FA09F3D9077C
:103540001AD5069BD8F824B0142B30D1DAF83410F1
:10355000DAF81C0002F0B4F8594602F0B1F8B9F1FB
:10356000020FC8F8000007D1DFF838B2DBF8FC140E
:1035700002F0A6F8CBF8A00E09F10109B9F1030F8A
:1035800008F104080AF1040AD7D124F05004A4B2C7
:10359000844B93F889BEBBF1500F40F0A880002FF8
:1035A00000F009811F23ACE598F88F3EB5E7C8F815
:1035B00000B0E1E7002F93D04FF0000908F2BC4BB8
:1035C0000DF1380A08F6BC6847FA09F3DA0722D584
:1035D0005AF82910DBF81C0002F072F8D8F8001035
:1035E00002F06EF8B9F1020FC8F8000007D16D4B78
:1035F000D3F8FC1402F064F86A4BC3F8C40E09F166
:103600000109B9F1030F0BF1040B08F10408DBD138
:1036100000230593BCE7DBF83430C8F80030EEE750
:10362000002F3FF405AF4FF0000A08F59B6B08F63A
:10363000BC6847FA0AF3DB070DD4DBF80030C8F8A2
:1036400000300AF1010ABAF1030F0BF1040B08F183
:103650000408EED1ECE6B9F1350FF2D0514BD8F8B1
:10366000002093F88C1ED1B90EA8DBF8181050F882
:103670002A00059202F026F8059A114602F022F877
:10368000BAF1020F0146474BC8F80000D9D1D3F870
:10369000FC0402F017F8434BC3F8C40ED1E71146FF
:1036A000DBF8000002F00EF8C8F80000C9E70720B8
:1036B0003B49CBE600233C4AA2F6CC1147FA03F083
:1036C000C0075EBF01EB830CDCF81CC002EB83007B
:1036D00003F1010358BFC0F810C0032BEED197E7E8
:1036E000304B93F8893E012B92D91E2309E5022D18
:1036F00061D1BBF1000F04D13D1E18BF01256D0043
:1037000059E00021D3F8940E02F078FA00287FF4F3
:1037100049AEBBF1030F05D048D8BBF1010FEBD088
:1037200046F00406002F3FF4DBAE0123019A03FAB2
:1037300002FA029A93404AEA030A17EA0A0F00F0D3
:103740001485DFF86080019B08EB8303D3F8D8145D
:10375000D3F8BC0E01F0B4FF029B069008EB830384
:10376000D3F8D814D3F8BC0E01F0AAFF14F08009E6
:10377000079000F0F2800C2208F6BC6108F59B600F
:1037800002F096FB00286DD12123BAE4ABF18D0342
:10379000022B00F26381DFE813F05F0161015F013A
:1037A000E80E002050000020D80E00200BF174031A
:1037B000DBB2032BEAD916F0010315BF24F0210474
:1037C00024F44874A4B224F0010415B124F4E054A4
:1037D000A4B2002C40F0D284CDE91244002B00F0BA
:1037E0005D81039B23F04903002B40F0CA84A54C64
:1037F00094F8883E352B02D0002B40F0C284D4F8D8
:10380000C83494F8C424129394F8C5349E4D1343DD
:1038100043F004038DF84C3094F8C830D4F8942E5B
:1038200013F0200F119205D02846FDF7E5F8002887
:1038300040F0AA84284611A9FFF7CEF9237843B9AE
:10384000FCF7DCFD28B120232370FDF707FFFCF710
:103850008BFC95E807008D4B83E80700009815B0B6
:10386000BDE8F08F98F88B3E012B06D1D8F8B00E4A
:10387000874902F02FF8C8F8B00E0699814B084628
:10388000D3F8B08E02F026F807998146084602F078
:1038900021F882464FF08141404602F01BF8414634
:1038A00002F018F8494601F00BFF514601F008FFFD
:1038B0000021049002F0ACF9002840F059840498EB
:1038C00000F032FD51460490484601F0FBFE00F046
:1038D0002BFD049B014603F1004002F0AFF8BBF161
:1038E000030F81464FF0000108BF00F10049404638
:1038F00002F08EF930B1634B08F1004809F100493C
:10390000C3F8B08E019B4946079803F1020801F005
:10391000E1FF0146069801F0D3FE4FF07C5101F023
:10392000D9FFDFF860A1029B0AEB8808C8F8900E67
:103930004946069803F1020801F0CCFF079901F00F
:10394000C1FE4FF07C5101F0C5FF24F080040AEB6A
:103950008808A4B2C8F8900E2DE7049B1AEA030F5A
:1039600000F0098498F88B3E24F00E04012BA4B2D9
:103970005AD0DFF81081019B069808EB8303D3F837
:1039800098AE514601F09CFE029B814608EB8302F3
:10399000D2F8983E07981946069301F091FE4946E1
:1039A0000490484601F096FF04998146084601F0CC
:1039B00091FF0146484601F085FE00F0B5FC5146F6
:1039C0008146504601F086FF069B824619461846FE
:1039D00001F080FF0146504601F074FE00F0A4FCA7
:1039E0000146C8F8B00E8246484601F069FE20F054
:1039F00000484046274902F029F900283FF4DBAE91
:103A00004FF07C51404602F021F900287FF4BCAE13
:103A10002149504601F05EFF0146404602F016F98A
:103A200000283FF4C8AEAFE6DFF864A008F6986857
:103A3000049B43FA09F3D80706D5D8F8000051468D
:103A400001F048FFC8F8000009F10109B9F1030FBE
:103A500008F10408ECD18CE746F010060BF1720374
:103A6000DBB2012B98BF46F00806002F3FF438ADBB
:103A700005490C22A1F6E41002F01AFA00287FF49E
:103A80009AAE81E6500000200C0F0020280500208F
:103A90003333CB410AD7A33B6F12833AA74C94F838
:103AA000C83099070DD50BF1FF33022B88BF46F0C4
:103AB0004006002F00F0DF80022D40F0DC8046F051
:103AC0008006D4F8A83EC4F8D43494F88A3E84F82A
:103AD000BD3413B108238DF84C30D4F8948ED4F84B
:103AE000B49ED4F8C8044946C4F8CC84CDF84480C8
:103AF00002F084F806F0400708B1B2060ED594F83B
:103B0000C50438B1330605D4002F00F0CA80002167
:103B1000FEF77AFED4F8B43EC4F8C83417B9D4F826
:103B2000C834129394F8B83E94F8920E84F8D034C6
:103B300094F8C534834206D01299FEF765FE94F8D6
:103B4000923E84F8C5349DF84C7094F8C53494F8CE
:103B5000919E1F4394F8C4348DF84C704B450BD0A4
:103B60002378022B04D0FEF71DFE4846FCF7CCFA62
:103B700094F8913E84F8C43494F8C4341F4394F804
:103B8000883E8DF84C70042B0AD12378022B07D085
:103B9000D4F8AC9EFEF706FE00214846FEF7F2FC84
:103BA00094F88D3E032D84F8C03494F88B3E84F84D
:103BB000BE3413D194F88E3E84F8C13413B9002377
:103BC000C4F8C43ED4F8C49ED4F8FC04494602F0BC
:103BD00015F818B9C4F8FC94FEF794FE94F88F3EDB
:103BE00094F8C2249A4208D084F8C234544B0EAAE6
:103BF00007CA83E80700FEF785FE94F88C3E84F838
:103C0000BF3494F8883E262B7ED04CD803F0FD02BA
:103C10001C2A64D00A2B4FD094F8893E502B84F88C
:103C2000BC340DD0022D0BD1012B7ED1454811A9FA
:103C3000FEF7D2FF444B03F6E41207CA83E80700FD
:103C40003E4C94F8903E84F8C334002B3FF406AE0B
:103C5000FEF7A8FD94F8C334032B237840F040828C
:103C6000022B04D00820FCF7E5FEFEF7B3FC00238E
:103C700084F8C334F2E594F8C534102B7FF421AFF7
:103C800094F8BC3406F04002013B022B05D8002A10
:103C90003FF417AF46F0200613E7002A7FF411AF78
:103CA000F8E7494634E75C2B33D0662B36D0282B17
:103CB000B2D10720244929E0244F05983946FEF760
:103CC000B5FD94F8C234059A9342A5D197E8070050
:103CD000A7F6B41383E80700FEF714FE9CE747F04D
:103CE00001078DF84C701DB1164811A9FEF774FF3D
:103CF000164F11A93846FEF76FFF97E80700A7F5A2
:103D00001C6383E8070087E706200F49FEF78EFD56
:103D100082E70F4B03F6CC1207CADBE700230C4AFD
:103D2000C4F8F034C2E90133D6E79BB99DF84C30B2
:103D300043F001038DF84C3078E700BF50000020BD
:103D4000340500200C0F002028050020E80E00207C
:103D500040050020023B012B00F27081974D019B32
:103D600005F51C674FEA830A05EB83030793019B64
:103D7000A24407EB83030993019BD4F8B09E57F844
:103D800023B055F82310584601F09CFC029B039089
:103D90009B000193029B0BF1004B05EB83030A93FD
:103DA000029B07EB83030B93029B57F8237055F894
:103DB0002310384601F086FC03990290DAF8BC0E15
:103DC00001F07EFC019B05462344D3F8BC0E02990A
:103DD00001F076FC29460446584601F07BFD07F1C8
:103DE000004782462146384601F074FD01465046A0
:103DF00001F068FC21468246584601F06BFD2946D9
:103E00000446384601F066FD0146204601F058FCA4
:103E1000514600F0A7FA7107044640F1C380684993
:103E200001F00AFF20B12046664901F049FC044632
:103E3000654B4946D3F8BC50484601F043FC29463F
:103E400001F03EFC294601F045FD00F06DFA4FF00F
:103E50007C510546204601F03DFD494601F03AFD02
:103E6000294620F0004001F0E9FD00F0ADFB01F033
:103E700033FF83B20193002B3FF4D8AE184601F014
:103E8000D5FC9DF84C600546320708D501464046F2
:103E900001F020FD26F0080611908DF84C602946AF
:103EA000204601F0CBFDDFF82081089B08F59B62DE
:103EB00002EB83030493089B089908EB830352F8F1
:103EC00021100446D3F8BC0E01F0FAFB294601F09C
:103ED000B5FD21460890204601F0FCFC01464FF05C
:103EE000804001F0EDFB39490546204601F0F2FC27
:103EF0004FF081410646284601F0E4FB014630467A
:103F000001F0E8FC4FF07C510590284601F0E2FCFE
:103F10004FF0000901250690019AABB29A427FF654
:103F200085AEB9F10C0F55D05946059801F0D2FC79
:103F300039460646069801F0CDFC0146304601F0B0
:103F4000C1FB59468246069801F0C4FC3946064634
:103F5000059801F0BFFC0146304601F0B1FB574621
:103F6000834609F101095FFA89F95946039801F07E
:103F7000A9FB079B39461860029801F0A3FB0A9B36
:103F800008991860049B0135186801F09BFB049B9D
:103F900011A918600948FEF71FFE98F80130002BA0
:103FA000BAD047E60A4901F03DFE00283FF440AF91
:103FB0002046044901F086FB39E700BF28050020B0
:103FC000BD3706B5DB0FC94050000020ABAA2A3E22
:103FD000BD370635284601F029FC214601F07AFC60
:103FE000074600F069F90646384600F031FB099BA8
:103FF00007461B68304603F1004A0B9B5146D3F835
:10400000009001F067FC49468346384601F062FCA7
:104010000146584601F056FB51468346384601F0AA
:1040200059FC49460746304601F054FC01463846E3
:1040300001F046FB4FF00009074696E79DF84C302B
:1040400043F004038DF84C302378022B3FF4F2AD9B
:10405000FEF7A8FB6378002B7FF4F2AD637184F860
:10406000313E03F180434A4803F5883311A99B6828
:10407000FEF7B2FD0123284684F8303EFCF7DAFC57
:10408000FEF7A8FA6378002B7FF4DAAD2378002BD3
:10409000F6D194F8303E012B1FD1F30619D53D4BD4
:1040A000A3F1580207CA83E80700002384F8303ED2
:1040B000FEF790FAFDF7DCF9FDF70EFAFCF7E4F9EC
:1040C000FCF77EFC6379002B3FF4B4ADFCF770FC89
:1040D000B6E50520FCF7D0FCE7E701236371E4E7D0
:1040E0000122A4F8BC2464220025E27146F2644255
:1040F000022B84F8C05484F8BF5484F8C254A4F846
:10410000C454228110D0284604F2E441FEF7E2FBB9
:1041100000283FF4E2A9FEF7F5FB28460021FDF751
:104120003BFA2846FBF7F0FF1B48FCF73DFA1B481B
:10413000FCF73AFAFCF7FEFA99E50123FEF7E1BF36
:104140000223FEF7DEBF1823FEF7DBBF2623FEF7B0
:10415000D8BF1923FEF7D5BF0423FEF7D2BF1B2318
:10416000FEF7CFBF2523FEF7CCBF2023FEF7C9BF44
:104170002223FEF7C6BF2323FEF7C3BF2423FEF787
:10418000C0BF1023FEF7BDBF0F23FEF7BABF00BFAD
:104190000C0F002050050020616E0008FB6E000827
:1041A00070B50024134E2046FEF70EFB80B986F84A
:1041B000320E3E20FBF7BCFFFDF74EF83A20FBF72E
:1041C000B7FF0720FCF7C0FB04B170BD0124EAE78C
:1041D00096F8323E002BF7D0FEF756FE05463E20FD
:1041E000FBF7A6FFFDF738F83A20FBF7A1FF2846BA
:1041F000E8E700BF5000002008B50F4A0F4B1048F9
:104200009A60104BC11EDA1C121A22F00302994266
:1042100088BF00220C4901F0D5FD0C4B0C48DA1C7C
:10422000121AC11E22F00302994288BF0022002107
:1042300001F072FD01F06AFE0000000800ED00E0F0
:1042400000000020500000201C70000854100020C6
:1042500050000020C0F3C7520028A2F17F0CACBF71
:1042600001214FF0FF31BCF11E0F08B510DCBCF18D
:10427000000F1BDBC0F31603BCF1160F43F4000361
:104280000BDD963A03FA02F202FB01F1084608BD83
:1042900001F0FCFC0146084608BD4FF4800242FADA
:1042A0000CF2CCF117001A44C240EDE7BCF1FF3F1D
:1042B00018BF0021084608BD1A4A20F00043934267
:1042C00019D900B5B3F1FF4F83B005D3014601F012
:1042D000F7F903B05DF804FB694600F01FFC00F03D
:1042E0000302012A11D0022A08D0AAB90199009824
:1042F00000F0A2F8EDE7002100F09EB801990098C7
:1043000000F09AF800F10040E3E70199009800F00E
:104310008FFB00F10040DCE701220199009800F0DA
:1043200087FBD6E7D80F493F38B5044601F002F9BC
:1043300021460546204601F093FC20B92046002185
:1043400001F066FC08B9284638BD01F035FD212290
:10435000034600211A60084601F070FB0546284616
:1043600038BD00BF00F0C8B908B5C0F3C7537F3BE4
:10437000162B014615DC002B02460BDB0B481841BF
:10438000084205D04FF480011941114421EA00018F
:10439000084608BD013300F00041F9D141F07E51DB
:1043A000F6E7802BF4D101F08DF908BDFFFF7F0007
:1043B0002DE9F041C0F3C7557F3D162D044620F08E
:1043C000004727DC002D804614DB194F2F4138426F
:1043D0001DD0184901F076F9002101F037FCB0B189
:1043E000002C03DD4FF400032B41984428EA07001A
:1043F000BDE8F0810F4901F065F9002101F026FCCC
:1044000028B1002C10DB6FB14FF07E5000E0204649
:10441000BDE8F081B7F1FF4FF9D3014601F052F941
:10442000BDE8F0810020F3E74FF00040F0E700BF67
:10443000FFFF7F00CAF249712DE9F84320F00046E2
:10444000B6F1485F054688464BD201F01FFC0028B4
:1044500000F0A1802946284601F03CFA0446504964
:1044600001F038FA4F4901F02DF9214601F032FAF6
:104470004D4901F025F9214601F02CFA4B4901F094
:1044800021F9214601F026FA494901F019F921469E
:1044900001F020FA474901F015F9214601F01AFA16
:1044A00007464FF07C51204601F014FA0346394686
:1044B00020461C4601F00EFA0346414628461D469A
:1044C00001F008FA0146284601F0FAF801462046B4
:1044D00001F0F6F801464FF07E5001F0F1F8BDE82A
:1044E000F883014601F0F6F904462D4901F0F2F98E
:1044F0002C4901F0E7F8214601F0ECF92A4901F0D6
:10450000DFF8214601F0E6F9284901F0DBF8214601
:1045100001F0E0F9264901F0D3F8214601F0DAF97B
:10452000244901F0CFF8214601F0D4F9224B074687
:104530009E42B6D9214B9E4229D806F17F4631468C
:104540004FF07E5001F0BCF8814620464FF07C5180
:1045500001F0C0F9314601F0B3F803463946204670
:104560001C4601F0B7F90346414628461D4601F0B6
:10457000B1F90146284601F0A3F80146204601F0B2
:104580009FF80146484601F09BF8BDE8F883DFF844
:1045900030900C4ED9E74FF07E50BDE8F88300BF55
:1045A0004ED747ADF6740F317CF29334010DD037FE
:1045B000610BB63AABAA2A3D9999993E0000483F53
:1045C0000000383F0000903E2DE9F041C0F3C75590
:1045D0007F3D162D044620F0004725DC002D804647
:1045E00014DB184F2F4138421BD0174901F06AF8ED
:1045F000002101F02BFBA0B1002C03DA4FF40003E3
:104600002B41984428EA0700BDE8F0810E4901F0EB
:1046100059F8002101F01AFB18B1002C0CDB002026
:1046200000E02046BDE8F081B7F1FF4FF9D3014625
:1046300001F048F8BDE8F08117B94FF00040F1E70C
:104640000248EFE7FFFF7F00CAF24971000080BF18
:104650001B4A20F0004393421AD900B5B3F1FF4F33
:1046600083B005D3014601F02BF803B05DF804FBDD
:10467000694600F053FA00F00300012814D0022824
:104680000AD0B0B901220199009800F0D1F9ECE705
:104690000022002100F0CCB901220199009800F01D
:1046A000C7F900F10040E0E701990098FFF7C4FE68
:1046B000DBE701990098FFF7BFFE00F10040D4E767
:1046C000D80F493F08B5C0F3C7537F3B162B0ADC10
:1046D000002B024600F0004004DB064941FA03F3D8
:1046E0001340184308BD802B0146FBD100F0EAFFC0
:1046F00008BD00BF000080FF70B521F00045B5F196
:10470000FF4F0A4603462CD820F00046B6F1FF4F73
:10471000844626D8B1F17E5F35D08C1704F00204B0
:1047200044EAD07416B33DB3B5F1FF4F33D0B6F1C0
:10473000FF4F21D0761BB6F1F45F4FEAE65028DA3E
:10474000002934DA3C3032DA0020012C40D0022C2F
:1047500036D02CB1254900F0B5FF254900F0B0FF57
:1047600070BD1946104600F0ADFF70BD022C08D098
:10477000032CF5D11F4870BDBCF1000F07DB1E48AC
:1047800070BD1B4870BDBDE8704000F03DB81B48CF
:1047900070BD1948D9E7B6F1FF4F04F1FF341AD0C4
:1047A000022C1ED8164B03EB8403D86870BD11464B
:1047B000184601F043F900F01BFB00F025F8C4E7B0
:1047C0000A4900F07FFF0146094800F079FF70BDFB
:1047D00000F1004070BD022C05D8094B53F82400AD
:1047E00070BD002070BD074870BD00BF2EBDBB333B
:1047F000DB0F4940DB0F49C0DB0FC93FDB0FC9BFEF
:10480000386A0008DB0F493F2DE9F04120F00045F0
:10481000B5F1A14F0446074608D3B5F1FF4F73D851
:10482000002840F381806F48BDE8F0816E4B9D42C7
:104830007DD8B5F1445F6CD34FF0FF382146204658
:1048400001F048F80146064601F044F8054667497C
:1048500001F040F8664900F035FF294601F03AF8CA
:10486000644900F02FFF294601F034F8624900F056
:1048700029FF294601F02EF8604900F023FF294660
:1048800001F028F85E4900F01DFF314601F022F8E2
:104890005C490646284601F01DF85B4900F010FF10
:1048A000294601F017F8594900F00AFF294601F09E
:1048B00011F8574900F004FF294601F00BF855495B
:1048C00000F0FEFE294601F005F80146304600F0F2
:1048D000F9FE214600F0FEFFB8F1FF3F014646D049
:1048E0004D4D05EB8803196900F0EAFE214600F002
:1048F000E7FE014655F8280000F0E2FE002F93DAAB
:1049000000F10040BDE8F081014600F0DBFEBDE8AB
:10491000F081424900F0D6FE4FF07E5101F096F949
:10492000002889D020467FE73D48BDE8F08100F0AF
:104930005FFA3C4B04469D421ED8A3F5D0039D422E
:104940003CD8014600F0BEFE4FF07E5100F0B8FEAC
:1049500003464FF0804120461C4600F0B3FE01465E
:10496000204601F06BF84FF00008044666E7204649
:1049700000F0A6FEBDE8F0812B4B9D4216D84FF00B
:104980007F5100F09DFE03464FF07F5120461C46AC
:1049900000F0A0FF4FF07E5100F094FE014620464B
:1049A00001F04CF84FF00208044647E701461F4863
:1049B00001F044F84FF0030804463FE74FF07E5102
:1049C00000F07EFE03464FF07E5120461C4600F06C
:1049D00079FE0146204601F031F84FF00108044607
:1049E0002CE700BFDB0FC93FFFFFDF3ED769853CE7
:1049F00059DA4B3D356B883D6E2EBA3D2549123E46
:104A0000ABAAAA3E21A215BD6BF16E3D95879D3DD7
:104A1000388EE33DCDCC4C3E506A0008CAF2497155
:104A2000DB0FC9BFFFFF973FFFFF1B40000080BFA8
:104A30002DE9F84320F00043B3F1485F04460E46E9
:104A4000904603D201F022F9002858D02146204692
:104A500000F040FF05462046294600F03BFF29496B
:104A60008146284600F036FF274900F029FE2946F6
:104A700000F030FF254900F025FE294600F02AFF0E
:104A8000234900F01DFE294600F024FF214900F0D3
:104A900019FE0746B8F1000F22D030464FF07C5186
:104AA00000F018FF39460746484600F013FF01465C
:104AB000384600F005FE294600F00CFF314600F0B4
:104AC000FFFD15490546484600F004FF014628460B
:104AD00000F0F8FD0146204600F0F2FDBDE8F88345
:104AE0000146284600F0F6FE0B4900F0E9FD494674
:104AF00000F0F0FE214600F0E5FDBDE8F883204619
:104B0000BDE8F883D3C92E2F342FD7321BEF3836A8
:104B1000010D50398988083CABAA2A3E2DE9F04F97
:104B2000A64A20F0004595420C4689B06FD9A44AA8
:104B3000064695421FD820F000450028A14925F0DF
:104B40000F0540F3148100F0BBFD9F4B06469D42CC
:104B500068D09E4900F0B4FD05463046294600F075
:104B6000AFFD9A4900F0ACFD012725606060384632
:104B700009B0BDE8F08F964A954263D9B5F1FF4F71
:104B80004AD2EF15863FA5EBC755284601F07EF8BF
:104B900000F04CFE01462846059100F091FD4FF0D3
:104BA000874100F097FE804601F070F800F03EFE6D
:104BB000054640462946069500F082FD4FF08741A4
:104BC00000F088FE0021079001F018F8002800F09E
:104BD000CA802846002101F011F8002814BF0123E3
:104BE000022302257B493A46019105A821460095FA
:104BF00000F002F9002E0746B9DAD4E9002302F1E9
:104C0000004203F10043226063604742AFE70022A5
:104C100020604A600027AAE7014600F051FD60606D
:104C20002060F7E76C4900F04BFD6C49064600F048
:104C300047FD05463046294600F042FD674900F031
:104C40003FFD91E700F0D4F86549804600F042FE50
:104C50004FF07C5100F036FD01F018F8074600F0E7
:104C6000E5FD5849834600F035FE0146404600F018
:104C700027FD56498246584600F02CFE1F2F8146DC
:104C80000146504622DC574B7A1E53F8222026F06C
:104C9000004323F0FF03934218D000F011FD80463B
:104CA00041465046C4F8008000F00AFD494600F035
:104CB00007FD002E6060BFF65AAF08F1004800F112
:104CC0000040C4F8008060607F4250E700F0F8FCCC
:104CD000C0F3C753C3EBD553EA15082B80460392A4
:104CE000DEDD3D49584600F0F5FD80465046414620
:104CF00000F0E6FC05465046294600F0E1FC41463E
:104D000000F0DEFC80463549584600F0E3FD4146A0
:104D100000F0D6FC81462846494600F0D1FC039AB3
:104D2000C0F3C753D21A192A80461EDD2E495846B1
:104D300000F0D0FD80462846414600F0C1FC824686
:104D40002846514600F0BCFC414600F0B9FC05463F
:104D50002649584600F0BEFD294600F0B1FC8146C8
:104D60005046494699E703233BE7AA4698E700F0F7
:104D7000A9FC154B06469D420FD0144900F0A2FC39
:104D800005463046294600F09BFC104900F09AFC8D
:104D90004FF0FF3725606060E9E60F4900F092FCB4
:104DA0000E49064600F08EFC05463046294600F0C6
:104DB00087FC0A4900F086FCEAE700BFD80F493FAC
:104DC000E3CB1640800FC93FD00FC93F434435376E
:104DD000800F4943F06A00080044353708A3852E48
:104DE00084F9223F706A000800A3852E32318D2499
:104DF00020F00040704700BF2DE9F04FDDB0C24CFD
:104E0000669D93469E46043203F1FF33804654F874
:104E100025A009910193C0F2B582BBF1030348BFFD
:104E20000BF10403DB1006930133DB000A930A9BAA
:104E3000069AABEB030303930EF1FF331AEB030760
:104E4000A2EB03051ED401372F443B4620AE374664
:104E500000241E46DDF89C91CDF800E008E059F8EA
:104E6000250000F0E3FC0135B54247F8040B07D0FC
:104E7000002DF4DA20460135B54247F8040BF7D18E
:104E8000DDF800E0A8F10403BAF1000F0293B8BF07
:104E90004FEA8E0837DBDDF8049020AA4FEA8E082F
:104EA00002EB8E0248AF0AEB0E01CDE907E8CDF820
:104EB00010A0CDF814B09246CB46B846009103EB53
:104EC0008E05B9F1000FB8BF00240FDB5746002450
:104ED000029E57F8041D56F8040F00F0FBFC014633
:104EE000204600F0EFFBAE420446F2D1009B0BF1EE
:104EF000010B9B4548F8044B0AF1040AE1D1DDE9B6
:104F000004ABDDE907E8029BD14603EB08050CABD7
:104F100003EB8A03043B07930CAB03EB8A03CDF846
:104F200010A09A46CDF82CB0CDF820E05CAB03EB96
:104F3000890353F850BCB9F1000F4FEA890300937D
:104F400022DD0DF590780CAF08EB03064FF06E51A3
:104F5000584600F0BFFC00F099FE00F067FC4FF0EF
:104F60008741044600F0B6FC0146584600F0A8FB15
:104F700000F08CFE56F8041D47F8040B204600F0A4
:104F8000A1FB46458346E1D1039F5846394600F0D0
:104F90003BFB4FF07851044600F09CFCFFF714FBFC
:104FA0004FF0824100F096FC0146204600F088FB5D
:104FB000044600F06BFE064600F038FC0146204631
:104FC00000F07EFB002F80463A4640F3818009F1D5
:104FD000FF300CAB53F82070C2F1080347FA03F11D
:104FE00001FA03F3FF1A0CAB43F82070C2F1070378
:104FF0001F41002F0E4400F312810021404600F0B3
:10500000FDFD002800F0BB80049B99450CDD0021CC
:10501000009B30336B4453F8042D534541EA0201A1
:10502000F9D1002940F01681049B0CAA013B52F8EB
:105030002330002B40F00A810123079951F8042DF9
:105040000133002AFAD04B4409F101060699089A67
:1050500001EB060808F18048679908F1FF384A44D7
:1050600001EB8808DDF8009020A901EB820748AA2F
:1050700091440093CDF814A058F8040F00F0D6FB2B
:10508000019B47F8040B002B1ADBBB460024DDF81C
:1050900008A05BF8041D5AF8040F00F01BFC014641
:1050A000204600F00FFBAA450446F2D1009B0136D2
:1050B000B34249F8044FDFDA9946DDF814A035E72A
:1050C0000024009B0136B34249F8044FD4DAF3E7D9
:1050D00040F08D8009F1FF330CAA52F82370FF11C4
:1050E000002F8ADDB9F1000F06F1010640F3F881C7
:1050F00000210CAB53F8044B002C74D0C4F5807421
:1051000043F8044C07E000BF086E00081A68C2F1BB
:10511000FF0243F8042B01318945F7DC0124039B8E
:10512000002B0FDD039B012B00F08580022B09D1A2
:1051300009F1FF310CAB53F821300CAA03F03F0307
:1051400042F82130022F7FF458AF41464FF07E5095
:1051500000F0B6FA8046002C3FF44FAF03994FF0B1
:105160007E5000F051FA0146404600F0A9FA804610
:105170000021404600F042FD00287FF445AFDDE904
:105180000A3B4046A3EB0B01DDF810A000F03CFA0F
:105190004FF08741044600F04FFD002800F0818168
:1051A0004FF06E51204600F095FB00F06FFD00F0CF
:1051B0003DFB4FF08741054600F08CFB0146204641
:1051C00000F07EFA00F062FD0CAB43F82900039B6F
:1051D00028460833039300F059FD09F101050CAB93
:1051E00043F825004EE00131894583DC97E74FF015
:1051F0007C5100F021FD074600283FF4FEAEB9F1D6
:10520000000FC8BF022706F101063FF771AF414604
:105210004FF07E5000F054FA02278046EDE6B9F1D7
:10522000000FD8BF002406F101063FF761AF039BD2
:10523000012B7FF47BAF09F1FF310CAB53F8213028
:105240000CAA03F07F0342F821307BE709F1010645
:105250003346FBE6DDE9033A09F1FF35A3F1080225
:105260000CAB53F82530039263B909F18043013B3D
:105270000CA901EB830353F8041D013D083A0029F2
:10528000F9D003924FF07E50039900F0BDF9002D44
:105290008346C0F22F816C1C0CAB03EB8409A10088
:1052A00000954FF06E584D46894648AB03EB840499
:1052B00055F8040D00F0BAFA594600F00BFB4146D0
:1052C00044F8040D584600F005FB0CAB9D428346A4
:1052D000EED14946A9F108034FF00009009D48AA04
:1052E00034AC13440196A6464E46A846994623463A
:1052F000CDE9024704950591BAF1000F74DB8C4D9E
:105300004FF0000B2F4600244D46009301E0B442BD
:105310000DDC55F8041F57F8040B00F0DBFA0146CA
:10532000584600F0CFF90134A2458346EFDA009BDE
:1053300008F1FF38B8F1FF3F43F804BB06F101065E
:10534000A9F10409D8D1DDE90164DDE90375669BA3
:105350000599022B4BDC002B19DC0ED1002034AB5D
:105360005C1854F8041D00F0ADF934AB9C42F8D140
:10537000002F40F0B280099B186006F007005DB076
:10538000BDE8F08F08230A93002306934FE54FF002
:105390000009484634AB03EB010A5AF8041D00F03B
:1053A00091F934AB9A45F8D181460146349800F022
:1053B00087F9002F40F08880099BC3F8009065B101
:1053C0004FF0010854F8041F08F1010800F07AF9C1
:1053D0004545F7DA0FB100F10040099B586006F02F
:1053E00007005DB0BDE8F08F4FF0000BA0E7669BB3
:1053F000032BC2D1002D00F08D8034AB03EB850B65
:10540000D94653F825404FEA8508009559F8045CC1
:105410002046294600F056F9A24604462846214671
:1054200000F04EF9514600F04DF934ABC9F80000D8
:1054300049F8044D9945E9D1009D012D6AD034AB5E
:1054400053F825401D1D5BF804AC2046514600F082
:1054500039F9A14604465046214600F031F9494643
:1054600000F030F9CBF800004BF8044D5D45EAD16F
:10547000002008F1040434AB1C4403F1080854F87C
:10548000041D00F01FF9A045F9D1349A359B87B966
:1054900009990A604B60886006F007005DB0BDE8BE
:1054A000F08F204600F0F2FB0CAB4D4643F829008C
:1054B000E8E6099902F1004203F1004300F10040DF
:1054C0000A604B608860E7E7099B09F10049C3F86F
:1054D0000090002D7FF474AF7DE700F100404AE7B3
:1054E000022F7FF48AAD01464FF07E5000F0E8F8BD
:1054F000804682E5669B022B08DC002B0CDC7FF4E7
:105500003CAF0020002F3FF436AFE6E7669B032B4D
:105510007FF433AF0020B8E734981FB90023099A0D
:1055200013605AE74FF00043099A136053E700BF36
:10553000146E000820F00042B2F1FF4FF8B50446A7
:105540004ED2002A43D00028034650DB10F0FF4221
:105550003ED0C1150024C3F31602A1F17F05CB078D
:105560004FF0190E4FF0807C214642F4000258BFE4
:1055700052006D10520001EB0C039342CFBF134653
:1055800003EB0C016444D31ABEF1010E4FEA43024F
:105590004FEA5C0CEFD1ABB11A4E3068716800F085
:1055A0008FF837680146384600F03CFB50B1306850
:1055B000716800F087F836680146304600F028FB35
:1055C000E0B10234601000F17C5000EBC550F8BD32
:1055D0005B001802114602F10102F9D54942B9E710
:1055E000014600F077F9214600F06CF8F8BD01465D
:1055F00000F066F8014600F021FAF8BD013424F00D
:105600000104DFE7406E000810B50C4630F00041A1
:1056100003461DD0B1F1FF4F1BD210F0FF4F0246E1
:105620001BD14FF0984100F055F9204A03469442AF
:105630002CDBC0F3C75102464CF250308442A1F13A
:10564000190110DD18461A4961F31E0000F042F9F5
:1056500010BD014600F036F810BD4CF250308442C7
:105660004FEAD151EEDC2144FE29EBDC002911DCAC
:1056700011F1160F13DB01F1190022F0FF424FF078
:105680004C5142EAC05000F025F910BD094900F024
:1056900021F910BD22F0FF4242EAC15010BD184668
:1056A000044961F31E0000F015F910BDB03CFFFF86
:1056B000CAF249716042A20D80F0004002E000BFD2
:1056C00081F0004142001FBF5FEA410392EA030FED
:1056D0007FEA226C7FEA236C6AD04FEA1262D2EB37
:1056E0001363C1BFD218414048404140B8BF5B423C
:1056F000192B88BF704710F0004F40F4000020F0D5
:105700007F4018BF404211F0004F41F4000121F0EA
:105710007F4118BF494292EA030F3FD0A2F1010234
:1057200041FA03FC10EB0C00C3F1200301FA03F172
:1057300000F0004302D5494260EB4000B0F5000F95
:1057400013D3B0F1807F06D340084FEA310102F154
:105750000102FE2A51D2B1F1004F40EBC25008BF06
:1057600020F0010040EA03007047490040EB0000D0
:10577000013A28BFB0F5000FEDD2B0FA80FCACF1D1
:10578000080CB2EB0C0200FA0CF0AABF00EBC250FE
:1057900052421843BCBFD0401843704792F0000FEC
:1057A00081F4000106BF80F400000132013BB5E73F
:1057B0004FEA41037FEA226C18BF7FEA236C21D0B5
:1057C00092EA030F04D092F0000F08BF084670471A
:1057D00090EA010F1CBF0020704712F07F4F04D1E8
:1057E000400028BF40F00040704712F100723CBFFB
:1057F00000F50000704700F0004343F0FE4040F425
:10580000000070477FEA226216BF08467FEA2363E2
:105810000146420206BF5FEA412390EA010F40F4CD
:10582000800070474FF0000304E000BF10F0004319
:1058300048BF40425FEA000C08BF704743F0964300
:1058400001464FF000001CE050EA010208BF70471B
:105850004FF000030AE000BF50EA010208BF7047A2
:1058600011F0004302D5404261EB41015FEA010CB7
:1058700002BF84460146002043F0B64308BFA3F1AF
:105880008053A3F50003BCFA8CF2083AA3EBC25391
:1058900010DB01FA02FC634400FA02FCC2F12002B0
:1058A000BCF1004F20FA02F243EB020008BF20F0E7
:1058B0000100704702F1200201FA02FCC2F120024D
:1058C00050EA4C0021FA02F243EB020008BF20EA42
:1058D000DC7070474FF0FF0C1CEAD0521EBF1CEA70
:1058E000D15392EA0C0F93EA0C0F6FD01A4480EA5E
:1058F000010C400218BF5FEA41211ED04FF0006347
:1059000043EA501043EA5111A0FB01310CF0004072
:10591000B1F5000F3EBF490041EAD3715B0040EA98
:10592000010062F17F02FD2A1DD8B3F1004F40EB68
:10593000C25008BF20F00100704790F0000F0CF03B
:10594000004C08BF49024CEA502040EA51207F3AFF
:10595000C2BFD2F1FF0340EAC250704740F40000DA
:105960004FF00003013A5DDC12F1190FDCBF00F0CB
:1059700000407047C2F10002410021FA02F1C2F179
:10598000200200FA02FC5FEA310040F1000053EA15
:105990004C0308BF20EADC70704792F0000F00F063
:1059A000004C02BF400010F4000F013AF9D040EA69
:1059B0000C0093F0000F01F0004C02BF490011F4FD
:1059C000000F013BF9D041EA0C018FE70CEAD153FB
:1059D00092EA0C0F18BF93EA0C0F0AD030F0004C7B
:1059E00018BF31F0004CD8D180EA010000F000402F
:1059F000704790F0000F17BF90F0004F084691F0ED
:105A0000000F91F0004F14D092EA0C0F01D1420226
:105A10000FD193EA0C0F03D14B0218BF084608D1EF
:105A200080EA010000F0004040F0FE4040F4000039
:105A3000704740F0FE4040F4400070474FF0FF0CCC
:105A40001CEAD0521EBF1CEAD15392EA0C0F93EA13
:105A50000C0F69D0A2EB030280EA010C49024FEA65
:105A6000402037D04FF0805343EA111143EA10131E
:105A70000CF000408B4238BF5B0042F17D024FF4D6
:105A8000000C8B4224BF5B1A40EA0C00B3EB510FB1
:105A900024BFA3EB510340EA5C00B3EB910F24BF9A
:105AA000A3EB910340EA9C00B3EBD10F24BFA3EB1F
:105AB000D10340EADC001B0118BF5FEA1C1CE0D1E7
:105AC000FD2A3FF650AF8B4240EBC25008BF20F09A
:105AD000010070470CF0004C4CEA50207F32C2BFEE
