:020000040800F2
:1000000058140020B9430008B9100008C1100008B6
:10001000C9100008D1100008D91000080000000025
:10002000000000000000000000000000B9100008FF
:10003000B910000800000000B9100008B50B000856
:10004000000000000000000000000000B9100008DF
:100050000000000000000000691300088113000880
:1000600099130008B1130008C9130008B91000085B
:10007000B9100008B9100008B9100008B91000083C
:10008000B9100008B9100008B9100008B91000082C
:10009000B9100008B9100008B9100008E1130008F1
:1000A000B9100008B9100008B9100008B91000080C
:1000B000E11000083D130008B9100008B91000084D
:1000C000B9100008B9100008B9100008B9100008EC
:1000D000B9100008D90D0008B9100008B9100008BF
:1000E000B9100008B9100008B9100008054B586392
:1000F0001A6A18B922F001021A62704742F001022E
:10010000FAE700BF002C0140084B5A786AB910F09A
:10011000400F14BF4FF400514FF0005102F18042E4
:1001200002F5883211610022DA7270475000002017
:1001300010B50B4A117D4B1CDBB2692B08BF0023A5
:10014000947D9C4208D011441375064AC875D36843
:1001500043F08003D36002E0547DE406F0D510BD87
:100160005000002000380140104A92F8C83013F0C7
:10017000040F14BF40214FF480010D4B1961482139
:1001800092F8043182F8EA3092F8B030023B83FBF7
:100190000131DB0843EA41735B4282F8E9304FF0FA
:1001A0008042D36843F00103D360704750000020C1
:1001B00000080140002330B5164A92F8B10092F8C9
:1001C000B24082F8043182F8053140FA03F1CD07DC
:1001D00009D5D3B1012B0CBF0221042192F804519F
:1001E000294382F8041144FA03F1CD0709D573B10C
:1001F000012B0CBF1021202192F80551294382F8D0
:1002000005110133032BE0D130BD0121E6E70821C0
:10021000F2E700BF5000002038B50A4CD4F808516E
:1002200075B194F80D31D4F8281143F0010384F826
:100230000D31084605F030FC00236861C4F8083130
:1002400038BD00BF500000202DE9F04F00276A4D57
:1002500085B095F8443195F84541BB4214BF9846A6
:100260004FF0100808F1FF385FFA88F84445009312
:100270007BD0342606FB0859D9F86411D9F860A15F
:10028000084605F001FBD9F8681105F005FC814628
:100290000146504605F09EFD00B1D14606FB08F62A
:1002A000B8F1000F05EB0603C3F85C9114BF434699
:1002B0001023013B5FFA83FA5445DFF840813BD0BD
:1002C00008EB060301933423BAF1000F03FB0A8302
:1002D000564608BF4FF0100ADDF804B095F88824A0
:1002E00001930AF1FF335FFA83FA524501D1FFF718
:1002F00093FF342303FB0656D6F86091D6F85C01D1
:10030000494605F05DFDA0B9D6F86411084605F030
:10031000BBFAD6F8681105F0BFFBDBF8141005F046
:10032000B3FA83460146484605F072FD00B3C6F8AD
:100330005CB15445C7D105E095F88834A34201D19A
:10034000FFF76AFF4FF0340909FB048B01345FFAB1
:1003500084FABAF1100F08BF4FF0000A0024009B86
:10036000534508D10CB185F8457105B0BDE8F08F53
:10037000C6F85C91DDE709FB0AF608EB0603039378
:10038000DBF814302E440193D6F85C3101981946FD
:10039000029305F01FFDA8B1DBF81C10084605F01C
:1003A00073FADBF8201005F077FB019905F06CFA81
:1003B00083460146029805F02BFD18B157460124EB
:1003C000C6F85CB109FB0A52D2F86011D2F85C01A0
:1003D00005F0F6FC0AF10103002818BF57465FFA42
:1003E00083FA18BF0124BAF1100F08BF4FF0000ABA
:1003F000DDF80CB0B3E700BF5000002098010020EA
:10040000064890F8882490F8441191421DBF342387
:1004100000F5A47003FB020000207047500000208C
:1004200038B5437C0446DA07C56A14D5154B187AEB
:1004300005F0DEFA144905F02FFB294605F02CFBE8
:1004400004464FF07E51204605F0E2FC08B94FF01B
:100450007E54204638BD5B070BD40A4BD87905F093
:10046000C7FA094905F018FB0146284605F014FBB8
:100470000546A46A2946204605F0ACFC0028E0D1D8
:100480002C46DEE7500000200AD7233C064BD3F869
:10049000A824C3F88C24D3F8AC24C3F89024D3F850
:1004A000B024C3F89424704750000020064B00B9D4
:1004B0007047D3F8B414D3F8B424914202D0013871
:1004C00080B2F4E700BFF6E7500000204FF0804311
:1004D000DA6810B522F00102DA600022124C9A624A
:1004E00094F8B30084F8B824FF28227811D194F846
:1004F000B91401F0FF0361B9802A0CD094F8C82028
:10050000520748BF83F00103084A53B140231361E7
:1005100010BD042A03D0FFF7C9FF0123EEE7002333
:10052000ECE74FF48003F2E75000002000080140A0
:100530002DE9F8430746884600244FF000090D4E88
:1005400058F824504946284605F03AFC60B9294637
:1005500057F8240005F054FB20F0004531462846AA
:1005600005F056FC00B92E460134032CE8D1304684
:10057000BDE8F8839976967E0C4B0D4A9B6892F8FD
:10058000C82003F00703510658BF83F0070353B197
:1005900003F001009A0748BF40F002005B0703D553
:1005A00040F0040070471846704700BF000C01403F
:1005B0005000002010B5044614F8010B00B910BD1E
:1005C000FFF7B6FDF8E7632838B51CD90A22B0FB5F
:1005D000F2F302FB13003030C4B2D8B20A22B0FBEF
:1005E000F2F302FB13003030C5B2D8B23030C0B2E3
:1005F000FFF79EFD15B12846FFF79AFD4CB1204646
:10060000BDE8384094E509284FF00004E6D82546B7
:10061000ECE738BDF0B50D4685B00021044605F085
:10062000D9FB20B12D20FFF783FD04F100442E46B5
:100630002C4F012E33D86B08C3EBC31305EB4303D8
:10064000DBB223B12046284905F026FA04464FF0D4
:100650007C51204605F018F905F0FAFB00240A2326
:10066000611CE4B218BB2E1BF6B2A54238BF0026AF
:100670000DEB0400344432463021E4B205F02EFC88
:10068000A54207D1302205F110036C1C6B4403F81E
:10069000102CE4B20DEB0406BCB905B0F0BD204649
:1006A000394605F0F9F9023E0446F6B2C1E704F115
:1006B00010020DEB0204B0FBF3F203FB120030302A
:1006C00004F8100C10460C46CAE7AC4202D12E20AA
:1006D000FFF72EFD16F8010D013CFFF729FDE4B2EE
:1006E000DAE700BF0000C8420000204108B5074B10
:1006F00093F8C830DB0706D5054905F0CDF904218C
:10070000BDE8084086E70321FAE700BF500000205B
:100710008B42213D08B5064B93F8C81011F001013A
:1007200003D0044905F0B8F90121BDE8084071E79C
:10073000500000208B42213D0022094B83F8BA244F
:1007400093F9C820002AA4BF012283F8BA2428B153
:1007500093F8BA2482F0010283F8BA24704700BFEC
:1007600050000020004825E7DD70000808B55D2036
:10077000FFF7DEFCBDE80840F4E710B5044600686A
:10078000FFF7B4FF2C20FFF7D3FC6068FFF7AEFF44
:100790002C20FFF7CDFCA068BDE81040A6E738B5D7
:1007A00005460C462420FFF7C3FC2846FFF70BFF45
:1007B0003D20FFF7BDFCE0B2FFF705FFBDE8384084
:1007C000D0E770B506460C4615462420FFF7B0FC6E
:1007D0003046FFF7F8FE3D20FFF7AAFC29462046E9
:1007E000FFF718FFBDE87040BCE72DE9F8435A4C0D
:1007F000002094F8B010FFF7D2FF012094F8B31056
:10080000FFF7CDFF022094F8B110FFF7C8FF0320D7
:1008100094F8B210FFF7C3FF94F8C8100420C1F396
:100820008001FFF7BCFF94F8C8100520C1F38011C8
:10083000FFF7B5FF94F9C8100620C90FFFF7AFFF07
:100840000A2094F8B410FFF7AAFF03220B20D4F873
:10085000B810FFF7B6FF03220C20D4F8BC10FFF746
:10086000B0FF94F8C8100D2001F00101FFF797FFC9
:1008700094F8C8101420C1F34011FFF790FF94F8CA
:10088000C8101520C1F3C001FFF789FF94F8C81004
:100890001620C1F30011FFF782FF172094F8C9104A
:1008A000FFF77DFF03221820D4F8CC10FFF789FF53
:1008B00003221920D4F8D010FFF783FF1A20B4F8D0
:1008C000D410FFF76CFF03221B20D4F8D810FFF7D9
:1008D00078FF00221E20D4F8C010FFF772FF00221C
:1008E0001F20D4F8C410FFF76CFF94F8C810202024
:1008F000C1F34001FFF753FF00276425DFF85C9048
:100900002C4605F10308164E5FFA88F8022F17D01F
:10091000032F1CD00322012F14BF3168F168204639
:100920000134E4B2FFF74DFF444506F10406EDD172
:100930000A35EDB28C2D07F10107E1D1BDE8F8834E
:100940004946B06905F05CF903220146E7E7716AA0
:100950003A4601F10041E2E7500000200000614505
:10096000D000002010B504460448FFF723FE2046BF
:10097000FFF729FEBDE81040F4E600BF087000084C
:1009800008B9014816E6EDE70F700008094B9868B2
:10099000C043C3B210F078000AD0C3F30010400087
:1009A0001A0748BF40F001009B0648BF40F0040012
:1009B000704700BF000C01402DE9F041094F0E1FA8
:1009C000051F01F1080457F8048B56F8040F05F0D1
:1009D0000FF8414605F014F9A64245F8040FF2D18C
:1009E000BDE8F081D0000020024800F5956100F5D7
:1009F0009B60E1E7500000201FB50B4C0B48FFF750
:100A0000D9FD04F5A06101A8FFF7D6FF01A8FFF703
:100A1000B4FE3A20FFF78CFB6079FFF7D4FD04B0F9
:100A2000BDE81040A2E600BF50000020147000088E
:100A30002DE9F0414FF000080B4E051F00F10804AE
:100A400055F8047F4146384605F0E2F948B9384682
:100A500056F8041F05F0BEF918B9A542F0D1BDE85B
:100A6000F0810120FBE700BFF0000020EFF31081D0
:100A700072B6034A537D1843507581F3108870474E
:100A80005000002008B5FFF7BBFC18B1BDE80840D6
:100A90000220EBE708BDEFF3108172B6034A537DE5
:100AA00023EA0000507581F3108870475000002041
:100AB000EFF3108372B6034A82F8B90483F3108807
:100AC000704700BF5000002010B5134C637DDB065B
:100AD00020D41020FFF7CAFF104A136A23F0010345
:100AE00013624FF000520E4B1A612278237902F004
:100AF0002C0103F006030B430CD0042A08D194F810
:100B0000B93413B90620FFF7D3FFBDE81040DDE488
:100B10000320F8E710BD00BF50000020002C01406A
:100B20000010014010B5FFF731FF044688B1C1073E
:100B300001D5FFF7C9FF620741BF064A537D43F065
:100B400002035375A30741BF024A537D43F00803D4
:100B5000537510BD5000002008B5074B1A78012AC4
:100B600008D093F8B9342BB9FFF7AEFFBDE80840C1
:100B700001209DE708BD00BF50000020EFF3108169
:100B800072B6044A92F80C35184382F80C0581F3CA
:100B90001088704750000020EFF3108172B6044AAD
:100BA00092F80D35184382F80D0581F310887047CF
:100BB00050000020034AD2F8B4340133C2F8B434F0
:100BC000704700BF50000020184B1A6842F4803272
:100BD0001A601A689103FCD55A6822F474125A609C
:100BE0005A6842F4E8125A601A6842F080721A6039
:100BF0001A689201FCD512210D4A11605A6822F43C
:100C0000E06242F480625A605A6822F460525A608C
:100C10005A6822F003025A605A6842F002025A608F
:100C20005A6802F00C02082AFAD1704700100240FC
:100C30000020024010B50F24072988BF0430890026
:100C4000036801F01C018C4023EA04038A4013432B
:100C5000036010BDF8B505460E460024012707FACB
:100C600004F3334204D003222846E1B2FFF7E2FF47
:100C70000134102CF3D1F8BD38B54FF4807117480A
:100C8000FFF7E8FF164A174C9369174D43F40063CA
:100C900093610023FF222360A362E2626822A261C3
:100CA0004FF4004223626264636301234FF40051F6
:100CB00023600E48FFF7CEFFD5F8C410D5F8C0006A
:100CC00004F0E0FD01460A4804F09AFF236AC5F8E3
:100CD000100523F00103236238BD00BF0008014066
:100CE00000100240002C014050000020000C014088
:100CF00000007E43F8B505460E460024012707FA9A
:100D000004F3334204D004222846E1B2FFF792FFF5
:100D10000134102CF3D1F8BD2DE9F04105460E4603
:100D200000244FF0010808FA04F7374205D00822E2
:100D30002846E1B2FFF77EFF2F610134102CF2D17B
:100D4000BDE8F081204A38B59369204C43F01D037B
:100D5000936120460721FFF77DFF4FF4E0232046F3
:100D600023613821FFF776FF4FF46013204623619B
:100D70004021FFF76FFF4023236104F580640721C2
:100D80002046134DFFF7C8FF78212046FFF7C4FF28
:100D900001212846FFF7C0FF4FF440512046FFF7DE
:100DA00059FF4FF040534FF4005123612846FFF79D
:100DB00051FF084AD2F8043823F00F0343F00B0325
:100DC000C2F8043838BD00BF0010024000080140DE
:100DD0000010014000000140424B10B51A68900617
:100DE00026D55868C3B23F2B39D010F0C00F19D1A7
:100DF000182B1BD0212B36D0010660D5843B1C2B31
:100E000016D8DFE803F0323415151515151515152C
:100E100015153A3E40424446484A154C50525456E5
:100E200058155A007E2BE7D1022019E0FFF74CFE3F
:100E30002C4A13681B0611D52B498B7DC81801332A
:100E4000DBB2692B08BF0023C07D50608B75097D24
:100E5000994202BFD36823F08003D36010BD012004
:100E6000FFF704FEE4E70820FAE72020F8E71E4B2E
:100E70001B789A06DCD54020F2E70120FFF77EFEC2
:100E8000D6E70220FAE70420F8E70820F6E710206A
:100E9000F4E72020F2E74020F0E78020EEE7012091
:100EA000FFF77AFEC4E70220FAE70420F8E70820FB
:100EB000F6E71020F4E72020F2E74020F0E70A4AA6
:100EC00092F8141592F815454B1CDBB2812B08BF24
:100ED00000239C421EBF891881F8160582F814353C
:100EE000A6E700BF0038014050000020064A074B2B
:100EF000074913F8010B8B4202F8010BF9D10122CB
:100F0000044B83F8972D7047E705002000F8000890
:100F1000000001085000002038B5074C054694F841
:100F2000973D0BB9FFF7E2FFB5F5006F36BF6419C7
:100F3000FF2094F8970538BD500000202DE9F843B4
:100F400004460E461546002700EB0208A1EB0009F7
:100F500004EB0900FFF7E0FF002F0CBF0346431C22
:100F600004F8010BA045DFB2F2D17019FFF7D4FFEE
:100F7000C31B58425841BDE8F88370B5094C06467A
:100F800094F8973D0D460BB9FFF7B0FFB6F5006F2B
:100F900006D2344494F89735AB4218BF84F897557D
:100FA00070BD00BF500000202DE9F84306460C46F6
:100FB0001546002701EB0208A0EB010904EB09002C
:100FC00014F8011B002F0CBF0B464B1CDFB2FFF7C0
:100FD000D4FFA045F2D139467019BDE8F843CCE7FB
:100FE00008B50A210020FFF7C8FFBDE808405C22D1
:100FF00001200149D8E700BFD000002008B5FFF765
:10100000E3FD4FF0E023D3F8FC2D0C4942F0807251
:10101000C3F8FC2D00224A60086840F00100086017
:101020000749596107219A611961064BC3F8B42435
:10103000FFF788FEBDE8084058E700BF001000E059
:101040003F190100500000208FB572B67022164B78
:101050004FF000571A614FF080724FF400561A613A
:101060000023124C124DDFF84CC00022276101937F
:101070000199A9420FD9266102930299A9420ED97A
:1010800001329042F2D10393039A6245EDD8039A5C
:1010900001320392F8E7019901310191E8E70299E1
:1010A00001310291E9E700BF000801400010014052
:1010B0003F0D03007F841E00092008B5FFF7C4FF21
:1010C000012008B5FFF7C0FF022008B5FFF7BCFFFD
:1010D000032008B5FFF7B8FF042008B5FFF7B4FFF9
:1010E00038B54FF0804000238E4C036194F8B8343B
:1010F000002B40F004818C4A94F8EB30D16803F067
:10110000380321F038010B43D360D36894F8EA1018
:1011100023F007030B43D36094F8E920834B42F498
:101120007F425A621A6842F001021A60012384F871
:10113000B83462B6D4F80051002D4AD194F8983DE5
:1011400094F8992D9A4200F0DB8094F8983D04F6CB
:101150009A5101EBC301DA0004EBC303C4F8001198
:10116000B3F89C1DC162B3F89A1D93F89E3DA4F894
:10117000F81094F8FA10994210D0142084F8FA303C
:10118000434304F6CC5119442344D3F8D83DC4F862
:10119000FC105B08C4E93833C4F8DC30D4F8FC1028
:1011A00094F805010B7C434084F8EB30A31893F8C6
:1011B0009F0D0A68C240C4F8EC204A68C240C4F8D7
:1011C000F0208A68C24093F8A00DC4F8F420FEF71E
:1011D0008DFF94F8303E012B14D1554B94F8BA246E
:1011E0009B6803F001039A420CD0002384F8303E40
:1011F000504BA3F1580207CA83E80700637D43F010
:10120000400363750023D4F8EC2084F8EA30D4F866
:10121000FC10D4F8DC301344CA68C4F8DC309342C4
:101220000FD901209B1A84F8EA00087CC4F8DC304E
:10123000D4F8A83405074CBF03F1FF330133C4F8D9
:10124000A834D4F8E030D4F8F00003449A42C4F84B
:10125000E03012D294F8EA009B1A40F0020084F8C1
:10126000EA00087CC4F8E030D4F8AC34C0064CBFC7
:1012700003F1FF330133C4F8AC34D4F8E430D4F8CC
:10128000F40003449A42C4F8E43012D29B1A0A7C58
:1012900094F8EA00C4F8E430D4F8B034920640F090
:1012A00004004CBF03F1FF33013384F8EA00C4F8B3
:1012B000B0342378042B01BFA37994F8EA201340BB
:1012C00084F8EA30B4F8F830013B9BB2A4F8F83067
:1012D0005BB994F8982DC4F800310132D2B2062AD5
:1012E00084F8982D08BF84F8983D94F8EA3094F873
:1012F0000421534084F8EA30002384F8B83438BD20
:10130000FFF7E4F8D4F8FC305B7C2BB10A4B5D634B
:101310001A6A22F001021A620420BDE83840FFF781
:10132000A5BB00BF500000200008014000040040A1
:101330000010014050050020002C01400022074B06
:10134000074908481A61CA6890F8040160F302026C
:10135000CA601A6822F001021A6070470004004057
:101360000008014050000020044B5A69D20703D501
:1013700001225A61FFF7F0BB704700BF0004014033
:10138000044B5A69920703D502225A61FFF7E4BB66
:10139000704700BF00040140044B5A69520703D54F
:1013A00004225A61FFF7D8BB704700BF0004014018
:1013B000044B5A69120703D508225A61FFF7B2BBE2
:1013C000704700BF00040140044B5A69D20603D5A0
:1013D00010225A61FFF7A6BB704700BF000401400E
:1013E000044A536913F0600302D05361FFF79ABBBC
:1013F000704700BF0004014010B5044C14F8010B05
:1014000000B910BDFEF794FEF8E700BF810E002082
:10141000274A2DE9F04F9369012643F001039361B8
:101420004FF00F0C00234FF4807E4FF40008214C46
:10143000214F06FA03F919EA000F03F1010532D032
:1014400003F0FC0202F1804202F5803203F0030156
:10145000D2F808A089000CFA01FB2AEA0B0AC2F8AC
:1014600008A0D2F808A006FA01F141EA0A01916049
:101470002268042B49EA02022260A26849EA0202B9
:10148000A260E26849EA0202E26005D8063306FA81
:1014900003F33B602B46CCE7092B02D8C7F800804A
:1014A000F8E7C7F804E0102D2B46C2D1BDE8F08F55
:1014B000001002400004014000E100E010B50023EC
:1014C0000124074904FA03F0420718BF0A6803F130
:1014D00001031CBF82430A60102BF3D110BD00BF73
:1014E0000004014008B507210948FFF703FC072164
:1014F0000748FFF711FC074B93F8C8301B0703D5CB
:10150000BDE80840072083E7BDE80840D6E700BFF4
:10151000000C0140500000202DE9F84FDFF8D88082
:101520000378074608EB030218F8033089462D2B91
:1015300019D14FF0010A5378961C00210A460D4636
:101540000846303BDBB2092B1AD80132D2B2082A46
:1015500011D809B1013D6DB200EB800003EB4000F2
:1015600016F8013BEDE72B2B4FF0000A0ABF53782A
:10157000561C961CE1E70029F2D101356DB2EFE768
:10158000FE2B02D109B90121EAE7E2B104F02CFAFD
:101590000021044604F014FC48B9DFF860B06B1C6D
:1015A00014DB1BD12046164904F076FA0446BAF142
:1015B000000F01D004F100440122A6EB0806013E11
:1015C000C9F800403E701046BDE8F88F20465946E5
:1015D00004F062FA023504466DB2E0E7002DE6D071
:1015E000DFF820B02046594604F056FA013D6DB2AE
:1015F0000446002DF6D1DAE7810E00200AD7233CFD
:10160000CDCCCC3D0000204110B5174CFEF75EFF5D
:101610003822002104F5867004F060FC00212822A5
:1016200004F1DC0004F05AFC0023012284F8983D08
:10163000C4F8083184F8993D84F8812E84F8B834D0
:10164000FEF7B8FD94F80511084A84F8EB10D3684A
:1016500094F8040123F007030343D360D36823F015
:1016600038030B43D36010BD500000200008014038
:1016700010B5094C1C22002104F28C4004F02EFC11
:101680000023012284F8883484F8443184F8822EBF
:1016900084F8453110BD00BF500000202DE9F04115
:1016A000214C0546D4F8C460D4F8C07030463946A1
:1016B00094F8098004F0A2FB70B9404604F098F950
:1016C0001A4904F0E9F9294604F0E6F9054601460D
:1016D000384604F089FB18B1FF202761BDE8F0818E
:1016E0002946304604F08AFB58B10027284639467F
:1016F00004F066FB10B100202761EFE701202661AE
:10170000ECE731462846256104F0BCF8D4F8101502
:1017100004F0C2F903F03AF84FF07E5104F0B4F847
:1017200004F0BCFBC0B2D9E7500000200AD7233C2C
:1017300010B5124C0346627808464AB94BB90023EB
:101740000F4A2361136A23F0010313620023E3723B
:1017500010BD102B0CBF4FF000514FF40051094A3F
:10176000116194F8C820920702D5202B08BF0020F1
:10177000FFF794FFFEF7BAFCE8E700BF5000002037
:10178000002C0140000C01402DE9F84300250446DF
:10179000A946061F00F1080856F8047F4946384656
:1017A00004F00EFB40B93946384604F075F901469D
:1017B000284604F069F805464645EDD1284602F072
:1017C00095FE064601464FF07E5004F019FA054694
:1017D0000146206804F060F929462060606804F042
:1017E0005BF929466060A06804F056F9A0603046B5
:1017F000BDE8F8832DE9F04FB04B8DB01B79DC07C5
:1018000000F1EE80DFF8B4A29AF8813E9AF8982DA4
:1018100008939A4200F0E4809AF80430DAF808213C
:101820000193002A53D113F0040500F0D180342134
:101830009AF844210AF5A47601FB0266CAF8086109
:101840009AF80D41019B14F001079AF80C2103F05E
:10185000020800F0C88000228AF80D210023D6F883
:101860001CB04FF07C505946CAF8243104F0C8F936
:10187000346A074608F0FF02B8F1000F00F0268135
:1018800002228AF820217569294604F005F90146EB
:10189000204603F0F7FF0021064604F09BFA0028DB
:1018A00000F005815946584603F0EEFF214604F04A
:1018B000F3F80146284603F0E5FF02F017FECAF8E8
:1018C0003001019B7D4A43F0080982F804909AF8A0
:1018D000993D9AF80C110AEBC3020793DAF8083124
:1018E00082F89E1D00931B6ADAF81C1118460493B7
:1018F00003F0C8FF0021099004F06CFA08B100233E
:101900000993DAF83431DAF82CB10193DAF8383186
:10191000019819469AF82081DAF82851059304F0C5
:101920004FFA002800F09A814FF002030027DBB243
:101930000B93624BBA46D3F82421D3F83031604C74
:101940000A930023DDF81090029203930694B8F1F5
:10195000010F00F01282B8F1030F00F08281B8F19C
:10196000000F00F0D181009B2046D96904F094F863
:101970002946074604F02EFAB0B14FF07C513846A4
:1019800004F08AF80146284603F07CFF214604F063
:1019900083F80146484603F075FF0299064604F0B5
:1019A00037FA002840F0AB810299484603F06AFFFD
:1019B000014603F069FF294604460A9803F064FFD4
:1019C0000146204604F01CF90A9D0446029ED2E11D
:1019D000FEF716FD0646CAF8080100287FF430AF6E
:1019E0000DB0BDE8F08F0132D2B2052A18BF1746FC
:1019F00014227A4333498AF80C711144CAF8841EC0
:101A0000317C524482F8DC1D3168F068C900C2F8AC
:101A1000CC1D7168C900C2F8D01DB168C900C2F8F8
:101A2000D41DC100C2F8D81D03F0DEFF316ACAF828
:101A3000140104F0E5F80146CAF81801224804F040
:101A4000DFF8002304F0080258EA0202CAF81C0179
:101A5000CAF8103125D0DAF8301124F0080408460D
:101A6000CAF8281104F018F88AF80D41706114249E
:101A7000002204FB07A484F8DD2D9AF8C820900703
:101A80007FF5ECAE727C91067FF5E8AEF16A4FF01F
:101A90007E5004F0B5F80122CAF83C0184F8DD2D2F
:101AA000DCE6706902F022FDCAF82801DFE70023B6
:101AB000CAF82461CAF8303103E700BF50000020A3
:101AC0003EC32E391C0E00200000A03F8AF82021C2
:101AD000CAF83441002D51D19AF888240132D2B28B
:101AE000102A18BF15469AF84421AA4217BF34227B
:101AF000002502FB05A5D5F85C51284602F0F6FC4E
:101B000002463046CAF830210292FEF789FC0146AF
:101B1000009003F0C1FFD6F814908046494604F0C7
:101B200059F9029A00283CD04146484603F0AAFEE3
:101B3000394603F0B1FF0146204603F0A3FE002121
:101B4000CAF8340104F050F9D8B1022259468AF893
:101B50002021584603F098FE214603F09DFF0146E0
:101B6000484603F08FFE02F0C1FC9AF80D21CAF836
:101B7000300142F008028AF80D21A2E60022154643
:101B8000BFE72946404603F07DFE394603F084FF57
:101B90000322009BCAF83801CAF82C318AF82021A8
:101BA0008FE629464846029203F06CFE394603F060
:101BB00073FF214603F068FE4FF07C5103F06CFF89
:101BC0000021064604F024F9029A002840D021465C
:101BD000304604F0FFF8002838D02946404603F08C
:101BE00051FE394603F058FF0146CAF83801304625
:101BF00004F00EF9B8B1009B49464046CAF82C31B2
:101C000004F0DEF808B10122C8E74946404603F077
:101C100039FE394603F040FF0146204603F032FE0C
:101C2000CAF834014DE659465846CAF83461CAF834
:101C3000386103F029FE314603F02EFF294603F0F8
:101C400023FE02F053FCCAF82C013AE60222A5E773
:101C50000023CAF82C21CAF8343132E64FF00103D0
:101C600064E6009B2046D96903F016FF59460746F3
:101C7000284603F007FE0146384604F0BFF8002866
:101C80002CD00199049803F0FDFD014603F0FCFD02
:101C900029460446584603F0F7FD0146204603F066
:101CA000AFFF012704465D46BA46B846019E21466D
:101CB000039803F0E9FD0699039004F08BF80028DF
:101CC00076D00399069803F0DDFD3146044602986C
:101CD00004F080F8002871D0B14638E64FF07C510E
:101CE000384603F0D9FE0146284603F0CBFD2146D5
:101CF00003F0D2FE0146484603F0C4FD06463946CD
:101D0000284603F0BFFD35E0009B2046D96903F06B
:101D1000C3FE4FF07C51074603F0BEFE294603F098
:101D2000B3FD214603F0B8FE0146484603F0AAFD84
:101D300006460146019804F06BF8B8B10199049881
:101D400003F0A0FD014603F09FFD294604465846D6
:101D500003F09AFD0146204603F052FF0127044696
:101D60005D46BA46DDF82C80019EA0E7394628463C
:101D700003F08AFD0546012799E75946204603F0FE
:101D80008BFE0146484603F07DFD0599064604F0AA
:101D900021F800288BD00599484603F073FD594679
:101DA00003F02EFFC24604464FF00208059E7EE770
:101DB0003046099904F02CF8002853D16E4B0FB12E
:101DC000C3F82851BAF1000F01D083F820816A4C82
:101DD000D4F8843E5A7C237903F0080313431AD0C5
:101DE000009B587C10F0300043D01D6B52B1D4F8EA
:101DF0003C11D4F8280103F04FFE0146284603F0B9
:101E00004BFE05462846FFF749FC237984F840013C
:101E100023F008032371079BD4F8181104EBC309BE
:101E20004FEAC30B94F84031304689F8A03D03F0E7
:101E300033FE804602F09EFB0746D4F8140102F000
:101E400099FB3946824603F01DFD04F027F885B260
:101E5000A9F89A5D85B923799A070DD543F0010356
:101E60002371BDE54549069803F00EFD03990690E0
:101E700029E700232361C8E7D4F81011039803F081
:101E800003FD41468146504603F0FCFC01464846AE
:101E900003F0B6FE3A49814603F0FEFD02F06AFB0C
:101EA00003F0FCFF42F22733984231D8002204EBC2
:101EB0000B0383F89F2D80B2089B089A0133DBB295
:101EC000062B08BF002384F8813E009BA344ABF897
:101ED0009C0D414684F8992D1E623846C4F8147151
:101EE00003F0D0FC494603F0D7FD3146C4F8100199
:101EF000029803F065FF00283FF484AC00213046CF
:101F0000257903F085FFE8B145F00105257167E506
:101F100044F24F63984213D948F69F43984294BFC6
:101F200002230323D84004EB0B029D40B0F5803F11
:101F300082F89F3DA2F89A5DBDD34FF6FF70BBE7D4
:101F40000123EFE715F00403DED194F8881494F828
:101F50004421C4F808318A423FF454AC4A1CD2B23E
:101F6000102A18BF134694F8452184F888348A4211
:101F700008BF84F8453145E4500000203EC32E39A7
:101F8000FCBE804F2DE9F04FAD4C8DB094F8B934C4
:101F900003F0FF05C3B10123AA482370FEF70AFB33
:101FA0002846FEF710FB013DFEF7DCFB4FF4FA700C
:101FB000FEF77CFA012D14D9EFF3108372B60022DC
:101FC00084F8B92483F31088637D03F0FF05002BA8
:101FD00000F07E82EE0613D5012363700DB0BDE8DC
:101FE000F08F9948FEF7E6FA9848FEF7E3FAFEF715
:101FF000BDFB1020FEF74FFD637DDF06FCD5DBE760
:1020000015F0010600F0CB80914A03AB07CA83E8C4
:102010000700194606A8FEF7CFFC3C20FEF788F81B
:102020002378102B14D8102B1BD8DFE813F00201F3
:10203000350137011A0033011A001A001A0006018F
:102040001A001A001A001A001A001A001A002301B6
:10205000402B00F02581802B00F03281202B00F0F6
:10206000178194F8B47017F0010700F02B81237BDF
:10207000002B00F027817748FEF79CFA06A8FEF7B0
:102080007CFB94F8B4309F0720D57348FEF792FA92
:1020900094F8443194F8880483422CBF0F3000F147
:1020A000FF30C01AC0B2FEF78EFA2C20FEF740F8BF
:1020B00094F8152594F81435D0B29A4294BF80381C
:1020C00000F1FF30C01AC0B2FEF77DFA6348FEF798
:1020D00071FA2378DFF8889113F07C0F0CBF002091
:1020E000D4F82801FEF716FB2C20FEF721F800217A
:1020F0002069FEF78FFAFEF73FFA8046FEF746FCAE
:10210000D9F8083094F8BAB403F0010A8AEA0B024D
:1021100048EA00031343DBB2074663B35148FEF7B6
:1021200049FADA4502D05020FEF702F8B8F1000F64
:1021300011D018F0010F02D05820FDF7F9FF18F068
:10214000020F02D05920FDF7F3FF18F0040F02D060
:102150005A20FDF7EDFF77B1F80702D55220FDF7C1
:10216000E7FFB90702D54820FDF7E2FF7A0702D55D
:102170005320FDF7DDFF237B002B00F0D380013BD4
:102180002373E77A002F00F0DF80013FE7723E20E3
:10219000FDF7CEFFFEF7E6FA0120FEF77CFC15F016
:1021A000E80F00F0498126784FFA85F8B70740F02C
:1021B000348116F0280F00F00681A7783F2F0BD846
:1021C000FEF72AF80223202E237105D1B8F1000F63
:1021D00002DB67F07F07A770680605D5B1065EBF12
:1021E000A37843F04003A3702A0703D51F2E9CBF9A
:1021F00010232370AB0640F110811348FEF7DAF983
:102200001948FEF7D7F9FEF7B1FA94F90220A3783E
:10221000002AC0F2FE802278402A40F0F7801F0793
:1022200004D523F01C0343F00203A3704023237062
:10223000EFE00E48FEF7BEF913E70D48FAE700BFDE
:10224000500000201A700008217000082770000854
:10225000F804002069700008777000087C7000089E
:102260000010014081700008957000083970000866
:102270003E70000894F90230002B09DB5548FEF748
:1022800099F9A378D80717D53020FDF751FFE8E674
:102290005148CFE75148CDE75148CBE75148C9E70E
:1022A0005148FEF787F9A378190701D53320ECE7E9
:1022B0005A0703D59B06E7D53120E6E73220E4E74D
:1022C0004A48B7E74FF00008DFF824A10DF1240BCE
:1022D0000DF11809DAF81010DAF8040003F0D4FA56
:1022E000B8F1020F0AF1040A01464BF8040B04D1BD
:1022F000D4F8FC0403F0C8FA0B903FB9D9F80000F9
:102300005BF8041C03F0BEFAC9F8000008F10108EC
:10231000B8F1030F09F10409DCD1002F7FF4ABAE53
:102320003448A9E6237813F07C0F0CBF09231D2342
:102330002373E37A0BB90123E3722F48FEF73AF9CE
:1023400009A8FEF71AFA1CE723782C4813F07C0F33
:102350000CBF09231323E372FEF72CF9E079FEF793
:1023600032F92C20FDF7E4FE207AFEF72CF92C2020
:10237000FDF7DEFE607AFEF726F9214B1B6ADB07CC
:1023800006D5204BDB6813F4005F0CBF37460227ED
:10239000D9F80C3003F40056C3F3403357EA8313E3
:1023A0003FF4F5AE1848FEF705F92FB1012F0CBF29
:1023B00053204320FDF7BCFE002E3FF4E8AE46203C
:1023C000FDF7B6FEE3E6002E7FF406AF0123A3700F
:1023D00002E700BF42700008487000084C70000817
:1023E00051700008577000085D70000863700008A5
:1023F0003005002070700008867000088C7000089E
:10240000002C0140000C014091700008802A7FF4EC
:102410000DAFA37843F02003A370B8F1000F08DAE2
:102420002378012B02BFA37843F00503A370802318
:102430002370E820FEF72FFBAE0723D515F0680FB9
:102440001DD12378402B07D1A37813F0200203D1AC
:10245000D80640F1E18022702378002B00F0E28062
:10246000DA060CD5A278D70709D5102B40F0DA8010
:10247000A37A002B00F0D68043F00803A372022059
:10248000FEF709FB6E0723D5227894F9023012F08B
:10249000D00F00F0DC80E278002A40F0D880002BDA
:1024A000C0F2D780FDF7B8FE94F8883484F845313F
:1024B000FDF7CAFE23799D0748BFA27823F00603E3
:1024C00044BF42F00102A27023710420FEF7E3FA38
:1024D00094F80C3503F0FF02002B50D0EFF310837B
:1024E00072B6002184F80C1583F31088E57912F098
:1024F000010F0CBF2B466423900744BF0A33DBB2A5
:10250000570744BF0A3BDBB2160744BF0133DBB2B7
:10251000D00644BF03F1FF33DBB2C82B28BFC8236A
:102520000A2B38BF0A23207A12F0200F14BF64212F
:10253000014612F0400F18BF322112F0800F18BF71
:1025400019219D4201D1814219D094F88874E37118
:1025500000233D464FF0340894F84491DFF8B8B1B9
:10256000DFF8B8A12172E3724D4540F08B80C4F8CA
:10257000A4B4FDF751FE84F84571FDF765FE94F8AB
:102580000D3503F0FF05002B00F0C080EFF3108342
:1025900072B6002284F80D2583F31088627A15F054
:1025A000010F0CBF13466423A90744BF0A33DBB2F3
:1025B0006F0744BF0A3BDBB22E0744BF0133DBB2D7
:1025C000E80644BF03F1FF33DBB2C82B28BFC823A2
:1025D0000A2B38BF0A239A420BD022786372002A52
:1025E00074D1D4F8C81494F8C504FFF7A1F80023F7
:1025F000E372A906237840F18780102B40F0848095
:10260000A37A002B78D102233F2DA37267D80DB097
:10261000BDE8F04FFFF7EEB8590744BF43F0080399
:10262000A37019E700232371FDF7EAFE58B1A378E0
:1026300013F0400307D1A37008232370FFF7DAF8E3
:10264000FDF792FD1BE70023A370237017E7002B13
:1026500009DA00232371FFF70BF8FEF7D5FFFEF729
:10266000C3F9FDF713FFA37813F020021FBF03F097
:102670007F0343F00103A37040230ABFA2702370BD
:10268000227022E708FB05A0FDF7CAFE5946064660
:1026900003F0BEFBB8B15946584603F0FDF908FBFC
:1026A000054BDBF86C11CBF86001019103F0B0FB36
:1026B00010B10199CBF860110135EDB2102D08BFB2
:1026C0000025B34650E731463046E6E7237943F02C
:1026D000080323718BE713B113F0380F16D094F869
:1026E000C40443064CBF00F0BF0040F04000FDF7BB
:1026F0000BFD84F8C40409E0DA0702D543F00403B3
:10270000A3723F2DEBD801E03F2DE4D82378032BB3
:102710007FF664AC7BE700BF9976967E9801002037
:1027200070B50E46104903F0B7F901F023FF03F02E
:10273000B5FB0E4D84B29CB16B788BB95EB900F0DD
:1027400017F8D5F8B424D5F8B4349B1A312B08D92E
:10275000013CA4B2EFE7FFF715FCAB789B07F0D57F
:1027600070BD00BFEFE700BF0000A0415000002097
:102770002DE9F0476D4CFFF705FCA378002B56D0F0
:10278000FDF73EFE88B994F8C55494F8C434D4F8E3
:10279000C8641D4394F8C830980702D52020FEF77E
:1027A000FBF900274FF0000828E0614B457CDB680F
:1027B00005F03005C3F34033066B45EA8315E9E7BE
:1027C00094F80190B9F1000F31D1D90714D52278CE
:1027D0003F2A6AD913F0040A14D14146504684F8BE
:1027E0000AA0FEF7A5FF5046FDF78EFCA37823F064
:1027F000020343F00403A370FFF7C4FBA378002B8C
:10280000DED114E0802A17D14A48FDF7D3FE4A48AA
:10281000FDF7D0FEFDF7AAFF00214846FEF788FF2E
:102820004846FDF771FCFDF751FE63780BB1BDE83A
:10283000F087FFF7A7FBF8E7402A04BF23F0200347
:10284000A370A3781A07D7D594F8C5244AB19B077B
:1028500007D494F8C83098071CD5237943F00803AF
:10286000237194F8C4345BB1A378990708D405F0B8
:10287000C000FDF749FC01214FF07E50FFF750FFEB
:10288000A3789A07B8D443F010030220A370FEF790
:10289000EDF8B1E7314605F03000FEF749FF0121C0
:1028A0004FF08140FFF73CFFDBE7A37A7BB398074B
:1028B00009D594F8C53413B300214846FEF738FF14
:1028C0000123A37298E713F00C0F95D094F8C53448
:1028D0007BB11848FDF76EFE1848FDF76BFEFDF75B
:1028E00045FF94F8C83099070BD5237943F00803C6
:1028F0002371A37A1A0702D50220FEF7B7F8A77250
:102900007AE7314605F03000FEF712FFF1E7237950
:102910001B077FF571AF314605F03000FEF708FF69
:10292000237923F00803237166E700BF50000020DD
:102930000010014021700008A0700008A970000874
:1029400010B5FEF79FF8064CFFF712FF637833B916
:10295000FDF756FD0028F7D12378082BF4D010BDE1
:1029600050000020512370B503FB00F50C4E05F517
:1029700040755022294606F63160FEF7DFFA04461C
:1029800058B986F8310EFFF7DBFF2846502206F6CD
:102990003161FEF709FB204670BD0120FCE700BF56
:1029A0005000002038B5074B04461B780D46022B1B
:1029B00007D0FFF7C5FF29462046BDE83840FEF79F
:1029C000B7BE38BD5000002038B504460D46FFF7AD
:1029D000B7FF0D2303FB04F02946BDE838400C2265
:1029E00000F50070FEF7E0BA30B50546E80785B09F
:1029F00006D55C221C491D4803F0C6FAFEF7F0FA22
:102A0000A9070AD50024CDE901440394E0B201A945
:102A10000134FFF7D9FF082CF8D16A0713D500213C
:102A20004FF44070FEF7A9FA002140F20130FEF7A2
:102A3000A4FA002140F25130FEF79FFA002140F243
:102A40005230FEF79AFA2B070CD5002140F2AE3037
:102A5000FEF793FA002140F2AF3005B0BDE83040F8
:102A6000FEF78BBA05B030BD9C6B0008D00000208B
:102A700070B50D460D21414306460C22284601F54E
:102A80000071FEF75BFA044640B9C5E90000A86092
:102A900029463046FFF798FF204670BD0120FCE72D
:102AA00008B5FFF74DFF0022014B1A7308BD00BFA8
:102AB0005000002034222DE9F04FDFF894B289460F
:102AC0009BF844510BF5A47302FB05F495B0234425
:102AD000002106901846019303F000FA99F8088047
:102AE000D9F804305C44C4F8783118F0020384F853
:102AF0005981039318BF0BF595620BAB08BF0BF21E
:102B00008C4207CA83E80700019B00270493342303
:102B10006B43DFF840A20593AAF18004E318079302
:102B20005AF8043B0293069B029853F8271002F0D0
:102B3000B3FF01F071FC0BAA52F827200EAB43F84B
:102B40002700801A049B80EAE076A6EBE07643F843
:102B5000046B0493059BE118D1F85421964238BFC9
:102B60001646C1F8546102F043FF029903F048F899
:102B700008AB43F82700002103F02CF9079B50B164
:102B8000002F7ED0012F0CBF1022202293F8581165
:102B90000A4383F858210137032FC0D1002E00F0DB
:102BA000D580342608A8FEF7EFFD06FB054608A9E8
:102BB000C6F8680107466848FDF7BAFC08A9C6F8D8
:102BC00064016648FDF7B4FC18F0010FC6F8700107
:102BD00007D118F0080FD9F8000002D0394602F0EA
:102BE0005BFF342303FB0542C2F8740194F8882488
:102BF0000026AA4202D0039A002A44D003FB0543D0
:102C0000C3F85C61C3F86C61039B002B35D101985C
:102C1000FDF706FCD4F8A47406460146384603F0D6
:102C2000D9F8002800F08F803946384602F034FF8A
:102C3000342303FB0545D5F86C71C5F860013946AE
:102C400003F0E6F808B1C5F86071454B08AA07CA59
:102C5000C4F8A46483E807000EAA07CA03E90700C2
:102C600094F8823E84F844310133DBB2102B08BF64
:102C7000002384F8823EFDF7E7FA012015B0BDE895
:102C8000F08F082282E70DF144080327C146354A38
:102C900008AB52F8041F53F804AB02910298514656
:102CA0000492039302F0F8FE0146304602F0EAFD7A
:102CB00002990646504602F0E5FDDDE90332013F88
:102CC00017F0FF0748F8040BE3D13046264903F01C
:102CD0009FF878BB3046254903F07CF888BB48460E
:102CE000FEF752FD49461C48FDF722FC31460746D7
:102CF0004FF07E5002F0C6FD4FF07C5102F0CCFE4A
:102D000001F0F4FB0646DBF8B810384602F0C4FECA
:102D1000314602F0C1FE314607464FF07E5002F0C8
:102D2000B1FD0146384602F06BFF0021064603F074
:102D300051F800B10026342303FB0543C3F86C614E
:102D400065E70B4EF7E7314630466FE7304695E7CB
:102D500050000020D0000020E8000020DC0000200F
:102D6000E8040020E4040020EFFF7F3FEFFF7FBF77
:102D70009976967EF8B5234C0D4694F8C8300646F1
:102D8000990627780FD5202F10D0FDF751FE50B1AE
:102D90000123082FE37019D0FDF796FE0220FDF7FE
:102DA00087FEFFF7E5FC2378022B0ED0FFF7E0FC4F
:102DB000637853B994F8882494F8823E9A4211D0EB
:102DC00029463046FFF776FE78B1F8BD3846FDF764
:102DD0004DFEFFF7CDFC6378002BE4D12378002B68
:102DE000F7D1D9E7FDF74EFEE0E794F8C8309A072F
:102DF000EBD52B7ADB06E8D569681020BDE8F840F2
:102E0000D0E500BF500000202DE9F04F804C8046F7
:102E100065788BB0002D40F0EB8006230026CDE9CD
:102E20000755DFF8F09109950DF10C0A8DF8243063
:102E300004F1800B002D00F08980012D0CBF0223CE
:102E400004230AF8013B48FA05F3D8070BD50BEB2E
:102E500085034946586A02F01FFE3146074602F0D4
:102E6000B9FF00B93E460135032DE3D10425012702
:102E7000D4F8D0900DF1100A50466749FDF79CFD3B
:102E8000002083460246844694F8C9300DF10C0EAA
:102E9000019348FA02F1C90713D5019B013043FAA7
:102EA00002F1CB07C0B253D5002F53D006F1004139
:102EB000594B4AF8221012F80E1043F822C04BEA80
:102EC000010B0132032AE4D102F08EFD01F00EFB6A
:102ED00084F806B00146484602F0DEFD07A90790D7
:102EE0005046FFF7E7FD04222271FEF783FCFDF751
:102EF0003BF9A7B1FDF740FB002203A911F8016BD4
:102F000016EA0B0F06D040FA02FC1CF0010F18BFA6
:102F10002BEA060B0132032AF0D184F806B0FEF743
:102F200069FC627D12F0340F65D0637DDE06D9B294
:102F300002D50620FDF7BCFD880602D50720FDF767
:102F4000B7FD4FB149070FD509200BE0012378E702
:102F5000002FABD03146ABE7FDF70EFB10EA080FB0
:102F600002D00820FDF7A4FD94F8B93433B1FDF781
:102F7000ABFD0BB0BDE8F04FFFF7FABB0420FDF747
:102F80008AFDFEF741FBB4F8D400FDF78FFA97F005
:102F9000010735D02149D4F8D80002F07DFD06465E
:102FA000D4F8CC90013D15F0FF057FF463AF1C4EC3
:102FB00006F5856748FA05F3DA0712D594F8C930A3
:102FC000D6F800902B41DB07D4F8D8001DD5716AE4
:102FD00002F05AFC494602F05FFD01F01DFA47F885
:102FE00025000135032D06F10406E3D100232371EA
:102FF0000BB0BDE8F08F1BF0070F7FF47AAFC0E78E
:10300000D4F8D860D4F8D090CCE700F10040E1E7E4
:10301000500000200000C0BFF80400200000A040C5
:10302000D00000202DE9F04FDFF8AC8240220021D3
:1030300095B008F6886002F051FF08F2BC4303CB5C
:103040001A889B78C8F8890E88F8933E98F8313E24
:10305000C8F88D1E242BA8F8912E4FF0000340F0E5
:103060005B82012688F88A3E032388F8896E002453
:10307000DFF8689227462546CDE903448DF83330C2
:1030800056E1009A413A192A01F2348101330DA91F
:103090000DF133008DF83330FEF73EFA002801F0D1
:1030A0002C81DDF834B0584601F0EEFB02F0F6FE5C
:1030B0005FFA80FA504602F09BFC0146584602F047
:1030C000E1FB494602F0E8FC01F030FA02F0E6FECE
:1030D000009B80B2472B1ED04D2B00F06081009BDF
:1030E000463B142B00F28E80DFE813F0A2018C0027
:1030F0008C00BE01C701D001D9018C00DE018C001B
:10310000E6018C00EB01F001F5018C008C008C00D5
:10311000010208020F02BAF13D0F75D8BAF1250F6E
:1031200024D8BAF11E0F6DD8BAF1090F56D8BAF1EA
:10313000030F64D8002D41F0E3800225BAF1260F79
:1031400088F889AE40F0EB80A0F114039BB21E2BEF
:1031500058D8634A22FA03F3D90753D50A23B0FBA0
:10316000F3F3763B88F8893E01238AE0AAF126032F
:10317000172B47D801A252F823F000BF35310008C1
:103180000532000817330008053200080532000830
:10319000E532000805320008053200080532000853
:1031A0000532000805320008E53200080532000843
:1031B00005320008053200086332000801330008B8
:1031C000013300080133000801330008013300080F
:1031D00001330008053200080D330008AAF10A0384
:1031E000142B0FD8DFE803F0380E0E0E0E0E0E5320
:1031F000535371710E0E0E0E0E0E380E3800BAF1CA
:10320000040F2ED014234AE0AAF15003DAB20E2A9A
:10321000F8D80E2BF6D801A252F823F03D31000861
:1032200005320008053200080532000805320008A2
:103230000532000805320008053200080532000892
:1032400005320008A3320008A332000859320008F2
:10325000BF320008BF32000818B9002D41F050807D
:1032600001250AF0FD031C2B88F888AE02D0BAF1C4
:103270005C0F52D108B10A28C4D10023504488F809
:10328000880E039A1A41D2074BD5152307E0022373
:10329000AAF1110A88F88DAE0028F2D01723009306
:1032A000AAE328B9AAF15A0A032388F88CAEE8E702
:1032B0000A28A7D1BAF15A0FA4D00423E1E7CAF132
:1032C0005E0A052388F88AAEE6E7CAF1150A0623E6
:1032D00088F88BAEE0E700BF500000200000C84235
:1032E00001041040002D41F00B80BAF1310F02D0E3
:1032F0000A2887D1012588F88E5E08230325C0E7B8
:10330000AAF1360A092388F88FAEC5E700287FF4B2
:1033100079AF0A23B5E70723BEE70023BCE7012303
:10332000BAE7012202FA03F3039A1A4393B2039312
:103330009DF8333008EB030292F8312E0092002AF8
:103340007FF49FAE17B1002D08BF0225A20605D558
:10335000D8F8A82EB94B9A4200F3DE87002E00F071
:10336000DD80E30740F1EC8098F88B3E012B06D11D
:10337000D8F8940EB24902F08FFBC8F8940EE2051B
:103380005CBFD8F8C834C8F8B43E98F8883E042B1F
:1033900040F0E880630600F1E2801C237FE700280C
:1033A0007FF47CAFBAF1090F18D8BAF1070F32D801
:1033B000BAF1020F19D9AAF10303022B3FF622AF8B
:1033C000BAF1040F24D0BAF1050A18BF4FF0010A70
:1033D0004FEA0A1A0C2288F892AE0DE0BAF11E0FDD
:1033E0007FF410AF88F890AE05E0BAF1000F0BD073
:1033F000BAF1010FF6D10B22039B1341DB073FF516
:1034000044AF012393408FE7032388F8903EF2E70F
:103410004FF0200ADEE7BAF1090F18BF98F8910EB5
:103420004FF00D0218BF40F0400088F8910EE3E71E
:103430004FF0000AC8F894BE44FA0AF3D80700F126
:10344000658740F2613343FA0AF3D90706D50021B4
:10345000584602F0BFFC002840F05B87012303FAC6
:103460000AF323439CB263E7049B4FF0010A43F045
:103470000103C8F898BE0493DEE7049B4FF0020AEC
:1034800043F00203C8F89CBE0493D5E7049B4FF0B9
:10349000030A43F00403C8F8A0BE0493CCE788F8FD
:1034A000A4AE4FF0040AC7E7584602F0D1FC4FF033
:1034B000050AC8F8A80EBFE74FF0060AC8F8ACBE68
:1034C000BAE74FF0070AC8F8B0BEB5E74FF0080AF0
:1034D000C8F8B4BEB0E758465A4902F099FC002833
:1034E00040F0118788F8B8AE4FF0090AA4E74FF012
:1034F0000A0AC8F8BCBE47F001079DE74FF00B0A67
:10350000C8F8C0BE47F0020796E74FF00C0AC8F8AB
:10351000C4BE47F004078FE71E46A8E598F88A3E28
:10352000012B0FD1022D7FF42AAF98F8893E502B42
:103530003FF425AF002B3FF422AFE0073FF51FAF6C
:103540001623ACE698F8BD34002B7FF418AFE107E2
:103550003FF50AAFD8F8CC34C8F8943E0FE724F012
:103560004004A4B298F88D3E019343B1012B45D09D
:1035700000230893022302930123019303E0022313
:1035800008930123029398F88B3E012B3CD0032D26
:1035900006D198F88E3E012B02D1042F40F0BF8651
:1035A000294A0EAB07CA83E80700039A920553D451
:1035B000DFF8988098F8889EB9F10A0F5DD0B9F1CC
:1035C0005C0F00F0C580032D40F0F880B9F11E0FAC
:1035D00000F03B81B9F1350F00F05081B9F11C0FBB
:1035E00040F0E48006201A49FFF742FA002842D052
:1035F000002F40F02D813D46059797E0019B0893F1
:10360000002302930223B8E74FF00009DFF844A03B
:10361000DFF82CB047FA09F3D90706D5DAF800002D
:10362000594602F039FACAF8000009F10109B9F166
:10363000030F0AF1040AEDD1A9E700BF80969800B4
:103640003333CB4100007F4334050020500000207D
:10365000E80E00200C0F002098F88F0E062801D9E4
:103660001D231CE698F8C2248242A1D01946FFF718
:10367000FFF900289CD1072311E60FB91A230EE6A3
:1036800014F0500F3FF489AED8F8AC0E01F0FCF8FE
:1036900002F004FCC0B20628E2D898F8A43E142B2D
:1036A00005D0022B7FF4AEAD23063FF5ABAD00286D
:1036B00048D00138C3B20593A0490598FFF7D8F95F
:1036C0000028D8D04FF0000998F8A43EDFF86C82AB
:1036D0000693A8F6DC1A47FA09F3D9071AD5069B10
:1036E000D8F824B0142B30D1DAF83410DAF81C00F2
:1036F00002F0C8F8594602F0C5F8B9F1020FC8F84F
:10370000000007D1DFF838B2DBF8FC1402F0BAF899
:10371000CBF8A00E09F10109B9F1030F08F1040873
:103720000AF1040AD7D124F05004A4B2844B93F8D0
:1037300089BEBBF1500F40F0A880002F00F0098136
:103740001F23ACE598F88F3EB5E7C8F800B0E1E775
:10375000002F93D04FF0000908F2BC4B0DF1380A4E
:1037600008F6BC6847FA09F3DA0722D55AF8291097
:10377000DBF81C0002F086F8D8F8001002F082F89E
:10378000B9F1020FC8F8000007D16D4BD3F8FC1453
:1037900002F078F86A4BC3F8C40E09F10109B9F1D7
:1037A000030F0BF1040B08F10408DBD10023059390
:1037B000BCE7DBF83430C8F80030EEE7002F3FF408
:1037C00005AF4FF0000A08F59B6B08F6BC6847FA96
:1037D0000AF3DB070DD4DBF80030C8F800300AF13B
:1037E000010ABAF1030F0BF1040B08F10408EED142
:1037F000ECE6B9F1350FF2D0514BD8F8002093F830
:103800008C1ED1B90EA8DBF8181050F82A000592CA
:1038100002F03AF8059A114602F036F8BAF1020FB2
:103820000146474BC8F80000D9D1D3F8FC0402F098
:103830002BF8434BC3F8C40ED1E71146DBF8000068
:1038400002F022F8C8F80000C9E707203B49CBE6A0
:1038500000233C4AA2F6CC1147FA03F0C0075EBF32
:1038600001EB830CDCF81CC002EB830003F10103C5
:1038700058BFC0F810C0032BEED197E7304B93F838
:10388000893E012B92D91E2309E5022D61D1BBF19E
:10389000000F04D13D1E18BF01256D0059E0002125
:1038A000D3F8940E02F08CFA00287FF449AEBBF1F5
:1038B000030F05D048D8BBF1010FEBD046F004064A
:1038C000002F3FF4DBAE0123019A03FA02FA029AB9
:1038D00093404AEA030A17EA0A0F00F02385DFF84B
:1038E0006080019B08EB8303D3F8D814D3F8BC0E97
:1038F00001F0C8FF029B069008EB8303D3F8D814AD
:10390000D3F8BC0E01F0BEFF14F08009079000F060
:10391000F2800C2208F6BC6108F59B6002F0AAFB5D
:1039200000286DD12123BAE4ABF18D03022B00F204
:103930006381DFE813F05F0161015F01E80E0020A1
:1039400050000020D80E00200BF17403DBB2032BD3
:10395000EAD916F0010315BF24F0210424F44874B9
:10396000A4B224F0010415B124F4E054A4B2002C54
:1039700040F0E184CDE91244002B00F05D81039B0F
:1039800023F04903002B40F0D984A54C94F8883EDD
:10399000352B02D0002B40F0D184D4F8C83494F8F1
:1039A000C424129394F8C5349E4D134343F004038A
:1039B0008DF84C3094F8C830D4F8942E13F0200FC2
:1039C000119205D02846FDF733F8002840F0B9845D
:1039D000284611A9FFF7CEF9237843B9FCF710FD6B
:1039E00028B120232370FDF705FFFCF7BDFB95E808
:1039F00007008D4B83E80700009815B0BDE8F08FF5
:103A000098F88B3E012B06D1D8F8B00E874902F00A
:103A100043F8C8F8B00E0699814B0846D3F8B08E2B
:103A200002F03AF807998146084602F035F88246D6
:103A30004FF08141404602F02FF8414602F02CF849
:103A4000494601F01FFF514601F01CFF0021049080
:103A500002F0C0F9002840F06884049800F046FDA8
:103A600051460490484601F00FFF00F03FFD049BD3
:103A7000014603F1004002F0C3F8BBF1030F814699
:103A80004FF0000108BF00F10049404602F0A2F9E2
:103A900030B1634B08F1004809F10049C3F8B08E1A
:103AA000019B4946079803F1020801F0F5FF014622
:103AB000069801F0E7FE4FF07C5101F0EDFFDFF8D2
:103AC00060A1029B0AEB8808C8F8900E4946069848
:103AD00003F1020801F0E0FF079901F0D5FE4FF075
:103AE0007C5101F0D9FF24F080040AEB8808A4B2CD
:103AF000C8F8900E2DE7049B1AEA030F00F0188413
:103B000098F88B3E24F00E04012BA4B25AD0DFF8B3
:103B10001081019B069808EB8303D3F898AE5146B9
:103B200001F0B0FE029B814608EB8302D2F8983E7A
:103B300007981946069301F0A5FE494604904846A9
:103B400001F0AAFF04998146084601F0A5FF01464D
:103B5000484601F099FE00F0C9FC514681465046A6
:103B600001F09AFF069B82461946184601F094FF21
:103B70000146504601F088FE00F0B8FC0146C8F846
:103B8000B00E8246484601F07DFE20F000484046D7
:103B9000274902F03DF900283FF4DBAE4FF07C519D
:103BA000404602F035F900287FF4BCAE214950466A
:103BB00001F072FF0146404602F02AF900283FF466
:103BC000C8AEAFE6DFF864A008F69868049B43FA35
:103BD00009F3D80706D5D8F80000514601F05CFF7C
:103BE000C8F8000009F10109B9F1030F08F1040850
:103BF000ECD18CE746F010060BF17203DBB2012B1F
:103C000098BF46F00806002F3FF438AD05490C2256
:103C1000A1F6E41002F02EFA00287FF49AAE81E6B5
:103C2000500000200C0F0020280500203333CB412A
:103C30000AD7A33B6F12833A9B4C94F8C83099077C
:103C40000DD50BF1FF33022B88BF46F04006002F45
:103C500000F0C780022D40F0C48046F08006D4F802
:103C6000A83EC4F8D43494F88A3E84F8BD3413B125
:103C700008238DF84C30D4F8948ED4F8B49ED4F840
:103C8000C8044946C4F8CC84CDF8448002F098F8C2
:103C900006F0400708B1B2060ED594F8C50438B155
:103CA000330605D4002F00F0B2800021FEF77AFE23
:103CB000D4F8B43EC4F8C83417B9D4F8C834129351
:103CC00094F8B83E94F8920E84F8D03494F8C53441
:103CD000834206D01299FEF765FE94F8923E84F86E
:103CE000C5349DF84C7094F8C53494F8919E1F43E8
:103CF00094F8C4348DF84C704B450BD02378022BCC
:103D000004D0FEF71DFE4846FCF7FEF994F8913EFC
:103D100084F8C43494F8C4341F4394F8883E8DF872
:103D20004C70042B0AD12378022B07D0D4F8AC9E18
:103D3000FEF706FE00214846FEF7F2FC94F88D3EA1
:103D4000032D84F8C03494F88B3E84F8BE3413D12C
:103D500094F88E3E84F8C13413B90023C4F8C43EED
:103D6000D4F8C49ED4F8FC04494602F029F818B9E6
:103D7000C4F8FC94FEF794FE94F88F3E94F8C224A5
:103D80009A4208D084F8C234484B0EAA07CA83E886
:103D90000700FEF785FE94F88C3E84F8BF3494F853
:103DA000883E262B66D034D803F0FD021C2A4CD066
:103DB0000A2B37D094F8893E502B84F8BC3400F09D
:103DC0001682022D40F01382012B64D1384811A9CC
:103DD000FEF7D0FF374B03F6E41207CA83E807006B
:103DE00005E294F8C534102B7FF439AF94F8BC3455
:103DF00006F04002013B022B05D8002A3FF42FAF0A
:103E000046F020062BE7002A7FF429AFF8E7494661
:103E10004CE75C2B33D0662B36D0282BCAD1072039
:103E2000244929E0244F05983946FEF7CDFD94F842
:103E3000C234059A9342BDD197E80700A7F6B413A0
:103E400083E80700FEF72CFEB4E747F001078DF882
:103E50004C701DB1164811A9FEF78CFF164F11A921
:103E60003846FEF787FF97E80700A7F51C6383E84D
:103E700007009FE706200F49FEF7A6FD9AE70F4BC4
:103E800003F6CC1207CADBE700230C4AC4F8F0346F
:103E9000C2E90133D6E79BB99DF84C3043F00103EA
:103EA0008DF84C3092E700BF500000203405002010
:103EB0000C0F002028050020E80E002040050020FF
:103EC000023B012B00F27081974D019B05F51C67A9
:103ED0004FEA830A05EB83030793019BA24407EB98
:103EE00083030993019BD4F8B09E57F823B055F88B
:103EF0002310584601F0C8FC029B03909B000193DD
:103F0000029B0BF1004B05EB83030A93029B07EB2B
:103F100083030B93029B57F8237055F82310384600
:103F200001F0B2FC03990290DAF8BC0E01F0AAFC91
:103F3000019B05462344D3F8BC0E029901F0A2FC74
:103F400029460446584601F0A7FD07F1004782467E
:103F50002146384601F0A0FD0146504601F094FC90
:103F600021468246584601F097FD294604463846C8
:103F700001F092FD0146204601F084FC514600F01C
:103F8000D3FA7107044640F1C380684901F036FF57
:103F900020B12046664901F075FC0446654B494650
:103FA000D3F8BC50484601F06FFC294601F06AFC8A
:103FB000294601F071FD00F099FA4FF07C51054659
:103FC000204601F069FD494601F066FD294620F0D2
:103FD000004001F015FE00F0D9FB01F05FFF83B255
:103FE0000193002B3FF4F2AE184601F001FD9DF85D
:103FF0004C600546320708D50146404601F04CFDAD
:1040000026F0080611908DF84C602946204601F0F4
:10401000F7FDDFF82081089B08F59B6202EB830324
:104020000493089B089908EB830352F82110044677
:10403000D3F8BC0E01F026FC294601F0E1FD214633
:104040000890204601F028FD01464FF0804001F025
:1040500019FC39490546204601F01EFD4FF081410B
:104060000646284601F010FC0146304601F014FDDA
:104070004FF07C510590284601F00EFD4FF00009ED
:1040800001250690019AABB29A427FF69FAEB9F134
:104090000C0F55D05946059801F0FEFC39460646EE
:1040A000069801F0F9FC0146304601F0EDFB594657
:1040B0008246069801F0F0FC39460646059801F064
:1040C000EBFC0146304601F0DDFB5746834609F123
:1040D00001095FFA89F95946039801F0D5FB079B5E
:1040E00039461860029801F0CFFB0A9B08991860C6
:1040F000049B0135186801F0C7FB049B11A91860E7
:104100000948FEF737FE98F80130002BBAD061E677
:104110000A4901F069FE00283FF440AF20460449F7
:1041200001F0B2FB39E700BF28050020BD3706B516
:10413000DB0FC94050000020ABAA2A3EBD37063530
:10414000284601F055FC214601F0A6FC074600F088
:1041500095F90646384600F05DFB099B07461B684B
:10416000304603F1004A0B9B5146D3F8009001F012
:1041700093FC49468346384601F08EFC014658467A
:1041800001F082FB51468346384601F085FC4946E2
:104190000746304601F080FC0146384601F072FBCC
:1041A0004FF00009074696E79DF84C3043F00403B2
:1041B0008DF84C302378022B3FF40CAEFEF7C0FB99
:1041C0006778A7B9C6F3C0006771FCF7B5FA5E4B14
:1041D00094F8BA249B6803F001039A4222D0042089
:1041E000FCF766FCFEF7C4FA3846FCF7A5FA574C14
:1041F00094F8903E84F8C334002B3FF4FDABFEF7F7
:104200009FFB94F8C334032B237846D1022B04D0B0
:104210000820FCF72BFCFEF7ABFA002384F8C3342C
:10422000FFF7EABB4A4811A9FEF7A4FD012328467F
:1042300084F8303EFCF71AFCFEF79AFA6378002BFC
:10424000D5D12378002BF7D194F8303E012B21D122
:10425000F3061BD53F4BA3F1580207CA83E80700BA
:10426000002084F8300EFCF767FAFEF781FAFDF7BC
:10427000CBF9FDF7FDF9FCF709F9FCF7BDFB637914
:10428000002B3FF4A7ADFCF7AFFBB0E70520FCF730
:104290000FFCE5E701236371E2E70122A4F8BC24E7
:1042A00064220025E27146F26442022B84F8C05475
:1042B00084F8BF5484F8C254A4F8C454228110D0A6
:1042C000284604F2E441FEF7D3FB00283FF4D3A9CB
:1042D000FEF7E6FB28460021FDF72AFA2846FBF701
:1042E00013FF1D48FCF766F91C48FCF763F9FCF75F
:1042F0003DFA92E70123FEF7D2BF0223FEF7CFBFBC
:104300001823FEF7CCBF2623FEF7C9BF1923FEF7FB
:10431000C6BF0423FEF7C3BF1B23FEF7C0BF252380
:10432000FEF7BDBF2023FEF7BABF2223FEF7B7BFBB
:104330002323FEF7B4BF2423FEF7B1BF1023FEF7FB
:10434000AEBF0F23FEF7ABBF0010014050000020AE
:104350000C0F00205005002021700008BB700008E1
:1043600070B50024134E2046FEF7FCFA80B986F89B
:10437000310E3E20FBF7DCFEFDF73EF83A20FBF75E
:10438000D7FE0720FCF7FCFA04B170BD0124EAE770
:1043900096F8313E002BF7D0FEF744FE05463E204E
:1043A000FBF7C6FEFDF728F83A20FBF7C1FE2846CA
:1043B000E8E700BF5000002008B5104A104B114834
:1043C0009A60114BC11EDA1C121A22F003029942A4
:1043D00088BF00220D4901F0D7FD0D4B0D48DA1CB6
:1043E000121AC11E22F00302994288BF0022002146
:1043F00001F074FDFCF702FE01F06AFE0000000807
:1044000000ED00E00000002050000020DC710008FA
:104410005410002050000020C0F3C7520028A2F121
:104420007F0CACBF01214FF0FF31BCF11E0F08B56E
:1044300010DCBCF1000F1BDBC0F31603BCF1160F40
:1044400043F400030BDD963A03FA02F202FB01F19A
:10445000084608BD01F0FCFC0146084608BD4FF4C3
:10446000800242FA0CF2CCF117001A44C240EDE788
:10447000BCF1FF3F18BF0021084608BD1A4A20F0D2
:104480000043934219D900B5B3F1FF4F83B005D370
:10449000014601F0F7F903B05DF804FB694600F04E
:1044A0001FFC00F00302012A11D0022A08D0AAB989
:1044B0000199009800F0A2F8EDE7002100F09EB805
:1044C0000199009800F09AF800F10040E3E70199A3
:1044D000009800F08FFB00F10040DCE70122019919
:1044E000009800F087FBD6E7D80F493F38B504465F
:1044F00001F002F921460546204601F093FC20B95F
:104500002046002101F066FC08B9284638BD01F0BC
:1045100035FD2122034600211A60084601F070FB98
:104520000546284638BD00BF00F0C8B908B5C0F33D
:10453000C7537F3B162B014615DC002B02460BDBD5
:104540000B481841084205D04FF48001194111442D
:1045500021EA0001084608BD013300F00041F9D10D
:1045600041F07E51F6E7802BF4D101F08DF908BDC2
:10457000FFFF7F002DE9F041C0F3C7557F3D162DA9
:10458000044620F0004727DC002D804614DB194F3D
:104590002F4138421DD0184901F076F9002101F071
:1045A00037FCB0B1002C03DD4FF400032B419844DD
:1045B00028EA0700BDE8F0810F4901F065F9002104
:1045C00001F026FC28B1002C10DB6FB14FF07E50BB
:1045D00000E02046BDE8F081B7F1FF4FF9D3014676
:1045E00001F052F9BDE8F0810020F3E74FF0004000
:1045F000F0E700BFFFFF7F00CAF249712DE9F843E1
:1046000020F00046B6F1485F054688464BD201F0DF
:104610001FFC002800F0A1802946284601F03CFA42
:104620000446504901F038FA4F4901F02DF921466E
:1046300001F032FA4D4901F025F9214601F02CFA3A
:104640004B4901F021F9214601F026FA494901F0D0
:1046500019F9214601F020FA474901F015F92146E0
:1046600001F01AFA07464FF07C51204601F014FA87
:104670000346394620461C4601F00EFA03464146E1
:1046800028461D4601F008FA0146284601F0FAF8CE
:104690000146204601F0F6F801464FF07E5001F049
:1046A000F1F8BDE8F883014601F0F6F904462D491A
:1046B00001F0F2F92C4901F0E7F8214601F0ECF99C
:1046C0002A4901F0DFF8214601F0E6F9284901F016
:1046D000DBF8214601F0E0F9264901F0D3F8214644
:1046E00001F0DAF9244901F0CFF8214601F0D4F9BC
:1046F000224B07469E42B6D9214B9E4229D806F14D
:104700007F4631464FF07E5001F0BCF8814620468E
:104710004FF07C5101F0C0F9314601F0B3F8034687
:10472000394620461C4601F0B7F903464146284663
:104730001D4601F0B1F90146284601F0A3F80146F3
:10474000204601F09FF80146484601F09BF8BDE87D
:10475000F883DFF830900C4ED9E74FF07E50BDE87B
:10476000F88300BF4ED747ADF6740F317CF2933417
:10477000010DD037610BB63AABAA2A3D9999993E03
:104780000000483F0000383F0000903E2DE9F04116
:10479000C0F3C7557F3D162D044620F0004725DCA9
:1047A000002D804614DB184F2F4138421BD017498B
:1047B00001F06AF8002101F02BFBA0B1002C03DA14
:1047C0004FF400032B41984428EA0700BDE8F0812C
:1047D0000E4901F059F8002101F01AFB18B1002C24
:1047E0000CDB002000E02046BDE8F081B7F1FF4F70
:1047F000F9D3014601F048F8BDE8F08117B94FF050
:104800000040F1E70248EFE7FFFF7F00CAF249717D
:10481000000080BF1B4A20F0004393421AD900B524
:10482000B3F1FF4F83B005D3014601F02BF803B07D
:104830005DF804FB694600F053FA00F0030001281C
:1048400014D002280AD0B0B901220199009800F0D2
:10485000D1F9ECE70022002100F0CCB90122019946
:10486000009800F0C7F900F10040E0E701990098D6
:10487000FFF7C4FEDBE701990098FFF7BFFE00F1E8
:104880000040D4E7D80F493F08B5C0F3C7537F3B7A
:10489000162B0ADC002B024600F0004004DB064920
:1048A00041FA03F31340184308BD802B0146FBD1A6
:1048B00000F0EAFF08BD00BF000080FF70B521F0E6
:1048C0000045B5F1FF4F0A4603462CD820F00046BC
:1048D000B6F1FF4F844626D8B1F17E5F35D08C17F4
:1048E00004F0020444EAD07416B33DB3B5F1FF4FAF
:1048F00033D0B6F1FF4F21D0761BB6F1F45F4FEA0B
:10490000E65028DA002934DA3C3032DA0020012C73
:1049100040D0022C36D02CB1254900F0B5FF2549F6
:1049200000F0B0FF70BD1946104600F0ADFF70BD3D
:10493000022C08D0032CF5D11F4870BDBCF1000F2C
:1049400007DB1E4870BD1B4870BDBDE8704000F01D
:104950003DB81B4870BD1948D9E7B6F1FF4F04F1C7
:10496000FF341AD0022C1ED8164B03EB8403D868F0
:1049700070BD1146184601F043F900F01BFB00F032
:1049800025F8C4E70A4900F07FFF0146094800F016
:1049900079FF70BD00F1004070BD022C05D8094BB5
:1049A00053F8240070BD002070BD074870BD00BFE3
:1049B0002EBDBB33DB0F4940DB0F49C0DB0FC93FC6
:1049C000DB0FC9BFF86B0008DB0F493F2DE9F04151
:1049D00020F00045B5F1A14F0446074608D3B5F1D4
:1049E000FF4F73D8002840F381806F48BDE8F08105
:1049F0006E4B9D427DD8B5F1445F6CD34FF0FF38CC
:104A00002146204601F048F80146064601F044F8E8
:104A10000546674901F040F8664900F035FF294630
:104A200001F03AF8644900F02FFF294601F034F80C
:104A3000624900F029FF294601F02EF8604900F094
:104A400023FF294601F028F85E4900F01DFF31469A
:104A500001F022F85C490646284601F01DF85B4942
:104A600000F010FF294601F017F8594900F00AFF3D
:104A7000294601F011F8574900F004FF294601F0DA
:104A80000BF8554900F0FEFE294601F005F80146F5
:104A9000304600F0F9FE214600F0FEFFB8F1FF3F7E
:104AA000014646D04D4D05EB8803196900F0EAFE3A
:104AB000214600F0E7FE014655F8280000F0E2FE2E
:104AC000002F93DA00F10040BDE8F081014600F0CC
:104AD000DBFEBDE8F081424900F0D6FE4FF07E518A
:104AE00001F096F9002889D020467FE73D48BDE8CF
:104AF000F08100F05FFA3C4B04469D421ED8A3F5BE
:104B0000D0039D423CD8014600F0BEFE4FF07E51DE
:104B100000F0B8FE03464FF0804120461C4600F0EE
:104B2000B3FE0146204601F06BF84FF00008044642
:104B300066E7204600F0A6FEBDE8F0812B4B9D42C3
:104B400016D84FF07F5100F09DFE03464FF07F5185
:104B500020461C4600F0A0FF4FF07E5100F094FE6E
:104B60000146204601F04CF84FF00208044647E7A2
:104B700001461F4801F044F84FF0030804463FE7A0
:104B80004FF07E5100F07EFE03464FF07E512046EE
:104B90001C4600F079FE0146204601F031F84FF046
:104BA000010804462CE700BFDB0FC93FFFFFDF3ED3
:104BB000D769853C59DA4B3D356B883D6E2EBA3D41
:104BC0002549123EABAAAA3E21A215BD6BF16E3D4E
:104BD00095879D3D388EE33DCDCC4C3E106C000852
:104BE000CAF24971DB0FC9BFFFFF973FFFFF1B40B0
:104BF000000080BF2DE9F84320F00043B3F1485F87
:104C000004460E46904603D201F022F9002858D0FF
:104C10002146204600F040FF05462046294600F088
:104C20003BFF29498146284600F036FF274900F01E
:104C300029FE294600F030FF254900F025FE2946CF
:104C400000F02AFF234900F01DFE294600F024FF52
:104C5000214900F019FE0746B8F1000F22D0304676
:104C60004FF07C5100F018FF39460746484600F0E7
:104C700013FF0146384600F005FE294600F00CFF00
:104C8000314600F0FFFD15490546484600F004FF97
:104C90000146284600F0F8FD0146204600F0F2FDEE
:104CA000BDE8F8830146284600F0F6FE0B4900F007
:104CB000E9FD494600F0F0FE214600F0E5FDBDE8C3
:104CC000F8832046BDE8F883D3C92E2F342FD7327E
:104CD0001BEF3836010D50398988083CABAA2A3EB3
:104CE0002DE9F04FA64A20F0004595420C4689B0C8
:104CF0006FD9A44A064695421FD820F000450028E7
:104D0000A14925F00F0540F3148100F0BBFD9F4B36
:104D100006469D4268D09E4900F0B4FD05463046E7
:104D2000294600F0AFFD9A4900F0ACFD012725604F
:104D30006060384609B0BDE8F08F964A954263D965
:104D4000B5F1FF4F4AD2EF15863FA5EBC755284670
:104D500001F07EF800F04CFE01462846059100F077
:104D600091FD4FF0874100F097FE804601F070F80A
:104D700000F03EFE054640462946069500F082FDBD
:104D80004FF0874100F088FE0021079001F018F8ED
:104D9000002800F0CA802846002101F011F8002800
:104DA00014BF0123022302257B493A46019105A83D
:104DB0002146009500F002F9002E0746B9DAD4E941
:104DC000002302F1004203F1004322606360474286
:104DD000AFE7002220604A600027AAE7014600F002
:104DE00051FD60602060F7E76C4900F04BFD6C49B5
:104DF000064600F047FD05463046294600F042FDD4
:104E0000674900F03FFD91E700F0D4F8654980461E
:104E100000F042FE4FF07C5100F036FD01F018F832
:104E2000074600F0E5FD5849834600F035FE01468F
:104E3000404600F027FD56498246584600F02CFEB9
:104E40001F2F81460146504622DC574B7A1E53F8ED
:104E5000222026F0004323F0FF03934218D000F0F5
:104E600011FD804641465046C4F8008000F00AFD1E
:104E7000494600F007FD002E6060BFF65AAF08F10A
:104E8000004800F10040C4F8008060607F4250E7B5
:104E900000F0F8FCC0F3C753C3EBD553EA15082B59
:104EA00080460392DEDD3D49584600F0F5FD804620
:104EB0005046414600F0E6FC05465046294600F0C3
:104EC000E1FC414600F0DEFC80463549584600F0E2
:104ED000E3FD414600F0D6FC81462846494600F0F5
:104EE000D1FC039AC0F3C753D21A192A80461EDD9B
:104EF0002E49584600F0D0FD80462846414600F035
:104F0000C1FC82462846514600F0BCFC414600F0F8
:104F1000B9FC05462649584600F0BEFD294600F07A
:104F2000B1FC81465046494699E703233BE7AA4630
:104F300098E700F0A9FC154B06469D420FD0144996
:104F400000F0A2FC05463046294600F09BFC1049C3
:104F500000F09AFC4FF0FF3725606060E9E60F49EA
:104F600000F092FC0E49064600F08EFC05463046E5
:104F7000294600F087FC0A4900F086FCEAE700BFFA
:104F8000D80F493FE3CB1640800FC93FD00FC93F30
:104F900043443537800F4943B06C0008004435372F
:104FA00008A3852E84F9223F306C000800A3852ECB
:104FB00032318D2420F00040704700BF2DE9F04FC2
:104FC000DDB0C24C669D93469E46043203F1FF332A
:104FD000804654F825A009910193C0F2B582BBF137
:104FE000030348BF0BF10403DB1006930133DB001E
:104FF0000A930A9B069AABEB030303930EF1FF336C
:105000001AEB0307A2EB03051ED401372F443B46DE
:1050100020AE374600241E46DDF89C91CDF800E016
:1050200008E059F8250000F0E3FC0135B54247F8E7
:10503000040B07D0002DF4DA20460135B54247F8BD
:10504000040BF7D1DDF800E0A8F10403BAF1000F7A
:105050000293B8BF4FEA8E0837DBDDF8049020AA30
:105060004FEA8E0802EB8E0248AF0AEB0E01CDE943
:1050700007E8CDF810A0CDF814B09246CB46B8465C
:10508000009103EB8E05B9F1000FB8BF00240FDBD0
:1050900057460024029E57F8041D56F8040F00F0EE
:1050A000FBFC0146204600F0EFFBAE420446F2D185
:1050B000009B0BF1010B9B4548F8044B0AF1040AD5
:1050C000E1D1DDE904ABDDE907E8029BD14603EB62
:1050D00008050CAB03EB8A03043B07930CAB03EB13
:1050E0008A03CDF810A09A46CDF82CB0CDF820E078
:1050F0005CAB03EB890353F850BCB9F1000F4FEAE6
:105100008903009322DD0DF590780CAF08EB0306C0
:105110004FF06E51584600F0BFFC00F099FE00F0D1
:1051200067FC4FF08741044600F0B6FC0146584644
:1051300000F0A8FB00F08CFE56F8041D47F8040BA5
:10514000204600F0A1FB46458346E1D1039F584627
:10515000394600F03BFB4FF07851044600F09CFCD0
:10516000FFF714FB4FF0824100F096FC0146204609
:1051700000F088FB044600F06BFE064600F038FCA9
:105180000146204600F07EFB002F80463A4640F361
:10519000818009F1FF300CAB53F82070C2F1080395
:1051A00047FA03F101FA03F3FF1A0CAB43F820703E
:1051B000C2F107031F41002F0E4400F312810021AA
:1051C000404600F0FDFD002800F0BB80049B99459F
:1051D0000CDD0021009B30336B4453F8042D534504
:1051E00041EA0201F9D1002940F01681049B0CAA82
:1051F000013B52F82330002B40F00A81012307992C
:1052000051F8042D0133002AFAD04B4409F101066C
:105210000699089A01EB060808F18048679908F199
:10522000FF384A4401EB8808DDF8009020A901EB23
:10523000820748AA91440093CDF814A058F8040FAF
:1052400000F0D6FB019B47F8040B002B1ADBBB4692
:105250000024DDF808A05BF8041D5AF8040F00F0E4
:105260001BFC0146204600F00FFBAA450446F2D184
:10527000009B0136B34249F8044FDFDA9946DDF866
:1052800014A035E70024009B0136B34249F8044FCF
:10529000D4DAF3E740F08D8009F1FF330CAA52F81D
:1052A0002370FF11002F8ADDB9F1000F06F101060E
:1052B00040F3F88100210CAB53F8044B002C74D060
:1052C000C4F5807443F8044C07E000BFC86F0008C1
:1052D0001A68C2F1FF0243F8042B01318945F7DC5B
:1052E0000124039B002B0FDD039B012B00F0858025
:1052F000022B09D109F1FF310CAB53F821300CAA74
:1053000003F03F0342F82130022F7FF458AF4146AB
:105310004FF07E5000F0B6FA8046002C3FF44FAFBD
:1053200003994FF07E5000F051FA0146404600F0DC
:10533000A9FA80460021404600F042FD00287FF493
:1053400045AFDDE90A3B4046A3EB0B01DDF810A0B9
:1053500000F03CFA4FF08741044600F04FFD002872
:1053600000F081814FF06E51204600F095FB00F077
:105370006FFD00F03DFB4FF08741054600F08CFBD0
:105380000146204600F07EFA00F062FD0CAB43F8C7
:105390002900039B28460833039300F059FD09F1C7
:1053A00001050CAB43F825004EE00131894583DC53
:1053B00097E74FF07C5100F021FD074600283FF4AD
:1053C000FEAEB9F1000FC8BF022706F101063FF794
:1053D00071AF41464FF07E5000F054FA02278046EC
:1053E000EDE6B9F1000FD8BF002406F101063FF742
:1053F00061AF039B012B7FF47BAF09F1FF310CAB55
:1054000053F821300CAA03F07F0342F821307BE7E8
:1054100009F101063346FBE6DDE9033A09F1FF3500
:10542000A3F108020CAB53F82530039263B909F1DC
:105430008043013B0CA901EB830353F8041D013D9C
:10544000083A0029F9D003924FF07E50039900F0FA
:10545000BDF9002D8346C0F22F816C1C0CAB03EB11
:105460008409A10000954FF06E584D46894648AB1F
:1054700003EB840455F8040D00F0BAFA594600F025
:105480000BFB414644F8040D584600F005FB0CABFD
:105490009D428346EED14946A9F108034FF0000929
:1054A000009D48AA34AC13440196A6464E46A84631
:1054B00099462346CDE9024704950591BAF1000FBC
:1054C00074DB8C4D4FF0000B2F4600244D460093AB
:1054D00001E0B4420DDC55F8041F57F8040B00F04E
:1054E000DBFA0146584600F0CFF90134A245834665
:1054F000EFDA009B08F1FF38B8F1FF3F43F804BB37
:1055000006F10106A9F10409D8D1DDE90164DDE95C
:105510000375669B0599022B4BDC002B19DC0ED121
:10552000002034AB5C1854F8041D00F0ADF934AB26
:105530009C42F8D1002F40F0B280099B186006F021
:1055400007005DB0BDE8F08F08230A93002306939F
:105550004FE54FF00009484634AB03EB010A5AF817
:10556000041D00F091F934AB9A45F8D1814601460B
:10557000349800F087F9002F40F08880099BC3F829
:10558000009065B14FF0010854F8041F08F10108BC
:1055900000F07AF94545F7DA0FB100F10040099BB8
:1055A000586006F007005DB0BDE8F08F4FF0000BCB
:1055B000A0E7669B032BC2D1002D00F08D8034AB99
:1055C00003EB850BD94653F825404FEA8508009533
:1055D00059F8045C2046294600F056F9A2460446D4
:1055E0002846214600F04EF9514600F04DF934AB03
:1055F000C9F8000049F8044D9945E9D1009D012DF5
:105600006AD034AB53F825401D1D5BF804AC20462E
:10561000514600F039F9A14604465046214600F0B3
:1056200031F9494600F030F9CBF800004BF8044D51
:105630005D45EAD1002008F1040434AB1C4403F1B9
:10564000080854F8041D00F01FF9A045F9D1349A58
:10565000359B87B909990A604B60886006F007009E
:105660005DB0BDE8F08F204600F0F2FB0CAB4D467C
:1056700043F82900E8E6099902F1004203F10043EA
:1056800000F100400A604B608860E7E7099B09F180
:105690000049C3F80090002D7FF474AF7DE700F15E
:1056A00000404AE7022F7FF48AAD01464FF07E505A
:1056B00000F0E8F8804682E5669B022B08DC002BB0
:1056C0000CDC7FF43CAF0020002F3FF436AFE6E760
:1056D000669B032B7FF433AF0020B8E734981FB9E3
:1056E0000023099A13605AE74FF00043099A1360A8
:1056F00053E700BFD46F000820F00042B2F1FF4F23
:10570000F8B504464ED2002A43D00028034650DBA9
:1057100010F0FF423ED0C1150024C3F31602A1F1E0
:105720007F05CB074FF0190E4FF0807C214642F4E5
:10573000000258BF52006D10520001EB0C0393425F
:10574000CFBF134603EB0C016444D31ABEF1010E24
:105750004FEA43024FEA5C0CEFD1ABB11A4E30680E
:10576000716800F08FF837680146384600F03CFB5E
:1057700050B13068716800F087F8366801463046ED
:1057800000F028FBE0B10234601000F17C5000EB27
:10579000C550F8BD5B001802114602F10102F9D5AF
:1057A0004942B9E7014600F077F9214600F06CF86C
:1057B000F8BD014600F066F8014600F021FAF8BD98
:1057C000013424F00104DFE70070000810B50C4636
:1057D00030F0004103461DD0B1F1FF4F1BD210F055
:1057E000FF4F02461BD14FF0984100F055F9204A77
:1057F000034694422CDBC0F3C75102464CF25030B2
:105800008442A1F1190110DD18461A4961F31E0006
:1058100000F042F910BD014600F036F810BD4CF220
:10582000503084424FEAD151EEDC2144FE29EBDCBA
:10583000002911DC11F1160F13DB01F1190022F020
:10584000FF424FF04C5142EAC05000F025F910BD24
:10585000094900F021F910BD22F0FF4242EAC1508F
:1058600010BD1846044961F31E0000F015F910BD83
:10587000B03CFFFFCAF249716042A20D80F00040C7
:1058800002E000BF81F0004142001FBF5FEA410318
:1058900092EA030F7FEA226C7FEA236C6AD04FEA18
:1058A0001262D2EB1363C1BFD2184140484041405D
:1058B000B8BF5B42192B88BF704710F0004F40F40F
:1058C000000020F07F4018BF404211F0004F41F42B
:1058D000000121F07F4118BF494292EA030F3FD0F7
:1058E000A2F1010241FA03FC10EB0C00C3F120030A
:1058F00001FA03F100F0004302D5494260EB400099
:10590000B0F5000F13D3B0F1807F06D340084FEA03
:10591000310102F10102FE2A51D2B1F1004F40EBF8
:10592000C25008BF20F0010040EA03007047490060
:1059300040EB0000013A28BFB0F5000FEDD2B0FAFD
:1059400080FCACF1080CB2EB0C0200FA0CF0AABF20
:1059500000EBC25052421843BCBFD04018437047BE
:1059600092F0000F81F4000106BF80F400000132C4
:10597000013BB5E74FEA41037FEA226C18BF7FEA9B
:10598000236C21D092EA030F04D092F0000F08BFDD
:105990000846704790EA010F1CBF0020704712F0C4
:1059A0007F4F04D1400028BF40F00040704712F103
:1059B00000723CBF00F50000704700F0004343F068
:1059C000FE4040F4000070477FEA226216BF08469E
:1059D0007FEA23630146420206BF5FEA412390EA61
:1059E000010F40F4800070474FF0000304E000BF57
:1059F00010F0004348BF40425FEA000C08BF704708
:105A000043F0964301464FF000001CE050EA0102CB
:105A100008BF70474FF000030AE000BF50EA0102E0
:105A200008BF704711F0004302D5404261EB4101CD
:105A30005FEA010C02BF84460146002043F0B643F2
:105A400008BFA3F18053A3F50003BCFA8CF2083A17
:105A5000A3EBC25310DB01FA02FC634400FA02FC20
:105A6000C2F12002BCF1004F20FA02F243EB020027
:105A700008BF20F00100704702F1200201FA02FC89
:105A8000C2F1200250EA4C0021FA02F243EB02007C
:105A900008BF20EADC7070474FF0FF0C1CEAD052C0
:105AA0001EBF1CEAD15392EA0C0F93EA0C0F6FD081
:105AB0001A4480EA010C400218BF5FEA41211ED05F
:105AC0004FF0006343EA501043EA5111A0FB01314B
:105AD0000CF00040B1F5000F3EBF490041EAD37120
