:1000000058140020313F0000990B0000A10B0000A4
:10001000A90B0000B10B0000B90B000000000000AC
:10002000000000000000000000000000990B00002C
:10003000990B000000000000990B0000250B000048
:10004000C10B0000210E0000550E0000390F00000A
:10005000690F0000790F0000890F0000990F000060
:10006000A90F0000B90F0000C90F0000990B000094
:10007000990B0000990B0000990B0000990B0000F0
:10008000990B0000990B0000990B0000990B0000E0
:10009000990B0000990B0000990B0000990B0000D0
:1000A000990B0000990B0000990B0000990B0000C0
:1000B000990B0000990B0000990B0000990B0000B0
:1000C000054B9860DA6818B922F00102DA607047CF
:1000D00042F00102FAE700BF00900040064B5A7858
:1000E0004AB9064A10F0400F4FF4006114BF118165
:1000F00091810022DA7270475000002000380540DC
:1001000010B50B4A117D4B1CDBB2692B08BF0023D5
:10011000947D9C4208D011441375064AC875D36873
:1001200043F00803D36002E0547DE406F0D510BD2F
:100130005000002000A000400E4A92F8C83013F092
:10014000040F0D4B4FF0400114BF1981998192F8B3
:10015000043182F8EA3092F8B030C821023B4B43B8
:10016000DB105B4282F8E930044A136943F0010373
:1001700013617047500000200038054000800040A7
:1001800030B5174A002392F8B10092F8B24082F8D5
:10019000043182F8053140FA03F1CD0709D5D3B116
:1001A000012B0CBF0221042192F80451294382F84B
:1001B000041144FA03F1CD0709D573B1012B0CBF2B
:1001C0001021202192F80551294382F805110133AD
:1001D000032BE0D130BD0121E6E70821F2E700BFA3
:1001E00050000020094BD3F8081171B193F80D218C
:1001F000D3ED4A7A42F0010267EEA77A83F80D2127
:100200000022C1ED057AC3F8082170475000002094
:100210002DE9F74F584E96F8448196F8450100278E
:10022000B84514BF43461023013BDBB298426AD065
:100230004FF0340B0BFB0362D2ED597AD2ED5A6AC0
:1002400092ED587A77EEA77A06F5A47967EEA67A4A
:10025000B4EE677AF1EE10FA48BFF0EE477ABB428F
:1002600014BF1C461024013CE4B2A042C2ED577AF0
:1002700035D003FB0B95002C14FB0BF3A24608BFF3
:1002800010242A46013C09EB030596F88834E4B2B1
:10029000A34203D10192FFF7A5FF019A0BFB0A636A
:1002A000D3ED586AD3ED577AF4EE667AF1EE10FA90
:1002B00012D0D3ED597A93ED5A6A37EEA77AD2ED80
:1002C000057AE7EE067AF4EEE76AF1EE10FAD8BFA7
:1002D000F0EE667AC3ED577AA042CCD105E096F8ED
:1002E0008834834201D1FFF77DFF431CDBB2342405
:1002F000102B00FB049108BF00230022984505D174
:100300000AB186F8457103B0BDE8F08F04FB0365C0
:10031000D1ED057AD5ED576AF4EEE67A13FB04F0D9
:10032000F1EE10FA484410D591ED077A91ED086A84
:1003300037EE077AE7EE067AF4EEE76AF1EE10FAA6
:10034000C2BFC5ED577A1F46012204FB036191ED40
:10035000577AD1ED587AB4EE677AF1EE10FA08BF09
:100360001F4603F10103DBB208BF0122102B08BFB7
:1003700000230146C2E700BF50000020064890F865
:10038000882490F8441191421DBF00F5A4703423D5
:1003900002FB03000020704750000020437C90EDDA
:1003A0000B7ADA0715D5174BDFED176A1B7A07EEC4
:1003B000903AF8EEE77A67EEA67A67EE877AB7EEBC
:1003C000000AF4EEC07AF1EE10FAC8BFB0EE670A88
:1003D00070475B070BD40B4BDFED0B6ADB7907EE45
:1003E000903AF8EEE77A67EEA67A27EE277AD0ED14
:1003F0000A7AF4EEC77AF1EE10FA58BFF0EE477AB7
:10040000DDE700BF500000200AD7233C064BD3F89D
:10041000A824C3F88C24D3F8AC24C3F89024D3F8D0
:10042000B024C3F8942470475000002010B5074B47
:100430004FF6FF72013880B2904200D110BDD3F860
:10044000B444D3F8B4148C42FBD0F3E7500000203E
:10045000174B1A6922F0010210B51A611A68154C7F
:1004600022F006021A6094F8B30022780023FF28D5
:1004700084F8B83411D194F8B91401F0FF0361B9CC
:10048000802A0CD094F8C820520748BF83F001039B
:10049000094A40214BB1118110BD042A03D0FFF756
:1004A000C5FF0123EEE70023ECE79181F4E700BFED
:1004B0000080004050000020003805409FED0D0AEC
:1004C00000F10C03B1EC017AB5EE407AF1EE10FACE
:1004D0000CD0D0ED006AC6EE877AF0EEE77AF4EE43
:1004E000C07AF1EE10FAD8BFB0EE670A0430984235
:1004F000E8D170479976967E0C4B0D4A1B8A92F88C
:10050000C82003F00703510658BF83F0070353B117
:1005100003F001009A0748BF40F002005B0703D5D3
:1005200040F0040070471846704700BF003805408F
:100530005000002010B5044614F8010B00B910BD9E
:10054000FFF7DEFDF8E7632838B51CD90A22B0FBB7
:10055000F2F302FB13003030C4B2D8B20A22B0FB6F
:10056000F2F302FB13003030C5B2D8B23030C0B263
:10057000FFF7C6FD15B12846FFF7C2FD4CB1204676
:10058000BDE83840BCE509284FF00004E6D8254610
:10059000ECE738BDB5EEC00AF1EE10FA7FB50546BE
:1005A00004D52D20FFF7ACFDB1EE400ADFED2B7A2C
:1005B0002B46012B33D86B08C3EBC31305EB430366
:1005C000DBB21BB1F2EE047A20EE270AF6EE007AD7
:1005D00030EE270A0024FDEEC07A0A2217EE903A88
:1005E000601CE4B203BB2E1BF6B2A54238BF002646
:1005F0000DEB0400344432463021E4B204F078FDBF
:10060000A54207D105F110036B446C1C302203F89E
:10061000102CE4B20DEB0406A4B904B070BD023B8B
:1006200020EE270ADBB2C4E704F110010DEB010450
:10063000B3FBF2F102FB1133303304F8103C0B46EC
:100640000446CDE7AC4202D12E20FFF759FD16F843
:10065000010D013CFFF754FDE4B2DDE70000C842A4
:10066000064B93F8C830DB07F0EE407A43BF9FEDAE
:10067000040A042027EE800A03208BE750000020A4
:100680008B42213D064B93F8C80010F00100F0EEBC
:10069000407A1EBF9FED030A012027EE800A79E70A
:1006A000500000208B42213D094B002283F8BA24E0
:1006B00093F9C820002AA4BF802283F8BA2428B165
:1006C00093F8BA2482F0800283F8BA24704700BFFE
:1006D0005000002000482DE7FD62000008B55D20B5
:1006E000FFF70EFDBDE80840F4E710B590ED000AF5
:1006F0000446FFF7B5FF2C20FFF702FD94ED010A39
:10070000FFF7AEFF2C20FFF7FBFC94ED020ABDE8DB
:100710001040A5E738B5054624200C46FFF7F0FC4D
:100720002846FFF710FF3D20FFF7EAFCE0B2FFF795
:100730000AFFBDE83840CDE738B5054624200C4611
:10074000FFF7DEFC2846FFF7FEFE3D20FFF7D8FC52
:100750002046FFF71FFFBDE83840BBE72DE9F04119
:100760002DED028B5C4C9FED5D8A94F8B01000205B
:10077000FFF7D0FF94F8B3100120FFF7CBFF94F8F8
:10078000B1100220FFF7C6FF94F8B2100320FFF764
:10079000C1FF94F8C8100420C1F38001FFF7BAFF2D
:1007A00094F8C8100520C1F38011FFF7B3FF94F946
:1007B000C8100620C90FFFF7ADFF94F8B4100A2047
:1007C000FFF7A8FF94ED2E0A03210B20FFF7B4FFDB
:1007D00094ED2F0A03210C20FFF7AEFF94F8C81008
:1007E0000D2001F00101FFF795FF94F8C8101420C7
:1007F000C1F34011FFF78EFF94F8C8101520C1F324
:10080000C001FFF787FF94F8C8101620C1F300114C
:10081000FFF780FF94F8C9101720FFF77BFF94EDD6
:10082000330A03211820FFF787FF94ED340A0321D0
:100830001920FFF781FFB4F8D4101A20FFF76AFFE0
:1008400094ED360A03211B20FFF776FF94ED300A62
:1008500000211E20FFF770FF00211F2094ED310AB8
:10086000FFF76AFF94F8C8102020C1F34001FFF79A
:1008700051FF0027642505F10308194E2C465FFA45
:1008800088F8022F1BD0032F1FD0012F14BF96ED25
:10089000000A96ED030A032120460134E4B2FFF773
:1008A0004BFF444506F10406EBD10A35EDB28C2D21
:1008B00007F10107DFD1BDEC028BBDE8F08196EDB9
:1008C000060A032180EE080AE6E796ED090A394692
:1008D000B1EE400AE0E700BF500000200000614593
:1008E000D000002010B504460448FFF723FE204640
:1008F000FFF729FEBDE81040ECE600BF28620000CB
:1009000008B9014816E6EDE72F620000094B188A86
:10091000C04300F0FF0310F078000AD0C3F30010CA
:1009200040001A0748BF40F001009B0648BF40F056
:100930000400704700380540084A0B1F0831D3ED0A
:10094000017AF2EC016AF8EEE77A043387EEA67AD0
:100950008B42A0EC017AF2D1704700BFD00000209A
:10096000024800F5956100F59B60E5E75000002026
:100970001FB50B4C0B48FFF7DDFD04F5A06101A886
:10098000FFF7DAFF01A8FFF7B0FE3A20FFF7B8FB48
:100990006079FFF7D8FD04B0BDE810409EE600BFC7
:1009A00050000020346200000B4B00F10C02F0EC10
:1009B000017AF5EEC07AF1EE10FA0ADCB3EC017AB6
:1009C000F4EEC77AF1EE10FA03D49042EFD1002092
:1009D00070470120704700BFF4000020EFF3108142
:1009E00072B6034A537D1843507581F310887047DF
:1009F0005000002008B5FFF7C1FC18B1BDE8084061
:100A00000220EBE708BDEFF3108172B6034A537D75
:100A100023EA0000507581F31088704750000020D1
:100A2000EFF3108372B6034A82F8B90483F3108897
:100A3000704700BF5000002010B5134C637DDB06EB
:100A400020D41020FFF7CAFF104AD36823F0010317
:100A5000D3600F4B4FF400629A812278237902F021
:100A60002C0103F006030B430CD0042A08D194F8A0
:100A7000B93413B90620FFF7D3FFBDE81040E7E40F
:100A80000320F8E710BD00BF500000200090004098
:100A90000038054010B5FFF739FF044688B1C1079B
:100AA00001D5FFF7C9FF620741BF064A537D43F0F6
:100AB00002035375A30741BF024A537D43F0080365
:100AC000537510BD5000002008B5074B1A78012A55
:100AD00008D093F8B9342BB9FFF7AEFFBDE8084052
:100AE00001209DE708BD00BF50000020EFF31081FA
:100AF00072B6044A92F80C35184382F80C0581F35B
:100B00001088704750000020EFF3108172B6044A3D
:100B100092F80D35184382F80D0581F3108870475F
:100B200050000020034AD2F8B4340133C2F8B43480
:100B3000704700BF500000208FB572B6134B144EA3
:100B4000144F40221A814FF4006500220021AC4668
:100B5000A3F80CC00192019CB4420FD91D810292EE
:100B6000029CB4420ED901318842F1D1039203991B
:100B7000B942EBD8039901310391F8E7019C0134A4
:100B80000194E8E7029C01340294E9E7003805404B
:100B90003F0D03007F841E0008B50920FFF7CCFF3E
:100BA00008B50120FFF7C8FF08B50220FFF7C4FF12
:100BB00008B50320FFF7C0FF08B50420FFF7BCFF0E
:100BC00038B5924A924C0023536194F8B83403F03C
:100BD000FF05002B40F009818E4894F8EB308188A6
:100BE00089B221F0380103F038030B4383808388F6
:100BF00094F8EA109BB223F007030B43838094F828
:100C0000E930C3F5807393645564136C43F00103BA
:100C10001364012384F8B83462B6D4F80051002D6F
:100C20004DD194F80E3594F80F15994200F0DE80FE
:100C300094F80E3504F5A26101EBC301C4F800116C
:100C4000D90004EBC303B3F812059060B3F8102584
:100C5000A4F8F82093F8143594F8FA209A4213D0A7
:100C600003EB830004F5A86202EB8002C4F8FC20C9
:100C7000142284F8FA3002FB0343D3F84C355B08A6
:100C8000C4E93833C4F8DC30D4F8FC2094F805010A
:100C9000137C434084F8EB306318106893F8151503
:100CA000C840C4F8EC0050689268C840C4F8F0002E
:100CB000CA4093F81605C4F8F420FFF701FA94F837
:100CC000A435012B14D1534B94F8BA241B8A03F09A
:100CD00080039A420CD0002384F8A4354E4BA3F134
:100CE000580207CA83E80700637D43F04003637539
:100CF0000023D4F8EC2084F8EA30D4F8FC10D4F8BF
:100D0000DC301344CA68C4F8DC3093420FD90120A8
:100D10009B1A84F8EA00087CC4F8DC30D4F8A834C4
:100D200005074CBF03F1FF330133C4F8A834D4F8EE
:100D3000E030D4F8F00003449A42C4F8E03012D214
:100D400094F8EA0040F002009B1A84F8EA00087C5C
:100D5000C4F8E030D4F8AC34C0064CBF03F1FF3324
:100D60000133C4F8AC34D4F8E430D4F8F4000344CC
:100D70009A42C4F8E43012D29B1A0A7C94F8EA0032
:100D8000C4F8E430D4F8B034920640F004004CBF0C
:100D900003F1FF33013384F8EA00C4F8B034237858
:100DA000042B01BFA37994F8EA20134084F8EA30B9
:100DB000B4F8F830013B9BB2A4F8F8305BB994F872
:100DC0000E25C4F800310132D2B2062A84F80E256D
:100DD00008BF84F80E3594F8EA3094F804215340A3
:100DE00084F8EA30002384F8B83438BDFFF730FBCC
:100DF000D4F8FC305B7C2BB1084B9D60DA6822F0A4
:100E00000102DA60BDE838400420E7E500800040D8
:100E100050000020003805405005002000900040A0
:100E200009490A4800234B65094B828893F804312D
:100E300092B203F0070322F00702134383800B6C86
:100E400023F001030B647047008000400038054028
:100E500050000020364B5868C3B23F2B10B423D04B
:100E600010F0C00F19D1182B1BD0212B20D0020657
:100E70004AD5843B1C2B58D8DFE803F01C1E57577B
:100E8000575757575757575724282A2C2E30323444
:100E900057363A3C3E40425744007E2BE7D1022071
:100EA00003E05DF8044BC7E501205DF8044B95E5D0
:100EB0000820FAE72020F8E71E4B1B789B0634D564
:100EC0004020F2E701205DF8044B0FE60220FAE72C
:100ED0000420F8E70820F6E71020F4E72020F2E7E6
:100EE0004020F0E78020EEE701205DF8044B0BE6A0
:100EF0000220FAE70420F8E70820F6E71020F4E7DC
:100F00002020F2E74020F0E70A4A92F8A51592F86F
:100F1000A6454B1CDBB2812B08BF00239C421EBFA1
:100F2000891882F8A53581F8A7055DF8044B70474C
:100F300000A0004050000020094A937DD1180133E1
:100F4000DBB2C87D0749692B08BF00234860937551
:100F5000127D9A4202BFCB6823F00803CB60704732
:100F60005000002000A00040024B0122C3F8002ED8
:100F7000AAE500BF00300540024B0222C3F8002E54
:100F8000A2E500BF00300540024B0422C3F8002E4A
:100F90009AE500BF00300540024B0822C3F8002E3E
:100FA00078E500BF00300540024B1022C3F8002E48
:100FB00070E500BF00300540024B2022C3F8002E30
:100FC00068E500BF00300540024B4022C3F8002E08
:100FD00060E500BF00300540074A4FF4FF2313F8D7
:100FE000011B02F8011BB3F5002FF8D1034B0122BE
:100FF00083F8282E704700BF78060020500000209C
:10100000024A1369DB07FCD5704700BF00000440AB
:1010100010B5074C94F8283E0BB9FFF7DDFFB0F58B
:10102000006F36BF2418FF2094F8280610BD00BFBB
:10103000500000202DE9F84304460E46154600EB0B
:1010400002080027A1EB000904EB0900FFF7E0FF0D
:1010500004F8010B002F0CBF0346431CA045DFB270
:10106000F2D17019FFF7D4FFC31B58425841BDE8B5
:10107000F883F8B5224C94F8283E0D460BB9FFF7DB
:10108000ABFFB0F5006F39D2044494F82836AB4278
:1010900034D01C4984F8285640F2231743F2102616
:1010A0000F600E60FFF7ACFF02238B60BFF34F8F22
:1010B0000123CB60FFF7A4FF134C00230B604FF418
:1010C000FF25A0786378000440EA032023781843C2
:1010D000E3780F600E6040EA0360FFF791FF0123A1
:1010E0008B60BFF34F8F45F8040BFFF789FF002398
:1010F000B5F5002F0B6004F10404E2D1F8BD00BF88
:101100005000002000000440780600202DE9F8433C
:1011100006460C46154601EB02080027A0EB010924
:1011200004EB090014F8011B002F0CBF0B464B1CED
:10113000DFB2FFF79EFFA045F2D139467019BDE836
:10114000F84396E708B50A210020FFF792FFBDE8B3
:10115000084002495C220120D8E700BFD0000020EF
:1011600010B5044C14F8010B00B910BDFEF7C8FF10
:10117000F8E700BF790E00200749002320FA03F2A8
:10118000D20742BF51F8232022F0110241F8232058
:101190000133102BF2D17047403C05400A4A00232E
:1011A00020FA03F1C9070BD552F8231021F00101F1
:1011B00042F8231052F8231041F0100142F8231096
:1011C0000133102BECD17047403C0540F0B50C4981
:1011D0000C4C00232025012620FA03F2D2070AD561
:1011E0001A1D03F1100744F823708F1806FA02F253
:1011F00087F800530A600133072BEDD1F0BD00BF23
:1012000000E100E01000054010B5094C0023072163
:10121000012021FA03F2D20744BF1A1D00FA02F29C
:1012200003F1010348BFC4F88020072BF1D110BDA2
:1012300000E100E008B50720FFF79EFFFFF7AEFFD3
:10124000054B93F8C8301B0702D5BDE80840BDE741
:10125000BDE80840D8E700BF500000200749002340
:1012600020FA03F2D20742BF51F8232042F00102D4
:1012700041F823200133102BF2D17047003C054088
:1012800010B54FF48070114CDFED116AFFF7E6FFE7
:101290000023FF2223606260A360E36001232360D8
:1012A0004FF48060FFF7DAFF0A4B93ED317AD3ED0C
:1012B000307A77EEC77A03F67C6286EEA77AE36827
:1012C00023F0010382ED007AE36010BD009000403E
:1012D00000007E4350000020F0B5354F0278BC5C22
:1012E0002D2C064607EB02031CD15C789D1C4FF0A9
:1012F000010C4FF0000E704673467246303CE4B26B
:10130000092C1DD80130C0B2082813D8BEF1000F37
:1013100001D0013B5BB202EB820204EB420215F802
:10132000014BEBE72B2C0ABF5C785D1C9D1C4FF03A
:10133000000CDEE7BEF1000FF1D101335BB2EEE746
:10134000FE2C05D1BEF1000F02D14FF0010EE6E7F1
:10135000E0B107EE902AF8EE677AF5EE407AF1EE0A
:1013600010FA08D09FED137A5A1C10DB14D19FEDB0
:10137000127A67EE877ABCF1000F01D0F1EE677A3E
:10138000ED1B013DC1ED007A01203570F0BD023347
:1013900067EE877A5BB2E7E7002BECD0B2EE047A17
:1013A000013B5BB267EE877A002BF9D1E3E700BF20
:1013B000790E00200AD7233CCDCCCC3D10B5184C7B
:1013C000FFF746F83822002104F5867003F090FEFE
:1013D0000021282204F1DC0003F08AFE0023012210
:1013E00084F80E35C4F8083184F80F3584F8802E5F
:1013F00084F8B834FEF7C4FE94F80511094A84F85D
:10140000EB10938894F804019BB223F00703034385
:10141000938093889BB223F038031943918010BDC9
:10142000500000200038054010B5094C1C22002156
:1014300004F28C4003F05CFE0023012284F888341F
:1014400084F8443184F8812E84F8453110BD00BF02
:101450005000002007B5244B93ED317AD3ED306A6C
:101460005A7AB4EEE67AF1EE10FA07EE902A0CDA28
:10147000F8EEE77A9FED1D6A67EE867A27EE800A1E
:10148000F4EEC06AF1EE10FA05D8C3ED046AFF204D
:1014900003B05DF804FBB4EEC07AF1EE10FA0CDB99
:1014A000B5EE400AF1EE10FA03BF00221A610020E7
:1014B00083ED047A18BF0120EAE783ED040A03F6FE
:1014C0007C63D3ED007A30EE470A20EE270A02F063
:1014D000E3FEF7EE007A30EE270AFCEEC07ACDED9F
:1014E000017A9DF80400D3E7500000200AD7233C7E
:1014F00010B5124C63784BB948B9114A00232361E7
:10150000D36823F00103D3600023E37210BD0D4BB9
:1015100010284FF480620CBF9A811A8194F8C83069
:101520009B0705D5DFED087A202808BFB0EE670AD3
:10153000FFF790FFFEF7C4FDE6E700BF5000002074
:101540000090004000380540000000009FED150AA3
:1015500010B50346044600F10C02F3EC017AF5EEF7
:10156000407AF1EE10FA18BFA7EEA70A9342F4D121
:1015700002F07CFDF7EE006A86EE807AD4ED007A08
:1015800067EE877AC4ED007AD4ED017A67EE877A48
:10159000C4ED017AD4ED027A67EE877AC4ED027A5F
:1015A00010BD00BF000000002DE9F84F2DED068BA7
:1015B000CD4C2379DA0700F1C580DFEDCC8ADFF866
:1015C000388394F80E3594F8807EBB4200F0BA80E0
:1015D000D4F8083194F804A0002B43D11AF0040980
:1015E00000F0A88094F84421C14D342302FB035538
:1015F000C4F8085194F80D2194F80C3112F001064A
:101600000AF0020B00F0A280002384F80D3195ED62
:10161000078A95ED089AC4ED498AF6EE00AA8AEE8B
:1016200088AA0BF0FF03BBF1000F00F0FE8002233D
:1016300084F8203195ED050AF0EE497AEAEE407A19
:10164000F5EEC07AF1EE10FA40F1EA8038EE088A41
:10165000A8EE490A02F00AFD84ED4C0A4AF0080A95
:1016600084F804A0D4F80891D4ED475AD9ED083A8B
:1016700094F80F35D4ED4D4A94ED4E3A94F80C2180
:101680009FED9C7A94ED4B5AD4ED4A7AD4ED49AA59
:1016900094ED4C2A9FED95AA73EEE55ADE00F5EE27
:1016A000405A04EBC303F1EE10FAF4EE434A83F818
:1016B000142548BFF0EE685A0023F1EE10FA94F8B2
:1016C00020210CBF02200120F0EE636A1946B0EE23
:1016D000474AF0EE471AF6EE002A012A00F0AA81E6
:1016E000032A99ED076A00F04E81002A00F07F81FD
:1016F00027EE066AB4EEE76AF1EE10FA0DD5B0EE09
:10170000671AA6EE621AB0EE668AA7EE418AB4EEB8
:10171000EA8AF1EE10FA00F3678176EEEA6A72EE79
:10172000277A76EEA66AB0EE6A8A86EEA77AF0EE9F
:10173000427A7DE1FEF722FE0546C4F80801002842
:101740007FF458AFBDEC068BBDE8F88F0133DBB2F8
:10175000052B18BF1E4606EB8603142101FB06412C
:1017600008EB830384F80C61C4F8843E2B7C81F879
:1017700050352B68D5ED086ADB00C1F840356B6841
:10178000C4ED448ADB00C1F84435AB68DB00C1F826
:101790004835EB6807EE903AF8EE677AD80087EEA6
:1017A000A67A02F008035BEA0303C1F84C05F7EEE2
:1017B000046AC4ED457AC6EE877A84ED467AC4EDB4
:1017C000477A26D0D4ED4C7AC4ED4A7A67EEA77AF0
:1017D00022F00802C5ED057A84F80D21142303FBDD
:1017E0000646002386F8513594F8C8309B077FF5EC
:1017F0000EAF6B7C99067FF50AAF95ED0B7AF7EE8D
:10180000006AC6EE877A012386F85135C4ED4F7A17
:10181000FDE695ED050A02F029FC84ED4A0ADDE7B4
:10182000C4ED497AC4ED4C8A18E784F8203184ED80
:101830004D9AB9F1000F46D194F888340133DBB2E8
:10184000102B18BF994694F844314B451DBF3423E3
:1018500003FB0949D9ED579ADFED249AB0EE690AE6
:1018600002F004FCB0EE406A284684ED4C6AFEF7B4
:1018700095FD60EE007AF0EE406A95ED050AF4EE13
:10188000C07AF1EE10FA3BD530EE676AB0EE497AD5
:10189000AAEE467AB5EEC07AF1EE10FA84ED4D7AF2
:1018A00016D838EE088A0223A8EE490A84F82031B7
:1018B00002F0DCFB94F80D3184ED4C0A43F0080390
:1018C00084F80D31CAE6B0EE686AF0EE689ACBE7AC
:1018D00077EEE97AC4ED4B6A67EE8A7A0323C4EDAA
:1018E0004E7A84F82031B9E6500000200000000054
:1018F000980100203EC32E399005002020FA52CED8
:1019000070EE695AB0EE497AAAEE257A27EE2A7A65
:10191000B5EEC07AF1EE10FA30DDB4EEC97AF1EE30
:1019200010FA29D537EEE96A26EE0A6AB4EEC67ACD
:10193000F1EE10FA84ED4E6A0FDDF4EE407AF1EE2E
:1019400010FAC4ED4B6A01D10123CAE777EEC07AE1
:10195000AAEE679A84ED4D9A80E638EE088AB0EEDA
:10196000690AA7EE080A84ED4D7A84ED4E7A02F0FA
:101970007DFB84ED4B0A71E60223B2E7C4ED4D8A8C
:1019800084ED4B6A6AE627EE066A37EEC51AB4EEB6
:10199000C16AF1EE10FA1FDB33EEE47A75EE277AB6
:1019A00077EE076A012386EEA77A19461A46F0EE0B
:1019B000457AB0EE648A3AEE07AAB4EEC4AAF1EE14
:1019C00010FA49D5F4EEC8AAF1EE10FA34EE4A7ACC
:1019D00047D5F0EE486A80E6B0EE671AA6EE621AC6
:1019E000E7EE416AB0EE668A77EEC67A20E027EE2F
:1019F000066AB0EE671AA6EE221AE7EE416AF4EE26
:101A0000E64AF1EE10FAB0EE668A0FDD33EEE47AC4
:101A100075EE277A77EE076A012386EEA77A0246EB
:101A20001946F0EE457AB0EE648AC4E777EE867A1E
:101A30000123C0E7B0EE668AA7EE458AB4EEC38AFA
:101A4000F1EE10FAB7D576EEC36A114686EE857AC6
:101A50000222B0EE438AAEE7B4EEE58AF1EE10FA68
:101A60004ADC0BB1C4ED4A7A09B184F82021D4F8DC
:101A7000843E5A7C237903F00803134317D099F866
:101A8000110010F030003AD099ED0C0A3AB1D4EDC3
:101A90004A7A94ED4F7A67EE877A20EE270AFFF7AD
:101AA000D9FC237984F8400123F008032371D4ED95
:101AB000469A94F8403168EE299A04EB060AB0EE93
:101AC000690A8AF8163502F01BFBB0EE409A94EDD5
:101AD000450A02F015FB70EE497AFCEEE77A17EE44
:101AE000903A9DB2AAF8105565B923799A0709D59D
:101AF00043F00103237125E634EE214A62E7C4ED89
:101B0000048ACEE7D4ED447A30EE690A7AEE277A79
:101B100087EE80AA1FED870A2AEE000A02F0F0FA8B
:101B2000FCEEC07A46F2A71217EE903A934240D8E4
:101B3000A219002182F815159BB27A1C84ED459AF2
:101B400039EE699AD2B2062A29EE0A9A2644F4EEB0
:101B500048AA08BF0022F1EE10FAA6F8123584F860
:101B60000F7584F8802E89ED088A84ED449A7FF4FD
:101B700028ADB5EEC08AF1EE10FA2379B8DC13F087
:101B80000402B5D194F8881494F84431C4F80821BB
:101B90008B423FF416AD4B1CDBB2102B18BF1A461C
:101BA00094F8453184F888248B4208BF84F8452195
:101BB00005E54CF24F32934211D90A4A934294BF41
:101BC00002220322A119D3409540B3F5803F81F84A
:101BD0001525A1F81055AFD34FF6FF73ADE70122DD
:101BE000F0E700BF9F8601002DE9F047AC4C94F868
:101BF000B9348AB003F0FF05C3B10123A9482370AB
:101C0000FEF798FC2846FEF79EFC013DFEF762FDBC
:101C10004FF4FA70FEF70AFC012D14D9EFF310838C
:101C200072B6002284F8B92483F31088637D03F030
:101C3000FF05002B00F07B82E80613D501236370BB
:101C40000AB0BDE8F0879848FEF774FC9748FEF7A5
:101C500071FCFEF743FD1020FEF7D5FE637DDD0627
:101C6000FCD5DBE715F0010600F0CC80904A07CAEE
:101C700001AB83E80700194604A8FEF75DFE3C208F
:101C8000FEF73EFA2378102B14D8102B1BD8DFE870
:101C900013F00101350137011A0033011A001A004F
:101CA0001A0005011A001A001A001A001A001A0078
:101CB0001A002301402B00F02581802B00F0328197
:101CC000202B00F0178194F8B43013F0010300F0DA
:101CD0002B81227B002A00F027817648FEF72AFC20
:101CE00004A8FEF702FD94F8B430990720D5724895
:101CF000FEF720FC94F8443194F8880483422CBF0A
:101D00000F3000F1FF30C01AC0B2FEF71CFC2C20CF
:101D1000FEF7F6F994F8A62594F8A535D0B29A42C4
:101D200094BF803800F1FF30C01AC0B2FEF70BFC40
:101D30006248FEF7FFFB237813F07C0F14BF94ED8D
:101D40004A0A9FED5F0AFEF79DFC2C20FEF7D8F9AA
:101D5000002094ED040AFEF71DFCFEF7CDFB804643
:101D6000FEF7D4FD574B94F8BAA4B3F8109009F0DD
:101D7000800948EA00038AEA09021343DBB20746F6
:101D800063B35148FEF7D6FBCA4502D05020FEF798
:101D9000B7F9B8F1000F11D018F0010F02D0582098
:101DA000FEF7AEF918F0020F02D05920FEF7A8F99D
:101DB00018F0040F02D05A20FEF7A2F977B1FA0703
:101DC00002D55220FEF79CF9BB0702D54820FEF74A
:101DD00097F97F0702D55320FEF792F9237B002B5A
:101DE00000F0CD80013B2373E77A002F00F0D9800B
:101DF000013FE7723E20FEF783F9FEF76BFC0120FE
:101E0000FEF701FE15F0E80F00F04581207881070C
:101E10006FB240F0328110F0280F00F00181A678F7
:101E20003F2E0AD8FEF7DEF902232028237104D1C1
:101E3000002F02DB66F07F06A6706A0605D58306D2
:101E40005EBFA37843F04003A3702E0703D51F287D
:101E50009CBF10232370A90640F10F811248FEF7A2
:101E600069FB1A48FEF766FBFEF738FC94F902207E
:101E7000A378002AC0F2FD802278402A40F0F68044
:101E80001A0704D523F01C0343F00203A370402378
:101E90002370EEE00E48FEF74DFB14E70D48FAE71D
:101EA000500000203A6200004162000047620000DA
:101EB000F804002089620000976200009C62000024
:101EC0000000000000380540A1620000B56200007B
:101ED000596200005E62000094F90230002B09DBB9
:101EE0005248FEF727FBA378D90717D53020FEF715
:101EF00007F9E8E64E48CEE74E48CCE74E48CAE739
:101F00004E48C8E74E48FEF715FBA3781A0701D5DF
:101F10003320ECE75F0703D59806E7D53120E6E7E5
:101F20003220E4E74748B6E7474F07A804A9002254
:101F3000F7EC017A022A97ED027A08BFDFF824C194
:101F400077EE877A08BF9CED107AE0EC017A04BF47
:101F500077EE277ACDED097A3BB9D1ED007A10ED15
:101F6000017A77EEC77AC1ED007A0132032A01F1D6
:101F70000401DDD1002B7FF4B0AE3448AEE6237807
:101F800013F07C0F0CBF09231D232373E37A0BB9D5
:101F90000123E3722E48FEF7CDFA07A8FEF7A5FB52
:101FA00022E723782B4813F07C0F0CBF092313235F
:101FB000E372FEF7BFFAE079FEF7C5FA2C20FEF7D0
:101FC0009FF8207AFEF7BFFA2C20FEF799F8607A86
:101FD000FEF7B9FA204BDB68D80706D51F4B9B8864
:101FE00013F4806F0CBF374602271C4B9B8803F409
:101FF0000066C3F3C02357EA83133FF4FBAE1848CF
:10200000FEF798FA2FB1012F0CBF53204320FEF7A3
:1020100077F8002E3FF4EEAE4620FEF771F8E9E6C1
:1020200000287FF40AAF0123A37006E76262000074
:10203000686200006C62000071620000776200005C
:102040007D62000083620000340500209062000081
:10205000A6620000AC62000000900040003805401D
:10206000B16200000C0500209976967E802A7FF4EC
:102070000EAFA37843F02003A370002F08DA237873
:10208000012B02BFA37843F00503A37080232370C4
:10209000E820FEF7B8FCAE0723D515F0680F1DD178
:1020A0002378402B07D1A37813F0200203D1D80660
:1020B00040F1E28022702378002B00F0E380DA0602
:1020C0000CD5A278D70709D5102B40F0DB80A37A76
:1020D000002B00F0D78043F00803A3720220FEF724
:1020E00092FC6E0723D5227894F9023012F0D00FBB
:1020F00000F0DD80E278002A40F0D980002BC0F2A9
:10210000D880FEF76FF894F8883484F84531FEF7EC
:102110007FF823799D0748BFA27823F0060344BFC8
:1021200042F00102A27023710420FEF76CFC94F8C7
:102130000C3503F0FF02002B50D0EFF3108372B682
:10214000002184F80C1583F31088E57912F0010F53
:102150000CBF2B466423900744BF0A33DBB25707FA
:1021600044BF0A3BDBB2160744BF0133DBB2D006E3
:1021700044BF03F1FF33DBB2C82B28BFC8230A2BAF
:10218000207A38BF0A2312F0200F14BF64210146C1
:1021900012F0400F18BF322112F0800F18BF192122
:1021A0009D4201D1814219D094F88854E37194F88A
:1021B00044711FED536ADFF8C48121720023E3727A
:1021C00029463426B94240F08D806A4B83ED066A79
:1021D000FEF708F884F84551FEF71AF894F80D3523
:1021E00003F0FF05002B00F0BF80EFF3108372B601
:1021F000002284F80D2583F31088627A15F0010F10
:102200000CBF13466423A90744BF0A33DBB26F0730
:1022100044BF0A3BDBB22E0744BF0133DBB2E80602
:1022200044BF03F1FF33DBB2C82B28BFC8230A2BFE
:1022300038BF0A239A420CD022786372002A73D1E5
:102240004D4B94F8C50493ED030AFFF751F90023B1
:10225000E372A906237840F18580102B40F082803C
:10226000A37A002B76D102233F2DA37265D80AB042
:10227000BDE8F047FFF798B9590744BF43F008039A
:10228000A37018E700232371FEF778F858B1A378FC
:1022900013F0400307D1A37008232370FFF784F9DC
:1022A000FDF74AFF1AE70023A370237016E7002BFF
:1022B00009DA00232371FFF7B7F8FFF77FF8FEF77D
:1022C0004FFBFEF7A3F8A37813F020021FBF03F023
:1022D0007F0343F00103A370402312BF2370A27059
:1022E000227021E701FB0680FEF758F8B4EEC60A1B
:1022F000F1EE10FA06FB0143CCBF26EE066A20EE93
:10230000006AD3ED5B7A0131B4EE676AF1EE10FA40
:10231000C9B2C8BFB0EE676A102983ED586A08BF1A
:102320000021B0EE406A4DE7237943F008032371A2
:102330008DE713B113F0380F16D094F8C404430698
:102340004CBF00F0BF0040F04000FDF7C7FE84F82E
:10235000C40409E0DA0702D543F00403A3723F2D59
:10236000EBD801E03F2DE4D82378032B7FF668AC4F
:102370007DE700BFDC0400200C0500209801002050
:10238000F3EE047A70B520EE270A064601F0B8FE97
:10239000BCEEC00A0C4D10EE103A9CB29CB16B78AA
:1023A0008BB95EB900F012F8D5F8B424D5F8B4347E
:1023B0009B1A312BFAD9013CA4B2EFE7FFF714FCCA
:1023C000AB789B07F0D570BD500000202DE9F0419F
:1023D000724C2DED028BFFF707FCA378002B58D031
:1023E000FDF7CCFF98B994F8C43494F8C5541D4354
:1023F00004F2BC4393ED038A94F8C830990702D5E0
:102400002020FEF781FBDFED668A002627E0654B82
:10241000457C9B8890ED0C8AC3F3C02305F0300502
:1024200045EA8315E8E767789FBBDA0715D5227878
:102430003F2A6FD913F0040815D14046B0EE680A60
:1024400084F80A80FFF754F84046FDF747FEA3786A
:1024500023F0020343F00403A370FFF7C5FBA37846
:10246000002BE0D115E0802A1AD14F489FED4C0A8D
:10247000FEF760F84D48FEF75DF8FEF72FF9384695
:10248000FFF736F83846FDF729FEFDF7E1FF6378E0
:102490001BB1BDEC028BBDE8F081FFF7A5FBF6E7B1
:1024A000402A04BF23F02003A370A3781807D4D5D3
:1024B00094F8C5244AB1990707D494F8C8309A070C
:1024C0001CD5237943F00803237194F8C4345BB11D
:1024D000A3789B0708D405F0C000FDF7FFFDB7EE19
:1024E000000A0120FFF74CFFA3789F07B5D443F003
:1024F00010030220A370FEF771FAAEE7B0EE480AAF
:1025000005F03000FEF7F4FF0120B1EE000AFFF7FE
:1025100037FFDAE7A37A8BB398070AD594F8C53466
:102520001BB39FED1F0A3846FEF7E2FF0123A3729B
:1025300093E713F00C0F90D094F8C5347BB11A4890
:10254000FDF7F8FF1A48FDF7F5FFFEF7C7F894F816
:10255000C83099070BD5237943F008032371A37A78
:102560001A0702D50220FEF739FAA67275E7B0EE17
:10257000480A05F03000FEF7BBFFF0E723791B07A0
:102580007FF56BAFB0EE480A05F03000FEF7B0FF04
:10259000237923F0080323715FE700BF5000002078
:1025A000000000000038054041620000C0620000E9
:1025B000C962000010B5FEF71DFA064CFFF706FFD2
:1025C000637833B9FDF7DAFE0028F7D12378082BBA
:1025D000F4D010BD5000002070B551230D4E4FF4C3
:1025E000407503FB00555022294606F62960FEF788
:1025F00021FD044658B986F8290EFFF7DBFF28466F
:10260000502206F62961FEF781FD204670BD0120AB
:10261000FCE700BF5000002010B52DED028B0A4BE7
:102620001B78022B0446B0EE408A0AD0FFF7C2FFA7
:10263000B0EE480ABDEC028B2046BDE81040FEF724
:1026400057BFBDEC028B10BD5000002038B50446CA
:102650000D46FFF7AFFF4FF400730D20294600FB36
:1026600004300C22BDE83840FEF750BD30B50546B9
:10267000E80785B006D51D491D485C2202F090FD93
:10268000FEF760FDA9070AD50024CDE901440394B3
:10269000E0B201A90134FFF7D9FF082CF8D16A078D
:1026A00013D500214FF44070FEF7E3FC002140F207
:1026B0000130FEF7DEFC002140F25130FEF7D9FC7C
:1026C000002140F25230FEF7D4FC2B070CD500213C
:1026D00040F2AE30FEF7CDFC002140F2AF3005B045
:1026E000BDE83040FEF7C5BC05B030BDC45D00009C
:1026F000D000002070B54FF400730D460D2101FB92
:10270000003106460C222846FEF794FC044640B9E8
:10271000C5E90000A86029463046FFF797FF20462C
:1027200070BD0120FCE708B5FFF744FF014B002214
:102730001A7308BD500000202DE9F04F2DED048BD9
:10274000A34D95F8444105F5A47834278A4604FB47
:10275000078895B006463A460021404602F0C8FC7C
:1027600007FB04579AF80890DAF80430C7F8783174
:1027700019F0020387F85991009314BF05F5956588
:1027800005F28C4595E807000BAB83E80700914AFA
:10279000019634270EA90DF1200BA2F180066743A4
:1027A000CDE90218CDF810B00025F119CDE90631B8
:1027B000019BB2EC018AB3EC010A059220EE080AF3
:1027C000019301F0E7FB029B039A43F8040B029389
:1027D000069B079953F804EBA0EB0E0E07EE90EA68
:1027E000F8EEE77A8EEAEE7087EE887AA0EBEE706C
:1027F00042F8040B06EB070C0392DCF854219042DC
:1028000038BF1046049ACCF85401B5EEC07AA2EC59
:10281000017AF1EE10FA0492059A0ED5002D00F01F
:102820008780012D0CBF4FF0100C4FF0200C91F859
:1028300058E14CEA0E0C81F858C10135EDB2032D78
:10284000B4D100286FD008AF3846FEF77FFE34229F
:1028500002FB0462604882ED5A0A3946B0EE406AD3
:10286000FDF72CFE5D4882ED590A3946FDF726FE3C
:1028700019F0010F82ED5C0A06D19AED000A19F0F9
:10288000080F18BF20EE060ADFF844919FED548A26
:10289000342202FB049181ED5D0A99F88814A1426B
:1028A00002D0009B002B46D002FB049383ED578A95
:1028B00083ED5B8A009BABBB4046FDF76FFD494A49
:1028C000D2ED067A82ED060AF4EEC07A3421F1EEFA
:1028D00010FA01FB04944CBF67EEA77A60EE007A11
:1028E00094ED5B7AF4EE477A1346F1EE10FA97E82E
:1028F0000700C8BFF0EE477AC4ED587A3A4C84E836
:1029000007000EAA07CA83E8070096F8813E86F8FA
:1029100044310133DBB2102B08BF002389F8813E1C
:10292000FDF776FC012015B0BDEC048BBDE8F08FFF
:102930004FF0080C7BE711AA09F593619246B1ECC0
:10294000017AFBEC017A013DA7EE678A15F0FF05DD
:1029500077EEC77AE2EC017AF1D1DFED247AB4EEBA
:10296000E78AF1EE10FA28DCDFED217AB4EEE78A8F
:10297000F1EE10FA29D45046FEF7E8FD164851460C
:10298000FDF79CFDB7EE009A39EE488AF0EE408ADA
:10299000B6EE000A28EE000A01F068FBD6ED2E7AAA
:1029A00068EEA78A39EE409A68EE808AC8EE897A86
:1029B000F5EEC07AF1EE10FA01D5DFED097A342395
:1029C00003FB0493C3ED5B7A76E7DFED0A7AF6E763
:1029D00050000020D0000020E8000020DC00002093
:1029E00000000000DC040020E8040020EFFF7F3F2F
:1029F000EFFF7FBF9976967E70B5234C94F8C83070
:102A00009B060D46064621780FD5202910D0FDF7EC
:102A1000CBFF50B101230829E37019D0FEF70CF861
:102A20000220FDF7FDFFFFF7D1FC2378022B0ED02B
:102A3000FFF7CCFC637853B994F8882494F8813E6E
:102A40009A4211D029463046FFF776FE78B170BD24
:102A50000846FDF7C3FFFFF7B9FC6378002BE4D10C
:102A60002378002BF7D1D9E7FDF7C4FFE0E794F80E
:102A7000C8309A07EBD52B7ADB06E8D595ED010A2D
:102A80001020BDE87040C7E5500000202DE9F04F50
:102A90002DED028B854C637889B00746002B40F002
:102AA000FC80CDE90533062204F180089FED806AA1
:102AB000079301A98DF81C20BFEE087A4246002B2F
:102AC00000F09080012B0CBF0220042001F8010BC4
:102AD00047FA03F0C5070AD5D2ED097A67EE877A7F
:102AE000F4EEC67AF1EE10FA58BFB0EE676A013321
:102AF000032B02F10402E2D194ED348ADFF8B4A191
:102B000004254FF001094FF0000B514602A8FDF7D4
:102B100013FF002394F8C90002A91E461A460DF1BE
:102B2000040C47FA02FE1EF0010F13D040FA02FE19
:102B300001331EF0010FDBB256D0B9F1000F56D0B1
:102B4000F1EE467A12F80CE04AF822B0C1ED007AB4
:102B500046EA0E060132032A01F10401E1D107EE33
:102B6000903AB8EE670A01F081FA28EE008A05A9CA
:102B700002A8A6718DED058AFFF7DEFD04232371FF
:102B8000FEF712FDFDF7D8FAB9F1000F11D0FDF7ED
:102B9000B3FC01AA002312F8011B314205D040FA10
:102BA00003FC1CF0010F18BF8E430133032BF2D13D
:102BB000A671FEF7F9FC637D13F0340F72D0637DCC
:102BC000D9B2DB0602D50620FDF72AFF8E0602D514
:102BD0000720FDF725FFB9F1000F0BD0480710D5EE
:102BE00009200CE0012071E7B9F1000FA8D0F0EE48
:102BF000467AA7E7FDF780FC384202D00820FDF7AF
:102C00000FFF94F8B93443B1FDF716FF09B0BDECDE
:102C1000028BBDE8F04FFFF7D9BB0420FDF7F3FEB0
:102C2000FEF7CCFBB4F8D400FDF700FC99F00109E5
:102C3000D4ED337A94ED366A94ED348A18BFB1EE50
:102C4000047A05F1FF351CBF26EE076AB0EE678AED
:102C500015F0FF057FF459AF164E47FA05F3DA0772
:102C600014D594F8C930D4ED367A98ED000A2B418A
:102C7000DB0745BF98ED097A77EE877A27EEC00A21
:102C800027EE800A01F086F946F825000135032D6C
:102C900008F10408E1D10023237109B0BDEC028BD7
:102CA000BDE8F08F71077FF46FAFB9E750000020E7
:102CB00000000000F80400202DE9F04F2DED0C8BF2
:102CC000DFF800A3402200218FB00AF6886002F0EE
:102CD0000FFA0AF2BC4303CB1A889B788AF8933E1A
:102CE0009AF8293ECAF8890E242BCAF88D1EAAF834
:102CF000912E0AF2BC4B4FF0000340F055820127A1
:102D00008AF88A3E8AF8897E03230024CDE90244AA
:102D1000DFEDAA8A8DF81B30A046264699E1A5F181
:102D20004102192A01F29680013307A90DF11B0017
:102D30008DF81B30FEF7D0FA002801F08E809DED53
:102D4000078AB0EE480A01F02BFBFCEEC07ACDED0D
:102D5000017A9DF8049007EE909AB8EEE70A38EEF3
:102D6000400A20EE280A01F0A5F9BCEEC00A472D62
:102D700010EE103A9BB21DD04D2D00F02581463D3E
:102D8000142D00F28D80DFE815F09E018B008B0082
:102D9000B801C101CA01D3018B00D7018B00DF014B
:102DA0008B00E401E901EE018B008B008B00FA013E
:102DB00001020802B9F13D0F74D8B9F1250F24D8EA
:102DC000B9F11E0F6CD8B9F1090F55D8B9F1030F3D
:102DD00063D8002E41F044800226B9F1260F8AF80C
:102DE000899E40F0E880A3F1140292B21E2A57D8BF
:102DF000734921FA02F2D20752D50A22B3FBF2F349
:102E0000763B8AF8893E012289E0A9F12602172A39
:102E100046D801A151F822F0D32D0000A12E0000C8
:102E2000AF2F0000A12E0000A12E00007D2F00007A
:102E3000A12E0000A12E0000A12E0000A12E000056
:102E4000A12E00007D2F0000A12E0000A12E000069
:102E5000A12E0000FF2E0000992F0000992F0000E6
:102E6000992F0000992F0000992F0000992F000042
:102E7000A12E0000A52F0000A9F10A02142A0FD8E4
:102E8000DFE802F0380E0E0E0E0E0E545454767615
:102E90000E0E0E0E0E0E380E3800B9F1040F2ED0A5
:102EA00014254BE0A9F15002D1B20E29F8D80E2A10
:102EB000F6D801A151F822F0DB2D0000A12E000070
:102EC000A12E0000A12E0000A12E0000A12E0000C6
:102ED000A12E0000A12E0000A12E0000A12E0000B6
:102EE000492F0000492F0000F52E0000652F00003B
:102EF000652F00001BB9002E40F0B287012609F0B3
:102F0000FD021C2A8AF8889E02D0B9F15C0F50D1CC
:102F10000BB10A2BC4D199448AF8889E0022029BE7
:102F20001341DD0740F18F80152507E0A9F1110954
:102F30008AF88D9E0222002BF1D0172528460FB06B
:102F4000BDEC0C8BBDE8F08F2BB9A9F15A098AF8BA
:102F50008C9E0322E3E70A2BA2D1B9F15A0F9FD02E
:102F60000422DCE7C9F15E098AF88A9E0522E2E7BD
:102F7000C9F115098AF88B9E0622DCE7002E40F085
:102F80006F87B9F1310F02D00A2B89D101268AF857
:102F90008E6E08220326C2E7A9F136098AF88F9EB1
:102FA0000922C8E7002B7FF47BAF0A22B7E707228C
:102FB000C1E70022BFE70122BDE700BF0000C84211
:102FC0000104104050000020002BB6D1B9F1090FC8
:102FD00018D8B9F1070F2BD8B9F1020F19D9A9F1F7
:102FE0000303022B3FF65CAFB9F1040F1DD0B9F11A
:102FF000050918BF4FF001094FEA09198AF8929E96
:103000000C228CE7B9F11E0F7FF44AAF8AF8909E2C
:1030100005E0B9F1000F04D0B9F1010FF6D10B2290
:103020007DE703238AF8903EF9E74FF02009E5E7B2
:10303000B9F1090F1CBF9AF8913E43F040038AF89A
:10304000913E0D226BE701239340029A1A4393B2FB
:1030500002939DF81B300AEB030292F8295E002DC3
:103060007FF45DAEB8F1000F02D0002E08BF02263B
:10307000A20605D5DAF8A82E9D4B9A4200F31487D4
:10308000002F00F09380E30740F1A2809AF88B3E76
:10309000012B08D1974B9FED987AD3ED037A67EE19
:1030A000877AC3ED037AE2055EBF924BDBF80C2012
:1030B000DA629AF8883E042B40F09C80630600F1A7
:1030C00096801C253AE78B4B83ED038A002344FA54
:1030D00003F2D00700F1CA8640F261321A41D107EB
:1030E00005D5B5EEC08AF1EE10FA00F1C2860122D4
:1030F00002FA03F323439CB2ABE77E4B83ED048AD1
:10310000039B43F0010303930123E0E7794B83ED35
:10311000058A039B43F0020303930223D7E7754B11
:1031200083ED068A039B43F0040303930323CEE756
:103130008AF8A49E0423CAE7FDEEC87A17EE903AF7
:10314000CAF8A83E0523C2E76A4B83ED098A062325
:10315000BDE7684B83ED0A8A0723B8E7654B83ED2B
:103160000B8A0823B3E7DFED657AB4EEE78AF1EE68
:1031700010FA00F378868AF8B89E0923A7E75D4B1A
:1031800048F0010883ED0D8A0A23A0E7594B48F067
:10319000020883ED0E8A0B2399E7564B48F004088A
:1031A00083ED0F8A0C2392E71F46AEE59AF88A3E1C
:1031B000012B0FD1022E7FF476AF9AF8893E502B67
:1031C0003FF471AF002B3FF46EAFE0073FF56BAFFC
:1031D0001625B3E69AF8BD34002B7FF464AFE107FF
:1031E0003FF554AF434BDBF81020DA605BE724F087
:1031F0004004A4B29AF88D9EB9F1000F3FD0B9F106
:10320000010F41D000230593022301934FF00109E0
:103210009AF88B3E012B3ED0032E07D19AF88E3EB2
:10322000012B03D1B8F1040F40F04186344A07CA9C
:1032300008AB83E80700029A920542D49AF8883EC8
:103240000A2B4FD05C2B00F0CC80032E40F0FF8087
:103250001E2B00F04281352B00F054811C2B40F0D6
:10326000EE8028490620FFF745FA002838D0B8F14B
:10327000000F40F03581CDF8108046469EE00223D5
:10328000059301230193C3E70023CDF81490019324
:103290004FF00209BCE71C4A9FED177A002348FA59
:1032A00003F1C90744BFD2ED007A67EE877A03F1D4
:1032B000010348BFC2ED007A032B02F10402EED1F4
:1032C000AAE79AF88F0E062801D91D2536E69AF846
:1032D000C2248242B2D01946FFF70CFA0028ADD1C1
:1032E00007252BE6B8F1000F10D11A2526E600BFFE
:1032F00080969800D80E00203333CB4100007F43E6
:1033000034050020E80E00200C0F002014F0500FB0
:103310003FF4D7AEAF4B93ED090A01F041F8FCEE54
:10332000C07ACDED047A9DF81030062BCDD89AF8EE
:10333000A42E142A05D0022A7FF4B2AD20063FF550
:10334000AFAD002B47D0013BDBB2DFF88CA204937A
:1033500004980AF69861FFF7CDF90028C0D09AF8D2
:10336000A4CE0AF6986200230AF2BC4A48FA03F196
:10337000C90719D5BCF1140F92ED097A2ED1DAEDF7
:10338000077ADAED0D6A77EEE67A022B77EEC77AE6
:10339000C2ED007A08D18F49A1F6CC1090ED107AD9
:1033A00077EEC77AC1ED067A0133032B02F10402EE
:1033B0000AF1040ADAD124F05004A4B2864B93F83F
:1033C00089BEBBF1500F40F0A480B8F1000F00F0AF
:1033D00010811F25B2E59AF88F3EB6E782ED007A9C
:1033E000E2E7B8F1000F80D07C4908A801F520621F
:1033F000002348FA03FC1CF0010F23D090ED007A63
:10340000D1ED077A77EEC77A92ED007A77EEC77A38
:10341000022BC2ED007A09D1DFF8B8C1ACF6CC1EA0
:103420009EED107A77EEC77ACCED0F7A0133032B3D
:1034300001F1040100F1040002F10402D9D10023DA
:103440000493BBE7D1F834C0C2F800C0EEE7B8F18E
:10345000000F3FF4FDAE62490DF1200E01F6E412BB
:10346000002048FA00FC1CF0010F0DD1D1F800C07B
:10347000C2F800C00130032801F1040102F1040286
:103480000EF1040EEDD1E3E6352BF3D0DFF848C1A1
:1034900092ED007A9CF88CAEBAF1000F16D1DEEDF9
:1034A000007AD1ED066A77EEA67A022877EE877A5F
:1034B000C2ED007ADED10CF6886A0CF2BC4C9CEDB1
:1034C000107A77EE277ACAED0F7AD3E7D1ED007A3A
:1034D00077EE877AC2ED007ACCE742490720C2E650
:1034E0003E4A002302F6CC1148FA03F0C0075CBF45
:1034F000D06908610133032B02F1040201F10401D8
:10350000F2D19CE7344B93F8893E012B97D91E25C5
:1035100014E5022E6DD1BBF1000F05D1B8F1000604
:1035200018BF0126760064E003F68863D3ED037AC2
:10353000F5EE407AF1EE10FA3FF44AAEBBF1030F1C
:1035400005D051D8BBF1010FE8D047F00407B8F11E
:10355000000F3FF4CAAE019A012303FA09F1934028
:10356000194318EA010F00F0A5841B4B03F2BC427B
:1035700002EB890003F6886AD0ED077A01980AEB1E
:10358000890CDCED0D8A02EB80020AEB800C78EEF0
:10359000E78A9CED0D8AD2ED077A14F0800238EEAE
:1035A000678A00F0D58003F6BC6103F59B600C22AE
:1035B00001F090FEAAF68863002870D12125BDE4B1
:1035C000ABF18D03022B00F22281DFE813F01E0124
:1035D00020011E01D80E0020500000200C05002004
:1035E00028050020E80E00200BF17403DBB2032B4A
:1035F000E6D917F0010315BF24F0210424F4487420
:10360000A4B224F0010416B124F4E054A4B2002CB6
:1036100040F05984CDE90C44002B00F01B81029B43
:1036200023F04903002B40F05184834E96F8883EE6
:10363000352B02D0002B40F04984804C96F8C424EE
:10364000E3680C9396F8C534134343F0040304F67F
:10365000CC128DF8343096F8C830D2680B9213F043
:10366000200F04F5206405D02046FDF79DF90028C1
:1036700040F02F840BA92046FFF7BEF9337843B9F9
:10368000FCF77CFE28B120233370FDF78DFFFCF79B
:1036900053FD94E807006A4B83E807004EE493F873
:1036A0008B3E012B02BFDAED0A7A9FED667A67EE58
:1036B000877A68EEA8AA08BFCAED0A7A9AED0A9A34
:1036C000F1EE007A69EE277AB0EE6A0A99EE270ADF
:1036D00028EE08AA30EE4A0AB5EEC00AF1EE10FA5A
:1036E00000F1EB8300F0C2FCF0EE409A3AEE8A0A59
:1036F00000F0BCFCF1EE699AC9EE807ABBF1030FD1
:103700000AEB890324F08004A4B2B5EEC09A08BF86
:10371000F1EE677AF1EE10FA48BFF1EE677AB0EE9B
:10372000687AA8EE677AF6EE006AA8EEA78A27EE16
:10373000267A28EE268A83ED047A019B44BFB1EEF7
:10374000499A8AED0A9A0AEB830A8AED048A50E7BD
:103750000398014200F0B48393F88B1E24F00E040A
:103760000129A4B23BD00AEB8903D3ED049A019B53
:103770000AEB830393ED049A38EE498A78EEE98ADE
:1037800028EE080AA8EEA80A00F070FCB0EE408A05
:1037900029EE090AA9EEA90A00F068FC78EE407A41
:1037A0009FED297A8AED0A0AF0EEE77AF4EEC77AFD
:1037B000F1EE10FA7FF71DAFB6EE007AF4EEC77A9D
:1037C000F1EE10FA3FF7FAAE9FED207A20EE070AED
:1037D000F4EEC07AF1EE10FA7FF70BAFEEE69FED54
:1037E000197A03F6986303991141C90744BFD3EDD1
:1037F000007A67EE877A02F1010248BFC3ED007AD2
:10380000032A03F10403EED1ADE747F010070BF1F3
:103810007203DBB2012B98BF47F00807B8F1000F25
:103820003FF463AD0A490C22A1F6E41001F052FD09
:1038300000287FF4DEAEC1E6500000200C05002019
:10384000280500203333CB410AD7A33B6F12833ABC
:103850000C0F0020A34C94F8C8309B070FD50BF138
:10386000FF3BBBF1020F88BF47F04007B8F1000FE4
:1038700000F0D580022E40F0D28047F08007D4F8C7
:10388000A83EC4F8D43494F88A3E84F8BD3413B109
:1038900008238DF83430DFF864A2AAF6CC1B9AED29
:1038A0000B0ADBED037A9AED03AAF4EE407AF1EE0F
:1038B00010FA8BED04AA8DED0BAA07F0400801D198
:1038C000B8060FD594F8C50440B1390606D4B8F14E
:1038D000000F01D09FED840AFEF79EFEDAF82C302F
:1038E000CBF80C30B8F1000F02D1DBF80C300C93A0
:1038F00094F8B83E94F8920E84F8D03494F8C53415
:10390000834207D09DED0C0AFEF786FE94F8923EA6
:1039100084F8C5349DF8348094F8C53494F8910E39
:10392000029048EA030894F8C4348DF83480834246
:103930000BD02378022B04D0FEF73CFE0298FCF754
:10394000CDFB94F8913E84F8C43494F8C43448EA2A
:10395000030894F8883E8DF83480042B0BD123782B
:10396000022B08D09AED098AFEF724FE0020B0EE63
:10397000480AFEF705FD94F88D3E84F8C034032E06
:1039800094F88B3E84F8BE3414D194F88E3E84F8BB
:10399000C13413B90023CAF83C30DAED0F7A9BED3D
:1039A000107AB4EE677AF1EE10FA03D0CBED107A0C
:1039B000FEF7B9FE94F88F3E94F8C2249A4208D0DC
:1039C00008AA07CA84F8C234484B83E80700FEF708
:1039D000AAFE94F88C3E84F8BF3494F8883E262BD7
:1039E00066D032D803F0FD021C2A4BD00A2B35D00A
:1039F00094F8893E84F8BC34502B00F0A981022E43
:103A000040F0A681012B64D139480BA9FEF7F4FFE1
:103A1000384B03F6E41207CA83E8070098E194F8EC
:103A2000C534102B7FF42BAF94F8BC34013B022B30
:103A300007F0400205D8002A3FF421AF47F02007E5
:103A40001DE7002A7FF41BAFF8E75C2B35D0662B0F
:103A500038D0282BCCD1274907202BE0DFF8A080D5
:103A600004984146FEF7F2FD94F8C234049A93425A
:103A7000BED198E80700A8F6B41383E80700FEF764
:103A800052FEB5E748F001088DF834801EB11848A1
:103A90000BA9FEF7B1FFDFF868800BA94046FEF7DF
:103AA000ABFF98E80700A8F51C6383E807009FE7D1
:103AB00010490620FEF7CAFD9AE70F4B03F6CC1219
:103AC00007CADAE70C4A0023C4F8F034C2E901332C
:103AD000D5E7BBB99DF8343043F001038DF834309D
:103AE00092E700BF500000200000000034050020D5
:103AF0000C0F00202805002040050020D80E0020D3
:103B0000E80E0020023B012B00F2FB80DA4B019A09
:103B10009AED0ABA03F51C6603EB890806EB890ADD
:103B200003EB820B06EB8206DAED006AD6ED000AA3
:103B300098ED009ADBED009A04EB890904EB820210
:103B400002F6BC6209F6BC6992ED007A99ED006A52
:103B500036EE899A70EEA99A36EE496A37EE697A9E
:103B600020EE860AF1EE60AA60EEC70AA6EEC70A4A
:103B7000E6EEC60AF1EE66BA00F09AFA7A07B0EEFF
:103B8000408A40F19280DFEDBD7AB4EEE70AF1EEB3
:103B900010FA03DBDFEDBA7A30EE678AD4ED2F7AC4
:103BA000F0EE008AB0EE670A9BEE280AB6EE00DA65
:103BB00027EE800A00F05AFA68EE0D7A67EE8B7AEB
:103BC000F0EEE77A87EE800A00F066FBBCEEC00AF2
:103BD00010EE103A9BB20193002B3FF415AF07EEA5
:103BE000903AB8EEE77A9DF83420A34B9FEDA5CA32
:103BF000C8EE07CA12F0080F1CBF22F008028DF8A9
:103C00003420059A03EB820704EB820202F6BC62C1
:103C10004FF0010918BF6AEE077AD7ED006A18BFA6
:103C2000CDED0B7AD2ED007AECEEEC8A002277EE45
:103C3000E67A2CEE8CCA87EE87BAF1EE007A78EE3F
:103C4000A77A68EE8D8A2CEE27CA019B1FFA89F1AC
:103C50008B427FF6D9AE0C2A33D028EEAA7A6AEED0
:103C6000CC7AACEE2B7A0132D2B2E8EEAB7AF0EE3F
:103C700047AAF0EE67BA79EE2B7A0BA9C8ED007A65
:103C800079EEAA7A7C48CBED007AD7ED007A0292E1
:103C900077EE8B7A09F10109C7ED007AFEF7ACFEE9
:103CA0006178029A0029D0D0B2E6DFED777AB4EEDF
:103CB000E70AF1EE10FA9CBFDFED717A30EE278A49
:103CC0006CE707EE909AB8EEE7AA2AEE2CAAB0EEBF
:103CD0004A0A00F093F9B0EE408AB0EE4A0A00F0CA
:103CE00025FBD6ED007A9AED007A60EE27BA67EEF2
:103CF000C87AE7EE48BA0022E7EE407AF0EE67AA0B
:103D0000B9E79DF8343043F004038DF8343023785C
:103D1000022B3FF47DAEFEF74DFC94F80180B8F124
:103D2000000F15D1C7F3C00084F80580FCF7BCFC78
:103D3000564B94F8BA241B8A03F080039A4221D090
:103D40000420FCF76DFEFEF741FB4046FCF7ACFC9F
:103D500094F8903E84F8C334002B3FF4EFA8FEF7AC
:103D600029FC94F8C334032B237846D1022B04D0CA
:103D70000820FCF733FEFEF729FB002384F8C33448
:103D8000FFF7DCB842480BA9FEF736FE01233046A8
:103D900084F8A435FCF722FEFEF718FB6378002BAD
:103DA000D6D12378002BF7D194F8A435012B21D15B
:103DB000FB061BD5374BA3F1580207CA83E807005F
:103DC000002084F8A405FCF76FFCFEF7FFFAFDF76E
:103DD000F5FAFDF729FBFCF719FBFCF7C9FD637940
:103DE000002B3FF415AEFCF7BBFDB1E70520FCF757
:103DF00017FEE5E701236371E2E70122A4F8BC2482
:103E000064220026E271022B46F2644284F8C06408
:103E100084F8BF6484F8C264A4F8C464228110D01A
:103E20001D493046FEF766FC00283FF459AAFEF70C
:103E30007AFC30469FED190AFDF75AFB3046FCF735
:103E40004DF91748FCF776FB1648FCF773FBFCF7B7
:103E500045FC92E70125FFF771B80225FFF76EB820
:103E60001825FFF76BB82625FFF768B81925FFF767
:103E700065B80425FFF762B828050020BD3706B5F0
:103E8000DB0FC940ABAA2A3EBD37063500380540D6
:103E90000C0F002050050020340500200000000019
:103EA00041620000DB6200001B25FFF747B82525B3
:103EB000FFF744B82025FFF741B82225FFF73EB8A9
:103EC0002325FFF73BB82425FFF738B81025FFF767
:103ED00035B80F25FFF732B870B5144E00242046D0
:103EE000FEF77AFB80B986F8290E3E20FCF708F928
:103EF000FDF736F93A20FCF703F90720FCF700FD3F
:103F000004B170BD0124EAE796F8293E002BF7D0F2
:103F1000FEF7D2FE05463E20FCF7F2F8FDF720F949
:103F20003A20FCF7EDF82846E8E700BF50000020F3
:103F300008B5114B114A9A60114B1248DA1C121A3B
:103F4000C11E22F00302994288BF00220E4901F0EF
:103F500027F9BFF34F8F0D4B0D48DA1C121AC11E03
:103F600022F00302994288BF0022002101F0C0F82C
:103F7000BFF34F8F01F0DCF900ED00E0000000001E
:103F80005000002000000020FC63000054100020BE
:103F90005000002010EE101AC1F3C7520029A2F100
:103FA0007F0CACBF01204FF0FF30BCF11E0F0FDCC7
:103FB000BCF1000F1DDBC1F31603BCF1160F43F477
:103FC00000030ADD963A03FA02F202FB00F07047A2
:103FD000FDEEC07A17EE900A70474FF4800242FA65
:103FE0000CF21A44CCF1170C22FA0CF202FB00F08E
:103FF0007047BCF1FF3F18BF0020704710EE103A29
:10400000184923F000428A421AD9B2F1FF4F02D375
:1040100030EE400A704700B583B0684600F09CFB64
:1040200000F003000128DDED010A9DED000A10D02B
:10403000022809D090B900F0ADF803B05DF804FB98
:10404000DFED090A00F0A6B800F0A4F8B1EE400ACE
:10405000F3E700F039FBB1EE400AEEE7012000F093
:1040600033FBEAE7D80F493F0000000008B52DED0B
:10407000028BB0EE408A00F0C5FFB4EE488AF1EE44
:1040800010FA06D6DFED098AB4EEE88AF1EE10FAEE
:1040900002D4BDEC028B08BD01F07CF888EEA80AC2
:1040A000BDEC028B2123036008BD00BF00000000AF
:1040B00000F094B910EE103AC3F3C7527F3A162AB3
:1040C000194615DC002A0CDB0C481041184205D0BB
:1040D0004FF4800313410B4423EA000300EE103A2F
:1040E0007047013203F00043F8D143F07E53F5E707
:1040F000802AF3D130EE000A704700BFFFFF7F0037
:1041000010EE102AC2F3C7537F3B162B22F000415A
:1041100032DC002B104618DB1A4919410A422AD01A
:10412000DFED197A70EE277AF5EEC07AF1EE10FA2B
:1041300021DD002A04DD4FF4000242FA03F31844A3
:1041400020EA010300EE103A7047DFED0F7A70EEBF
:10415000277AF5EEC07AF1EE10FA0CDD002A08DBC2
:10416000DFED0A7A0029B7EE000A08BFB0EE670A51
:1041700070479FED070A7047B1F1FF4FFBD330EE58
:10418000000A7047FFFF7F00CAF24971000000007B
:104190000000008010EE103A23F00043B3F1485FB6
:1041A0002CD2FDEEC07A17EE903A002B60D060EE74
:1041B000007A9FED317A9FED315ADFED315A9FED54
:1041C000316ADFED316AA7EE875A9FED307AE7EE6C
:1041D000855AA7EEA56AA7EE867AE7EE876A67EEAC
:1041E000A66A60EEC00AB6EE007AE7EEA60AB7EE5F
:1041F000000AD7EE870A30EE600A704760EE007A58
:104200009FED1D7A9FED1D5ADFED1D5A9FED1D6A32
:10421000DFED1D6A1E4AA7EE875A93429FED1B7A77
:10422000E5EE275AA5EEA76AA6EE277AE7EE276AFB
:1042300066EEA76AD5D9174A934214D803F17F4393
:1042400007EE103AB7EE006A36EE476A60EEC00A33
:10425000F6EE005A97EEA57AE7EEA60A37EE607AF8
:1042600036EE470A7047B6EE076AB5EE027AEDE71A
:10427000B7EE000A704700BF4ED747ADF6740F3156
:104280007CF293B4010DD037ABAA2A3D610BB6BACC
:104290009999993E0000483F10EE102AC2F3C75387
:1042A0007F3B162B22F0004129DC002B104618DB47
:1042B0001A4919410A4221D0DFED197A70EE277AA6
:1042C000F5EEC07AF1EE10FA18DD002A04DA4FF4A8
:1042D000000242FA03F3184420EA010300EE103A08
:1042E0007047DFED0F7A70EE277AF5EEC07AF1EEC7
:1042F00010FA03DD002A08DB9FED0A0A7047B1F1CE
:10430000FF4FFBD330EE000A7047DFED077A00293C
:10431000BFEE000A08BFB0EE670A7047FFFF7F00DC
:10432000CAF24971000000000000008010EE103A4F
:10433000194923F000428A421BD9B2F1FF4F02D340
:1043400030EE400A704700B583B0684600F004FACA
:1043500000F003000128DDED010A9DED000A13D0F5
:1043600002280BD098B9012000F0AEF903B05DF837
:1043700004FBDFED0A0A002000F0A6B9012000F0DE
:10438000A3F9B1EE400AF1E7FFF704FFEEE7FFF70C
:1043900001FFB1EE400AE9E7D80F493F00000000F5
:1043A00010EE103AC3F3C7527F3A162A19460BDCB7
:1043B000002A03F0004309DB074840FA02F20A40F2
:1043C000134300EE103A7047802A02D000EE103AF4
:1043D000704730EE000A7047000080FF10B582B0D1
:1043E000CDED010A019B23F00042B2F1FF4FF0EE48
:1043F000407A30D810EE100A20F00041B1F1FF4FA2
:1044000029D8B3F17E5F42D09C1704F0020444EA3D
:10441000D07431B37AB3B2F1FF4F40D0B1F1FF4F56
:1044200029D0891AB1F1F45F4FEAE15234DA002B56
:1044300042DA3C3240DA9FED340A012C4ED0022C95
:1044400043D064B19FED317ADFED317A30EE070A67
:1044500030EE670A03E09DED017A37EE270A02B0DD
:1044600010BD022C10D09FED2B7A032C08BFB0EEAC
:10447000470A02B010BD9FED280ADFED287A002818
:10448000A8BFB0EE670AEAE79FED210AE7E702B0AE
:10449000BDE8104000F048B89FED200ACDE7B1F12B
:1044A000FF4F04F1FF3420D0022C26D81C4B03EB25
:1044B000840393ED030AD2E79DED017A87EE870A24
:1044C00000F07AFA00F030F8B7E79FED107ADFEDF0
:1044D000107A30EE070A37EEC00AC0E710EE103A45
:1044E00003F1004300EE103AB9E7022C08D80C4B58
:1044F00003EB840393ED000AB1E79FED030AAEE7F7
:104500009FED080AABE700BF000000002EBDBB33E3
:10451000DB0F4940DB0F49C0DB0FC9BFDB0FC93FD1
:10452000205E0000DB0F493F38B510EE105A25F031
:104530000044B4F1A14FF0EE407A0DD3B4F1FF4F37
:1045400058D8DFED4F7A9FED4F7A002DCCBFB0EEFB
:10455000470AB0EE670A38BD4B4B9C4259D8B4F1BC
:10456000445F4AD34FF0FF3227EEA76A9FED475AC8
:104570009FED477ADFED475ADFED474A66EE066A60
:10458000531CA6EE857AE6EEA54A9FED445ADFED70
:10459000445AA7EE265AE4EEA65A9FED427ADFED82
:1045A000424AA5EE267AE5EEA64A9FED405ADFED97
:1045B000405AA7EE265A9FED3F7AA4EEA67AE5EE82
:1045C000265A27EE267AA5EE867A27EE877A35D008
:1045D000394B03EB820393ED046AD3ED006A37EEA7
:1045E000467A002D37EE677A36EEC70AB3DAB1EEB7
:1045F000400A38BD30EE000A38BD9FED307A30EE0B
:10460000077AF7EE006AB4EEE67AF1EE10FAA9DD69
:1046100038BD00F0D1F92A4B9C4212D8A3F5D00343
:104620009C4223D8F0EE007ABFEE007AA0EE277A03
:10463000002230EE270AC7EE007A95E737EEC70A68
:1046400038BD204B9C420BD8F7EE087AB7EE007AC3
:10465000A0EE277A022230EE670AC0EE077A83E7DF
:10466000BFEE007AC7EE007A03227DE7F7EE007A0C
:1046700030EE677A30EE270A0122C7EE007A73E740
:10468000DB0FC9BFDB0FC93FFFFFDF3ED769853CAA
:1046900059DA4B3D21A215BD6BF16EBD356B883DDE
:1046A00095879DBD6E2EBA3D388EE3BD2549123EDD
:1046B000ABAAAA3ECDCC4CBE385E0000CAF249710E
:1046C000FFFF973FFFFF1B4010EE103A23F000431F
:1046D000B3F1485F04D2FDEEC07A17EE903A5BB3B7
:1046E00060EE007A9FED157ADFED155A9FED156AA1
:1046F000DFED156AE7EE875A9FED147AA5EEA76AFB
:1047000020EE275AE6EE276AA6EEA77A30B9DFED4B
:10471000106AE7EE876AA6EE850A704727EE457AAB
:10472000F6EE006AA0EEA67ADFED0A6AD7EE270A57
:10473000E5EE260A30EE600A704700BFD3C92E2F7F
:10474000342FD7B21BEF3836010D50B98988083C99
:10475000ABAA2ABEABAA2A3E70B510EE103A884A20
:1047600023F00044944286B0054671D9854A9442AC
:104770001E4624D823F00042002BDFED837A8349C4
:1047800022F00F02B0EE407A40F3E0808A4270EEF1
:10479000677A09BF9FED7E7ADFED7E6ADFED7E6A84
:1047A00077EEC77A37EEE67A77EEC77A80ED007A51
:1047B00077EEE67AC0ED017A012006B070BD774A47
:1047C000944252D9B4F1FF4F48D2E215863AA4EB95
:1047D000C25307EE903ABDEEE77ADFED716AB8EEAC
:1047E000C77A77EEC77A8DED037A67EEA67ABDEECB
:1047F000E77AB8EEC77A77EEC77A8DED047A67EE7E
:10480000A67AF5EE407AF1EE10FACDED057A40F099
:104810009880B5EE407AF1EE10FA0CBF0123022326
:10482000604901910221009103A8294600F0CCF8CB
:10483000002EC2DA95ED007AD5ED017AB1EE477A15
:10484000F1EE677A85ED007AC5ED017A4042B4E772
:10485000002285ED000A42600020AEE770EE407A4B
:10486000C0ED017AC0ED007AF6E700F0A5F89FED03
:104870004E7A9FED456AF6EE007AE0EE077A9FEDFC
:10488000457AFDEEE77A17EE900AF8EEE76A1F2800
:10489000A6EEC60A66EE877AB1EE666A20DC434A67
:1048A000411E26F0004352F8212023F0FF039342DB
:1048B00016D030EE677A30EE470A002E30EE670AE7
:1048C00085ED007A85ED010ABFF677AFB1EE477A44
:1048D000B1EE400A85ED007A85ED010A40426CE7B1
:1048E00030EE677AE21517EE103AC3F3C753C3EB05
:1048F000D453082BDFDD9FED267A9FED275AF0EE8B
:10490000405AE6EE075A70EE657AE6EE077AD6EE82
:10491000857A35EEE77A17EE103AC3F3C753D21A09
:10492000192A10DD9FED227A9FED225AB0EE650A1A
:10493000A6EE070A75EEC07AE6EE077AD6EE857A1D
:10494000B7E703236CE7B0EE650AB4E78A4270EE7E
:10495000277A09BF9FED0E7ADFED0E6ADFED0E6A52
:1049600077EE877A37EEA67A77EEC77A80ED007A0F
:1049700077EEA67AC0ED017A4FF0FF301DE700BF59
:10498000D80F493FE3CB1640800FC93FD00FC93F36
:10499000004435374344353708A3852E800F4943FB
:1049A00000008043D85E000084F9223F585E00007A
:1049B00000A3852E32318D2410EE103A23F00043EF
:1049C00000EE103A704700BF2DE9F04F2DED048B3B
:1049D000DBB01C46944603930A46CD4B68991CF104
:1049E000040F53F82160824604F1FF38C0F2498277
:1049F000BCF1030348BF0CF10403DB100293013345
:104A00004FEAC30EACEB0E030593029B16EB0800B6
:104A1000A3EB080316D401309FEDBE7A699C1844BD
:104A20001EA9002BA4BF54F8235007EE905A03F19F
:104A30000103ACBFF8EEE77AF0EE477A8342E1EC8F
:104A4000017AEED1002EC0F2B182039B1EA901EBC8
:104A5000830446AD4FEA83094046F7180AEB830109
:104A6000B8F1000FDFEDAB7A09DBA3465346F3EC58
:104A7000016A3BED017A8B42E6EE877AF7D101308D
:104A8000B842E5EC017A04F10404E9D10DF1280BF8
:104A90000BEB8603CDE9062E043B9FEDA09ADFEDDC
:104AA0009E8A059804930AEB090446AF0BEB86092E
:104AB0000096CDF820C05AAB03EB8603002E13ED11
:104AC000140A4FEA860515DD7B195A4660EE097A0D
:104AD000B0EE407AFDEEE77A73ED016AF8EEE77A20
:104AE000BB42A7EEE87A37EEA60ABDEEC77AA2EC83
:104AF000017AEBD1019000F089FAF4EE007AB0EE81
:104B0000408A20EE270AFFF7C7FBF2EE007AA0EEFC
:104B1000678A01980028FDEEC89AF8EEE97A38EE27
:104B2000678A6CDD06F1FF3EC0F108035BF82E20BA
:104B300042FA03FC0CFA03F3D21AC0F1070119EE92
:104B4000903A4BF82E200A416344002A09EE903A2D
:104B500000F3F080B5EE408AF1EE10FA40F09D804F
:104B6000009B9E420ADD5D44002355F8041D4D451F
:104B700043EA0103F9D1002B40F0F280009B013B96
:104B80005BF82330002B40F0E780049B012153F8B1
:104B9000042D0131002AFAD0731C31449C46029D39
:104BA000039A05EB030E0EF1804E699D32440EF11F
:104BB000FF3E07EB83061EAB05EB8E0E03EB820573
:104BC000DEED017AF8EEE77AB8F1000F0EF1040E8F
:104BD000E5EC017ADFED4F7A09DB2A465346F3EC28
:104BE000016A32ED017AA342E6EE877AF7D10CF141
:104BF000010C6145E6EC017AE2DA0E465BE740F033
:104C00008F80731E5BF82320D211002AA2DD19EEDB
:104C1000903A002E03F1010309EE903A40F3D4815B
:104C200059464FF0000E51F8043B002B6AD0C3F5F3
:104C3000807341F8043C04E00B68C3F1FF0341F8C2
:104C4000043B0EF1010E7645F6DC01239E4600285A
:104C50000ADD012878D0022806D1711E5BF82130C8
:104C600003F03F0C4BF821C0022A7FF473AFB7EE7C
:104C7000000A734630EE488A002B3FF46BAF09926E
:104C8000019000F0C3F938EE408A0198099AB5EE18
:104C9000408AF1EE10FA3FF463AF9246DDE9062E4A
:104CA000DDF820C00196AEEB0C00B0EE480A009E85
:104CB000009200F0ABF9DFED186AB4EEE60AF1EE0F
:104CC00010FADDE90023F0EE407AC0F250819FED4A
:104CD000137A059920EE077A0831BDEEC77A05915F
:104CE000B8EEC77A5C1CE7EE667ABDEEC77AFDEED9
:104CF000E77A17EE901A4BF8231017EE103A4BF89C
:104D0000243046E00EF1010EB6458CDB9E469EE750
:104D1000F061000000000000000080430000803BC4
:104D2000F6EE007AB4EEE78AF1EE10FA80F298809F
:104D300000220FE70133002E09EE903A3FF770AFE3
:104D4000002301289E4686D1711E5BF8213003F0B6
:104D50007F0C4BF821C087E7731C9C4619461EE761
:104D600033469246DDE905125C1EA1F108005BF8AE
:104D70002410009E059061B903F18043013B0BEBC9
:104D80008303014653F8040D013C08390028F9D08B
:104D9000059105980092B7EE000A00F037F9002C53
:104DA000009AB0EE407AC0F20581601C46AD5FED1E
:104DB000256A81000BEB800305EB800073ED017A1F
:104DC000F8EEE77A5B4567EE877A27EE267A60EDA4
:104DD000017AF3D10DF1C8080B1F46A8C718C646C3
:104DE000A44600259146002E73DB844ADFED847AC9
:104DF0003846002301E0AB4208DCF2EC016AB0EC7B
:104E0000017A01339E42E6EE877AF4DA0CF1FF3C38
:104E1000BCF1FF3FEEEC017A05F10105A7F10407B3
:104E2000E1D1689B022B4A4656DC002B2EDC0ED1CA
:104E3000DFED737A414431ED017A414577EE877AAF
:104E4000F9D15346002B40F0AE80C2ED007A19EE46
:104E5000903A03F007005BB0BDEC048BBDE8F08F27
:104E600019EE903A002E03F1010309EE903AC8BF03
:104E700002223FF7D5AEF7EE007A37EEC88A02225B
:104E800068E600234FF0080E0293BBE59FED5C7AC5
:104E9000414471ED017A414537EE277AF9D1DDEDD4
:104EA000327A534677EEC77A002B75D182ED007ABD
:104EB00064B133A90123B1EC017A01339C4277EE4E
:104EC000877AF8DA53460BB1F1EE677AC2ED017AD0
:104ED000BDE7DFED4B7A99E7689B032BB7D1002C38
:104EE0007ED008EB840595ED007AA0002B4629467C
:104EF00071ED017AF0EE476A37EE277A414577EE99
:104F0000C77A81ED007A77EEA67AC1ED017AEFD10A
:104F1000012C65D095ED007A08F1040173ED017A5A
:104F2000F0EE476A37EE277A994277EEC77A83ED3B
:104F3000007A77EEA67AC3ED017AEFD1031DDFED9B
:104F4000307A434408F1080833ED017A984577EE4A
:104F5000877AF9D15346DDED326A9DED337A73B924
:104F6000C2ED006A82ED017AC2ED027A6FE7FDEED2
:104F7000C07A1C4617EE901A4BF8231009E7F1EEA1
:104F8000666AB1EE477AF1EE677AC2ED006A82EDA9
:104F9000017AC2ED027A5AE7B1EE477A82ED007AE1
:104FA000002C86D190E7F1EE677A4EE7039B4FEA3B
:104FB00083096BE5689B022B0EDC002B13DC7FF46E
:104FC00046AFDFED0F7A3CE7022A7FF4C3ADF7EE80
:104FD000007A37EEC88ABDE5689B032B7FF437AFB4
:104FE000DFED077AB6E75346DDED327A13B90023D9
:104FF00013606BE74FF00043136065E7FC6100004E
:1050000000000000B1EEC00A704700BF10EE103A79
:1050100033F000411A4627D0B1F1FF4F21D213F0EF
:10502000FF4F22D1DFED2B7A2B4A60EE277A904298
:1050300017EE903A33DB4CF2503CC3F3C751604556
:105040001A46A1F1190116DDDFED247ADFED246A9D
:10505000002BB0EE677AB8BFF0EE667A27EE870ACB
:10506000704730EE000A704770474CF2503C604584
:105070004FEAD151E8DC0144FE29E5DC002915DCCA
:1050800011F1160F19DB193122F0FF4242EAC15229
:1050900007EE902A9FED130A27EE800A7047DFED96
:1050A000127A07EE103A27EE270A704722F0FF42E5
:1050B00042EAC15300EE103A7047DFED0B7ADFEDA4
:1050C0000B6A002BB0EE677AB8BFF0EE667A27EE77
:1050D000870A70470000004CB03CFFFFCAF24971DC
:1050E000CAF249F1000000336042A20D6042A28D75
:1050F000830730B547D0541E002A3ED0CAB20346BB
:1051000001E0013C39D303F8012B9D07F9D1032CB1
:105110002CD9CDB205EB05250F2C05EB054535D96E
:10512000A4F1100222F00F0C03F1100EE6444FEA36
:10513000121C1A46C2E90055C2E9025510327245E6
:10514000F8D10CF1010214F00C0F03EB021204F081
:105150000F0C13D0ACF1040323F003030433134406
:1051600042F8045B9342FBD10CF003042CB1C9B2AA
:105170001C4403F8011BA342FBD130BD6446134617
:10518000002CF4D1F9E703461446C0E71A46A446BA
:10519000E0E700BF014B1868704700BF0000002027
:1051A000844641EA000313F003036DD1403A41D332
:1051B00051F8043B40F8043B51F8043B40F8043BF1
:1051C00051F8043B40F8043B51F8043B40F8043BE1
:1051D00051F8043B40F8043B51F8043B40F8043BD1
:1051E00051F8043B40F8043B51F8043B40F8043BC1
:1051F00051F8043B40F8043B51F8043B40F8043BB1
:1052000051F8043B40F8043B51F8043B40F8043BA0
:1052100051F8043B40F8043B51F8043B40F8043B90
:1052200051F8043B40F8043B51F8043B40F8043B80
:10523000403ABDD2303211D351F8043B40F8043B20
:1052400051F8043B40F8043B51F8043B40F8043B60
:1052500051F8043B40F8043B103AEDD20C3205D330
:1052600051F8043B40F8043B043AF9D2043208D028
:10527000D2071CBF11F8013B00F8013B01D30B889A
:1052800003806046704700BF082A13D38B078DD078
:1052900010F003038AD0C3F10403D21ADB071CBF4A
:1052A00011F8013B00F8013B80D331F8023B20F8B4
:1052B000023B7BE7043AD9D3013A11F8013B00F8ED
:1052C000013BF9D20B7803704B7843708B78837075
:1052D00060467047032A30B415D941EA0004A40798
:1052E00084460B4604D0541E0FE0043A032A08D922
:1052F0001946604653F8044B5CF8045BA542F4D0B1
:10530000F1E760461946541E7AB1431E013902196D
:1053100001E09A4209D013F8010F11F801CF60455E
:10532000F7D0A0EB0C0030BC7047002030BC7047B9
:10533000BD4B4FF4D9622DE980489A600722DA60AC
:10534000DA6842F00202DA6003F58C2302229A60E6
:105350000322DA60B54B302283F8022383F803235B
:1053600004221A60082289B01A600020FBF750FE60
:105370000A2800F0B6800720FBF7B4FAFF20FDF7FB
:1053800075F9FBF7EBF90720FBF768FF4020FBF707
:1053900065FF3820FBF762FFA54BA64800264FF6B5
:1053A000FF721E605E609A60A04A1E610121102497
:1053B0001960066082F8004311609F4C1E645E64B1
:1053C00019650223416082F8016378201360FBF7BE
:1053D000D3FEFBF7E3FEFBF7F9FEC4F8A864C4F8BC
:1053E000AC64C4F8B06462B694F8C830C3F3001378
:1053F00023702578142200212046FFF779FE2570BE
:105400008E4D94F8A59584F8A4656423E37100217A
:1054100046F264434422A5F144006675C5E900667E
:1054200084F8B964238184F80C65AE6084F80D6556
:1054300084F8A695FFF75CFEA5F11C010020FDF79E
:1054400059F910B90720FBF74DFAFBF719FF4FF494
:105450000060FBF703FF7A4B9881FBF7EBFE80209F
:10546000FBF78AFEFBF79AFE0020FBF71DF9FBF71E
:10547000DBFFFBF7A3FFFAF7C9FFFBF771FA7148EF
:10548000FBF758F894F8C8301D070CD5FBF734F833
:1054900048B101236C482370FBF74CF86B48FBF7CD
:1054A00049F8FBF71BF9237813F0810322D06648F3
:1054B000FBF740F86648FBF73DF8FBF70FF90123CF
:1054C000237000273D4694F8A6359945DAB240F09E
:1054D0005584FBF78FFAFCF779FF6378002BF2D045
:1054E00087E75C485C220121FBF7A4FD00287FF4DC
:1054F0004AAF40E72370FEF7EFFCE2E794F8293E5D
:105500001BB95548FBF716F8DBE7242B40F0F28374
:1055100001238DF80F3094F82A3E472B06D019D876
:10552000E3B1242B02D0432B40F0FE8094F82B7E75
:10553000002F40F0F681472B25D0227800F2E7803B
:10554000242B40F0CF8012F0180F40F04882FBF778
:1055500005F906E04A2B08D0582BE5E73F48FAF753
:10556000E9FF2846FBF7CCF9ABE7237813F0DF0F10
:1055700040F0358294F82B3E3D2B40F0D281FDF770
:105580009BFB0546EDE73648FAF7D4FF94F8BC04D8
:105590008B2806D93348FAF7CDFF94F8BC0476304F
:1055A000C0B2FAF7D0FF3048FAF7C4FF94F8C2044B
:1055B0003630C0B2FAF7C7FF2B48FAF7BBFF94F8B2
:1055C000C0041130C0B2FAF7BEFF2748FAF7B2FFA5
:1055D00094F8BE04C0F11500C0B2FAF7B4FF224837
:1055E000FAF7A8FF94F8BF045A30C0B2FAF7ABFF3D
:1055F0001D48FAF79FFF94F8BD04C0F15E00C0B2E9
:10560000FAF7A1FF94F8C334ABB31848FAF792FF46
:1056100094F8C30403282BD01E2801D002282AD1D5
:10562000FAF791FF27E000BF00A0004000E100E092
:105630000080004000000540500000205005002080
:1056400000380540E3620000416200000063000092
:105650000D630000D00000202F62000021630000D5
:105660006B630000716300007563000078630000E5
:105670003020FAF745FDB548FAF75CFF94F8C534D9
:10568000102B25D0202B27D043B3B048FAF752FF78
:1056900094F8C43423B33820FAF732FDAC48AD4F48
:1056A000FAF748FF94F8D004FAF74DFFAA48FAF742
:1056B00041FF97ED040AFAF7E5FFA848FAF73AFF29
:1056C00097ED030A0020FAF765FFFBF707F848E7B4
:1056D0003320FAF715FDD8E73420FAE73520F8E74C
:1056E0003920D9E7022A08D1FBF7A6F99C48FAF736
:1056F00021FF9C48FAF71EFFE7E7002A40F06F8180
:10570000974802232370FAF715FF9748F2E7012A1A
:105710007FF427AF9248FAF70DFF9448FAF70AFF93
:10572000FAF7DCFF27701CE72278012A00F2578184
:10573000232B15D0483BD9B20B2900F252810B2BF9
:1057400000F24F81DFE813F0530092004D014D014C
:105750004D014D0126014D014D014D01D600820044
:1057600094F82B7E002F40F0DC80DFF820A2DFF8D9
:1057700020B25FFA87F805A94046FCF7BBFF18B9CD
:105780000720FBF7AFF8ECE67948FAF7D3FE062FCF
:1057900007D0072F29D008F13600C0B2FAF7D3FEA0
:1057A00002E05046FAF7C6FE3A20FAF7A9FC0137A4
:1057B00005A8FAF79AFFFAF791FF082FD9D1654F9C
:1057C0006C48FAF7B7FE07F13400FAF78EFFFAF7E4
:1057D00085FF6948FAF7AEFE97ED100AFAF740FF29
:1057E000FAF77CFFFBF7C4F8BBE65846DAE794F813
:1057F000C830D80640F1768294F82B3E04272770F3
:10580000002B40F08E80FBF7FFFC3846FDF73EF999
:105810000320FDF73BF9FCF7D9FD6378002B7FF4FB
:10582000A0AEFBF79DF8FAF7F1FDFBF703FD6378F7
:10583000002B7FF496AE2370FAF70AFE94F82B3E05
:10584000002B7FF48EAEFEF747FB8AE694F82B3EE2
:105850004C2B66D194F82C3E502B62D194F82D3EFF
:10586000002B5ED18020FBF7B9F87AE694F82B2E56
:1058700002238DF80F3042BB4048502240F2AE3137
:10588000FBF7D8FB38B984F8290E3C49502240F286
:10589000AE30FBF73BFC3A48FAF74CFEFBF760FCF6
:1058A000FAF71CFF3748FAF745FE5620FAF728FCAE
:1058B0002C20FAF725FC0F20FAF745FE2C20FAF7EA
:1058C0001FFC8020FAF73FFEFFE603233D2A8DF8F8
:1058D0000F3026D1E118013391F8292E81F8262EB8
:1058E000DBB2002AF6D12549502240F2AE30FBF758
:1058F0000DFC36E694F82B3E532B12D194F82C3E37
:10590000542B0ED194F82D3E3D2B0AD194F82F3E06
:105910003BB994F82E3E242B05D02A2B13D0232BF1
:105920000FD003251DE60120FCF7A0FE0C48FAF776
:1059300001FE1548FAF7FEFDFAF7D0FEFBF77CF8FA
:105940000FE60220F0E7FF20EEE700BF78630000DB
:105950007B6300000C0500207E6300008163000073
:1059600041620000846300008D63000095630000C5
:10597000A7630000B0630000B6630000790E00204A
:10598000BC630000D0630000D6630000AA6300007F
:10599000AD63000094F82B7E02238DF80F30EFB931
:1059A000DFF8D4A35FFA87F84046FCF715FE38B954
:1059B0000720FAF797FF002F7FF4D3AD0127F1E717
:1059C0005046FAF7B7FD4046FAF7BDFD3D20FAF71D
:1059D00097FBFBF7C5FBFAF77DFEECE75AB108250C
:1059E000BFE54FF0000804A90DF10F00FBF774FCB0
:1059F00020B90225B5E54FF00108F4E79DF80F3016
:105A0000581C2344C0B293F8293E8DF80F003D2B5B
:105A100087D1B8F1000F29D00346E21892F8291E69
:105A20001A1A2244013382F8291EDBB20029F4D16C
:105A30008DF80F30FDF740F9054600287FF491AD51
:105A40009DED040AFEF7ACFCB0EE408AFCF7B2FD17
:105A5000FCEEC87A5127CDED017A9DF80430C24999
:105A60004FF44070502207FB030040E705A90DF1F9
:105A70000F00FBF731FC0028BBD09DF80F3023440A
:105A800093F8293E002B7FF44CAFDDED047A9FEDB7
:105A9000B77AF4EEC77AF1EE10FA3FF742AF9DED18
:105AA000058AFCEEE77AB5EEC08ACDED017AF1EE1B
:105AB00010FA9DF8047000F11781632F36D9A7F111
:105AC0006403DBB2022B26D85FFA88F8B8F1020F24
:105AD0000FD0B8F1030F17D0A54AB8F1010F02EBB0
