:020000040800F2
:10000000601C002041410008110F0008190F000872
:10001000210F0008290F0008310F00080000000020
:10002000000000000000000000000000110F0008A8
:10003000110F000800000000110F00088D0E0008CD
:10004000110F0008110F0008110F0008110F000810
:10005000110F0008110F0008C5110008D911000880
:10006000ED1100080112000815120008110F000818
:10007000110F0008110F0008110F0008110F0008E0
:10008000110F0008110F0008110F000800000000F8
:10009000000000000000000000000000291200081D
:1000A000110F0008110F0008110F0008110F0008B0
:1000B000390F000899110008110F0008110F0008EE
:1000C000110F0008110F0008110F0008110F000890
:1000D000110F00087D0D0008110F0008000000003E
:1000E000110F0008110F0008110F0008054B58638D
:1000F0001A6A18B922F001021A62704742F001022E
:10010000FAE700BF00000140084B5A786AB902F1D3
:10011000804210F0400F02F5023214BF4FF400513C
:100120004FF0005191610022DA72704750000020B8
:1001300010B50B4A117D4B1CDBB2692B08BF0023A5
:10014000947D9C4208D011441375064AC875D36843
:1001500043F08003D36002E0547DE406F0D510BD87
:100160005000002000100140104A92F8C83013F0EF
:10017000040F0F4B14BF40214FF48001996192F896
:10018000043182F8EA3092F8B0306021023B83FB00
:100190000131DB0843EA41735B4282F8E9304FF0FA
:1001A0008042D36843F00103D360704750000020C1
:1001B0000000024030B5174A002392F8B10092F8CF
:1001C000B24082F8043182F8053140FA03F1CD07DC
:1001D00009D5D3B1012B0CBF0221042192F804519F
:1001E000294382F8041144FA03F1CD0709D573B10C
:1001F000012B0CBF1021202192F80551294382F8D0
:1002000005110133032BE0D130BD0121E6E70821C0
:10021000F2E700BF50000020094BD3F8081171B17C
:1002200093F80D21D3ED4A7A42F0010267EEA77AE6
:1002300083F80D210022C1ED057AC3F8082170472B
:10024000500000202DE9F74F584E96F8448196F85B
:1002500045010027B84514BF43461023013BDBB2DC
:1002600098426AD04FF0340B0BFB0362D2ED597AFF
:10027000D2ED5A6A92ED587A77EEA77A06F5A4790C
:1002800067EEA67AB4EE677AF1EE10FA48BFF0EEA8
:10029000477ABB4214BF1C461024013CE4B2A04282
:1002A000C2ED577A35D003FB0B95002C14FB0BF3F2
:1002B000A24608BF10242A46013C09EB030596F824
:1002C0008834E4B2A34203D10192FFF7A5FF019A5B
:1002D0000BFB0A63D3ED586AD3ED577AF4EE667AD6
:1002E000F1EE10FA12D0D3ED597A93ED5A6A37EE47
:1002F000A77AD2ED057AE7EE067AF4EEE76AF1EE38
:1003000010FAD8BFF0EE667AC3ED577AA042CCD18E
:1003100005E096F88834834201D1FFF77DFF431C46
:10032000DBB23424102B00FB049108BF0023002211
:10033000984505D10AB186F8457103B0BDE8F08F44
:1003400004FB0365D1ED057AD5ED576AF4EEE67A44
:1003500013FB04F0F1EE10FA484410D591ED077A42
:1003600091ED086A37EE077AE7EE067AF4EEE76A6F
:10037000F1EE10FAC2BFC5ED577A1F46012204FB09
:10038000036191ED577AD1ED587AB4EE677AF1EEC8
:1003900010FA08BF1F4603F10103DBB208BF0122B8
:1003A000102B08BF00230146C2E700BF5000002009
:1003B000064890F8882490F8441191421DBF00F53A
:1003C000A470342302FB030000207047500000207B
:1003D000437C90ED0B7ADA0715D5174BDFED176AE2
:1003E0001B7A07EE903AF8EEE77A67EEA67A67EEA8
:1003F000877AB7EE000AF4EEC07AF1EE10FAC8BFC1
:10040000B0EE670A70475B070BD40B4BDFED0B6A4E
:10041000DB7907EE903AF8EEE77A67EEA67A27EEF8
:10042000277AD0ED0A7AF4EEC77AF1EE10FA58BFC7
:10043000F0EE477ADDE700BF500000200AD7233CEA
:10044000064BD3F8A824C3F88C24D3F8AC24C3F803
:100450009024D3F8B024C3F89424704750000020AF
:10046000064B00B97047D3F8B414D3F8B4249142C2
:1004700002D0013880B2F4E700BFF6E75000002058
:100480004FF0804310B5DA68144C22F00102DA60B4
:1004900000229A6294F8B30084F8B824FF282278E6
:1004A00011D194F8B91401F0FF0361B9802A0CD07E
:1004B00094F8C820520748BF83F00103084A53B19B
:1004C0004023936110BD042A03D0FFF7C9FF012325
:1004D000EEE70023ECE74FF48003F2E75000002042
:1004E000000002409FED0D0A00F10C03B1EC017A0F
:1004F000B5EE407AF1EE10FA0CD0D0ED006AC6EEFF
:10050000877AF0EEE77AF4EEC07AF1EE10FAD8BF0F
:10051000B0EE670A04309842E8D170479976967E2B
:100520000C4B0D4A1B6992F8C82003F007035106D3
:1005300058BF83F0070353B103F001009A0748BF87
:1005400040F002005B0703D540F0040070471846F6
:10055000704700BF000402405000002010B5044660
:1005600014F8010B00B910BDFFF7E2FDF8E76328AE
:1005700038B51CD90A22B0FBF2F302FB130030306D
:10058000C4B2D8B20A22B0FBF2F302FB130030303F
:10059000C5B2D8B23030C0B2FFF7CAFD15B1284697
:1005A000FFF7C6FD4CB12046BDE83840C0E509283C
:1005B0004FF00004E6D82546ECE738BDB5EEC00A9A
:1005C000F1EE10FA7FB5054604D52D20FFF7B0FDFA
:1005D000B1EE400ADFED2B7A2B46012B33D86B08A6
:1005E000C3EBC31305EB4303DBB21BB1F2EE047A9A
:1005F00020EE270AF6EE007A30EE270A0024FDEE00
:10060000C07A0A2217EE903A601CE4B203BB2E1B9C
:10061000F6B2A54238BF00260DEB04003444324642
:100620003021E4B204F06EFEA54207D105F11003BB
:100630006B446C1C302203F8102CE4B20DEB040662
:10064000A4B904B070BD023B20EE270ADBB2C4E7B8
:1006500004F110010DEB0104B3FBF2F102FB1133C5
:10066000303304F8103C0B460446CDE7AC4202D1CF
:100670002E20FFF75DFD16F8010D013CFFF758FD38
:10068000E4B2DDE70000C842064B93F8C830DB0750
:10069000F0EE407A43BF9FED040A042027EE800A63
:1006A00003208BE7500000208B42213D064B93F83E
:1006B000C80010F00100F0EE407A1EBF9FED030A63
:1006C000012027EE800A79E7500000208B42213D6F
:1006D000094B002283F8BA2493F9C820002AA4BF4A
:1006E000012283F8BA2428B193F8BA2482F00102D7
:1006F00083F8BA24704700BF5000002000482DE75F
:100700007565000808B55D20FFF712FDBDE80840DB
:10071000F4E710B590ED000A0446FFF7B5FF2C2072
:10072000FFF706FD94ED010AFFF7AEFF2C20FFF75F
:10073000FFFC94ED020ABDE81040A5E738B5054678
:1007400024200C46FFF7F4FC2846FFF710FF3D205D
:10075000FFF7EEFCE0B2FFF70AFFBDE83840CDE757
:1007600038B5054624200C46FFF7E2FC2846FFF783
:10077000FEFE3D20FFF7DCFC2046FFF71FFFBDE833
:100780003840BBE72DE9F0412DED028B5C4C9FED2D
:100790005D8A94F8B0100020FFF7D0FF94F8B310F2
:1007A0000120FFF7CBFF94F8B1100220FFF7C6FF3E
:1007B00094F8B2100320FFF7C1FF94F8C81004208A
:1007C000C1F38001FFF7BAFF94F8C8100520C1F308
:1007D0008011FFF7B3FF94F9C8100620C90FFFF787
:1007E000ADFF94F8B4100A20FFF7A8FF94ED2E0A8D
:1007F00003210B20FFF7B4FF94ED2F0A03210C20F7
:10080000FFF7AEFF94F8C8100D2001F00101FFF7CB
:1008100095FF94F8C8101420C1F34011FFF78EFF24
:1008200094F8C8101520C1F3C001FFF787FF94F8B2
:10083000C8101620C1F30011FFF780FF94F8C9100B
:100840001720FFF77BFF94ED330A03211820FFF7F1
:1008500087FF94ED340A03211920FFF781FFB4F8D4
:10086000D4101A20FFF76AFF94ED360A03211B20EB
:10087000FFF776FF94ED300A00211E20FFF770FF8E
:1008800000211F2094ED310AFFF76AFF94F8C81089
:100890002020C1F34001FFF751FF0027642505F137
:1008A0000308194E2C465FFA88F8022F1BD0032F3D
:1008B0001FD0012F14BF96ED000A96ED030A032105
:1008C00020460134E4B2FFF74BFF444506F104062D
:1008D000EBD10A35EDB28C2D07F10107DFD1BDEC6C
:1008E000028BBDE8F08196ED060A032180EE080A2E
:1008F000E6E796ED090A3946B1EE400AE0E700BFA7
:100900005000002000006145D000002010B50446D2
:100910000448FFF723FE2046FFF729FEBDE81040FC
:10092000ECE600BFA064000808B9014816E6EDE750
:10093000A7640008094B1869C043C3B210F07800DF
:100940000AD0C3F3001040001A0748BF40F001006E
:100950009B0648BF40F00400704700BF00040240FF
:10096000084A0B1F0831D3ED017AF2EC016AF8EE68
:10097000E77A043387EEA67A8B42A0EC017AF2D1B3
:10098000704700BFD0000020024800F5956100F5D7
:100990009B60E5E7500000201FB50B4C0B48FFF7AC
:1009A000DDFD04F5A06101A8FFF7DAFF01A8FFF75C
:1009B000B0FE3A20FFF7BCFB6079FFF7D8FD04B02A
:1009C000BDE810409EE600BF50000020AC64000867
:1009D0000B4B00F10C02F0EC017AF5EEC07AF1EE6F
:1009E00010FA0ADCB3EC017AF4EEC77AF1EE10FAF1
:1009F00003D49042EFD1002070470120704700BF20
:100A0000F4000020EFF3108172B6034A537D1843BF
:100A1000507581F3108870475000002008B5FFF72B
:100A2000C7FC18B1BDE808400220EBE708BDEFF3B2
:100A3000108172B6034A537D23EA0000507581F39A
:100A40001088704750000020EFF3108372B6034AFD
:100A500082F8B90483F31088704700BF500000206B
:100A600010B5134C637DDB0620D41020FFF7CAFFBE
:100A7000104A136A23F0010313620F4B4FF0005228
:100A80009A612278237902F02C0103F006030B43CC
:100A90000CD0042A08D194F8B93413B90620FFF712
:100AA000D3FFBDE81040EBE40320F8E710BD00BF22
:100AB00050000020000001400008024010B5FFF780
:100AC00039FF044688B1C10701D5FFF7C9FF6207A6
:100AD00041BF064A537D43F002035375A30741BF4C
:100AE000024A537D43F00803537510BD50000020A7
:100AF00008B5074B1A78012A08D093F8B9342BB9F6
:100B0000FFF7AEFFBDE8084001209DE708BD00BF2C
:100B100050000020EFF3108172B6044A92F80C35B1
:100B2000184382F80C0581F31088704750000020AC
:100B3000EFF3108172B6044A92F80D35184382F82B
:100B40000D0581F310887047500000201B4B1A6878
:100B500042F480321A601A689003FCD5184A40F2B9
:100B6000037111601A6822F080721A60134B1A68C0
:100B70009101FCD4134A5A601A6842F080721A60DC
:100B80001A689201FCD59A6822F0F0029A609A687D
:100B900022F4E05242F480529A609A6822F4604251
:100BA0009A609A6822F0030242F002029A60034AB5
:100BB000936803F00C03082BFAD170470038024009
:100BC000003C024019304004F0B500220326012504
:100BD000022721FA02F3DB071CD50468530006FA4A
:100BE00003FC24EA0C040460D0F800E005FA03F4E6
:100BF00044EA0E040460446805FA02FE24EA0E0486
:100C00004460846824EA0C048460846807FA03F36F
:100C1000234383600132102ADBD1F0BD10B519489F
:100C2000194CDFED1A6A4FF48071FFF7CDFF184AB7
:100C3000536C43F0010353640023FF222360A3623B
:100C4000E2626822A2614FF400422362626463633D
:100C5000012323604FF4005100F58060FFF7B4FFDB
:100C60000C4B93ED317AD3ED307A77EEC77A03F5FA
:100C7000A26286EEA77A236A23F0010382ED007A4E
:100C8000236210BD000002400000014000007E43CE
:100C9000003802405000002030B50023032521FA1F
:100CA00003F2D2070AD504685A0005FA02F224EAD0
:100CB00002040460C46824EA0202C2600133102BFB
:100CC000EDD130BDF0B500220326012721FA02F351
:100CD000DB070FD50468530006FA03F524EA050480
:100CE0000460C46824EA0504C460C46807FA03F316
:100CF0002343C3600132102AE8D1F0BD1D4A136BB3
:100D000043F0070310B5136300BF00BF00BF1A4CC8
:100D10007F212046FFF758FF402304F58060A36140
:100D20000721FFF7CFFF7821FFF7CCFF4FF44051A9
:100D3000FFF74AFF4FF040538361236823F44033A9
:100D40002360236843F400332360636A23F00F03B6
:100D50006362636A43F0010363624FF4005100F57C
:100D60008060FFF731FF4FF00053BDE81040836112
:100D70000121A7E7003802400000024038B5414C8D
:100D80002368980626D56068C3B23F2B38D010F090
:100D9000C00F19D1182B1BD0212B35D001065FD5E0
:100DA000843B1C2B16D8DFE803F0313315151515DD
:100DB000151515151515393D3F4143454749154B47
:100DC0004F515355571559007E2BE7D1022018E09B
:100DD000FFF746FE23681B0611D52B4A937DD118D9
:100DE0000133DBB2692BC97D616008BF00239375B5
:100DF000127D9A4202BFE36823F08003E36038BDAE
:100E00000120FFF7FFFDE5E70820FAE72020F8E7DB
:100E10001D4B1B789A06DDD54020F2E70120FFF735
:100E200079FED7E70220FAE70420F8E70820F6E782
:100E30001020F4E72020F2E74020F0E78020EEE7E2
:100E40000120FFF775FEC5E70220FAE70420F8E766
:100E50000820F6E71020F4E72020F2E74020F0E732
:100E6000094A92F8141592F815554B1CDBB2812BE8
:100E700008BF00239D421EBF891882F8143581F8EF
:100E80001605A7E70010014050000020034AD2F8E1
:100E9000B4340133C2F8B434704700BF50000020AE
:100EA0008FB572B6164B174C174DDFF860C0402255
:100EB0009A614FF080729A614FF0005700234FF40F
:100EC00000560022A76101930199A9420FD9A6619A
:100ED00002930299A9420ED901329042F2D10393B2
:100EE000039A6245EDD8039A01320392F8E701991B
:100EF00001310191E8E7029901310291E9E700BF70
:100F000000000240000802403F0D03007F841E00E5
:100F100008B50920FFF7C4FF08B50120FFF7C0FF9F
:100F200008B50220FFF7BCFF08B50320FFF7B8FFA4
:100F300008B50420FFF7B4FF38B54FF08041002317
:100F40008F4C0B6194F8B834002B40F007818D4A28
:100F500094F8EB30506903F0380320F03800034375
:100F60005361536994F8EA0023F007030343536184
:100F700094F8E920844B42F47F425A621A6842F0A6
:100F800001021A60012384F8B83462B6D4F8005123
:100F9000002D4DD194F8973594F898259A4200F099
:100FA000DE8094F8973504F29A5202EBC302C4F83B
:100FB0000021DA0004EBC303B3F89C05C862B3F860
:100FC0009A15A4F8F81093F89E3594F8FA109942FF
:100FD00013D003EB830004F2CC5101EB8001C4F881
:100FE000FC10142184F8FA3001FB0343D3F8D83500
:100FF0005B08C4E93833C4F8DC30D4F8FC1094F84A
:1010000005010B7C434084F8EB30A3180A6893F881
:101010009F05C240C4F8EC204A68C240C4F8F020E2
:101020008A68C24093F8A005C4F8F420FFF75EF880
:1010300094F83036012B14D1544B94F8BA241B6920
:1010400003F001039A420CD0002384F83036504B51
:10105000A3F1580207CA83E80700637D43F0400309
:1010600063750023D4F8EC2084F8EA30D4F8FC103F
:10107000D4F8DC301344CA68C4F8DC3093420FD98A
:1010800001209B1A84F8EA00087CC4F8DC30D4F80C
:10109000A83405074CBF03F1FF330133C4F8A8346B
:1010A000D4F8E030D4F8F00003449A42C4F8E030B9
:1010B00012D294F8EA0040F002009B1A84F8EA0089
:1010C000087CC4F8E030D4F8AC34C0064CBF03F15F
:1010D000FF330133C4F8AC34D4F8E430D4F8F4006E
:1010E00003449A42C4F8E43012D29B1A0A7C94F862
:1010F000EA00C4F8E430D4F8B034920640F00400BA
:101100004CBF03F1FF33013384F8EA00C4F8B03474
:101110002378042B01BFA37994F8EA20134084F8C4
:10112000EA30B4F8F830013B9BB2A4F8F8305BB970
:1011300094F89725C4F800310132D2B2062A84F817
:10114000972508BF84F8973594F8EA3094F804217D
:10115000534084F8EA30002384F8B83438BDFFF7F0
:101160008FF9D4F8FC305B7C2BB10A4B5D631A6AB3
:1011700022F001021A62BDE83840042042E400BFB8
:10118000500000200000024000040040000802401F
:101190005005002000000140074B08490848002284
:1011A0001A614A6990F8040160F302024A611A6800
:1011B00022F001021A607047000400400000024063
:1011C00050000020034B5A69D20702D501225A6110
:1011D0008EE47047003C0140034B5A69920702D5E8
:1011E00002225A6184E47047003C0140034B5A6973
:1011F000520702D504225A617AE47047003C01404C
:10120000034B5A69120702D508225A6156E4704707
:10121000003C0140034B5A69D20602D510225A61A4
:101220004CE47047003C0140034A536913F06003EB
:1012300001D0536142E47047003C01400D4B4FF434
:10124000805210B5C3F83426D3F8382612B90A4AAA
:10125000C3F83826D3F8382608490948013A11F866
:10126000014B02F8014F8142F9D1012283F83C265B
:10127000002010BD500000202407002000000608B8
:101280000010060838B50A4D95F83C36044633B1CF
:10129000D5F83436013B9C4206D9FF2038BDFFF714
:1012A000CDFF0028F4D0F8E7D5F83836185DF5E71B
:1012B000500000202DE9F84304460E46154600EB89
:1012C00002080027A1EB000904EB0900FFF7DAFF91
:1012D00004F8010B002F0CBF0346431CA045DFB2EE
:1012E000F2D17019FFF7CEFFC31B58425841BDE839
:1012F000F88308B5FFF72AFC4FF0E0230C49D3F838
:10130000FC2D42F08072C3F8FC2D00224A60086870
:1013100040F0010008600749596107219A6119618D
:10132000054BC3F8B424FFF7E9FCBDE8084085E7A6
:10133000001000E0FF7601005000002010B5044CC2
:1013400014F8010B00B910BDFEF7F2FEF8E700BF7C
:101350008D060020274A536C2DE9F04743F4804363
:10136000254C264F53644FF00F0C002301264FF4F9
:10137000807E4FF4000820FA03F212F0010F03F10F
:10138000010532D003F0FC0202F1804202F59C32EA
:1013900003F00301D2F8089089000CFA01FA29EA57
:1013A0000A09C2F80890D2F8089006FA01F141EA59
:1013B00009019160216806FA03F211432160A168D6
:1013C0001143A160E168042B42EA0102E26005D802
:1013D000063306FA03F33B602B46CCE7092B02D811
:1013E000C7F80080F8E7C7F804E0102D2B46C2D1FB
:1013F000BDE8F08700380240003C014000E100E019
:10140000094930B500230720012420FA03F2D2074E
:1014100042BF0A6804FA03F5AA4303F1010348BF77
:101420000A60102BF1D130BD003C014008B50948DD
:101430000721FFF731FCFFF745FC074B93F8C83055
:101440001B0703D5BDE80840084683E7BDE8084010
:10145000D6E700BF0004024050000020F0B5354F31
:101460000278BC5C2D2C064607EB02031CD15C788D
:101470009D1C4FF0010C4FF0000E704673467246F3
:10148000303CE4B2092C1DD80130C0B2082813D872
:10149000BEF1000F01D0013B5BB202EB820204EB14
:1014A000420215F8014BEBE72B2C0ABF5C785D1C60
:1014B0009D1C4FF0000CDEE7BEF1000FF1D10133AF
:1014C0005BB2EEE7FE2C05D1BEF1000F02D14FF06A
:1014D000010EE6E7E0B107EE902AF8EE677AF5EE46
:1014E000407AF1EE10FA08D09FED137A5A1C10DB07
:1014F00014D19FED127A67EE877ABCF1000F01D00C
:10150000F1EE677AED1B013DC1ED007A01203570E7
:10151000F0BD023367EE877A5BB2E7E7002BECD0D1
:10152000B2EE047A013B5BB267EE877A002BF9D109
:10153000E3E700BF8D0600200AD7233CCDCCCC3D8D
:1015400070B50C4E96F83C3604460D462BB1D6F8D5
:101550003436013BA34205D270BDFFF76FFE002871
:10156000F5D0F9E7D6F838361A5DAA4218BF1D55EE
:10157000F2E700BF500000202DE9F84306460C4674
:10158000154601EB02080027A0EB010904EB090056
:1015900014F8011B002F0CBF0B464B1CDFB2FFF7EA
:1015A000CFFFA045F2D139467019BDE8F843C7E72F
:1015B00008B50A210020FFF7C3FFBDE80840024933
:1015C0005C220120D8E700BFD000002010B5174CE6
:1015D000FEF756FF3822002104F5867003F092FED4
:1015E0000021282204F1DC0003F08CFE00230122FC
:1015F00084F89735C4F8083184F8983584F88D2636
:1016000084F8B834FEF7D6FD94F80511084A84F83A
:10161000EB10536994F8040123F00703034353616B
:10162000536923F038030B43536110BD5000002071
:101630000000024010B5094C1C22002104F28C402D
:1016400003F060FE0023012284F8883484F84431DA
:1016500084F88E2684F8453110BD00BF500000206C
:1016600007B5244B93ED317AD3ED306A5A7AB4EE54
:10167000E67AF1EE10FA07EE902A0CDAF8EEE77A45
:101680009FED1D6A67EE867A27EE800AF4EEC06A47
:10169000F1EE10FA05D8C3ED046AFF2003B05DF83F
:1016A00004FBB4EEC07AF1EE10FA0CDBB5EE400AA2
:1016B000F1EE10FA03BF00221A61002083ED047AD4
:1016C00018BF0120EAE783ED040A03F5A263D3ED16
:1016D000007A30EE470A20EE270A02F0E7FEF7EE26
:1016E000007A30EE270AFCEEC07ACDED017A9DF843
:1016F0000400D3E7500000200AD7233C10B5124C59
:1017000063784BB948B9114A00232361136A23F067
:10171000010313620023E37210BD10280C4B0CBFB1
:101720004FF000524FF400529A6194F8C8309B0772
:1017300005D5DFED087A202808BFB0EE670AFFF76D
:101740008FFFFEF7D3FCE5E75000002000000140CA
:1017500000040240000000009FED150A10B503468A
:10176000044600F10C02F3EC017AF5EE407AF1EE5A
:1017700010FA18BFA7EEA70A9342F4D102F080FD39
:10178000F7EE006A86EE807AD4ED007A67EE877A0B
:10179000C4ED007AD4ED017A67EE877AC4ED017A60
:1017A000D4ED027A67EE877AC4ED027A10BD00BFED
:1017B000000000002DE9F84F2DED068BCD4C23796C
:1017C000DA0700F1C580DFEDCC8ADFF8388394F8C2
:1017D000973594F88D76BB4200F0BA80D4F8083182
:1017E00094F804A0002B43D11AF0040900F0A8805B
:1017F00094F84421C14D342302FB0355C4F8085129
:1018000094F80D2194F80C3112F001060AF0020B45
:1018100000F0A280002384F80D3195ED078A95ED44
:10182000089AC4ED498AF6EE00AA8AEE88AA0BF05F
:10183000FF03BBF1000F00F0FE80022384F820318B
:1018400095ED050AF0EE497AEAEE407AF5EEC07AB7
:10185000F1EE10FA40F1EA8038EE088AA8EE490A63
:1018600002F00EFD84ED4C0A4AF0080A84F804A048
:10187000D4F80891D4ED475AD9ED083A94F8983540
:10188000D4ED4D4A94ED4E3A94F80C219FED9C7A9C
:1018900094ED4B5AD4ED4A7AD4ED49AA94ED4C2AF2
:1018A0009FED95AA73EEE55ADE00F5EE405A04EB83
:1018B000C303F1EE10FAF4EE434A83F89E2548BFC5
:1018C000F0EE685A0023F1EE10FA94F820210CBFD4
:1018D00002200120F0EE636A1946B0EE474AF0EEAE
:1018E000471AF6EE002A012A00F0AA81032A99ED90
:1018F000076A00F04E81002A00F07F8127EE066A19
:10190000B4EEE76AF1EE10FA0DD5B0EE671AA6EE66
:10191000621AB0EE668AA7EE418AB4EEEA8AF1EE68
:1019200010FA00F3678176EEEA6A72EE277A76EEB5
:10193000A66AB0EE6A8A86EEA77AF0EE427A7DE178
:10194000FEF736FD0546C4F8080100287FF458AFBD
:10195000BDEC068BBDE8F88F0133DBB2052B18BF59
:101960001E4606EB8603142101FB064108EB8303A8
:1019700084F80C61C4F890362B7C81F8DC352B6838
:10198000D5ED086ADB00C1F8CC356B68C4ED448A3C
:10199000DB00C1F8D035AB68DB00C1F8D435EB68AB
:1019A00007EE903AF8EE677AD80087EEA67A02F052
:1019B00008035BEA0303C1F8D805F7EE046AC4ED37
:1019C000457AC6EE877A84ED467AC4ED477A26D00A
:1019D000D4ED4C7AC4ED4A7A67EEA77A22F0080279
:1019E000C5ED057A84F80D21142303FB0646002378
:1019F00086F8DD3594F8C8309B077FF50EAF6B7C19
:101A000099067FF50AAF95ED0B7AF7EE006AC6EE00
:101A1000877A012386F8DD35C4ED4F7AFDE695ED32
:101A2000050A02F02DFC84ED4A0ADDE7C4ED497A8F
:101A3000C4ED4C8A18E784F8203184ED4D9AB9F151
:101A4000000F46D194F888340133DBB2102B18BF55
:101A5000994694F844314B451DBF342303FB094993
:101A6000D9ED579ADFED249AB0EE690A02F008FC2E
:101A7000B0EE406A284684ED4C6AFEF7A9FC60EEA1
:101A8000007AF0EE406A95ED050AF4EEC07AF1EEC8
:101A900010FA3BD530EE676AB0EE497AAAEE467A84
:101AA000B5EEC07AF1EE10FA84ED4D7A16D838EE24
:101AB000088A0223A8EE490A84F8203102F0E0FBEC
:101AC00094F80D3184ED4C0A43F0080384F80D318D
:101AD000CAE6B0EE686AF0EE689ACBE777EEE97A8C
:101AE000C4ED4B6A67EE8A7A0323C4ED4E7A84F81C
:101AF0002031B9E6500000200000000098010020CD
:101B00003EC32E391C06002050A9AB4F70EE695A17
:101B1000B0EE497AAAEE257A27EE2A7AB5EEC07A97
:101B2000F1EE10FA30DDB4EEC97AF1EE10FA29D5F3
:101B300037EEE96A26EE0A6AB4EEC67AF1EE10FADA
:101B400084ED4E6A0FDDF4EE407AF1EE10FAC4ED4A
:101B50004B6A01D10123CAE777EEC07AAAEE679AF1
:101B600084ED4D9A80E638EE088AB0EE690AA7EE59
:101B7000080A84ED4D7A84ED4E7A02F081FB84ED03
:101B80004B0A71E60223B2E7C4ED4D8A84ED4B6A3D
:101B90006AE627EE066A37EEC51AB4EEC16AF1EEC0
:101BA00010FA1FDB33EEE47A75EE277A77EE076AD8
:101BB000012386EEA77A19461A46F0EE457AB0EE72
:101BC000648A3AEE07AAB4EEC4AAF1EE10FA49D537
:101BD000F4EEC8AAF1EE10FA34EE4A7A47D5F0EEE8
:101BE000486A80E6B0EE671AA6EE621AE7EE416A2E
:101BF000B0EE668A77EEC67A20E027EE066AB0EE8F
:101C0000671AA6EE221AE7EE416AF4EEE64AF1EE12
:101C100010FAB0EE668A0FDD33EEE47A75EE277ABD
:101C200077EE076A012386EEA77A02461946F0EEA0
:101C3000457AB0EE648AC4E777EE867A0123C0E77E
:101C4000B0EE668AA7EE458AB4EEC38AF1EE10FACA
:101C5000B7D576EEC36A114686EE857A0222B0EEDB
:101C6000438AAEE7B4EEE58AF1EE10FA4ADC0BB136
:101C7000C4ED4A7A09B184F82021D4F890365A7C10
:101C8000237903F00803134317D099F8110010F0DB
:101C900030003AD099ED0C0A3AB1D4ED4A7A94ED7D
:101CA0004F7A67EE877A20EE270AFFF7D9FC23796F
:101CB00084F8400123F008032371D4ED469A94F888
:101CC000403168EE299A04EB060AB0EE690A8AF8F8
:101CD000A03502F01FFBB0EE409A94ED450A02F0E9
:101CE00019FB70EE497AFCEEE77A17EE903A9DB256
:101CF000AAF89A5565B923799A0709D543F00103E3
:101D0000237125E634EE214A62E7C4ED048ACEE76A
:101D1000D4ED447A30EE690A7AEE277A87EE80AA0B
:101D20001FED870A2AEE000A02F0F4FAFCEEC07AF0
:101D300042F6DF6217EE903A934240D8A219002192
:101D400082F89F159BB27A1C84ED459A39EE699A08
:101D5000D2B2062A29EE0A9A2644F4EE48AA08BF0F
:101D60000022F1EE10FAA6F89C3584F8987584F8F4
:101D70008D2689ED088A84ED449A7FF428ADB5EE6E
:101D8000C08AF1EE10FA2379B8DC13F00402B5D161
:101D900094F8881494F84431C4F808218B423FF435
:101DA00016AD4B1CDBB2102B18BF1A4694F8453108
:101DB00084F888248B4208BF84F8452105E545F660
:101DC000BF52934212D94BF67F32934294BF022204
:101DD0000322A119D3409540B3F5803F81F89F2598
:101DE000A1F89A55AED34FF6FF73ACE70122F0E7A6
:101DF0002DE9F04FAD4C94F8B9348BB003F0FF05EA
:101E0000C3B10123AA482370FEF7A8FB2846FEF7BA
:101E1000AEFB013DFEF772FC4FF4FA70FEF720FBBB
:101E2000012D14D9EFF3108372B6002284F8B9247F
:101E300083F31088637D03F0FF05002B00F07D82A3
:101E4000E80613D5012363700BB0BDE8F08F994805
:101E5000FEF784FB9848FEF781FBFEF753FC102049
:101E6000FEF7E5FD637DDD06FCD5DBE715F0010639
:101E700000F0CD80914A07CA01AB83E807001946FC
:101E800004A8FEF76DFD3C20FEF752F92378102BD5
:101E900014D8102B1BD8DFE813F0020137013901E9
:101EA0001A0035011A001A001A0006011A001A0059
:101EB0001A001A001A001A001A002501402B00F01F
:101EC0002781802B00F03481202B00F0198194F8B9
:101ED000B43013F0010300F02D81227B002A00F0C2
:101EE00029817748FEF73AFB04A8FEF712FC94F824
:101EF000B430990720D57348FEF730FB94F844318D
:101F000094F8880483422CBF0F3000F1FF30C01AD0
:101F1000C0B2FEF72CFB2C20FEF70AF994F8152529
:101F200094F81435D0B29A4294BF803800F1FF3053
:101F3000C01AC0B2FEF71BFB6348DFF8A491FEF79E
:101F40000DFB237813F07C0F14BF94ED4A0A9FED2C
:101F50005F0AFEF7ABFB2C20FEF7EAF8002094EDB9
:101F6000040AFEF72BFBFEF7DBFA8046FEF7E2FCE5
:101F7000D9F8103094F8BAB403F0010A8AEA0B02D7
:101F800048EA00031343DBB2074663B35048FEF749
:101F9000E5FADA4502D05020FEF7CAF8B8F1000F92
:101FA00011D018F0010F02D05820FEF7C1F818F038
:101FB000020F02D05920FEF7BBF818F0040F02D030
:101FC0005A20FEF7B5F877B1FA0702D55220FEF78E
:101FD000AFF8BB0702D54820FEF7AAF87F0702D565
:101FE0005320FEF7A5F8237B002B00F0CE80013BA9
:101FF0002373E77A002F00F0DA80013FE7723E207A
:10200000FEF796F8FEF77AFB0120FEF710FD15F0BB
:10201000E80F00F04681207881076FB240F03381ED
:1020200010F0280F00F00281A6783F2E0AD8FEF7A4
:10203000F3F802232028237104D1002F02DB66F07D
:102040007F06A6706A0605D583065EBFA37843F0B7
:102050004003A3702E0703D51F289CBF10232370B5
:10206000A90640F110811348FEF778FA1948FEF7E7
:1020700075FAFEF747FB94F90220A378002AC0F214
:10208000FE802278402A40F0F7801A0704D523F01A
:102090001C0343F00203A37040232370EFE00E48BB
:1020A000FEF75CFA13E70D48FAE700BF5000002086
:1020B000B2640008B9640008BF640008F804002096
:1020C000016500080F6500081465000800000000A5
:1020D000196500082D650008D1640008D664000861
:1020E0000008024094F90230002B09DB5248FEF749
:1020F00035FAA378D90717D53020FEF719F8E6E6A8
:102100004E48CDE74E48CBE74E48C9E74E48C7E7B3
:102110004E48FEF723FAA3781A0701D53320ECE7DF
:102120005F0703D59806E7D53120E6E73220E4E7DC
:102130004748B5E7474F07A804A90022F7EC017A02
:10214000022A97ED027A08BFDFF824C177EE877A7A
:1021500008BF9CED107AE0EC017A04BF77EE277A95
:10216000CDED097A3BB9D1ED007A10ED017A77EE29
:10217000C77AC1ED007A0132032A01F10401DDD1F1
:10218000002B7FF4AEAE3448ACE6237813F07C0F1E
:102190000CBF09231D232373E37A0BB90123E372D8
:1021A0002E48FEF7DBF907A8FEF7B3FA21E72378FC
:1021B0002B4813F07C0F0CBF09231323E372FEF7A7
:1021C000CDF9E079FEF7D3F92C20FDF7B1FF207AA5
:1021D000FEF7CDF92C20FDF7ABFF607AFEF7C7F9CB
:1021E000204B1B6AD80706D51F4B5B6913F4005FB1
:1021F0000CBF37460227D9F8143003F40056C3F356
:10220000403357EA83133FF4FAAE1848FEF7A6F9B5
:102210002FB1012F0CBF53204320FDF789FF002E63
:102220003FF4EDAE4620FDF783FFE8E600287FF49B
:1022300009AF0123A37005E7DA640008E064000831
:10224000E4640008E9640008EF640008F56400082D
:10225000FB64000834050020086500081E650008BE
:1022600024650008000001400004024029650008C0
:102270000C0500209976967E802A7FF40DAFA37816
:1022800043F02003A370002F08DA2378012B02BF4C
:10229000A37843F00503A37080232370E820FEF7A2
:1022A000C6FBAE0723D515F0680F1DD12378402B50
:1022B00007D1A37813F0200203D1D80640F1E280C1
:1022C00022702378002B00F0E380DA060CD5A27888
:1022D000D70709D5102B40F0DB80A37A002B00F044
:1022E000D78043F00803A3720220FEF7A0FB6E071D
:1022F00023D5227894F9023012F0D00F00F0DD805F
:10230000E278002A40F0D980002BC0F2D880FDF797
:1023100083FF94F8883484F84531FDF793FF2379DF
:102320009D0748BFA27823F0060344BF42F0010294
:10233000A27023710420FEF77AFB94F80C3503F0A9
:10234000FF02002B50D0EFF3108372B6002184F807
:102350000C1583F31088E57912F0010F0CBF2B46A2
:102360006423900744BF0A33DBB2570744BF0A3BDC
:10237000DBB2160744BF0133DBB2D00644BF03F122
:10238000FF33DBB2C82B28BFC8230A2B207A38BF03
:102390000A2312F0200F14BF6421014612F0400FEF
:1023A00018BF322112F0800F18BF19219D4201D1B0
:1023B000814219D094F88854E37194F844711FED68
:1023C000536ADFF8C48121720023E3722946342660
:1023D000B94240F08D806A4B83ED066AFDF71CFF21
:1023E00084F84551FDF72EFF94F80D3503F0FF05F5
:1023F000002B00F0BF80EFF3108372B6002284F848
:102400000D2583F31088627A15F0010F0CBF134677
:102410006423A90744BF0A33DBB26F0744BF0A3BFA
:10242000DBB22E0744BF0133DBB2E80644BF03F141
:10243000FF33DBB2C82B28BFC8230A2B38BF0A23BF
:102440009A420CD022786372002A73D14D4B94F8D3
:10245000C50493ED030AFFF751F90023E372A906BF
:10246000237840F18580102B40F08280A37A002BE6
:1024700076D102233F2DA37265D80BB0BDE8F04F93
:10248000FFF798B9590744BF43F00803A37018E752
:1024900000232371FDF78CFF58B1A37813F040039C
:1024A00007D1A37008232370FFF784F9FDF75CFEC2
:1024B0001AE70023A370237016E7002B09DA002324
:1024C0002371FFF7B7F8FFF781F8FEF75DFAFDF724
:1024D000B7FFA37813F020021FBF03F07F0343F080
:1024E0000103A370402312BF2370A270227021E762
:1024F00001FB0680FDF76CFFB4EEC60AF1EE10FAA0
:1025000006FB0143CCBF26EE066A20EE006AD3ED3F
:102510005B7A0131B4EE676AF1EE10FAC9B2C8BF56
:10252000B0EE676A102983ED586A08BF0021B0EE4B
:10253000406A4DE7237943F0080323718DE713B117
:1025400013F0380F16D094F8C40443064CBF00F0C3
:10255000BF0040F04000FDF7D7FD84F8C40409E057
:10256000DA0702D543F00403A3723F2DEBD801E054
:102570003F2DE4D82378032B7FF666AC7DE700BFC0
:10258000DC0400200C05002098010020F3EE047A02
:1025900070B520EE270A064601F0BCFEBCEEC00A6C
:1025A0000D4D10EE103A9CB29CB16B788BB95EB9B0
:1025B00000F014F8D5F8B424D5F8B4349B1A312BB4
:1025C00008D9013CA4B2EFE7FFF712FCAB789B07F8
:1025D000F0D570BD00BFEFE7500000202DE9F041BD
:1025E000724C2DED028BFFF703FCA378002B58D023
:1025F000FDF7DEFE98B994F8C43494F8C5541D4331
:1026000004F2BC4393ED038A94F8C830990702D5CD
:102610002020FEF78DFADFED668A002627E0654B65
:10262000457C5B6990ED0C8AC3F3403305F03005BF
:1026300045EA8315E8E767789FBBDA0715D5227866
:102640003F2A6FD913F0040815D14046B0EE680A4E
:1026500084F80A80FFF752F84046FDF755FDA3784D
:1026600023F0020343F00403A370FFF7C1FBA37838
:10267000002BE0D115E0802A1AD14F489FED4C0A7B
:10268000FDF76CFF4D48FDF769FFFEF73BF8384654
:10269000FFF734F83846FDF737FDFDF7F1FE6378B4
:1026A0001BB1BDEC028BBDE8F081FFF7A1FBF6E7A3
:1026B000402A04BF23F02003A370A3781807D4D5C1
:1026C00094F8C5244AB1990707D494F8C8309A07FA
:1026D0001CD5237943F00803237194F8C4345BB10B
:1026E000A3789B0708D405F0C000FDF70DFDB7EEF9
:1026F000000A0120FFF74AFFA3789F07B5D443F0F3
:1027000010030220A370FEF77DF9AEE7B0EE480A91
:1027100005F03000FEF7F2FF0120B1EE000AFFF7EE
:1027200035FFDAE7A37A8BB398070AD594F8C53456
:102730001BB39FED1F0A3846FEF7E0FF0123A3728B
:1027400093E713F00C0F90D094F8C5347BB11A487E
:10275000FDF704FF1A48FDF701FFFDF7D3FF94F8DA
:10276000C83099070BD5237943F008032371A37A66
:102770001A0702D50220FEF745F9A67275E7B0EEFA
:10278000480A05F03000FEF7B9FFF0E723791B0790
:102790007FF56BAFB0EE480A05F03000FEF7AEFFF4
:1027A000237923F0080323715FE700BF5000002066
:1027B0000000000000080240B96400083865000805
:1027C0004165000810B5FEF729F9064CFFF706FF32
:1027D000637833B9FDF7ECFD0028F7D12378082B97
:1027E000F4D010BD5000002070B551230D4E4FF4B1
:1027F000407503FB00555022294606F23D60FEF766
:1028000059FD044658B986F83D06FFF7DBFF284618
:10281000502206F23D61FEF7AFFE204670BD01205A
:10282000FCE700BF5000002010B52DED028B0A4BD5
:102830001B78022B0446B0EE408A0AD0FFF7C2FF95
:10284000B0EE480ABDEC028B2046BDE81040FEF712
:1028500055BFBDEC028B10BD5000002038B50446BA
:102860000D46FFF7AFFF4FF400730D20294600FB24
:1028700004300C22BDE83840FEF77EBE30B5054678
:10288000E80785B006D51D491D485C2202F092FD7F
:10289000FEF78EFEA9070AD50024CDE90144039472
:1028A000E0B201A90134FFF7D9FF082CF8D16A077B
:1028B00013D500214FF44070FEF742FE002140F294
:1028C0000130FEF73DFE002140F25130FEF738FEA8
:1028D000002140F25230FEF733FE2B070CD50021C9
:1028E00040F2AE30FEF72CFE002140F2AF3005B0D2
:1028F000BDE83040FEF724BE05B030BD3C600008A6
:10290000D000002070B54FF400730D460D2101FB7F
:10291000003106460C222846FEF7CCFC044640B99E
:10292000C5E90000A86029463046FFF797FF20461A
:1029300070BD0120FCE708B5FFF744FF014B002202
:102940001A7308BD500000202DE9F04F2DED048BC7
:10295000A34D95F8444105F5A47834278A4604FB35
:10296000078895B006463A460021404602F0CAFC68
:1029700007FB04579AF80890DAF80430C7F8783162
:1029800019F0020387F85991009314BF05F5956576
:1029900005F28C4595E807000BAB83E80700914AE8
:1029A000019634270EA90DF1200BA2F18006674392
:1029B000CDE90218CDF810B00025F119CDE90631A6
:1029C000019BB2EC018AB3EC010A059220EE080AE1
:1029D000019301F0E9FB029B039A43F8040B029375
:1029E000069B079953F804EBA0EB0E0E07EE90EA56
:1029F000F8EEE77A8EEAEE7087EE887AA0EBEE705A
:102A000042F8040B06EB070C0392DCF854219042C9
:102A100038BF1046049ACCF85401B5EEC07AA2EC47
:102A2000017AF1EE10FA0492059A0ED5002D00F00D
:102A30008780012D0CBF4FF0100C4FF0200C91F847
:102A400058E14CEA0E0C81F858C10135EDB2032D66
:102A5000B4D100286FD008AF3846FEF77DFE34228F
:102A600002FB0462604882ED5A0A3946B0EE406AC1
:102A7000FDF738FD5D4882ED590A3946FDF732FD14
:102A800019F0010F82ED5C0A06D19AED000A19F0E7
:102A9000080F18BF20EE060ADFF844919FED548A14
:102AA000342202FB049181ED5D0A99F88814A14259
:102AB00002D0009B002B46D002FB049383ED578A83
:102AC00083ED5B8A009BABBB4046FDF781FC494A26
:102AD000D2ED067A82ED060AF4EEC07A3421F1EEE8
:102AE00010FA01FB04944CBF67EEA77A60EE007AFF
:102AF00094ED5B7AF4EE477A1346F1EE10FA97E81C
:102B00000700C8BFF0EE477AC4ED587A3A4C84E823
:102B100007000EAA07CA83E8070096F88E3686F8E3
:102B200044310133DBB2102B08BF002389F88E3605
:102B3000FDF788FB012015B0BDEC048BBDE8F08FDC
:102B40004FF0080C7BE711AA09F593619246B1ECAE
:102B5000017AFBEC017A013DA7EE678A15F0FF05CB
:102B600077EEC77AE2EC017AF1D1DFED247AB4EEA8
:102B7000E78AF1EE10FA28DCDFED217AB4EEE78A7D
:102B8000F1EE10FA29D45046FEF7E6FD16485146FC
:102B9000FDF7A8FCB7EE009A39EE488AF0EE408ABD
:102BA000B6EE000A28EE000A01F06AFBD6ED2E7A96
:102BB00068EEA78A39EE409A68EE808AC8EE897A74
:102BC000F5EEC07AF1EE10FA01D5DFED097A342383
:102BD00003FB0493C3ED5B7A76E7DFED0A7AF6E751
:102BE00050000020D0000020E8000020DC00002081
:102BF00000000000DC040020E8040020EFFF7F3F1D
:102C0000EFFF7FBF9976967E70B5234C94F8C8305D
:102C10009B060D46064621780FD5202910D0FDF7DA
:102C2000D7FE50B101230829E37019D0FDF718FF32
:102C30000220FDF709FFFFF7D1FC2378022B0ED00D
:102C4000FFF7CCFC637853B994F8882494F88E3657
:102C50009A4211D029463046FFF776FE78B170BD12
:102C60000846FDF7CFFEFFF7B9FC6378002BE4D1EF
:102C70002378002BF7D1D9E7FDF7D0FEE0E794F8F1
:102C8000C8309A07EBD52B7ADB06E8D595ED010A1B
:102C90001020BDE87040C7E5500000202DE9F04F3E
:102CA0002DED028B854C637889B00746002B40F0F0
:102CB000FC80CDE90533062204F180089FED806A8F
:102CC000079301A98DF81C20BFEE087A4246002B1D
:102CD00000F09080012B0CBF0220042001F8010BB2
:102CE00047FA03F0C5070AD5D2ED097A67EE877A6D
:102CF000F4EEC67AF1EE10FA58BFB0EE676A01330F
:102D0000032B02F10402E2D194ED348ADFF8B4A17E
:102D100004254FF001094FF0000B514602A8FDF7C2
:102D20001FFE002394F8C90002A91E461A460DF1A1
:102D3000040C47FA02FE1EF0010F13D040FA02FE07
:102D400001331EF0010FDBB256D0B9F1000F56D09F
:102D5000F1EE467A12F80CE04AF822B0C1ED007AA2
:102D600046EA0E060132032A01F10401E1D107EE21
:102D7000903AB8EE670A01F083FA28EE008A05A9B6
:102D800002A8A6718DED058AFFF7DEFD04232371ED
:102D9000FEF710FDFDF7E8F9B9F1000F11D0FDF7CE
:102DA000BFFB01AA002312F8011B314205D040FAF3
:102DB00003FC1CF0010F18BF8E430133032BF2D12B
:102DC000A671FEF7F7FC637D13F0340F72D0637DBC
:102DD000D9B2DB0602D50620FDF736FE8E0602D5F7
:102DE0000720FDF731FEB9F1000F0BD0480710D5D1
:102DF00009200CE0012071E7B9F1000FA8D0F0EE36
:102E0000467AA7E7FDF78CFB384202D00820FDF791
:102E10001BFE94F8B93443B1FDF722FE09B0BDECB6
:102E2000028BBDE8F04FFFF7D9BB0420FDF7FFFD93
:102E3000FEF7CCFBB4F8D400FDF712FB99F00109C2
:102E4000D4ED337A94ED366A94ED348A18BFB1EE3E
:102E5000047A05F1FF351CBF26EE076AB0EE678ADB
:102E600015F0FF057FF459AF164E47FA05F3DA0760
:102E700014D594F8C930D4ED367A98ED000A2B4178
:102E8000DB0745BF98ED097A77EE877A27EEC00A0F
:102E900027EE800A01F088F946F825000135032D58
:102EA00008F10408E1D10023237109B0BDEC028BC5
:102EB000BDE8F08F71077FF46FAFB9E750000020D5
:102EC00000000000F80400202DE9F04F2DED0C8BE0
:102ED000DFF800A3402200218FB00AF2946002F0D4
:102EE00011FA0AF2BC4303CB1A889B788AF89F3602
:102EF0009AF83D36CAF89506242BCAF89916AAF80E
:102F00009D260AF2BC4B4FF0000340F0558201278A
:102F10008AF896368AF8957603230024CDE9024490
:102F2000DFEDAA8A8DF81B30A046264699E1A5F16F
:102F30004102192A01F29680013307A90DF11B0005
:102F40008DF81B30FEF78AFA002801F08E809DED87
:102F5000078AB0EE480A01F02DFBFCEEC07ACDEDF9
:102F6000017A9DF8049007EE909AB8EEE70A38EEE1
:102F7000400A20EE280A01F0A7F9BCEEC00A472D4E
:102F800010EE103A9BB21DD04D2D00F02581463D2C
:102F9000142D00F28D80DFE815F09E018B008B0070
:102FA000B801C101CA01D3018B00D7018B00DF0139
:102FB0008B00E401E901EE018B008B008B00FA012C
:102FC00001020802B9F13D0F74D8B9F1250F24D8D8
:102FD000B9F11E0F6CD8B9F1090F55D8B9F1030F2B
:102FE00063D8002E41F044800226B9F1260F8AF8FA
:102FF000959640F0E880A3F1140292B21E2A57D8A9
:10300000734921FA02F2D20752D50A22B3FBF2F336
:10301000763B8AF89536012289E0A9F12602172A23
:1030200046D801A151F822F0E32F0008B130000882
:10303000BF310008B1300008B13000088D31000800
:10304000B1300008B1300008B1300008B1300008DC
:10305000B13000088D310008B1300008B1300008EF
:10306000B13000080F310008A9310008A93100086B
:10307000A9310008A9310008A9310008A9310008C8
:10308000B1300008B5310008A9F10A02142A0FD89E
:10309000DFE802F0380E0E0E0E0E0E545454767603
:1030A0000E0E0E0E0E0E380E3800B9F1040F2ED093
:1030B00014254BE0A9F15002D1B20E29F8D80E2AFE
:1030C000F6D801A151F822F0EB2F0008B13000082A
:1030D000B1300008B1300008B1300008B13000084C
:1030E000B1300008B1300008B1300008B13000083C
:1030F00059310008593100080531000875310008C0
:10310000753100081BB9002E40F0B287012609F086
:10311000FD021C2A8AF8949602D0B9F15C0F50D1B6
:103120000BB10A2BC4D199448AF894960022029BD1
:103130001341DD0740F18F80152507E0A9F1110942
:103140008AF899960222002BF1D0172528460FB055
:10315000BDEC0C8BBDE8F08F2BB9A9F15A098AF8A8
:1031600098960322E3E70A2BA2D1B9F15A0F9FD018
:103170000422DCE7C9F15E098AF896960522E2E7A7
:10318000C9F115098AF897960622DCE7002E40F06F
:103190006F87B9F1310F02D00A2B89D101268AF845
:1031A0009A6608220326C2E7A9F136098AF89B9697
:1031B0000922C8E7002B7FF47BAF0A22B7E707227A
:1031C000C1E70022BFE70122BDE700BF0000C842FF
:1031D0000104104050000020002BB6D1B9F1090FB6
:1031E00018D8B9F1070F2BD8B9F1020F19D9A9F1E5
:1031F0000303022B3FF65CAFB9F1040F1DD0B9F108
:10320000050918BF4FF001094FEA09198AF89E967F
:103210000C228CE7B9F11E0F7FF44AAF8AF89C9616
:1032200005E0B9F1000F04D0B9F1010FF6D10B227E
:103230007DE703238AF89C36F9E74FF02009E5E79C
:10324000B9F1090F1CBF9AF89D3643F040038AF884
:103250009D360D226BE701239340029A1A4393B2E5
:1032600002939DF81B300AEB030292F83D56002DA5
:103270007FF45DAEB8F1000F02D0002E08BF022629
:10328000A20605D5DAF8B4269D4B9A4200F31487BE
:10329000002F00F09380E30740F1A2809AF8973660
:1032A000012B08D1974B9FED987AD3ED037A67EE07
:1032B000877AC3ED037AE2055EBF924BDBF80C2000
:1032C000DA629AF89436042B40F09C80630600F191
:1032D00096801C253AE78B4B83ED038A002344FA42
:1032E00003F2D00700F1CA8640F261321A41D107D9
:1032F00005D5B5EEC08AF1EE10FA00F1C2860122C2
:1033000002FA03F323439CB2ABE77E4B83ED048ABE
:10331000039B43F0010303930123E0E7794B83ED23
:10332000058A039B43F0020303930223D7E7754BFF
:1033300083ED068A039B43F0040303930323CEE744
:103340008AF8B0960423CAE7FDEEC87A17EE903AE1
:10335000CAF8B4360523C2E76A4B83ED098A06230F
:10336000BDE7684B83ED0A8A0723B8E7654B83ED19
:103370000B8A0823B3E7DFED657AB4EEE78AF1EE56
:1033800010FA00F378868AF8C4960923A7E75D4B04
:1033900048F0010883ED0D8A0A23A0E7594B48F055
:1033A000020883ED0E8A0B2399E7564B48F0040878
:1033B00083ED0F8A0C2392E71F46AEE59AF8963606
:1033C000012B0FD1022E7FF476AF9AF89536502B51
:1033D0003FF471AF002B3FF46EAFE0073FF56BAFEA
:1033E0001625B3E69AF8BD34002B7FF464AFE107ED
:1033F0003FF554AF434BDBF81020DA605BE724F075
:103400004004A4B29AF89996B9F1000F3FD0B9F1EF
:10341000010F41D000230593022301934FF00109CE
:103420009AF89736012B3ED0032E07D19AF89A3698
:10343000012B03D1B8F1040F40F04186344A07CA8A
:1034400008AB83E80700029A920542D49AF89436B2
:103450000A2B4FD05C2B00F0CC80032E40F0FF8075
:103460001E2B00F04281352B00F054811C2B40F0C4
:10347000EE8028490620FFF745FA002838D0B8F139
:10348000000F40F03581CDF8108046469EE00223C3
:10349000059301230193C3E70023CDF81490019312
:1034A0004FF00209BCE71C4A9FED177A002348FA47
:1034B00003F1C90744BFD2ED007A67EE877A03F1C2
:1034C000010348BFC2ED007A032B02F10402EED1E2
:1034D000AAE79AF89B06062801D91D2536E69AF830
:1034E000C2248242B2D01946FFF70CFA0028ADD1AF
:1034F00007252BE6B8F1000F10D11A2526E600BFEC
:1035000080969800E40600203333CB4100007F43CF
:1035100034050020F40600201807002014F0500F96
:103520003FF4D7AEAF4B93ED090A01F043F8FCEE40
:10353000C07ACDED047A9DF81030062BCDD89AF8DC
:10354000B026142A05D0022A7FF4B2AD20063FF53A
:10355000AFAD002B47D0013BDBB2DFF88CA2049368
:1035600004980AF2A461FFF7CDF90028C0D09AF8B8
:10357000B0C60AF2A46200230AF2BC4A48FA03F178
:10358000C90719D5BCF1140F92ED097A2ED1DAEDE5
:10359000077ADAED0D6A77EEE67A022B77EEC77AD4
:1035A000C2ED007A08D18F49A1F5EC7090ED107A48
:1035B00077EEC77AC1ED067A0133032B02F10402DC
:1035C0000AF1040ADAD124F05004A4B2864B93F82D
:1035D00095B6BBF1500F40F0A480B8F1000F00F099
:1035E00010811F25B2E59AF89B36B6E782ED007A86
:1035F000E2E7B8F1000F80D07C4908A801F503721A
:10360000002348FA03FC1CF0010F23D090ED007A50
:10361000D1ED077A77EEC77A92ED007A77EEC77A26
:10362000022BC2ED007A09D1DFF8B8C1ACF5EC7E0F
:103630009EED107A77EEC77ACCED0F7A0133032B2B
:1036400001F1040100F1040002F10402D9D10023C8
:103650000493BBE7D1F834C0C2F800C0EEE7B8F17C
:10366000000F3FF4FDAE62490DF1200E01F5F87236
:10367000002048FA00FC1CF0010F0DD1D1F800C069
:10368000C2F800C00130032801F1040102F1040274
:103690000EF1040EEDD1E3E6352BF3D0DFF848C18F
:1036A00092ED007A9CF898A6BAF1000F16D1DEEDE3
:1036B000007AD1ED066A77EEA67A022877EE877A4D
:1036C000C2ED007ADED10CF2946A0CF2BC4C9CED97
:1036D000107A77EE277ACAED0F7AD3E7D1ED007A28
:1036E00077EE877AC2ED007ACCE742490720C2E63E
:1036F0003E4A002302F5EC7148FA03F0C0075CBFB4
:10370000D06908610133032B02F1040201F10401C5
:10371000F2D19CE7344B93F89536012B97D91E25AF
:1037200014E5022E6DD1BBF1000F05D1B8F10006F2
:1037300018BF0126760064E003F29463D3ED037AA8
:10374000F5EE407AF1EE10FA3FF44AAEBBF1030F0A
:1037500005D051D8BBF1010FE8D047F00407B8F10C
:10376000000F3FF4CAAE019A012303FA09F1934016
:10377000194318EA010F00F0A5841B4B03F2BC4269
:1037800002EB890003F2946AD0ED077A01980AEB04
:10379000890CDCED0D8A02EB80020AEB800C78EEDE
:1037A000E78A9CED0D8AD2ED077A14F0800238EE9C
:1037B000678A00F0D48003F5D96103F59B600C2281
:1037C00001F092FEAAF2946300286FD12125BDE496
:1037D000ABF18D03022B00F22181DFE813F01D0114
:1037E0001F011D01E4060020500000200C050020F0
:1037F00028050020F40600200BF17403DBB2032B34
:10380000E6D917F0010315BF24F0210424F448740D
:10381000A4B224F0010416B124F4E054A4B2002CA4
:1038200040F05984CDE90C44002B00F01B81029B31
:1038300023F04903002B40F05184834E96F89436D0
:10384000352B02D0002B40F04984804C96F8C424DC
:10385000E3680C9396F8C534134343F004038DF8E2
:10386000343096F8C830D4F8E4210B9213F0200FCE
:1038700004F5037405D02046FDF7AAF8002840F0AF
:1038800030840BA92046FFF7BFF9337843B9FCF722
:103890008FFD28B120233370FDF78CFFFCF764FC0B
:1038A00094E807006A4B83E807004FE493F89736E3
:1038B000012B02BFDAED0A7A9FED667A67EE877A0E
:1038C00068EEA8AA08BFCAED0A7A9AED0A9AF1EE44
:1038D000007A69EE277AB0EE6A0A99EE270A28EE96
:1038E00008AA30EE4A0AB5EEC00AF1EE10FA00F16D
:1038F000EC8300F0C5FCF0EE409A3AEE8A0A00F044
:10390000BFFCF1EE699AC9EE807ABBF1030F0AEBB6
:10391000890324F08004A4B2B5EEC09A08BFF1EE8A
:10392000677AF1EE10FA48BFF1EE677AB0EE687A86
:10393000A8EE677AF6EE006AA8EEA78A27EE267A46
:1039400028EE268A83ED047A019B44BFB1EE499AA2
:103950008AED0A9A0AEB830A8AED048A51E70398F2
:10396000014200F0B58393F8971624F00E04012964
:10397000A4B23BD00AEB8903D3ED049A019B0AEB76
:10398000830393ED049A38EE498A78EEE98A28EEAB
:10399000080AA8EEA80A00F073FCB0EE408A29EEEF
:1039A000090AA9EEA90A00F06BFC78EE407A9FEDB7
:1039B0002A7A8AED0A0AF0EEE77AF4EEC77AF1EE97
:1039C00010FA7FF71EAFB6EE007AF4EEC77AF1EE8A
:1039D00010FA3FF7FBAE9FED217A20EE070AF4EED6
:1039E000C07AF1EE10FA7FF70CAFEFE69FED197A8F
:1039F00003F2A46303991141C90744BFD3ED007AD0
:103A000067EE877A02F1010248BFC3ED007A032A0C
:103A100003F10403EED1ADE747F010070BF1720399
:103A2000DBB2012B98BF47F00807B8F1000F3FF455
:103A300064AD0B490C22A1F5F87001F055FD00288A
:103A40007FF4DFAEC2E600BF500000200C0500206E
:103A5000280500203333CB410AD7A33B6F12833AAA
:103A600018070020A34C94F8C8309B070FD50BF122
:103A7000FF3BBBF1020F88BF47F04007B8F1000FD2
:103A800000F0D580022E40F0D28047F08007D4F8B5
:103A9000B436C4F8D43494F8963684F8BD3413B1EF
:103AA00008238DF83430DFF864A2AAF5EC7B9AED98
:103AB0000B0ADBED037A9AED03AAF4EE407AF1EEFD
:103AC00010FA8BED04AA8DED0BAA07F0400801D186
:103AD000B8060FD594F8C50440B1390606D4B8F13C
:103AE000000F01D09FED840AFEF79EFEDAF82C301D
:103AF000CBF80C30B8F1000F02D1DBF80C300C938E
:103B000094F8C43694F89E0684F8D03494F8C534FA
:103B1000834207D09DED0C0AFEF786FE94F89E3690
:103B200084F8C5349DF8348094F8C53494F89D0623
:103B3000029048EA030894F8C4348DF83480834234
:103B40000BD02378022B04D0FEF73CFE0298FCF742
:103B5000DBFA94F89D3684F8C43494F8C43448EA07
:103B6000030894F894368DF83480042B0BD1237815
:103B7000022B08D09AED098AFEF724FE0020B0EE51
:103B8000480AFEF703FD94F8993684F8C034032EF2
:103B900094F8973684F8BE3414D194F89A3684F8A1
:103BA000C13413B90023CAF83C30DAED0F7A9BED2B
:103BB000107AB4EE677AF1EE10FA03D0CBED107AFA
:103BC000FEF7B9FE94F89B3694F8C2249A4208D0C6
:103BD00008AA07CA84F8C234484B83E80700FEF7F6
:103BE000AAFE94F8983684F8BF3494F89436262BBD
:103BF00066D032D803F0FD021C2A4BD00A2B35D0F8
:103C000094F8953684F8BC34502B00F0A981022E2C
:103C100040F0A681012B64D139480BA9FEF7F4FFCF
:103C2000384B03F5F87207CA83E8070098E194F867
:103C3000C534102B7FF42BAF94F8BC34013B022B1E
:103C400007F0400205D8002A3FF421AF47F02007D3
:103C50001DE7002A7FF41BAFF8E75C2B35D0662BFD
:103C600038D0282BCCD1274907202BE0DFF8A080C3
:103C700004984146FEF7F2FD94F8C234049A934248
:103C8000BED198E80700A8F5E07383E80700FEF7C7
:103C900052FEB5E748F001088DF834801EB118488F
:103CA0000BA9FEF7B1FFDFF868800BA94046FEF7CD
:103CB000ABFF98E80700A8F5E67383E807009FE7E5
:103CC00010490620FEF7CAFD9AE70F4B03F5EC7288
:103CD00007CADAE70C4A0023C4F8F034C2E901331A
:103CE000D5E7BBB99DF8343043F001038DF834308B
:103CF00092E700BF500000200000000034050020C3
:103D0000180700202805002040050020E4060020B8
:103D1000F4060020023B012B00F2FB80DA4B019AF3
:103D20009AED0ABA03F5E67603EB890806EB890AF1
:103D300003EB820B06EB8206DAED006AD6ED000A91
:103D400098ED009ADBED009A04EB890904EB8202FE
:103D500002F5D96209F5D96992ED007A99ED006A08
:103D600036EE899A70EEA99A36EE496A37EE697A8C
:103D700020EE860AF1EE60AA60EEC70AA6EEC70A38
:103D8000E6EEC60AF1EE66BA00F09CFA7A07B0EEEB
:103D9000408A40F19280DFEDBD7AB4EEE70AF1EEA1
:103DA00010FA03DBDFEDBA7A30EE678AD4ED2F7AB2
:103DB000F0EE008AB0EE670A9BEE280AB6EE00DA53
:103DC00027EE800A00F05CFA68EE0D7A67EE8B7AD7
:103DD000F0EEE77A87EE800A00F068FBBCEEC00ADE
:103DE00010EE103A9BB20193002B3FF415AF07EE93
:103DF000903AB8EEE77A9DF83420A34B9FEDA5CA20
:103E0000C8EE07CA12F0080F1CBF22F008028DF896
:103E10003420059A03EB820704EB820202F5D96293
:103E20004FF0010918BF6AEE077AD7ED006A18BF94
:103E3000CDED0B7AD2ED007AECEEEC8A002277EE33
:103E4000E67A2CEE8CCA87EE87BAF1EE007A78EE2D
:103E5000A77A68EE8D8A2CEE27CA019B1FFA89F19A
:103E60008B427FF6D9AE0C2A33D028EEAA7A6AEEBE
:103E7000CC7AACEE2B7A0132D2B2E8EEAB7AF0EE2D
:103E800047AAF0EE67BA79EE2B7A0BA9C8ED007A53
:103E900079EEAA7A7C48CBED007AD7ED007A0292CF
:103EA00077EE8B7A09F10109C7ED007AFEF7ACFED7
:103EB0006178029A0029D0D0B2E6DFED777AB4EECD
:103EC000E70AF1EE10FA9CBFDFED717A30EE278A37
:103ED0006CE707EE909AB8EEE7AA2AEE2CAAB0EEAD
:103EE0004A0A00F095F9B0EE408AB0EE4A0A00F0B6
:103EF00027FBD6ED007A9AED007A60EE27BA67EEDE
:103F0000C87AE7EE48BA0022E7EE407AF0EE67AAF8
:103F1000B9E79DF8343043F004038DF8343023784A
:103F2000022B3FF47DAEFEF74DFC94F80180B8F112
:103F3000000F15D1C7F3C00084F80580FCF7C8FB5B
:103F4000564B94F8BA241B6903F001039A4221D01E
:103F50000420FCF779FDFEF741FB4046FCF7B8FB77
:103F600094F89C3684F8C334002B3FF4EFA8FEF796
:103F700029FC94F8C334032B237846D1022B04D0B8
:103F80000820FCF73FFDFEF729FB002384F8C3342B
:103F9000FFF7DCB842480BA9FEF736FE0123304696
:103FA00084F83036FCF72EFDFEF718FB6378002B03
:103FB000D6D12378002BF7D194F83036012B21D1BC
:103FC000FB061BD5374BA3F1580207CA83E807004D
:103FD000002084F83006FCF77BFBFEF7FFFAFDF7C4
:103FE000F5FAFDF727FBFCF72BFAFCF7D5FC637914
:103FF000002B3FF415AEFCF7C7FCB1E70520FCF73A
:1040000023FDE5E701236371E2E70122A4F8BC2464
:1040100064220026E271022B46F2644284F8C064F6
:1040200084F8BF6484F8C264A4F8C464228110D008
:104030001D493046FEF766FC00283FF459AAFEF7FA
:104040007AFC30469FED190AFDF758FB3046FCF725
:104050005BF81748FCF782FA1648FCF77FFAFCF782
:1040600051FB92E70125FFF771B80225FFF76EB803
:104070001825FFF76BB82625FFF768B81925FFF755
:1040800065B80425FFF762B828050020BD3706B5DE
:10409000DB0FC940ABAA2A3EBD37063500080240F7
:1040A0001807002050050020340500200000000003
:1040B000B9640008536500081B25FFF747B825259C
:1040C000FFF744B82025FFF741B82225FFF73EB897
:1040D0002325FFF73BB82425FFF738B81025FFF755
:1040E00035B80F25FFF732B870B5144E00242046BE
:1040F000FEF77AFB80B986F83D063E20FCF718F8FB
:10410000FDF71CF93A20FCF713F80720FCF70CFC2C
:1041100004B170BD0124EAE796F83D36002BF7D0D4
:10412000FEF7D2FE05463E20FCF702F8FDF706F941
:104130003A20FBF7FDFF2846E8E700BF50000020CB
:1041400008B5124B124A9A60124B1348DA1C121A25
:10415000C11E22F00302994288BF00220F4901F0DC
:1041600029F9BFF34F8F0E4B0E48DA1C121AC11EED
:1041700022F00302994288BF0022002101F0C2F818
:10418000BFF34F8FFDF7B5F801F0DCF900ED00E06B
:1041900000000008500000200000002074660008A5
:1041A000601800205000002010EE101AC1F3C75212
:1041B0000029A2F17F0CACBF01204FF0FF30BCF111
:1041C0001E0F0FDCBCF1000F1DDBC1F31603BCF1A9
:1041D000160F43F400030ADD963A03FA02F202FBDB
:1041E00000F07047FDEEC07A17EE900A70474FF46A
:1041F000800242FA0CF21A44CCF1170C22FA0CF2AB
:1042000002FB00F07047BCF1FF3F18BF0020704771
:1042100010EE103A184923F000428A421AD9B2F13E
:10422000FF4F02D330EE400A704700B583B06846B6
:1042300000F09CFB00F003000128DDED010A9DED7C
:10424000000A10D0022809D090B900F0ADF803B0F0
:104250005DF804FBDFED090A00F0A6B800F0A4F851
:10426000B1EE400AF3E700F039FBB1EE400AEEE7A9
:10427000012000F033FBEAE7D80F493F00000000BF
:1042800008B52DED028BB0EE408A00F0C5FFB4EE0C
:10429000488AF1EE10FA06D6DFED098AB4EEE88A14
:1042A000F1EE10FA02D4BDEC028B08BD01F07CF8EF
:1042B00088EEA80ABDEC028B2123036008BD00BF75
:1042C0000000000000F094B910EE103AC3F3C7529A
:1042D0007F3A162A194615DC002A0CDB0C481041DF
:1042E000184205D04FF4800313410B4423EA000326
:1042F00000EE103A7047013203F00043F8D143F06A
:104300007E53F5E7802AF3D130EE000A704700BFF4
:10431000FFFF7F0010EE102AC2F3C7537F3B162B1E
:1043200022F0004132DC002B104618DB1A491941FB
:104330000A422AD0DFED197A70EE277AF5EEC07ABC
:10434000F1EE10FA21DD002A04DD4FF4000242FAFA
:1043500003F3184420EA010300EE103A7047DFED42
:104360000F7A70EE277AF5EEC07AF1EE10FA0CDDD6
:10437000002A08DBDFED0A7A0029B7EE000A08BF41
:10438000B0EE670A70479FED070A7047B1F1FF4F23
:10439000FBD330EE000A7047FFFF7F00CAF249717D
:1043A000000000000000008010EE103A23F00043EF
:1043B000B3F1485F2CD2FDEEC07A17EE903A002B95
:1043C00060D060EE007A9FED317A9FED315ADFEDDB
:1043D000315A9FED316ADFED316AA7EE875A9FEDC2
:1043E000307AE7EE855AA7EEA56AA7EE867AE7EE61
:1043F000876A67EEA66A60EEC00AB6EE007AE7EE5C
:10440000A60AB7EE000AD7EE870A30EE600A7047B8
:1044100060EE007A9FED1D7A9FED1D5ADFED1D5A6B
:104420009FED1D6ADFED1D6A1E4AA7EE875A934273
:104430009FED1B7AE5EE275AA5EEA76AA6EE277A2E
:10444000E7EE276A66EEA76AD5D9174A934214D8D1
:1044500003F17F4307EE103AB7EE006A36EE476A83
:1044600060EEC00AF6EE005A97EEA57AE7EEA60ACD
:1044700037EE607A36EE470A7047B6EE076AB5EE59
:10448000027AEDE7B7EE000A704700BF4ED747AD9E
:10449000F6740F317CF293B4010DD037ABAA2A3DEC
:1044A000610BB6BA9999993E0000483F10EE102A68
:1044B000C2F3C7537F3B162B22F0004129DC002BAF
:1044C000104618DB1A4919410A4221D0DFED197A4A
:1044D00070EE277AF5EEC07AF1EE10FA18DD002AB8
:1044E00004DA4FF4000242FA03F3184420EA01030D
:1044F00000EE103A7047DFED0F7A70EE277AF5EE96
:10450000C07AF1EE10FA03DD002A08DB9FED0A0AFB
:104510007047B1F1FF4FFBD330EE000A7047DFED7B
:10452000077A0029BFEE000A08BFB0EE670A70479D
:10453000FFFF7F00CAF24971000000000000008008
:1045400010EE103A194923F000428A421BD9B2F109
:10455000FF4F02D330EE400A704700B583B0684683
:1045600000F004FA00F003000128DDED010A9DEDE2
:10457000000A13D002280BD098B9012000F0AEF940
:1045800003B05DF804FBDFED0A0A002000F0A6B9D5
:10459000012000F0A3F9B1EE400AF1E7FFF704FFB4
:1045A000EEE7FFF701FFB1EE400AE9E7D80F493F18
:1045B0000000000010EE103AC3F3C7527F3A162AEB
:1045C00019460BDC002A03F0004309DB074840FAD8
:1045D00002F20A40134300EE103A7047802A02D0DC
:1045E00000EE103A704730EE000A7047000080FF7E
:1045F00010B582B0CDED010A019B23F00042B2F16B
:10460000FF4FF0EE407A30D810EE100A20F0004153
:10461000B1F1FF4F29D8B3F17E5F42D09C1704F06F
:10462000020444EAD07431B37AB3B2F1FF4F40D000
:10463000B1F1FF4F29D0891AB1F1F45F4FEAE1528D
:1046400034DA002B42DA3C3240DA9FED340A012C96
:104650004ED0022C43D064B19FED317ADFED317A38
:1046600030EE070A30EE670A03E09DED017A37EE7F
:10467000270A02B010BD022C10D09FED2B7A032C1C
:1046800008BFB0EE470A02B010BD9FED280ADFED6B
:10469000287A0028A8BFB0EE670AEAE79FED210A52
:1046A000E7E702B0BDE8104000F048B89FED200AEF
:1046B000CDE7B1F1FF4F04F1FF3420D0022C26D812
:1046C0001C4B03EB840393ED030AD2E79DED017AC3
:1046D00087EE870A00F07AFA00F030F8B7E79FED2E
:1046E000107ADFED107A30EE070A37EEC00AC0E725
:1046F00010EE103A03F1004300EE103AB9E7022C35
:1047000008D80C4B03EB840393ED000AB1E79FED4F
:10471000030AAEE79FED080AABE700BF0000000008
:104720002EBDBB33DB0F4940DB0F49C0DB0FC9BFD8
:10473000DB0FC93F98600008DB0F493F38B510EE2A
:10474000105A25F00044B4F1A14FF0EE407A0DD399
:10475000B4F1FF4F58D8DFED4F7A9FED4F7A002D1F
:10476000CCBFB0EE470AB0EE670A38BD4B4B9C4257
:1047700059D8B4F1445F4AD34FF0FF3227EEA76A0D
:104780009FED475A9FED477ADFED475ADFED474AE5
:1047900066EE066A531CA6EE857AE6EEA54A9FED04
:1047A000445ADFED445AA7EE265AE4EEA65A9FED8E
:1047B000427ADFED424AA5EE267AE5EEA64A9FED63
:1047C000405ADFED405AA7EE265A9FED3F7AA4EEFD
:1047D000A67AE5EE265A27EE267AA5EE867A27EE09
:1047E000877A35D0394B03EB820393ED046AD3ED1E
:1047F000006A37EE467A002D37EE677A36EEC70A42
:10480000B3DAB1EE400A38BD30EE000A38BD9FED94
:10481000307A30EE077AF7EE006AB4EEE67AF1EE1F
:1048200010FAA9DD38BD00F0D1F92A4B9C4212D80C
:10483000A3F5D0039C4223D8F0EE007ABFEE007AB5
:10484000A0EE277A002230EE270AC7EE007A95E71D
:1048500037EEC70A38BD204B9C420BD8F7EE087ADA
:10486000B7EE007AA0EE277A022230EE670AC0EE99
:10487000077A83E7BFEE007AC7EE007A03227DE76E
:10488000F7EE007A30EE677A30EE270A0122C7EEA3
:10489000007A73E7DB0FC9BFDB0FC93FFFFFDF3EC5
:1048A000D769853C59DA4B3D21A215BD6BF16EBD30
:1048B000356B883D95879DBD6E2EBA3D388EE3BD24
:1048C0002549123EABAAAA3ECDCC4CBEB060000832
:1048D000CAF24971FFFF973FFFFF1B4010EE103AED
:1048E00023F00043B3F1485F04D2FDEEC07A17EE27
:1048F000903A5BB360EE007A9FED157ADFED155AC2
:104900009FED156ADFED156AE7EE875A9FED147A81
:10491000A5EEA76A20EE275AE6EE276AA6EEA77A4A
:1049200030B9DFED106AE7EE876AA6EE850A7047B8
:1049300027EE457AF6EE006AA0EEA67ADFED0A6A67
:10494000D7EE270AE5EE260A30EE600A704700BF70
:10495000D3C92E2F342FD7B21BEF3836010D50B9E3
:104960008988083CABAA2ABEABAA2A3E70B510EED5
:10497000103A884A23F00044944286B0054671D923
:10498000854A94421E4624D823F00042002BDFEDD6
:10499000837A834922F00F02B0EE407A40F3E08040
:1049A0008A4270EE677A09BF9FED7E7ADFED7E6AFC
:1049B000DFED7E6A77EEC77A37EEE67A77EEC77A72
:1049C00080ED007A77EEE67AC0ED017A012006B03C
:1049D00070BD774A944252D9B4F1FF4F48D2E215E4
:1049E000863AA4EBC25307EE903ABDEEE77ADFEDCC
:1049F000716AB8EEC77A77EEC77A8DED037A67EE03
:104A0000A67ABDEEE77AB8EEC77A77EEC77A8DED73
:104A1000047A67EEA67AF5EE407AF1EE10FACDED63
:104A2000057A40F09880B5EE407AF1EE10FA0CBFAE
:104A300001230223604901910221009103A8294624
:104A400000F0CCF8002EC2DA95ED007AD5ED017AAF
:104A5000B1EE477AF1EE677A85ED007AC5ED017A1D
:104A60004042B4E7002285ED000A42600020AEE734
:104A700070EE407AC0ED017AC0ED007AF6E700F002
:104A8000A5F89FED4E7A9FED456AF6EE007AE0EECE
:104A9000077A9FED457AFDEEE77A17EE900AF8EE79
:104AA000E76A1F28A6EEC60A66EE877AB1EE666A46
:104AB00020DC434A411E26F0004352F8212023F017
:104AC000FF03934216D030EE677A30EE470A002E8D
:104AD00030EE670A85ED007A85ED010ABFF677AF03
:104AE000B1EE477AB1EE400A85ED007A85ED010A14
:104AF00040426CE730EE677AE21517EE103AC3F3E6
:104B0000C753C3EBD453082BDFDD9FED267A9FED0F
:104B1000275AF0EE405AE6EE075A70EE657AE6EE56
:104B2000077AD6EE857A35EEE77A17EE103AC3F3B8
:104B3000C753D21A192A10DD9FED227A9FED225A0F
:104B4000B0EE650AA6EE070A75EEC07AE6EE077AC1
:104B5000D6EE857AB7E703236CE7B0EE650AB4E7D3
:104B60008A4270EE277A09BF9FED0E7ADFED0E6A5A
:104B7000DFED0E6A77EE877A37EEA67A77EEC77AA0
:104B800080ED007A77EEA67AC0ED017A4FF0FF3023
:104B90001DE700BFD80F493FE3CB1640800FC93F48
:104BA000D00FC93F004435374344353708A3852E1D
:104BB000800F4943000080435061000884F9223F80
:104BC000D060000800A3852E32318D2410EE103AFB
:104BD00023F0004300EE103A704700BF2DE9F04F7C
:104BE0002DED048BDBB01C46944603930A46CD4B57
:104BF00068991CF1040F53F82160824604F1FF38D4
:104C0000C0F24982BCF1030348BF0CF10403DB107E
:104C1000029301334FEAC30EACEB0E030593029BE4
:104C200016EB0800A3EB080316D401309FEDBE7A03
:104C3000699C18441EA9002BA4BF54F8235007EE0A
:104C4000905A03F10103ACBFF8EEE77AF0EE477A31
:104C50008342E1EC017AEED1002EC0F2B182039BD7
:104C60001EA901EB830446AD4FEA83094046F718BD
:104C70000AEB8301B8F1000FDFEDAB7A09DBA34645
:104C80005346F3EC016A3BED017A8B42E6EE877AFC
:104C9000F7D10130B842E5EC017A04F10404E9D11E
:104CA0000DF1280B0BEB8603CDE9062E043B9FED9F
:104CB000A09ADFED9E8A059804930AEB090446AF9B
:104CC0000BEB86090096CDF820C05AAB03EB8603A8
:104CD000002E13ED140A4FEA860515DD7B195A469E
:104CE00060EE097AB0EE407AFDEEE77A73ED016A84
:104CF000F8EEE77ABB42A7EEE87A37EEA60ABDEEF9
:104D0000C77AA2EC017AEBD1019000F089FAF4EEB7
:104D1000007AB0EE408A20EE270AFFF7C7FBF2EEDA
:104D2000007AA0EE678A01980028FDEEC89AF8EE96
:104D3000E97A38EE678A6CDD06F1FF3EC0F10803C0
:104D40005BF82E2042FA03FC0CFA03F3D21AC0F1EE
:104D5000070119EE903A4BF82E200A416344002ACD
:104D600009EE903A00F3F080B5EE408AF1EE10FAC9
:104D700040F09D80009B9E420ADD5D44002355F873
:104D8000041D4D4543EA0103F9D1002B40F0F280A8
:104D9000009B013B5BF82330002B40F0E780049B35
:104DA000012153F8042D0131002AFAD0731C31443B
:104DB0009C46029D039A05EB030E0EF1804E699D01
:104DC00032440EF1FF3E07EB83061EAB05EB8E0E61
:104DD00003EB8205DEED017AF8EEE77AB8F1000F19
:104DE0000EF1040EE5EC017ADFED4F7A09DB2A467D
:104DF0005346F3EC016A32ED017AA342E6EE877A7C
:104E0000F7D10CF1010C6145E6EC017AE2DA0E46CD
:104E10005BE740F08F80731E5BF82320D211002ADD
:104E2000A2DD19EE903A002E03F1010309EE903A4B
:104E300040F3D48159464FF0000E51F8043B002B4B
:104E40006AD0C3F5807341F8043C04E00B68C3F1F9
:104E5000FF0341F8043B0EF1010E7645F6DC012319
:104E60009E4600280ADD012878D0022806D1711E4E
:104E70005BF8213003F03F0C4BF821C0022A7FF48D
:104E800073AFB7EE000A734630EE488A002B3FF44A
:104E90006BAF0992019000F0C3F938EE408A019897
:104EA000099AB5EE408AF1EE10FA3FF463AF9246EC
:104EB000DDE9062EDDF820C00196AEEB0C00B0EE69
:104EC000480A009E009200F0ABF9DFED186AB4EEDC
:104ED000E60AF1EE10FADDE90023F0EE407AC0F2C6
:104EE00050819FED137A059920EE077A0831BDEEC7
:104EF000C77A0591B8EEC77A5C1CE7EE667ABDEE1C
:104F0000C77AFDEEE77A17EE901A4BF8231017EEEA
:104F1000103A4BF8243046E00EF1010EB6458CDB1A
:104F20009E469EE768640008000000000000804381
:104F30000000803BF6EE007AB4EEE78AF1EE10FA5C
:104F400080F2988000220FE70133002E09EE903A9C
:104F50003FF770AF002301289E4686D1711E5BF893
:104F6000213003F07F0C4BF821C087E7731C9C466F
:104F700019461EE733469246DDE905125C1EA1F193
:104F800008005BF82410009E059061B903F180438E
:104F9000013B0BEB8303014653F8040D013C083938
:104FA0000028F9D0059105980092B7EE000A00F0AC
:104FB00037F9002C009AB0EE407AC0F20581601CEF
:104FC00046AD5FED256A81000BEB800305EB8000A9
:104FD00073ED017AF8EEE77A5B4567EE877A27EEA4
:104FE000267A60ED017AF3D10DF1C8080B1F46A8AF
:104FF000C718C646A44600259146002E73DB844A96
:10500000DFED847A3846002301E0AB4208DCF2ECA5
:10501000016AB0EC017A01339E42E6EE877AF4DA57
:105020000CF1FF3CBCF1FF3FEEEC017A05F101050C
:10503000A7F10407E1D1689B022B4A4656DC002BFE
:105040002EDC0ED1DFED737A414431ED017A41451A
:1050500077EE877AF9D15346002B40F0AE80C2ED4F
:10506000007A19EE903A03F007005BB0BDEC048BB8
:10507000BDE8F08F19EE903A002E03F1010309EE1E
:10508000903AC8BF02223FF7D5AEF7EE007A37EE6E
:10509000C88A022268E600234FF0080E0293BBE59F
:1050A0009FED5C7A414471ED017A414537EE277AF4
:1050B000F9D1DDED327A534677EEC77A002B75D100
:1050C00082ED007A64B133A90123B1EC017A013396
:1050D0009C4277EE877AF8DA53460BB1F1EE677AA5
:1050E000C2ED017ABDE7DFED4B7A99E7689B032BB0
:1050F000B7D1002C7ED008EB840595ED007AA00096
:105100002B46294671ED017AF0EE476A37EE277A91
:10511000414577EEC77A81ED007A77EEA67AC1ED48
:10512000017AEFD1012C65D095ED007A08F10401E8
:1051300073ED017AF0EE476A37EE277A994277EEFF
:10514000C77A83ED007A77EEA67AC3ED017AEFD1C4
:10515000031DDFED307A434408F1080833ED017A8E
:10516000984577EE877AF9D15346DDED326A9DEDA9
:10517000337A73B9C2ED006A82ED017AC2ED027A28
:105180006FE7FDEEC07A1C4617EE901A4BF823101D
:1051900009E7F1EE666AB1EE477AF1EE677AC2EDA1
:1051A000006A82ED017AC2ED027A5AE7B1EE477ADF
:1051B00082ED007A002C86D190E7F1EE677A4EE717
:1051C000039B4FEA83096BE5689B022B0EDC002BE7
:1051D00013DC7FF446AFDFED0F7A3CE7022A7FF461
:1051E000C3ADF7EE007A37EEC88ABDE5689B032BA6
:1051F0007FF437AFDFED077AB6E75346DDED327A5D
:1052000013B9002313606BE74FF00043136065E7A9
:105210007464000800000000B1EEC00A704700BFCF
:1052200010EE103A33F000411A4627D0B1F1FF4F8B
:1052300021D213F0FF4F22D1DFED2B7A2B4A60EE03
:10524000277A904217EE903A33DB4CF2503CC3F38E
:10525000C75160451A46A1F1190116DDDFED247A28
:10526000DFED246A002BB0EE677AB8BFF0EE667A05
:1052700027EE870A704730EE000A704770474CF2FD
:10528000503C60454FEAD151E8DC0144FE29E5DCA1
:10529000002915DC11F1160F19DB193122F0FF423C
:1052A00042EAC15207EE902A9FED130A27EE800AC8
:1052B0007047DFED127A07EE103A27EE270A7047A3
:1052C00022F0FF4242EAC15300EE103A7047DFED90
:1052D0000B7ADFED0B6A002BB0EE677AB8BFF0EE09
:1052E000667A27EE870A70470000004CB03CFFFF4B
:1052F000CAF24971CAF249F1000000336042A20DBE
:105300006042A28D830730B547D0541E002A3ED09C
:10531000CAB2034601E0013C39D303F8012B9D07D3
:10532000F9D1032C2CD9CDB205EB05250F2C05EBBB
:10533000054535D9A4F1100222F00F0C03F1100E2F
:10534000E6444FEA121C1A46C2E90055C2E902556A
:1053500010327245F8D10CF1010214F00C0F03EB7E
:10536000021204F00F0C13D0ACF1040323F003037A
:105370000433134442F8045B9342FBD10CF0030462
:105380002CB1C9B21C4403F8011BA342FBD130BDB0
:1053900064461346002CF4D1F9E703461446C0E7EF
:1053A0001A46A446E0E700BF014B1868704700BFEB
:1053B00000000020844641EA000313F003036DD18E
:1053C000403A41D351F8043B40F8043B51F8043BC8
:1053D00040F8043B51F8043B40F8043B51F8043BCF
:1053E00040F8043B51F8043B40F8043B51F8043BBF
:1053F00040F8043B51F8043B40F8043B51F8043BAF
:1054000040F8043B51F8043B40F8043B51F8043B9E
:1054100040F8043B51F8043B40F8043B51F8043B8E
:1054200040F8043B51F8043B40F8043B51F8043B7E
:1054300040F8043B51F8043B40F8043B51F8043B6E
:1054400040F8043B403ABDD2303211D351F8043B0E
:1054500040F8043B51F8043B40F8043B51F8043B4E
:1054600040F8043B51F8043B40F8043B103AEDD2BD
:105470000C3205D351F8043B40F8043B043AF9D20E
:10548000043208D0D2071CBF11F8013B00F8013BE1
:1054900001D30B8803806046704700BF082A13D3EE
:1054A0008B078DD010F003038AD0C3F10403D21A06
:1054B000DB071CBF11F8013B00F8013B80D331F83A
:1054C000023B20F8023B7BE7043AD9D3013A11F8BA
:1054D000013B00F8013BF9D20B7803704B78437025
:1054E0008B78837060467047032A30B415D941EA3F
:1054F0000004A40784460B4604D0541E0FE0043A6F
:10550000032A08D91946604653F8044B5CF8045B3B
:10551000A542F4D0F1E760461946541E7AB1431E05
:105520000139021901E09A4209D013F8010F11F86C
:1055300001CF6045F7D0A0EB0C0030BC70470020D5
:1055400030BC7047AE4A536C43F010032DE98048DD
:105550005364AC4B1A6822F440221A601A6842F471
:1055600000221A605A6A22F0F0025A625A6A42F025
:1055700070025A621A6822F440121A601A6842F4E1
:1055800000121A605A6A22F470625A625A6A42F42D
:10559000E0625A62A3F5704340F241329A602C22D5
:1055A000DA60DA6842F40052DA60974B20225A60DF
:1055B000302289B083F825230020FBF763FE0A28F8
:1055C00000F0CB800720FBF7A1F9FF20FDF756F98B
:1055D000FBF7D8F88B488D4C0721FBF7F5FA4021F3
:1055E000FBF7F2FA3821FBF7EFFA854A136C43F028
:1055F000010313644FF08043002601204FF0FF3178
:105600001E609E62D962DE6018607F4B4FF0805151
:105610001960102183F81C13116C41F00201116410
:10562000A2F50D32782116609662D0604FF00052DC
:105630001A60774883F81D63FBF72EFBFBF742FBEC
:105640000846FBF787FEC4F8A864C4F8AC64C4F845
:10565000B06462B694F8C830DFF8BCA1C3F300139D
:1056600023702578694814220021FFF74BFE25702E
:10567000684D94F8149584F830666423E371002132
:1056800046F264434422A5F144006675C5E900660C
:1056900084F8B964238184F80C65AE6084F80D65E4
:1056A00084F81595FFF72EFEA5F11C010020FDF7EB
:1056B00029F910B90720FBF729F9FBF7AFFA56488B
:1056C0004FF40051FBF780FA4FF00053CAF818303E
:1056D000FBF7ACFE01215048FBF7DEFAFBF7F2FACC
:1056E0000020FAF7F5FFFBF7A5FFFBF76FFFFAF7CE
:1056F000A7FEFBF749F94948FAF730FF94F8C8309C
:105700001D070CD5FAF70CFF48B10123444823705C
:10571000FAF724FF4348FAF721FFFAF7F3FF23785B
:1057200013F0810322D03E48FAF718FF3E48FAF7FB
:1057300015FFFAF7E7FF0123237000273D4694F891
:1057400015359945DAB240F05584FBF767F9FCF757
:1057500045FF6378002BF2D083E734485C220121B7
:10576000FBF7A8FD00287FF435AF2BE72370FEF789
:10577000BBFCE2E794F83D361BB92D48FAF7EEFE84
:10578000DBE7242B40F0FD8301238DF80F3094F8E4
:105790003E36472B06D019D8E3B1242B02D0432B39
:1057A00040F0F68094F83F76002F40F01282472BAD
:1057B00042D0227800F2DF80242B40F0C78012F024
:1057C000180F40F03F82FAF7DDFF06E04A2B08D0C1
:1057D000582BE5E71748FAF7C1FE2846FBF7A4F86F
:1057E000ABE7237813F0DF0F40F02C8294F83F36BC
:1057F0003D2B40F0EE81FDF767FB0546EDE700BF6E
:10580000003802400000024000E100E050000020AB
:105810000004024050050020000802405B650008BB
:10582000B96400087865000885650008D00000208C
:10583000A764000899650008A748FAF78FFE94F856
:10584000BC048B2806D9A548FAF788FE94F8BC0456
:105850007630C0B2FAF78BFEA148FAF77FFE94F8D3
:10586000C2043630C0B2FAF782FE9D48FAF776FEDF
:1058700094F8C0041130C0B2FAF779FE9848FAF7EC
:105880006DFE94F8BE04C0F11500C0B2FAF76FFEC9
:105890009348FAF763FE94F8BF045A30C0B2FAF79F
:1058A00066FE8F48FAF75AFE94F8BD04C0F15E0018
:1058B000C0B2FAF75CFE94F8C33483B18948FAF7B2
:1058C0004DFE94F8C304032806D01E2801D00228F8
:1058D00005D1FAF74CFE02E03020FAF729FC8148A6
:1058E000FAF73CFE94F8C534102B25D0202B27D096
:1058F00043B37C48FAF732FE94F8C43423B338201B
:10590000FAF716FC7848794FFAF728FE94F8D00495
:10591000FAF72DFE7648FAF721FE97ED040AFAF71A
:10592000C5FE7448FAF71AFE97ED030A0020FAF74D
:1059300045FEFAF7E7FE50E73320FAF7F9FBD8E720
:105940003420FAE73520F8E73920D9E7022A08D1D0
:10595000FBF786F86848FAF701FE6848FAF7FEFD9B
:10596000E7E7002A40F06E81634802232370FAF7CC
:10597000F5FD6348F2E7012A7FF42FAF5E48FAF79E
:10598000EDFD6048FAF7EAFDFAF7BCFE277024E760
:105990002278012A00F25681232B15D0483BD9B238
:1059A0000B2900F251810B2B00F24E81DFE813F03E
:1059B0005100B6004C014C014C014C0125014C0139
:1059C0004C014C01FA00800094F83F76002F40F023
:1059D0000081DFF844B15FFA87F805A94046FCF77B
:1059E00091FF18B90720FAF791FFF6E64648FAF753
:1059F000B5FD062F07D0072F29D008F13600C0B219
:105A0000FAF7B5FD02E04148FAF7A8FD3A20FAF7A7
:105A10008FFB013705A8FAF77CFEFAF773FE082F13
:105A2000D9D1324F3A48FAF799FD07F13400FAF725
:105A300070FEFAF767FE3748FAF790FD97ED100A07
:105A4000FAF722FEFAF75EFEFAF7A6FFC5E6584619
:105A5000DAE794F8C830D80640F18B8294F83F36E4
:105A600004272770002B40F0B480FBF7C9FC3846B0
:105A7000FDF714F90320FDF711F9FCF7AFFD63788A
:105A8000002B7FF4AAAEFAF77FFFFAF7D9FCFBF7F9
:105A9000CDFC6378002B7FF4A0AE2370FAF7F0FC06
:105AA00094F83F36002B7FF498AEFEF71DFB94E68A
:105AB00094F83F364C2B40F08C8094F84036502BB5
:105AC00040F0878094F84136002B40F0828080209F
:105AD000FAF798FF81E600BFE3650008E965000872
