:020000048FE08B
:10000000971110009381018017411000130181693D
:04001000EF40C07E7F
:10004000F327003073700430184193C5F5FFF98D24
:100050004D8E10C1739007308280B7070603F843B6
:10006000799BF8C3B70706039387070D9843799BDD
:1000700098C382803715020341112146814511053D
:1000800006E4EFF0FFFB9307100617071000232D7F
:10009000F7F6B7070603F843371502031146799BB5
:1000A000F8C31967B70706031307071098CBB707FC
:1000B000060323A00700B84381451105799BB8C307
:1000C000B7070603F84713671700F8C7B707060313
:1000D0009387070D9843799B98C3EFF07FF693873A
:1000E000018407A7070487A74704A2605377F7088E
:1000F0009777000087A70711D3F7E71827AAF1829F
:100100004101A1BF9707100083A707F0BB87A70293
:10011000370706031CC3B7070603F8471367170022
:10012000F8C7B707060301EDF843799BF8C3B70793
:1001300006039387070D9843799B98C38280938722
:10014000070D98431367170098C3B7070603F843D2
:1001500013671700F8C3828083C7118A85E74111AE
:1001600006E41375050401CD4146814537150203A8
:10017000EFF01FEDA260A385018A41018280014654
:10018000C145EDB78280411122E006E41384018469
:1001900083478404918B9DCF054681453715020323
:1001A000EFF01FEA83C7A1822303F4088347040307
:1001B0006547F937B387E7028D83BB07F040A30299
:1001C000F408B7070A039847A26002646D9B98C7BA
:1001D0004101828001468545D1B723850182238470
:1001E00001829387018403C5170303C827038D4544
:1001F0008147BB56F540858A1B87070085C2854627
:1002000091C7054689466383C70091461386A1823C
:1002100083480600B3E616012300D6003B57E840AA
:10022000058B19CF054791C7854609476383D700DA
:1002300011479386818203C60600518F2380E60012
:100240008527E398B7FA828083B601828DC29387AF
:10025000018487A7470C03C7970AD3F7F7101367E2
:100260001700A384E70A23B0018227AAF600828040
:10027000597156FC5AF886F403CBE182A2F0A6EC41
:10028000CAE8CEE4D2E05EF462F066EC6AE86EE4BE
:10029000814ADA8763130B00C1479389F18203C453
:1002A0000900FD3793F7F70F630FF40E13074003B0
:1002B0003387E702938B01849B8607005E9787272D
:1002C000C70F872607100727870FD3F7F700D3F745
:1002D000D7105317F7A019C3D307E720130740031C
:1002E0003387E60241495E97272AF70E91C33E897C
:1002F0007D391379F90F138C0192138DB183630843
:10030000240713074003B387E702930C4003B304A9
:10031000FC00A68DB30499031B0A0900E294631341
:100320000900414983470D007D391379F90F639422
:100330002701EFF07FF1B3079A03DE9707A7870F36
:1003400087A7470F53A7E7A005E387A7C70F07A60F
:10035000071087A64D01D3F7F700C3F7C768539777
:10036000E7A02DC327AAF70EE31524FB39A0834786
:100370000D0063948700EFF03FED13074003330750
:10038000E4029B07140093F7F70FC146629763934B
:10039000D7008147814513054003C1486317FB021D
:1003A00099C123805901A6700674E6644669A6695E
:1003B000066AE27A427BA27B027CE26C426DA26D0D
:1003C0006561828027AAE70E45B73386A702872694
:1003D00047019B8607003388A7025E960727460FD2
:1003E0005393E6A06298630103028727C70107269B
:1003F0000702D3F7F700C3F7C7685397E7A009C709
:10040000272AF60EBE8A85453387A6025E97072700
:10041000470F8727870F5327F7A019C3BE8A854543
:10042000852793F7F70F6393170181474287BDB77D
:1004300083C7B18303C7E18201456309F70013074E
:100440004003B387E702138501923E95828083477C
:1004500015018727C50213F717001DC783C7818AB7
:1004600053F507D09777000007A707DA5375E51013
:100470005375F5109777000087A787CED397A7A06D
:1004800099E35385F7208280918B89EF83C7718A26
:1004900053F707D09777000087A607D75377D71071
:1004A000D3F7E71007258502D317F5A0E1F75385A9
:1004B000F720C9B79387018403A7874283B6074211
:1004C00023ACE74223B8D74282804167B7C70074A4
:1004D00099667D17E1179386761A7D35421541910D
:1004E0006313E50082808C6390630D8EE3FEC6FE8D
:1004F000EDB7B7070A039847411122E006E41367F6
:10050000470098C7138401848547034534031707C0
:1005100010002329F7AEA38401829307F00F03474D
:1005200004066319F50283C781838DE793070008EA
:100530006306F702814703478404118B19C393C7ED
:1005400017008DC3054681450264A260371502037A
:100550004101FDB491468147E30FD7FCEFF0FFF670
:100560008547D1BF01468545C5B7530500F0AA8729
:100570001307C5005307A52087A70700D3A6E7A048
:1005800099E243F5F7509107E398E7FE5375055854
:100590009777000087A7C7BCD3F7A71807270500E0
:1005A0005377F7102720E500072745005377F7100A
:1005B0002722E50007278500D377F7102724F500C9
:1005C0008280D30600F017770000072527C48147F3
:1005D0003147B386F50007A70600D326D7A091EED2
:1005E000B306F50087A70600D3F7E718D3A7F720CF
:1005F000D316F5A099E25385F7209107E39BE7FC1A
:100600008280F326003073700430B7070203985BD2
:10061000619B98DB739006308280B7070203938753
:1006200007059C4303C78188137707049D8B19E353
:1006300093C77700014581CF13F7270013F5170003
:1006400019C313652500918B99C3136545008280FA
:10065000A3860182038781889387D182634607003E
:10066000130700042380E70019C503C707001347D9
:1006700007042380E7008280B7070203A84B1345D5
:10068000F5FF9377F50F1375850311CD13D537005B
:1006900013F78700098919C31365150093F707023B
:1006A00099C31365450082808147138801843147CF
:1006B0003386F5001042B306F500D37706D0330633
:1006C000F800072706009107D3F7E71827A0F600E0
:1006D000E390E7FE8280938501C61385C1CAE9B71E
:1006E000530700F0138701848147B1463306F500B4
:1006F000872706005316F7A001EE87264702539678
:10070000D7A019E691071107E392D7FE0145828031
:1007100005458280732700307370043083C791834E
:100720005D8DA38CA182731007308280411106E495
:10073000EFF01FD009C5A26009454101E1BFA260E9
:1007400041018280732700307370043083C7918326
:100750001345F5FFE98FA38CF18273100730828077
:10076000F327003073700430238CA182739007301C
:10077000828083C79183C18BB1EB4111414506E46F
:10078000EFF05FF9EFF07F8D0146C14537150203A9
:10079000EFF01F8B9387018403C7070683C74706C3
:1007A0009376C702998BD58F99CF91476319F7003C
:1007B00083C78183194589C7A26041011DBB0D45CF
:1007C000EFF01FFAD5BFA2604101828082807327BB
:1007D00000307370043083C711835D8DA388A182BC
:1007E000731007308280732700307370043083C722
:1007F00001835D8D2388A1827310073082808280FF
:10080000B7272070B726007023A0070001479B86FA
:100810000610130600109B5757009B972700B59FA3
:100820008217819323A007001B070702E315C7FE69
:100830008280F326003073700430370700709B17F6
:100840002500B99F821781938CC3372700709B576F
:1008500055001B0707109B972700B99F82178193AC
:1008600090437D8905473317A700518F012798C30F
:10087000739006308280937705FC2E9563E5A70080
:100880000F00300382800B80570293870704FDB767
:10089000937705FC2E950F00300363E5A7000F004A
:1008A000300382800B80670293870704FDB7130033
:1008B00000001300000013000000130000000100FE
:1008C000297106FE16FA1AF61EF222EE26EA2AE62A
:1008D0002EE2B2FDB6F9BAF5BEF1C2EDC6E9CAE53F
:1008E000CEE152FD56F95AF55EF162ED66E96AE530
:1008F0006EE1F2FCF6F8FAF4FEF0272E0104272C44
:100900001104272A210427283104272641042724FB
:1009100051042722610427207104272EA102272CCD
:10092000B102272AC1022728D1022726E102272463
:10093000F1022722010327201103272EC101272CB2
:10094000D101272AE1012728F101F32710343EE0E5
:10095000F32700303EE4F327203463DE075093F79B
:10096000F70F2D476399E750B7292070B70A0203A4
:100970009109938A0A0483A709009B840700638F67
:10098000074E9307F004639BF428B7070A03B107E7
:100990009C4383C79182639A07261384018403468C
:1009A00074089165938505801B16B6006D8E37051A
:1009B0000203EFF0EFE80346640893050070370583
:1009C00002031B16860013760670EFF06FE7B70779
:1009D0000A03D84F83465408799BD8CF13070010D9
:1009E000159F1B173700B7060A03D8CAD84F1367DD
:1009F0001700D8CF8547A384F182736004305C7000
:100A0000C5EB83C7A18103C791816304F71E83C728
:100A1000A18113973700938681CDB307E400BA967E
:100A200054F083D6A74917F60F000326A65DBB86B0
:100A3000C60237060A0314C283D6874983C7C7494B
:100A4000231AD408834664096385F6025146B385A8
:100A5000C702230BF408938681D0B307B40083A7A1
:100A6000474DAE9654EC9BD717002320F4087CDC4E
:100A70003CDC546C03C6818283C70601B18FA3039B
:100A8000F408B307E40003C6D749984203C5E74911
:100A90003B57C7002324E408D8423B57C70023260E
:100AA000E40898463B57C7002328E408EFF08FE599
:100AB00017F70F00034787558547631FF702B707EE
:100AC0000203938707059C4303C7D18293F707046A
:100AD0006304F70297F70F00238A07528337044213
:100AE0002338F45283278442232CF45283C7918302
:100AF00093E70704A38CF1822383018C385C83275E
:100B00008408546C3B86E700D84630DCB2876371BA
:100B1000C70205462303C40803C60601999F3CDCAF
:100B2000058A832704426305060EFD372320F4421D
:100B3000705C8327C4083D9E70DCB2876373C70274
:100B400003466408999F7CDC136626002303C408CF
:100B500003C6060183274442098A4DCEFD3723226E
:100B6000F44203260408832704093D9E2320C40879
:100B7000B2876374C70203466408999F03C70601DE
:100B8000136646002320F4082303C408118B83272F
:100B9000844259C3FD372324F44203470406914796
:100BA0006319F7000347640883476406F98F23033A
:100BB000F40883574409FD37C217C193231AF40878
:100BC00099EF23B0018E83C7A181852793F7F70F93
:100BD000238DF18019476394E700238D01808347BB
:100BE000640803C7A182B98F2303F408A384018298
:100BF00029A8EFF01F905C6C83C7170181C70145DE
:100C0000EFF04FD01145EFF0FFB023A09900A5B34E
:100C1000852729BF8527A1B78527B5BF930700057D
:100C20006399F402B7070A0303C6A18293870702F8
:100C30009C431B16860013760670930500703705DB
:100C40000203EFF0EFBFB7070A03D84F799BD8CF65
:100C50006DBF9307C003639BF40603A40A00B707A4
:100C600002030124E0C7B7070203D85F218FD8DF52
:100C70009377740091CF03C7018A8547630AF70011
:100C800083C7818391E7EFF0DFAE0545EFF05FADFD
:100C9000137484033DD8EFF03F9E2A843DD59377AB
:100CA000150099C3EFF0FFAC9377440099C783C751
:100CB000918393E72700A38CF182098839D483C7F5
:100CC000918393E78700A38CF18281B79307500645
:100CD000E39DF4F2B70790017D57D8CB73600430E1
:100CE00017F91B0013090932896B138BC182138D0D
:100CF000B182938D0184176C0000130CACAC91454C
:100D000017F51B0013050538EFF09FB88327090876
:100D10000327090C1B8A07001B040700630AF7144A
:100D2000931504028191138505104A95637B44074E
:100D3000BB058A4082158191EFF09FB5930CF003BB
:100D4000931704028193CA9703C707108966052485
:100D5000FD16758C9377F70F01246305970B63EEEF
:100D6000FC0461476382E708130710022145638C86
:100D7000E70803470B009306100805271377F70FC2
:100D80006313D700014783460D006381E60683465F
:100D90000B00EE962380F6540F0030032300EB0087
:100DA000B1A0B385BB40EFF0BFAE93150A028191AD
:100DB00017F51B001305053541B71307E007094573
:100DC0006383E7041B9787011B578741E35307FAA7
:100DD0009B87C70793F7F70F71476369F7008A0787
:100DE000E2979C43E2978287EFF0BF98E31A44F5BD
:100DF0002320890C914517F51B001305A52CEFF056
:100E00009FA7F5BD0545EFF0FF90CDB71305000294
:100E1000DDBF83C7018A93F7070213050004F9D7E2
:100E2000DDB70545EFF0BF9AD1B70945E5BF1145DC
:100E3000D5BF2145C5BF4145F5B713050002DDB754
:100E400013050004C5B713050008E9BF0545EFF019
:100E50009F9969BF0945E5BF1145D5BF2145C5BF6C
:100E60004145F5B713050002DDB713050004C5B70A
:100E70007370043059BB73005010F5BFA2677390B4
:100E800007308267739017347264F270D2723273D3
:100E90009273D264326592656E76CE762E778E77B7
:100EA0006E68CE682E698E696A7ACA7A2A7B8A7BD6
:100EB0006A6CCA6C2A6D8A6D667EC67E267F867FC6
:100EC0000720C105872081050721410587210105EC
:100ED0000722C104872281040723410487230104D8
:100EE0000725C103872581030726410387260103C0
:100EF0000727C102872781020728410287280102AC
:100F0000072EC101872E8101072F4101872F010183
:100F1000316173002030797126EC52E097141C0087
:100F200083A4441E2A8A914517151C0013058521A8
:100F300022F04AE84EE406F41B841400EFF05F95BB
:100F40004E1497171C0083A7E71F3389F4404D9078
:100F500097191C009389090B133919006315F402C2
:100F60000F003003B70790010547B8D317191C00CD
:100F70001309491D91454A85EFF09F9183A70914F4
:100F8000E30AF4FE014982148190B3879900171592
:100F90001C001305251F8545269523804719EFF072
:100FA0009F8D914523A0891017151C0013058515E9
:100FB000EFF07F8C630809000F003003B707900142
:100FC0000547B8D3A2700274E2644269A269026A5A
:100FD00045618280411122E006E42A840345040031
:100FE000050409E5A260026441018280EFF0BFF2CE
:100FF000F5B7176500001305E5E9E9BF011106EC37
:1010000022E826E49307300663F9A702A9473B7458
:10101000F5023B55F5021B0404031374F40F13751A
:10102000F50FA947BB74F5023B55F5029B840403F9
:1010300093F4F40F1375F50F31A0A54701448144D3
:10104000E3E1A7FE1B0505031375F50FEFF0BFECF9
:1010500081C42685EFF03FEC19C422854264E2602A
:10106000A26405614DBDE2604264A26405618280B4
:10107000411122E02A8417650000130525E206E4E9
:10108000EFF05FF52285EFF07FF70264A260410187
:101090008DB711E5176500001305C5E025BFC9BF71
:1010A000D30700F01D71A6E4D317F5A0272E810009
:1010B00086ECA2E8CAE04EFC52F856F45304A52090
:1010C000AA8499C7531484201305D002EFF0BFE41B
:1010D000A68705479766000087A786136366F70A09
:1010E0009BD714007957BB87E702A59F93F7F70FAB
:1010F00099C79767000087A7E7115374F4109767A3
:10110000000087A7A7045374F40001492946531728
:1011100024C001279B07090035EFB3B7F400BB8952
:1011200024411B8A040093CA170093F9F90F014662
:1011300091E34E869305000333052101EF50A0642F
:10114000014463830A004E843B0424011374F40FAA
:10115000639E840093070A01338A27001B841400CE
:10116000930700032308FAFE1374F40F3309810078
:1011700021E0E6604664A6640669E279427AA27AD2
:101180000724C10125618280F9375374F41093F765
:10119000F70FA9B7BB76C702C10705298A9713794C
:1011A000F90F9B8606033B57C7022388D7FE9DB7DE
:1011B000631694001305E002EFF0FFD50345F9FF35
:1011C0007D341374F40FEFF01FD57D1955B783C725
:1011D0008188858BD307A5200D4581CB97670000BB
:1011E00007A5870353F5A71011455DBD83C7818807
:1011F000858BD307A520014581CB9767000007A504
:10120000A70153F5A710054561BD41111305D00590
:1012100006E4EFF05FD0A2604101E1BB07250500C5
:10122000411106E422E02A84EFF07FFA1305C002A0
:10123000EFF07FCE07254400EFF07FF91305C002E1
:10124000EFF07FCD072584000264A260410141B721
:10125000011126E4AA841305400206EC22E82E843C
:10126000EFF07FCB2685EFF07FD91305D003EFF0A9
:101270009FCA1375F40FEFF07FD84264E260A26456
:10128000056185BB797126ECAA841305400206F43A
:1012900022F02726A1002E84EFF0FFC72685EFF06D
:1012A000FFD51305D003EFF01FC70725C100228526
:1012B000EFF01FDF0274A270E26445611DBB1D7177
:1012C00086ECA2E8A6E413840184CAE056F45AF03E
:1012D0005EEC62E8272681004EFC52F88345040349
:1012E000014593044006EFF0BFF6834534030545FE
:1012F0000149EFF0FFF5834514030945894AEFF0F2
:101300003FF5834524030D458D4BEFF07FF4834576
:1013100084041145054C9BD525008589EFF05FF3CA
:10132000834584041545130BC0089BD5650085894A
:10133000EFF01FF28305840419459BD5F501EFF00A
:101340003FF1834544032945EFF09FF007258403CF
:101350008D452D45EFF01FF30725C4038D4531451D
:10136000EFF05FF28345840435458589EFF05FEE49
:101370008345840451459BD555008589EFF05FED89
:101380008345840455459BD535008589EFF05FEC96
:101390008345840459459BD545008589EFF05FEB73
:1013A000834594045D45EFF0BFEA0725C4048D45ED
:1013B0006145EFF03FED072504058D456545EFF0EC
:1013C0007FEC835544056945EFF09FE807258405C8
:1013D0008D456D45EFF01FEB0725040481457945E8
:1013E000EFF05FEA0725440481457D45EFF09FE972
:1013F00083458404130500029BD515008589EFF011
:101400003FE59767000007A467E11B8A34009389D2
:1014100001842684137AFA0F630B5905630F79054B
:101420008D456303890507A50900228505241374EA
:10143000F40FEFF03FE59109E31044FFA9240529DB
:1014400093F4F40F1379F90FE39164FDE6604664B9
:10145000A6640669E279427AA27A027BE26B426C68
:101460000724C1002561828007A5C9007DBF07A5AB
:1014700089018D45537585184DBF07A549028D45D6
:101480005315A5205DB7011117650000130505A2CE
:1014900006ECEFF03FB4938501D70A85EFF0CFA0BB
:1014A0000A85EFF0BFD71305A003EFF0DFA603C551
:1014B000518AEFF0BFB4E260056181BB41119145F3
:1014C00017351C00130505CC06E4EFF06FBCB757C9
:1014D000564D17371C000327E7CA938777E4630E3E
:1014E000F704014717F51B001305C5B191657D563B
:1014F00093060040931707028193AA97AE97238023
:10150000C7200527E318D7FE9305004017351C00B8
:10151000130545CFEFF02FB6B757564DA26093870E
:1015200077E417371C00232FF7C4914517351C00AB
:10153000130545C541016FF00FB4A26041018280DF
:10154000411122E09145054417351C00130585C75C
:1015500006E497371C0023A787C6EFF0CFB10F0032
:101560003003B7079001A260A0D3026441018280DA
:101570009307F03F63EEA70C39714EECBB09C50031
:1015800022F84AF006FC26F452E81B87190093075C
:1015900000402A84328963E5E70A2E8AEFF01FF2C1
:1015A00091679B870720A19F82179B051900819354
:1015B00097F41B00938404A58215338597008191CD
:1015C0002EE42AE0EFF0CFACA26502658146014827
:1015D00001479168B307DA0003C607009B1717009D
:1015E0001B577700D98FB19F13F7F70FBB87860082
:1015F00082178193A697C69703C307206305C3008C
:101600002380C720054885069B870600E3E427FD65
:10161000821993D90902CE949167A69783C60720B1
:10162000638EE6002380E720EFF0EFA44274E270BF
:10163000A2740279E269426A216119B7E31608FED1
:10164000E2704274A2740279E269426A2161828086
:1016500082809307F03F63E9B70A79714EE4BB8952
:10166000C50022F04AE852E006F426EC1B87190078
:10167000930700402A8A2E843289014563EEE706EB
:10168000EFF0DFE391679B870720A19F9B0519007F
:101690008217819397F41B009384C49682158191DD
:1016A0003385F400EFF0CF9E814601471166BB877A
:1016B000860082178193A697B29783C50720B30748
:1016C000DA00850693F5F50F2380B7009B17170006
:1016D0001B577700D98FAD9F13F7F70F9B87060035
:1016E000E3E727FD821993D90902CE942696034594
:1016F0000620198D13351500A2700274E264426948
:10170000A269026A4561828001458280797106F48E
:1017100022F026EC2A844AE8AE84EFF03FDA9167A3
:101720009B870720A19F8217819317F91B0013093C
:10173000698D33852701854502142AE40190EFF075
:101740002F9522999167CA9703C70720630E9700C8
:101750002380972022658545EFF0EF910274A270F7
:10176000E26442694561E9BBA2700274E2644269C5
:10177000456182804111A945014506E4EFF01FF95A
:10178000A2601306C0059385018405454101CDB3D0
:10179000411122E006E4138481E00345040009E5D9
:1017A000A2600264410182800504EFF0CFF6F5B734
:1017B000021581470191B715000313060002335744
:1017C000F500058B09CB93962700AE9698424D9B6A
:1017D0001367470098C28507E393C7FE828073268C
:1017E000003073700430B707020337070203938792
:1017F00007059C43145FC98E14DFB7060203D85E49
:10180000B98F93C7F7FFE98F3D8F0127D8DEB70760
:101810000203E8C7B7070203D45B1347F5FF758FD0
:10182000D8DBB7070203985B598D88DB731006304D
:1018300091451305C0036FE0DFFF37050203411137
:1018400001469D45110506E4EFE08FFF1D45EFF0D1
:101850003FF683C78188A18B89C7A2601D454101DE
:10186000BDBFA26041016FE0DFD983470500138E41
:1018700081E09306D002F29703C707002A88631B12
:10188000D70403C717009386270005438148014505
:1018900081470146A54E130FE00FA14F95421B074C
:1018A00007FD1377F70F63ECEE0405251375F50FAD
:1018B00063EFAF0263870800FD379B9787019BD7D3
:1018C00087413B86C2021B161600399E850603C758
:1018D000F6FFF1B79306B0026306D70093861700B0
:1018E00001436DB703C7170093862700D5BFE39F59
:1018F00008FC85279B9787019BD78741C1BF63164B
:10190000E701639408008548D1B739C1D37716D071
:10191000530700F053A7E7A005E37D5717660000C3
:101920000727868E63C7E702639DE702976700007B
:1019300007A7078FD3F7E71063040300D397F720B7
:10194000B386C64127A0F500FD362300D800054523
:10195000828089279B978701D3F7E7109BD7874120
:10196000D1B7F9DB176700000727C78AFD379B97B8
:1019700087019BD78741D3F7E710EDFB75BF9387AE
:10198000018407A7470487A6070403C79706D386E1
:10199000E6A091EED37707D0176700000726C78629
:1019A000D3F7C71053F5A7105387A6A011C727A8D0
:1019B000D7061305F00F82805307E5A011CFD30798
:1019C00000F05327F5A009C727A8F7060145828034
:1019D00027A8E70605458280411106E427A8A70647
:1019E0005375E50887A741835375F510EF3070678D
:1019F0009757000087A7C7765375F500A26041018D
:101A0000531515C01375F50F8280797126EC06F415
:101A100022F0272681009384018483C7140699EB62
:101A20002A8405E1D30700F027A8F406EFE0EFE2EF
:101A3000A385018AA2700274E2640724C100456193
:101A40008280C1475304A5206319F50201469145E0
:101A500037150203EFE0CFDE83C78404898B99C773
:101A6000930700026314F400530400F0530584202C
:101A7000EFF0FFF0EFE00FE965BF11468145C9BF08
:101A8000411106E422E0EFE0DFA613068003814562
:101A90001385818EEF40304F130600038145138577
:101AA000818BEF40504E238D018023B00182A38CA7
:101AB00001808547238CF180A3840182EFE0EFF160
:101AC00003C6A1821B16860003C4818213760670AA
:101AD0009305007037050203A383818CEFE04FD696
:101AE0001B16B4000264A2609165938505806D8E1B
:101AF0003705020341016FE0AFD4938701C723B0DC
:101B0000070023B4070023B8070023AC0700A38D08
:101B10000182238701828547238DF182A387018279
:101B200082801971A2F886FCA6F4CAF0CEECD2E845
:101B3000D6E4DAE05EFC27268102272491022722E0
:101B4000210327203103272E4101272C5101272A69
:101B500061012728710127268101138401848347AD
:101B60004406858B639207189757000007A4075E09
:101B70009757000087A4076B9757000007A9075DD8
:101B80009389818103C9090083C7A181638E2715C9
:101B9000138B018283370B00034A4406BDEF937415
:101BA0004A00638D041283C7E18213074003B387A1
:101BB000E702138501923E952330AB008346940AD9
:101BC0000347840A872A050293F7160093752A00B3
:101BD00063890714A384018ED30700F08729C50108
:101BE000072B45012720F40C537A3419638605220C
:101BF0004B7A6AA98947230EF40AD317FAA063889F
:101C00000720D3F93901CBF959B1D3F9095827265F
:101C1000340D136A8A0023024407033B0B0007209C
:101C2000840B938A918107210B0283C40A00034726
:101C3000840A53700108D30700F08E04B3079400A0
:101C4000238EE748D317F0A099C35380F7200725C8
:101C5000040D8721440D8725840C8347C40BD326AC
:101C600035A08727440C054791C20947072B040C70
:101C70000722C40CD306212053879420530A00F076
:101C8000D38094201376F70F8146014705450D4810
:101C90009755000087A2854B6384A7320726CB01A6
:101CA000638907296381072E5376C7105317F6A05F
:101CB00009CBCB792679CB79376953173BA16311CF
:101CC000072CD3F66609D377F200D3096B21D3F63C
:101CD000D60053F7F618D3074220CDA4EFE04FF516
:101CE0002330AB00E31C05ECE6704674A67406795D
:101CF000E669466AA66A066BE27B0724C10287246E
:101D000081020729410287290102072AC101872A86
:101D10008101072B4101872B0101072CC1000961BB
:101D2000828005271377F70F15466303C700BA872C
:101D30005148B38807032304F40A1B87070013865E
:101D400081D0B3870703469623B8C18003460501B7
:101D5000A297238CC74C1041938707481B16360067
:101D6000B0C750411B163600F0C710451B16360091
:101D7000B0CB5045D37716D01B18360023AA0705E1
:101D80002728F40AD3F757199757000007A7C74920
:101D900093F78600CD8F272AF40AD377F718272CDC
:101DA000F40AD30700F02726F40AB9CB8727C40C1E
:101DB000DD9AA304D40A2722F40CD3F7F710272ABC
:101DC000F500D147B307F70203478404098BA297B4
:101DD000A38C074CE30207E00347150113770702C2
:101DE000E30C07DE0727C502175700008727473790
:101DF0000547D3F7E718A38CE74C272CF40CE9BB75
:101E000087274501D3F707582722F40C5DBF272009
:101E1000440D2726F40CF5BB238E018E2728540D84
:101E2000BDEC83C7B183852793F7F70F41476383E1
:101E3000E700BE8483C7E182D30B00F0638997007B
:101E400093074003B384F402A29487AB440F53FC7E
:101E50000B582726840DEFE08FDF5377A510D3179B
:101E600067A1B9CFD377EB08D30600F0CB77FAA8F8
:101E7000D387D7A02728F40C85CBD3F9390189471C
:101E8000230EF40ACBF959B1D3F909588347940AC0
:101E90002726340D93E78700A304F40A9DBB530C57
:101EA00000F0D30B8C2175B7537777092724A40C46
:101EB0008D4753774711272AE40C230EF40A91BB70
:101EC000D3777B09D30600F0C377FAA8D3F787103E
:101ED000D397F6A0B1CBD39757A1A9C7D3767709EB
:101EE000D3F64611D397F6A0272AD40C99CFD3273F
:101EF00067A12724A40C99C38547C1B75377670905
:101F00004B7AEAA82728440D29B3D3F939012728A9
:101F1000F40C272AF40CC3F737B9D3F70758272452
:101F2000F40CC5B9894751BF2728D40C2724840D48
:101F3000CDB15376C71053F3B7085307C3A00DCFE5
:101F40005377A108D3F7F500D309A52005478546A7
:101F50005377E70085475377F718D387B520537A2F
:101F6000EA00D3151AA0BDC9D3153BA153F7400908
:101F7000ADC9D38639210DB3CB798678CB79376952
:101F8000D3F7C70825A85376C710C3795678CB79FD
:101F900037695397A9A00DC35377A108D3F7F5006C
:101FA000D309A520B28705475377E70085465377C5
:101FB000F718D387B52065B7D3F7C700054745B7EE
:101FC000CB79B768D39539A0D9D9D3F63608D38958
:101FD00031208546894753F7B61851B7D31530A13C
:101FE000D5E119C32722F40C99C2230EF40A83B752
:101FF000018103C7170183474406A18BD98F95CB75
:1020000003451B011375050349C107250B0309CBC4
:102010008727440C0727840DD3F7E7105375F51075
:10202000EFF0FF9583474406230EA40CDD9B2302AB
:10203000F406872B440B8347C40DB30B9400D3FBEA
:102040007911238FFB4853857B21EF30A073D30A8E
:10205000A5200725040BEF30E072D3775509539A7A
:1020600017C0421A135A0A03239C4B4963140A02ED
:102070008347440613F7270011CF93E71700230285
:10208000F4069DB1D3F09000C5B5D30700F0272822
:10209000F40649BF8727C40A53757509537AFA00B5
:1020A000537AAA189757000007A547185375AA1026
:1020B000EF30406D531615C08567938747C31B07E4
:1020C000060063EAE700B3079400A38E074893165F
:1020D0000703C19225A8896693869686854763F88B
:1020E000E6008D679387370DB3B7E7008907B3061E
:1020F00094003B1AFA00A38EF6483B57F600239C47
:102100004649C1679386F7FFE363F7FC9B07190015
:1021100093F7F70F19476393E70081472728540B7C
:10212000D3FA7A09A2942380F900D3273BA1239DF7
:10213000D448D3FA4A1123802A0127203B032726BB
:10214000540BE38F07A2D30700F08347440653974D
:1021500037A105F713F747000DF31386B1838346C4
:10216000060023B0018283C7E182E38BD7A09B875F
:10217000160093F7F70FC1456383B7003E87938737
:10218000F18283C507006394D5002380E700230014
:10219000E600DDB2757122E1A6FCCAF806E5CEF4D0
:1021A000D2F0D6ECDAE8DEE4272E810283C4818304
:1021B0001384018413899183A1C01755000013056E
:1021C00065CF854923003407EFE0DFE02685EFE0A7
:1021D000FFE2FD34EFE0FFE11305401F93F4F40F3D
:1021E000EFE0AFAE63F49904F3270030737004306E
:1021F000238C0182739007308347090093F4F70F13
:10220000638F075C93F90401638809048547A30081
:10221000F406AA600A64E6744679A679067AE66A44
:10222000466BA66B0724C1034961828017550000E5
:102230001305C5C8EFE01FDA17550000130585C860
:10224000EFE05FD9EFE07FFC4145EFE0AFCF8347A0
:102250000900C18BEDDF49BF13F914006306091CA7
:10226000833704428A8508083EE0832784423EC4BF
:10227000EFE08FC31305C003EFE0FFC983470406F7
:102280004147636BF700174700001307E75A8A07B7
:10229000BA979C43BA978287130700046382E72C9E
:1022A000130700086386E72E130700026386E728FA
:1022B00083474403858B6382072E0347C406630E5E
:1022C000072C175500001305E5C5EFE0BFD008083F
:1022D000EFE0DFF483474403898BA1C71755000063
:1022E000130545C5EFE01FCF83C7E18203C5B18366
:1022F00063E3A7303D251D9D1375F50FEFE01FD05B
:102300001305C002EFE03FC183C7C18203C5B1829C
:1023100063E5A72E1B0505F81D9D1375F50FEFE06E
:10232000FFCD17550000130565C1EFE0BFCA834715
:102330000406530500F093F7C70799C30725440C1B
:10234000EFE0DFEA1305C002EFE0FFBC072504075A
:102350000145EFE0FFD4EFE04FAC2A8AEFE0CFB1C8
:10236000B707020383AA070503CBD182B367AA008C
:1023700093FA0A0433C76A01D98F93F7F70FAA8932
:10238000ADCF175500001305E5BBEFE0BFC4638672
:102390006A0113050005EFE01FB863080A0293778E
:1023A0001A0089C713058005EFE0FFB693772A006E
:1023B00089C713059005EFE01FB6137A4A0063063C
:1023C0000A001305A005EFE01FB56388090293F723
:1023D000190089C713052005EFE0FFB393F7290023
:1023E00089C713058004EFE01FB393F949006386A2
:1023F000090013053005EFE01FB28347C406638070
:102400000720FD372306F4068349B40663820922B8
:10241000FD39A30534071305E003EFE0DFAFEFE07C
:102420005FBD0545EFE00FB293F7840E6380073080
:10243000034904061B9A84011B5A8A419377390089
:102440006391072C93778902638D072883492406BB
:102450009307F00363E13703EFD01FDF89472302BF
:10246000F406930700026318F90063460A0093E933
:1024700009F82301340793F7040491CB93770902F9
:1024800099E78347240693E707042301F40693F7AB
:10249000840099C7FD4763E52701C1472300F4067F
:1024A00093F70402638F072417550000130505A155
:1024B000EFE05FB2175500001305C5AAEFE09FB12A
:1024C000EFE0BFD4834724061B9787011B57874142
:1024D0006343072203470406930600046319D720C9
:1024E00013F7870011C78D9B93E727002301F4069C
:1024F000930700042300F406FDAA175500001305F6
:10250000E59DEFE03FAD6DB3175500001305859DC8
:10251000CDBF8307240663C10702175500001305CA
:10252000E59CEFE03FAB83472406858BB9CF1305CD
:102530000003EFE05F9EADBB175500001305859BC0
:10254000C9B7175500001305659B65BF17550000F7
:102550001305459B7DB7175500001305259B55B7FF
:10256000175500001305059BEFE0DFA683472406FF
:102570001305300313F787004DFF13F747001305CA
:10258000200345DB93F70702DDD31305100355B78E
:102590001755000013058598ADB7138601C91410AF
:1025A000180809458D458727860207274603D3F774
:1025B000E70027A0F6006398A90007270449D3770E
:1025C000F7002724F10289EB8727070007A70600F9
:1025D000D3F7E7082720F700852993F9F90F1106AB
:1025E00091061107E391B9FCE39D07CC1755000054
:1025F0001305C593D9B97D35FDB97D3531BB834709
:102600000406254793F7C70791C375478347B40668
:102610002306E40681E78547A305F4061755000065
:102620001305C592EFE01F9B0810EFE03FBFE9BB29
:1026300083470406254793F7C70791C34D471755AE
:10264000000013052591A305E406EFE0BF980345BC
:102650007406EFE0BF9A1305C002EFE0DF8B03457D
:102660008406EFE0BF991305C002EFE0DF8A03455F
:102670009406EFE0BF98B70706039387070D9C43C6
:10268000858B81CBB71702039C43CA89918B91C379
:102690008949B717020303A9070013790901B33762
:1026A00020019B976700B3E7F90093F7F70FE384E6
:1026B00007D6175500001305658AEFE0BF91638BBD
:1026C00009008547130530056384F90013053004BC
:1026D000EFE07F84E30109D413056004EFE0BF83DA
:1026E0001DBBE31A09D885472301F40669B3930794
:1026F0000008E31FF7DE8347240693E70702230160
:10270000F40663510A020347040685476318F7007D
:102710008347240693E757002301F406930700F844
:102720002300F4061305800EEFE0CF8193F7240019
:10273000B1CF93F78406A1EB034704069307000487
:10274000631DF7008347240613F7070219E713F701
:102750000701630307242380018A834704066386F5
:10276000072413F7070105C303472406058B01CF90
:102770004147639CE7228347A4066388072293E7C7
:1027800087002305F4060945EFD0DFFB9188A1C837
:10279000834704060307240693F7070D6380072485
:1027A00083473406639C0722634C0722EFD0DFA9DE
:1027B00083C7B183A387F182EFD09FAB83474406E1
:1027C00013F7270019C703472406136717002301CF
:1027D000E406E59B2302F4061145EFD0BFF603C7DC
:1027E000118369CFF327003073700430A38801820E
:1027F00073900730937617000345740693074006DD
:1028000091E2AA879376270081C6A92793F7F70F4D
:102810009376470081C6D93793F7F70F93768700F1
:1028200081C6852793F7F70F9376070181C6FD3799
:1028300093F7F70F1306800CBE866374F6009306B9
:1028400080FC13F6F60FA946B2876373D600A9473A
:1028500013760702834584069306400611E2AE868E
:102860001376070419C2930620031B1787011B5711
:10287000874163530700E5466314F5006380B6049F
:1028800083C9B183A303F4062304D406A385018A74
:1028900083CAE182CE849757000007A42797138B41
:1028A0000192130A4003C14B639B541727248444AD
:1028B000EFD09F99A3873183EFD09F9B83C401837F
:1028C000638D041EF3270030737004302388018267
:1028D0007390073013F7140083469406930740065D
:1028E00011E3B68713F7240001C7A92793F7F70F61
:1028F00013F7440001C7D93793F7F70F13F7840094
:1029000001C7852793F7F70F13F7040101C7FD37B8
:1029100093F7F70F1306800C3E876374F6001307D6
:1029200080FC1376F70F2947B2876373E600A94747
:1029300013F7F70F6380E60203470406A304F406C7
:10294000631307120725C44503459445EFF0EF8B49
:10295000A385018A13F7040283470406630B071457
:1029600041476398E7148347A40663980712894791
:102970002305F4069307F00363E297100A64AA6044
:10298000E6744679A679067AE66A466BA66B072452
:10299000C10349616FF0EF9813F74700E30F07DABF
:1029A00093E787002301F4064DBB2382018AEFD011
:1029B0003FA805C18347240693F7070499EB2381B9
:1029C000018AA1472300F406EFF0AF95EFD0AFFBEB
:1029D0005DBB2381018A2380018A75B3635C070094
:1029E0002382018AEFF06F91EFF08F89EFD0BFCE95
:1029F000EFD05FAC8347240613F7070201CF93F7AC
:102A0000F70793E717002301F40693070004230058
:102A1000F406D9B32381018A2380018A75BB3385EB
:102A200044031B8904005A95EFD07FA2D317A4A0BA
:102A300085CB53748410B3074903A29787A7471027
:102A400027AC870E539787A019C327ACF70E8524B0
:102A500093F4F40F6393740181445304A520A9B542
:102A60005374A510C9BF8347440693E78700230228
:102A7000F406F9BD81C793F78703A1C38347844553
:102A800013F7070493E4070419C393F4F70B26859F
:102A9000EFD08FEC230C94440DA013F7170009C757
:102AA00093E747002305F4069307F003E3E897FC58
:102AB00029A01307F003E36F97FA034704068D4735
:102AC00063F9E7F465BD9747000087A767765375FC
:102AD000F510797122F026EC4AE84EE452E006F453
:102AE0002A89EF20304A531415C0B7C40074B719AF
:102AF000130042144190138A0184E1149389F92C44
:102B00001DC483471A0685E7631D0900EF002003F3
:102B100098609C60998FE3FEF9FE7D3442144190E9
:102B2000C5B7EFF02FE783472A06898BF5D3A2704C
:102B30000274E2644269A269026A45618280397165
:102B400022F806FC26F44AF04EEC52E827268100D3
:102B500013840184EFF00FE483472406638A070C93
:102B6000EFD01F8D1DE5834494458347844507249A
:102B7000C445DD8C83478404898B89C71305000213
:102B8000EFD07FC61309F00393090008130A00046D
:102B9000B9A8B71702038443834715010724050327
:102BA0008A0493F7070393F40404DD8CE1B7034729
:102BB00014063DEF13F717000DCB03470406637DA2
:102BC000E91093F6470085EA530500F00145238597
:102BD000018AEFE09FE30145EFD00FD88347240639
:102BE000F59B93E747002301F406EFF0AFDA834744
:102BF0002406D5FF35A8631A3705174500001305CD
:102C0000E52BEFE02FBD174500001305A536EFE0DB
:102C10006FBCEFE08FDF530500F00145EFE0FFDE12
:102C20000145EFD06FD3EFD0DF8C8347140699CBEB
:102C3000E2704274A2740279E269426A0724C10018
:102C400021618280EFF00FD5CDB76316470193F76E
:102C5000F7FD2301F4068347240613F7870051D7B5
:102C60000347944509CF898B99EB83478404898B6B
:102C7000B1C78347440693E787002302F4068347DE
:102C8000844585C383472406898B81EF13F5040CA3
:102C9000EFD08FCC05459747000007A5674CEFF0B4
:102CA0009FE28347240613F7270021F393E70701E8
:102CB00009452301F406EFD0FFA505BF5305842085
:102CC00013F50403EFE07FD405459747000007A5FF
:102CD0006756EFF05FDF65B78347A406BDCF13F7F4
:102CE000270009CF83479445B9CF530500F001452C
:102CF000EFE0BFD185472305F406C5BDB18BE38660
:102D000007EE834794458DCB174500001305051B3F
:102D1000EFE04FAC174500001305C526EFE08FAB81
:102D2000EFE0AFCE83478404898B8DC3834744068D
:102D300093E787002302F4068347A406A18B81C78B
:102D40000945EFD03F9D2385018A45B55305842071
:102D500013F50403EFE07FCBC5B783474406A18B8F
:102D6000E38507E85305842013F50403EFE0FFC96A
:102D700083474406DD9B2302F40685BD011122E84A
:102D800026E406EC13840184EFD05F9AA144EFF0AF
:102D90001FDB8347140681EBEFD08FE96DF9834782
:102DA0000406E38697FEE2604264A26405618280C5
:102DB000011106EC2AE42722A10003C7018A8947F2
:102DC000630BF700EFF09FFB072541002265E260EF
:102DD00005616FE09FC3E26005618280011122E816
:102DE00006EC2A842EE4EFF07FF9B5473B85870295
:102DF0004264A265E260314605611B0505206FE073
:102E00002FF7797122F006F426EC4AE89377150043
:102E10002A8489CF1306C00597450000938505C213
:102E200013850184EF30D014EFE0DF949377240012
:102E300091CF02E002C481442149268585248A85F8
:102E400093F4F40FEFF09FF9E39924FF9377440094
:102E50008DC7814513050030EFE05F8B8145130579
:102E60001030EFE0BF8A814513051035EFE01F8A6F
:102E7000814513052035EFE07F89218805C0814514
:102E80001305E03AEFE09F880274A270E2644269A1
:102E900081451305F03A45616FE05F87A2700274C7
:102EA000E264426945618280011122E82E84B545C1
:102EB000BB85A50226E43146AA84228506EC9B85C3
:102EC0000520EFE00FF90DE12685232004002322E1
:102ED000040023240400A285EFF05FF00145E260C6
:102EE0004264A264056182800545D5BF411106E4B4
:102EF000EFF0DFE8A2602386018A41018280411160
:102F000022E0130410053B04A402130600051385F8
:102F100081E006E41B040430A285EFE08FF30DE1AD
:102F2000238401E0EFF09FE52285130600059385D9
:102F300081E0EFE0EFE30145A2600264410182809D
:102F40000545DDBF317122F926F54AF152E956E512
:102F50005AE1E2F8E6F4EAF006FD4EEDDEFCEEECB6
:102F60002726810427249104138AE182834B0A00D7
:102F700013094003938A0192B3872B039B840B00B0
:102F80002E8B2A8C130640038145138401843389D8
:102F90002403BE9A5685EF30007F87274B00834C71
:102FA0008B0013FD2C002299A308990F2728F910F4
:102FB00063060D1C833704423EE88327844293094D
:102FC0004003B3893403D30400F03ECC0149814D62
:102FD000A299B307240107A40700B3072C0107A592
:102FE00007005375A410EF20E05B18109B07050045
:102FF0004A971CC318084A9718438D45999F9BD63A
:10300000F74133C7D7003B05D740B3862A0188C2B2
:1030100003A6C90EB2866373A600AA86D3F707D0AB
:10302000B307210123A6D90ED3F787181B87060003
:1030300027A0F700D39797A091CF854763870D000E
:10304000854689476383DD00914783C6090FD58F85
:103050002388F90E852D93FDFD0F1109E39BBDF625
:103060000145630A070E13094003338924030A85C7
:10307000EFD0AFCF8A85138581855304A52022998F
:103080002720A910EFD0EFD38A851385C184272E7E
:10309000A90EEFD00FD32724A91093F71C0089EBBA
:1030A00093FC8C0007250B0063840C00537585107E
:1030B00093074003B387F402A29727A6A71083C7FC
:1030C000B1836384770163010D0C93074003B387D9
:1030D000F402D30700F0A29727AAF70E27A2F71051
:1030E000631A0D065685EFD08FB687278444D39791
:1030F000A7A063870714D3F7F71093074003B3849F
:10310000F402A29407A7441027ACF40ED317F7A03B
:1031100099C327ACE40E31468A851385C1C727249D
:10312000A444EF30E06482771387A183C14623383B
:10313000F442A257232CF442834707002300FA00ED
:10314000852793F7F70F6393D70081472300F70094
:10315000EFD00F920545EA704A74AA740A79EA69B9
:103160004A6AAA6A0A6BE67B467CA67C067DE66D07
:103170000724C104872481042961828083370443A2
:103180003EE88327844325BD530400F0138701C71D
:103190008147B1463306F100872706000727C7009D
:1031A00010183E964B74F740D3F7E70891071107C4
:1031B0002720F600E390D7FE9747000087A7C707B0
:1031C000D39787A0D30700F0B9EF9747000087A7F0
:1031D000E706D317F4A0A5E30818EFD00FB90C1831
:1031E00013858185EFD0EFBD9747000007A747F70C
:1031F000537487089747000087A747F55374F41066
:10320000537404588727840353778708D377F510BE
:10321000D3F78710D3F7E718530700F0D397E7A049
:1032200099C3D307E72093074003B387F402A2971B
:1032300027A2F71045BD9747000087A727FDE5B7F0
:10324000D377A5105DBD797122F026EC4AE806F42B
:103250004EE452E0138401848347840483490406C6
:103260002A8993F70702AE848DC79307000263870C
:10327000F902EFD0EFC611CD8547A301F406A147AF
:10328000638AF904EFD0EFCE0945EFD06FCDEFF0B0
:103290001F8B0347040689476306F7029389B183AE
:1032A000138AA183EFF0BF898347140681EF03C718
:1032B000090083470A00630BF702A6854A85EFF0F1
:1032C0007FC805C9A2700274E2644269A269026AF9
:1032D000456182802145EFD0EFC3EFF05F868347E1
:1032E0001406C5FB83470406EDFB69BFEFD00FC48E
:1032F00055BF83478404898BF1D783C78400C18B72
:10330000F1D3027407A54400A270E2644269A26985
:10331000026A4145456169BC717122F106F526EDED
:103320004AE94EE552E1D6FCDAF8DEF4E2F0E6ECEA
:10333000EAE8EEE4272E8102272C9102272A2103B6
:103340001384018483471406639C0722530400F00E
:103350002A8B994702D42304F10202F0228AA28622
:10336000814705459B0B0B0017470000072747EDDA
:103370008D451B870700054689C709466383A7005B
:10338000114624003388F4003BD7EB402300C800EB
:10339000058B11CB87A74602D3F7E710539787A079
:1033A00019E35384F72085079106E394B7FC87243B
:1033B000040591490549138D01C60D4C938C9183E9
:1033C000938D81839747000007A9C7E7EA8508081E
:1033D000EFD08FAD03489404938A01C61008D685B8
:1033E0000147814481473BD5FB4005899B86070007
:1033F00015C9BB56D8400527858AD3078420137783
:10340000F70F91C663070900D317842019A0E30DB5
:1034100009FE3400BE9683C6060023A005002720BF
:10342000F600D58C850791051106E39E87FBD377BF
:1034300017D0D3F70758D3F4F4100C10080823035F
:10344000940627209102EFF0FFAF91472302F40684
:10345000EFE02FEDEFC03FD363080902EFD0EF9B01
:10346000814738003E9703470700B376970081CA2B
:10347000BB56F540858A81C61347F7FFF98C85074F
:10348000E39187FF23039406EFE0AFE983C70C00C5
:1034900093F74703638B071083C70C0093F4F70F70
:1034A000C18B81C71945EFD0AFAB93F7040281C739
:1034B0001D45EFD0EFAA63060900918899C82545FC
:1034C00039A0EFD08F953375650101C52145EFD047
:1034D0002FA983C70D008DCBEFD0AFA90A74AA70B6
:1034E000EA644A69AA690A6AE67A467BA67B067C90
:1034F000E66C466DA66D0724C10387248103072966
:1035000041034D616FF0AFE31145EFD0AFA3EFE0A2
:103510002FD70355440513491900EFC01FFB07249B
:10352000840563090908537424118724C404FD39F0
:1035300093F9F90FE39C09E881440D49BBD79B40FF
:10354000858B1B87040095C78347940407250A00D1
:1035500087278405BBD7E740858BA5C307274A0289
:10356000D3F7E70053F5A710EF20C003012523A0F0
:10357000AA008524910A110AE39224FD2382018A7C
:10358000AA700A74EA644A69AA690A6AE67A467BFA
:10359000A67B067CE66C466DA66D0724C1038724D6
:1035A0008103072941034D61828093F77400E395FD
:1035B00007EAB1BF872404059DBFD397F7205DB705
:1035C0005171130600048145138581E586F5A2F14A
:1035D000A6EDCAE9CEE5D2E156FD5AF95EF562F1F3
:1035E00066ED6AE96EE5272E8106272C9106272ACB
:1035F000210727283107272641072724510727229B
:10360000610727207107272E8105EF30C0172D464F
:10361000938501C9138591E5EF30801513840184EA
:103620000347845C93074002631FF7468547A30C5A
:10363000F460238D01E48D47054AA305F102814919
:10364000014B814B014D814A9747000007A947BCB8
:10365000930DD003854C173C0000130C2C229DAC1D
:103660009B06F9FB93F6F60FE54763F4D7006F105E
:10367000200C05276C101305B102A305E102EFE051
:10368000CF9E19E16F10200B0724C102530584203F
:10369000EF20E05DD31415C0D304A52093F4F40FFC
:1036A00053F504D05375A40853752511EF208055A8
:1036B000531715C093077004421741936303F9022F
:1036C0009306D0046309D9281B09A9FB1379F90FC4
:1036D0005147636027090A09629903270900629725
:1036E000028763EA9D069306500263E19602F9465B
:1036F00063E19606A54663EB96028D4663E8960461
:1037000063840A006F108003894A95A09B86A4FDFC
:1037100093F6F60F5D46636ED60217360000130669
:10372000261B8A06B2969442B29682869B8664FFD6
:1037300093F6F60F5146636ED60017360000130657
:10374000261F8A06B2969442B29682869146638775
:10375000D40C5149A5A89306B00563E696049306D8
:10376000900563EE960E93060005E394D4FEA30C39
:1037700094601306600285466398C4041306200310
:10378000E369E6FC3706104013061640520633562E
:10379000E600058A5DDE29463B57C7021B07A7F8EE
:1037A000A30CE46045A09306C0056383D4069B8602
:1037B00034FA93F6F60F0546E36DD6F89306E00566
:1037C000859E230DD460954635CF5D49AE700E744D
:1037D000EE64AE690E6AEA7A4A7BAA7B0A7CEA6CDE
:1037E0004A6DAA6D0724C10787248107072941076D
:1037F00087290107072AC106872A8106072B410668
:10380000872B0106072CC1054A854E696D618280B0
:1038100011E763840A006F007072854A230C94607C
:1038200093F6D40F71466387C6001306C005814620
:10383000E39CC4F801C7A946E31DD7F0259F230CDC
:10384000E46081461B870600BB56DB40858ABDCA03
:103850005549ADBFBD34A30E94608946B5B719E78D
:103860009B8464FA230E94608D46E9BFA946E31257
:10387000D7EE1307A005E38EE4EC9146E1B7D546F9
:10388000859EA30DD460994681B763840A006F00BA
:10389000F06A930610036386D400A946E31BD7EAB7
:1038A000854A230F5461A1468D4A69BF9B84A4FCBD
:1038B000A30F9460A54609BFE31D07E8A94659B7C1
:1038C0009D4619B73B97EC003367EB00131B0703CA
:1038D000135B0B030347B102B306E40003C9865C24
:1038E000E31009D863050D0063930A00894A13F7B2
:1038F000090219CB8326846337979800130707685A
:103900006354D7006F00306563020A1A13F7190079
:103910006302071C8346B4610547639CE600872762
:1039200044629747000007A76792D3F7E710272262
:10393000F46213F7091009E78727C4452722F464C6
:103940008346846111476399E61A13F709046310EB
:10395000071A7149A5BDE31A07E6A54663EC96026E
:103960001D4763629706894663FC96021B87D4FF56
:103970001377F70FE3EFE6DC914613070002638746
:10398000D4001387B4FF3337E00012072301E46249
:10399000314721A87947E39EE4DA2300946229A005
:1039A00099CC0547E39BE4FE2D479B0607003B5758
:1039B000EB40058BE31E07E83B97DC0031B70D4772
:1039C0002300E462D5B701476386D400034714623D
:1039D00013670704A300E4623547C1BF272284624E
:1039E00001479B0607003BD7E940058BE31F0754BF
:1039F000130710363B57D740058B19C7D30700F084
:103A00005317F4A0E3160754BB96DC00B3E6D900C5
:103A10009399060393D9090375BD2724846293EB18
:103A20001B0005477DBF2726846293EB2B000947C7
:103A30004DBF2728846293EB4B000D475DB7230AE7
:103A40009462114779BF539704C0232CE462154751
:103A500049BF272E8462194769B7272084641D4710
:103A600049B7272284642147ADBF9737000087A755
:103A7000A77D539787A0E316074C2304946425473A
:103A80008DB727268464136D1D00294799BF272809
:103A90008464136D2D002D47A9B7272A8464136D04
:103AA0004D0031473DBF8147014A41BE8346A46175
:103AB00005476393E6020947E39DEAE603479461FD
:103AC00093060005E307D7E6E30507E613F71900B9
:103AD000E31107E65949DDB903471445E31B07E441
:103AE00013F71900E31807E28727044689B593F90D
:103AF000F9FBC21993D90903034CD46163020C0882
:103B000005476303EC0802E4894C054C8346B46125
:103B100005476380E6080D47639AEA008346E4613F
:103B200005476395E6001147E31AED4203378447E2
:103B30003AF8032704483ADC13770B2051E3034794
:103B40008461A946630FD7089306C0056302D716A0
:103B50008D46639EDA1AF9466308D722930650030E
:103B6000630CD724F146631DD718938581E6194568
:103B7000EFF08FB32DC5631D0D208144814A09AA42
:103B800089473EE4854C59B785473EE4814C094C52
:103B9000B5BF938681E501479737000007A7076BFC
:103BA0008D453B56ED40058A19C687A74603D3F7D6
:103BB000E71027AAF60205279106E314B7FEA1BF76
:103BC0000345F46119476374A700754901B10347C0
:103BD0006445E306A7F60C18EFF00FAD2DF11D4973
:103BE000F5B663140D006949D5B613F70905E3026C
:103BF00007D60725C463EF208007D31415C01947E3
:103C000093F4F40FE36397FC03474463D1466309DD
:103C1000D7008946E31FD7B213F70908E31B07B2A1
:103C2000D1C0FD3493F4F40F938581E62685EFF03F
:103C3000AFA755D503484463938681E5138601C930
:103C40000147D1480D45BB55ED40858985C907A77A
:103C50004603631C18058727C60187264603894546
:103C6000D3F7D708D3F7E70827A8F6006318B700FB
:103C700007270449D3F7E7082728F46205279106A8
:103C80001106E312A7FC93F9F9FAC21993D90903B3
:103C9000834D9461130700056397ED12630F0D1EAA
:103CA0007D492DB68344F46141B727A8E600F9B7F2
:103CB000E30B0DF2138601C90C18938681E50147C9
:103CC00089480D483B55ED4005890DCD07A70500F6
:103CD0008727C601D3F7E70807A74603D3F7E70806
:103CE00027AAF6026318170107270449D3F7E70844
:103CF000272AF4640527110691059106E31407FDB0
:103D0000814479B78727460327AAF602E5B7E3047B
:103D10000DE4938501C9938681E5081801461303D4
:103D200050038D483B58CD401378180063170800A6
:103D300087A7C50127AAF60225A8630B67020348D7
:103D4000C46107A74603631C08028727050087A6EE
:103D500045030948D3F7D700D3F7E70027AAF602AF
:103D60006318060107270449D377F700272AF4646C
:103D70000526910591061105E31616FBE9BB87A7F9
:103D8000C501D3F7E7007DB7938581E61D45CDB327
:103D9000138601C9938681E501470D45BB55ED406A
:103DA000858989E58727C60127A8F600052711061A
:103DB0009106E315A7FEA9B7834694610547E37111
:103DC000D7F4794921B409476399EA0C63960D0049
:103DD000B33AA001860AD1A007274462D30700F0B6
:103DE0005327F7A0E31807CE0D476389ED006368FA
:103DF000B7090547E38EEDFC136A4A00E3050DDEC3
:103E000085453B968501BB9595014D8E0126B37581
:103E1000A6011B070C009B860C00E3850514130507
:103E20008700930547000A058A052295A29587A772
:103E3000C5450724C56293854600138586000A059B
:103E40008A05A29522955374F4088724C56287A732
:103E5000C54593F50908D3F4F4086385051A31467E
:103E60009385C1E81385C1CA36EC3AE8EF20B01259
:103E70004267E266631F050C1309100281BA13073B
:103E8000E0086383ED246363B70D1307C008638DF7
:103E9000ED221307D0086387ED2293761A00638A18
:103EA000062493F9E9FDC21993D9090363870A002F
:103EB00079771307F73FB3F9E900E391090C82E042
:103EC00082C4638B0622137B6BFBE31D0B0A8347C3
:103ED0008461130750036384E700E395070A83476F
:103EE0009445034784458727C445D98F93E7470006
:103EF0002722F1042304F1048727446283478404C2
:103F00002720F10493F7070299C71385C1E8EFC092
:103F10002FFDE31C05068C001385C1E8EFF0AFB25E
:103F20008347040681EFEFC0AFD009C993070002B1
:103F30002300F406EFD0FFBEEFC0EFA43146938517
:103F4000C1E81385C1CAEF20B00249B01307F008D9
:103F500099B78345B4610546639CC500872704640F
:103F60009737000007A7872ED3F7E7102720F464C0
:103F7000072704649737000087A7C72BD3768410E0
:103F8000D377F71053F69410D30500F0C777F7688E
:103F9000D3F7C7085396B7A0631A067CD3F7075820
:103FA000D3F6C600D3F60658D397F7200D46D3F7BD
:103FB000D7186394CD00D397F720D30600F053169B
:103FC000D7A019C65317E720D397F7202720E4641A
:103FD0004BF7F4404374F4489737000087A607175F
:103FE0000A0793F9F9F75377D7105374D41022972F
:103FF0008A06C2192724E762A29693D9090327A447
:10400000866261BD337676019B880B006304067679
:104010008345B46193F919FFC219054693D9090381
:10402000638BC5068A06A29687A686620A07229730
:10403000D3F4D408072787625374E408D3F49410A8
:1040400043748448D3770458D3F6D6104377E7688F
:10405000537707589737000087A6871FD3F7E708DD
:10406000D3A7F7205397F6A02720E464E30707E2DD
:104070009737000087A6870D5397F6A0E31E07DE4B
:104080009737000087A6071D5377D7105317F7A05F
:10409000E30507E0D5B3938581E501469737000036
:1040A00007A7C71A0D483BD5C840058919C587A77A
:1040B0000501D3F7E71027A8F50005269105E314BD
:1040C00006FF8DB7136A0A011B872D071377F70FB9
:1040D000854663E4E600136A8A00E3060DB03146C4
:1040E0009385C1E81385C1CAEF20E06AE31705DABA
:1040F00061B393F9E9CD45BB03478404098B05C33C
:10410000FD3D93FDFD0F09476374B701136A0A046F
:1041100063060D1C89476393FA1C136A0A088327F8
:1041200084632324F4468347A461A308F44481C72D
:10413000A1472304F104072544648727C445872A3F
:10414000446293790A04D3A7A7A0272054472720C5
:10415000510581C793770A0285C70345944509CD68
:104160009B178A019BD7874163C8070063840900B6
:10417000530500F0EFE0DFC387274464272EF444A3
:10418000639609008727C4452722F1048347846486
:10419000034524622302F44683479445638AA700BB
:1041A00007254104EFE0DFC083472462A30CF444F9
:1041B000834981048347944503451462B3E9F900B8
:1041C00083478445230431052AE86380A702034717
:1041D000040689476307F700EFE05FBA4265EFB076
:1041E000BFF783471462230CF44483478445034795
:1041F0008461B3E9F9002304310591476312F702A2
:10420000034704068947630DF7000725C463272881
:10421000A100EFE0BFB6072501010145EFE0BF8A2D
:104220008347D461230AF4448347B4612309F444E7
:104230008D476396FA028347E461A30AF44489E751
:10424000D30700F0272AF464872744650727044929
:10425000D327F7A089E72728F448EFE03FC9834731
:10426000F46103476445630CF700230BF444C27701
:10427000233CF446E2572320F448EFE03FC783474E
:10428000C46113076002A309F44483478461638A0D
:10429000E70E636CF70613F7D70FF146630BD70AE7
:1042A00029476384E70883479461130700052308BF
:1042B000F4446387E73409476394EA348549639794
:1042C000370F8C001385C1E8EFE0FFF73146938587
:1042D000C1E81385C1CAEF20A0491DA60347944534
:1042E000C147E31EF7E283470445894613770A0472
:1042F000FD3793F7F70F63E7F600E30207E2136A6F
:104300000A0231BDE31D07E0DDBF1307C00563806E
:10431000E708130760066384E70813078002E39445
:10432000E7F89385C1CA1D4585A0938581E626855A
:10433000EFE0DFAA83476445E39797F6833784620B
:10434000233CF446832704632320F448EFE01FBA9C
:1043500099BF93E919002304310563870A008C0093
:104360001385C1E8EFE03FEE8C00138581E6EFE0B6
:104370009FED3146938581E61385C1CAEF20403F0A
:104380001DB79385C1CA1945EFE05FA529BF314626
:104390009385C1E8138541CCEF20803D45BF23A222
:1043A00001CC23A401CC23A601CC4DB781EB8347DC
:1043B000810493E717002304F10421B7F93793F739
:1043C000F70F9384018463E4F91E0A0C8A0C938D21
:1043D000C1CA938981E6338B8901B38A8D01B38B7E
:1043E0009D01E69907270B0007A4090087A90A0089
:1043F00007AA0B00229CD3793701537A4401A29C6F
:104400008726CC6487A7CC6453148420D3F636095E
:10441000D3F74709072B0464531CE720137A4A009B
:104420005375D410D375F4104F75F750CB75D7581A
:10443000EF10A017D304A52063000A1297370000DD
:1044400087A787E1D387A7A099C79737000087A7D9
:10445000E7E0D374F5089737000087AB27CF53F513
:10446000741187A7C4039737000007A9A7D4537511
:104470006511477B2B795325A520D3F76711D3F717
:1044800007585375F518EF10C03D531A15C0421A5E
:10449000135A0A03E3070AE283478104D3770AD059
:1044A00013F7870001CBD3FAFA10DD9B2304F10444
:1044B00027205105D3F4F418A267814C012A139DDB
:1044C0002700338CAD01269D872ACD6407270C0079
:1044D0009737000007AB87CC854DD3FAEA08314DFA
:1044E0004BF99490D3FAFA189737000087A787D42E
:1044F00053FB6411D377F900D37B7911537BFB1005
:1045000013970D034193E37E47DB6386AC07D3F734
:104510008B1053748B10852C93FCFC0FC3778B7915
:1045200047FC8B415384F720D3F789018C00138516
:10453000C1CA852D27A0FA00D3778A0027A0FB00E7
:1045400087270C00D3F757012720FC00EFE0BFCFEF
:1045500003C7140655D79DBB9737000087A747D0E0
:10456000D307F5A0E38907EE9737000087A707CFA9
:10457000D374F500CDB553F40DD0814C5374941021
:1045800053058420EF1000275309A52053058420EC
:10459000EF10206007A7090087270B00537CE51068
:1045A0004B7CF9C05379E9104F74F590B5BF834740
:1045B000810493E747002304F10483470406E3875B
:1045C00057D1EFE0AFFB834714069DEB1B553A0034
:1045D0000589A382018AEFC0AF87B70702039387DB
:1045E00007059C4303C7D18293F707046305F704CB
:1045F0001145EFC0EF96EFE08FD40145EFC04F8536
:1046000083470462A30BF4446382079CEFE00FF737
:10461000834674458D47034704066394F60A894729
:104620006307F7002145EFC0EF8EEFE04FD1A38B7A
:1046300001C86FF0AF991385C1E88C00EFE0BFC0EF
:1046400097CA0F00938A8A9C094523803A01EFC0DC
:104650006F8CEFE0CFCE83C71406DDF383C704066B
:10466000EDFB03C70A008547631AF704137A0A01B2
:1046700063020A0483B7044223B8F45283A7844236
:1046800023ACF452014597C70F0023810798EFB080
:104690003FFCEFE0CFCAEFD0AFBEEFD00FC6EFB018
:1046A0007FE1EFC05FDE83C75406E38107C2EFC03E
:1046B0008F82B9B71545EFC0AF8AE9B7A382F40678
:1046C000D1B7238A01C8A38901C885472318F444B8
:1046D000238B01C8239C01C893074006A303F4065B
:1046E0009967938747462314F40689476303F702C3
:1046F000938581CB0145EFE02FFB630205CEEFE010
:10470000EFFE530500F00145EFD02FB00145EFB0AB
:10471000BFA4172500001305657AEFC0BF8B1735BE
:1047200000001305A587EFC0FF8AEFC01FAE01B7D9
:1047300005496FF0AF8909496FF04F8961496FF002
:10474000EF88130960026FF06F8865496FF00F887A
:1047500011496FF0AF876D496FF04F871309500211
:104760006FF0CF86130900026FF04F861309200205
:104770006FF0CF85130930026FF04F8513094002A7
:104780006FF0CF8441496FF06F843D496FF00F8423
:10479000011122E84AE006EC26E401441389018471
:1047A0002285EFE0CFF50DE91305E003238401E056
:1047B000EFC06FF6EFC0DFFD1305A003EFC0AFF54C
:1047C0001D45EFC01F8D19C4E2604264A2640269F6
:1047D000056182800544E9B78347895CEDD7EFE046
:1047E0003FDEAA841305E003EFC0EFF2EFC05FFAEB
:1047F0001305A003EFC02FF22685E1B7357106ED52
:1048000022E926E54AE1CEFCD2F8D6F4DAF0DEEC75
:10481000E2E8E6E4EAE06EFC272681021387818065
:1048200097B70F009387977D0146636AF70097B7A4
:104830000F009387277D1386F1801D8E619A97352F
:1048400000009385A5A217B50F001305A57BEF10F7
:1048500030720F003003138781E997B70F009387F9
:10486000777A01466368F700938781801386F1E9C0
:104870001D8E619A814513858180EF10D0700F00E5
:10488000300397C7FFFF9387E7037390573085671F
:104890009387078073A04730EFB09FF6914517B517
:1048A0001B001305257A97B71B0023AD0778EFB0DF
:1048B0009FFCB757424C17B41B001304A474938792
:1048C00077241CC0854444C089671CC493070040FA
:1048D0005CC4C1452285EFB01FFA97B71B0023A324
:1048E000077A97B71B0023AF077C97E71B0023AB22
:1048F0000780914517B51B001305C57897E71B0086
:1049000023A20784EFB03FF7914517B51B001305AD
:10491000657BEFB05FF6914517D51B001305857ECB
:10492000EFB07FF5914517E51B001305A581EFB0AA
:104930009FF47D57B7079001D8CBB7079001D8C334
:10494000854513055006EFB0DFEE914517B51B0006
:104950001305456F24C0EFB01FF2EFC03FB6854589
:1049600017051C001305058AEFB09FF217071C00FE
:1049700003474789A947630EF7221D45EFC04FEF54
:104980001305F00FEFE0EFC7EFC07F933705020389
:104990001306007081451105EFB08FEA3715020349
:1049A000054681451105EFB0AFE9116637050203F1
:1049B0001306068081451105EFB08FE8B7070A039B
:1049C00023A40700FD5637070A0314C33107184311
:1049D0009945054797B60F0023A6E6621D4798C77D
:1049E0001305F004EFB0FFE4B7070A03856623AEB2
:1049F00007009386068037070A0354CB37070A035C
:104A00001307070218439D450947D8CF1305000532
:104A1000EFB03FE23705020301469305800311051D
:104A2000EFB00FE213058003EFC09FD8130580039A
:104A3000EFC0FFDA1384018423B001C623A401C6AA
:104A40007360043083478404B7092000C5099BD7ED
:104A50004700858B996AFE092300F406938A4A462B
:104A6000938BC182138BB182054A054C850983471C
:104A7000040623B0018A23B4018A2300F4069307B5
:104A80004006A303F40697B70F0023810758A38CB1
:104A90000182238C0182A38801822388018223B8AA
:104AA00001D623AC01D683C70B0081451306400411
:104AB00093F7F70F138501C923A8018A231454071C
:104AC0002300FB00EF10304C938581CB0145EFE0D4
:104AD000AFBD01E51D45EFC0AFD9EFB0AFD9371578
:104AE0000203414681451105EFB08FD50146C1450E
:104AF00037150203EFB0CFD4EFC03FD43705020320
:104B00000146930500041105EFB08FD3130500048F
:104B1000EFC01FCA0145EFB0BFB3EFC01FFEEFC02B
:104B20003FF6EFB03F99EFB01FBB1725000013050C
:104B30006547EFC02FCA83478404A18B85C7EFB0B8
:104B4000DFAD0DC1172500001305453723004407CD
:104B5000EFC04FC8172500001305C546EFC08FC72B
:104B6000EFC0AFEA8347040693F71708A9CF1725CC
:104B700000001305A534EFC0EFC51725000013058D
:104B80006545EFC02FC5EFC04FE82300440701493A
:104B9000814483470B0083C60B0013F7F70FE390A4
:104BA000D710EFB0BFB8EFD09FF983471406F5D305
:104BB0007DBD1306C005854513850184EFC07FA91F
:104BC000E31605DC5DBB2380018AEFF07FBCC1B733
:104BD00013074002E397E7028347945CA305410172
:104BE000B1CB1B87C7FD1377F70F9306400363EB29
:104BF000E600B316EC00B3F63601BDE6930660029C
:104C00006304D70403470406636CEA50930630023A
:104C10006389D7289B8787FB93F7F70FAD4663ED32
:104C2000F652972600009386E6D58A07B6979C43EE
:104C3000B6978287172500001305453BEFC08FB953
:104C40002685EFC00FC5A1B78347040693F7F70D7C
:104C50006398074C0347A45C9307D003631AF74695
:104C6000EFE01F96AA84E9BF0347A45C63120746DE
:104C7000130770046381E708636EF70213074002AD
:104C80006383E70613073004E39CE7FA034704064F
:104C900089476319F71EEFB0DFAD17250000130534
:104CA000E521EFC02FB3172500001305A53CEFC089
:104CB0006FB25DAA13078005E394E7F88347040603
:104CC000E39047F9172500001305451FEFC08FB08B
:104CD000172500001305853BEFC0CFAFEFC0EFD223
:104CE0002380018AB1BF83470406E18B639A0742A0
:104CF000EFC0EFDCB1B71725000013052534EFC076
:104D00006FAD034504459307B00863FEA700172560
:104D1000000013052533EFC0EFAB034504451B0529
:104D200065071375F50FEFC06FAD1725000013056C
:104D3000E531EFC02FAA034564451B0565031375D4
:104D4000F50FEFC0AFAB1725000013052530EFC0FE
:104D50006FA80345444545251375F50FEFC00FAA0D
:104D6000172500001305852EEFC0CFA683472445E5
:104D700055451D9D1375F50FEFC04FA81725000071
:104D80001305C52CEFC00FA5034534451B05A5052C
:104D90001375F50FEFC08FA6172500001305052B1F
:104DA000EFC04FA3834714451305E0051D9D137500
:104DB000F50FEFC0AFA4834774458DCB17250000D6
:104DC00013054529EFC00FA1034574458D47630BBB
:104DD000F500F9476305F50089476319F500EFC051
:104DE000EFA129A013050003EFC0EF9217250000E3
:104DF00013054526EFC00F9E8347944541476388BE
:104E0000E706130700026389E706B5CB1725000004
:104E100013054524EFC00F9C834784451305800389
:104E200099E313059003EFC00F8F172500001305BA
:104E3000E522EFC02F9A03454446EFC02F9C17256B
:104E4000000013052522EFC0EF9807250446EFC0A8
:104E5000EFB91725000013056521EFC0AF970725AF
:104E6000C4450145EFC0CFA3EFC02FBAD1BB130596
:104E70003003EFC04F8A59BF13054003DDBF130550
:104E80005003C5BF631E072817250000130505033F
:104E90002300F406EFC00F94172500001305851EAC
:104EA00039B50349A45C63150922194D9D4DA14CE8
:104EB0000C084A85EFD05FFF09E51D45EFC04F9B09
:104EC00041B3172500001305E51DEFC0AF90630B3C
:104ED000A9016308B9071B0569031375F50FEFC036
:104EE000EF9139A0172500001305451CEFC08F8EE8
:104EF0001305A003EFC02F82052908081379F90FC5
:104F0000EFC0CFB1EFC06FB0E31499FB17250000DD
:104F10001305C51AEFC00F8C138541CCEFC00FB03D
:104F2000EFC0AFAE172500001305C519EFC08F8A7B
:104F300007250449EFC0AFA9EFC02FADEFC0AFD434
:104F400001B3172500001305E5164DB78347840408
:104F5000C18B638F074891472300F4068347A45C05
:104F600063980716EFB0EFE91145EFE0EFBA0D4592
:104F7000EFE08FBAEFD0BFBC83471406E39207CCB3
:104F8000EFB06FF5EFB00FD3EFC03F8B8347140640
:104F9000E39807CA2380018AEFB0AFD58347A45CAA
:104FA000E39007CAEFF0CFFE61B90347A45C930713
:104FB000C004631FF7100347B45C9307000563192F
:104FC000F7108347C45C6395071013050008EFB022
:104FD0006FF4BDB18947A305F1008347A45CA5EB3D
:104FE000130600059305E03A138581E0EFC06FE6F4
:104FF00019E913060005938581E01305E03A23843F
:1050000001E0EFC0EFD6172500001305250CEFB027
:105010007FFCEFC0EFF7EFC04F9F1725000013058F
:10502000650CEFB03FFB13056005EFB0DFEE130535
:10503000C002EFB05FEE3D45EFB05FFC1305C0026C
:10504000EFB07FED13050008EFB05FFB31BD0D47FA
:10505000A305E1001307D003639CE7068D473307E0
:10506000F4008346875C1B87D7FF2297852723049C
:10507000D75C93F7F70FE5F613060005938581E0FB
:105080001305E03AEFC0CFCE65BE0347A45C93079B
:105090003005631FF7020347B45C930740056319AB
:1050A000F7020347C45C9307D0036313F7028347F7
:1050B000E45C99EF8347D45C13074002638CE700FC
:1050C0001307A002638EE702130730026388E7022A
:1050D0008D44BDB60545EFD0DFD21725000013057E
:1050E000E5DDEFB03FEF1725000013052500EFB019
:1050F0007FEEEFC08F91EFB0CFE799B60945E1BFE2
:105100001305F00FC9BF0349A45C8947A305F1004B
:10511000972C0000938C0CFF63070900054915CFFD
:10512000A14439BE05494A85EFD07FDD19E51D450B
:10513000EFB01FF4E30809FE21B66685EFB09FE9E2
:105140004A85EFB0BFEB1305D003EFB0DFDCEFC053
:105150002FE4EFB01FEAF9BF01496C001305B1005D
:10516000EFC0AFF019E18944E1BC8347B1001B8770
:105170001700A29783C6875C1377F70FA305E1009A
:105180009307D003E396F6F463000906BA87B306E3
:10519000F40003C6865CBB86E740A296852723847D
:1051A000C65C93F7F70F65F6A305F100EFE04FC17A
:1051B000AA84E31705A80725C100EF00502B53046C
:1051C000A520EFD0BFBB93071005531514C01306DD
:1051D0000005938581E01375F50F3B05F5021B056E
:1051E00005304215419179BD0C081305B100EFC09F
:1051F000CFE735D98347B100A29703C7875CE3198E
:1052000007EC8727C1009727000007A7E703D317FC
:10521000F7A0E39F07EA539917C007240101D307BA
:1052200000F01379F90FD317F4A06396071C9307C6
:10523000300663F127099B07C9F993F7F70F8946F1
:105240002546914563EDF60481276304D7028D4618
:10525000630FD702938601848A070546BE966307CB
:10526000C70027A08600EFC0EFD0D9BA27A68600D6
:10527000DDBF172700008727E7FE5374F41091075E
:105280008A07A2975374F41027A48700E9BF531428
:105290008420A1078A07A29727A28700E9B70527DC
:1052A0001377F70FE376F6E2E304B7E2D93793F723
:1052B000F70F49BF53058420EF00701BD31715C0AB
:1052C0001307000293F7F70FE36427E19716000036
:1052D0009386466E0A093699032709003697028796
:1052E0000947637DF7102308F402B5BFA309F40250
:1052F0009DBFA308F402EFA05FEEB5B72309F40247
:10530000DDBF0347840491C7136747002304E40407
:1053100099BF6D9BE5BF0347840481C713670704EA
:10532000F5B71377F7FBDDB78346840413F7F60769
:1053300099C313E7060801452304E404EFB04FB115
:105340001DB7230AF40205B7272C840229BF272E94
:10535000840211BF8346840413F7E60F99C313E751
:1053600016002304E404EFD07FB8F5BD034784049E
:1053700089CB9377070113670702C9FBA9446FF034
:105380003F8C1377F7FD59B78346840413F7760FE4
:1053900099C313E786002304E404EFC00FCAE1B504
:1053A0000347840481C7136707018DB71377F7FCA0
:1053B000B1BFA304F40445BD272684046DB5272896
:1053C000840455B5231AF40479BD272C840461BDE7
:1053D00027208404EFA01FCA79B527228404DDBFEB
:1053E0000347840481C7136727000DB7759B39BF36
:1053F00095446FF0FF8491446FF09F8499446FF05F
:105400003F848347040693F7170291C72545EFB001
:105410003FC66FF0CFF7EFE0AF9A6FF09F8289CC75
:10542000130790026397E7F693F72400638307F668
:1054300093F4D40F6FF0EFF51307F002638BE7F4EA
:105440006362F704130700026375F7F41307800221
:105450006381E7041307E004636027051B87F7F9FE
:105460001377F70FE54663E5E600813793F7F70F0B
:10547000B30624011B0719002384F65C1379F70F88
:105480006FF02FF11307B003E396E7FC91446FF040
:105490004FF089446FF0EFEF85446FF08FEFB30763
:1054A000E40005271377F70F9306100883C7075406
:1054B0006313D70001472300EB001307F00F63824B
:1054C000E7EE29476385E7003547E39AE7F4EFD035
:1054D0000FE783471406639C07D8B306240123848F
:1054E000065C85882D4585F48347845C639207EECE
:1054F000172500001305059BEFB0DFAD6FF02FE916
:10550000000000000000000000000000000000009B
:10551000000000000000000000000000000000008B
:10552000000000000000000000000000000000007B
:10553000597101436EE419A0597105436AE866EC9C
:1055400019A05971094362F05EF419A059710D4315
:105550005AF856FC19A059711143D2E0CEE419A0B3
:1055600059711543CAE8A6ECA2F086F412031A9109
:105570008282411122E006E48282A26D4101026D25
:10558000A26C4101026CA26B4101026BA26A410153
:10559000026AA26941010269A26441010264A26037
:1055A00041018280534525C08280B707008093C7A0
:1055B000F7FFD38605E033F7D7000127B705807FD3
:1055C000D307A520530605E063E6E500F18F8127A8
:1055D00063F7F500D3F7B7005385F7208280EFF229
:1055E0005FF91B8506003708803F631A0501EF004D
:1055F000D067D307A5205385F7206FF03FFA9BD6DD
:10560000E641898A1B54F601558C8DEF894763006A
:10561000F4028D47E311F4FE9727000087A787AFB8
:105620009727000007A7C7AED3F7E708E9B7972782
:10563000000087A7A7AD9727000007A767ADD3F79E
:10564000E70055BF012609EF6357060097270000C2
:1056500087A787ACF1B79727000087A727ACE1BFE2
:105660006315B7086393E7068947172700000725E6
:1056700027AA6306F4028D47630EF4028547630987
:10568000F4009727000087A7A7A9D3F7A700A5B71D
:105690009727000087A707A9D3F7A708A9BF9727CF
:1056A000000087A7E7A79727000007A7E7A7D3F77A
:1056B000E710E1BF9727000087A787A6972700007C
:1056C00007A7C7A6D3F7E710C1BF8947E301F4F6E0
:1056D0008D47E303F4F48547D30700F0E31DF4F0AE
:1056E0009727000087A747A239B7E38FB7F4999FA0
:1056F0009BD777411307C0036351F7049727000036
:1057000087A7C7A19727000007A787A2D3F7E708B5
:1057100085476306F4048947630BF404E30D04EC46
:105720009727000007A707A153F5E7009727000078
:1057300087A7C79DD377F5087DBD6356050013077E
:1057400040FC63CBE70053F5B7185325A520EF00C5
:10575000D051D307A5206DBFD30700F055BF370741
:105760000080D38707E0B98FD38707F069B5972703
:10577000000007A7279C53F5E7009727000087A79D
:10578000E79819BF530605E01317160205939B56B9
:1057900077019B8616F8D94763C7D7049B07060095
:1057A00063DD0600B706008063C60700B706803FCA
:1057B00011E38146538506F08280B70580001B8780
:1057C000F5FF3B57D7403375C700012575D56356A4
:1057D000F000BBD5D540BB87C5001347F7FFF98F55
:1057E0009B860700C1BFB707807FE367F7FC53754F
:1057F000A5008280EFF2FFD73717493FD30705E0B6
:1058000086178593130787FDD30500F04111637A4E
:10581000F7023707807F63E7E700EF008049410127
:105820006FF0DFD72800EF00C00A0D898547872574
:10583000C100072581006309F5008947630CF50065
:1058400009EDEF00A048E1BF0545EF00D036531544
:10585000A520F1B7EF008047DDBF0545EF00B0356B
:105860007DBF530605E01317160205939B5677017B
:105870009B8616F8D94763C7D7049B07060063DDEC
:105880000600814663D70700B70680BF19E3B70655
:105890000080538506F08280B70580001B87F5FFE6
:1058A0003B57D7403375C700012575D563D6070030
:1058B000BBD5D540BB87C5001347F7FFF98F9B8643
:1058C0000700C1BFB707807FE367F7FC5375A500EA
:1058D0008280EFF2FFC8B717493F530605E0131760
:1058E00016020593938787FD41112A8463EAE70036
:1058F000D30700F02720A5002722F500014599A82D
:10590000B7D71640938737BE9B04060063E1E70ACA
:10591000B7070080172700008727078293C707FF74
:105920003717C93FF18F130707FD63539004537571
:10593000F5086384E7029727000007A72780D3773D
:10594000E50805455375F5082720F4005375E5086B
:105950002722A40041016FF01FC49717000087A7FA
:10596000277E5375F5089717000007A7A77DC1BFCD
:105970005375F5006382E7029717000007A7077CBD
:10598000D377E5007D555375F5082720F40053754E
:10599000E5002722A4007DBF9717000087A7477A5C
:1059A0005375F5009717000007A7C779D1BFB71641
:1059B0004943938606F89B07070063E9E612171729
:1059C0000000872767785325A520D377F510171790
:1059D00000000727A777D3F7E700D39607C017176C
:1059E000000087276775D3F606D01B850600D3F71E
:1059F000F6105375F5081717000087272774D3F79B
:105A0000F6107D475377F5086342A7021B88F6FF1F
:105A10000A089715000093856508C295370700802E
:105A20008C41134707F0718F639FE500530707E030
:105A30001B5777019BD777411377F70F3B87E740D9
:105A400021466345E6002720E400A9A017170000BF
:105A50008727076FD3F7F6105377F5085375E508D6
:105A60005375F508171700008727C76DD3F7F61091
:105A7000D3F7A7085376F708530706E01B577701BB
:105A80001377F70F999F6547634BF7025305E7209C
:105A90002720C400072704005375E5085375F5084F
:105AA0002722A400E3D804EA5317E7205315A520C2
:105AB0003B05D0402720E4002722A40061BD9717B2
:105AC000000087A7E768D3F7F6105375F7085377F8
:105AD000A7085377F7089717000087A7A767D3F69B
:105AE000F610D3F7E6085377F508B1BFB706807F05
:105AF0006369D7005375A5082722A5002720A500B4
