:100200003819002019440000CD090000CD09000074
:1002100000000000000000000000000000000000DE
:10022000000000000000000000000000CD090000F8
:100230000000000000000000CD09000031080000AF
:10024000CD090000CD090000CD090000CD09000056
:10025000390D0000CD090000CD090000CD090000D6
:10026000CD090000CD090000CD090000CD09000036
:10027000C9110000CD090000CD090000CD09000022
:10028000CD090000CD090000450A0000E10C000086
:10029000CD090000CD090000CD090000CD09000006
:1002A000CD090000CD090000CD090000CD090000F6
:1002B0000221044B1A688A431A60DA680A42FCD1A8
:1002C0007047C0460020004240231A4A10B511680A
:1002D0000B431360802318495B00086A03430B62D9
:1002E0001649174B4B804B785BB2002BFBDBA021F0
:1002F000144BC90019600821D8680842FCD10221BA
:100300009964FD31D9643F39D8680842FCD1802313
:1003100011680D4C5B000B431360A16C606C06F020
:1003200011F8011C094805F001FD2060FFF7C0FF2E
:1003300010BDC0460044004100040040000C0040D5
:100340001A400000002000422801002000007E43E7
:1003500080220B4B52001865D9681142FCD1022251
:100360001968002805D191431960D9681142FCD160
:10037000704711431960D9681142FCD1F8E7C046B3
:10038000002000420A4B0B4A5B78002B0BD10A4B32
:10039000400609D5802118698902014319611300BB
:1003A00000226033DA727047196904480140F5E7AA
:1003B000880100202801002000440041FFFFFDFFCC
:1003C0000F4A082110780F4B0F4A400713D51069C8
:1003D0000143116119000D4A7431127F34338A735D
:1003E0001A783023023A53431022DB085B424B73E6
:1003F000074B5A737047106988431061EAE7C0469B
:10040000740100202801002000440041A8010020C0
:10041000002C0042002370B501251349134A0B77C5
:100420004B771078124A147802001A412A4209D0F8
:100430000122002B03D09218012B00D002320E7F34
:1004400032430A7722001A412A4209D00122002BA6
:1004500003D09218012B00D002324E7F32434A77EC
:100460000133032BE0D170BDA80100205D01002005
:100470005E01002070B5084C256A002D0BD00123C9
:10048000A21DD17F206C0B43D377011C05F01AFE0F
:1004900000236861236270BDA80100200023F0B52D
:1004A00087B00393604B10240593604B1B78029335
:1004B000002B00D01C00059B013C5D331B78E4B28F
:1004C0000193A34276D034252E006643584FBE19BF
:1004D000F069B369011C049305F088FA316A05F0EC
:1004E000F1FD061C011C049805F058FA002800D004
:1004F000049E65437D196E611025002C00D02500F7
:10050000013D019BEDB2AB4236D034235C433B1935
:100510000493049B464C059334236B431B192E1EF6
:10052000049300D11035434B013D1B78EDB2AB4233
:1005300001D1FFF79FFF34235E43A419A7696069C7
:10054000391C05F025FA002812D1E069011C05F0DC
:100550004DFA216A05F0B6FD059B596905F046FA8A
:10056000061C011C381C05F02DFA002824D06661F9
:10057000019BAB42CDD107E0059B019A5E331B780E
:10058000934201D1FFF776FF3425019B5D43284B51
:10059000ED18019B5C1CE4B2102C00D10024002754
:1005A000234B0593029BA34208D1002F02D0224B7C
:1005B000039A1A7007B0F0BD6761D9E73426664325
:1005C000059BF6186B69019373690198191C0493D4
:1005D00005F0E4F9002813D0E869011C05F006FADB
:1005E000296A05F06FFD019905F000FA051C011C50
:1005F000049805F0E7F9002802D0012775610394FB
:1006000034236343059AD3189969586905F0C0F9F2
:10061000002801D0012703940134E4B2102C00D14A
:1006200000243500BEE7C046A801002004020020D7
:10063000340400200602002005020020054B064A73
:100640001B78127800209A4203D034305843034B71
:10065000C018704706020020040200203404002065
:1006600070B5437C0400C56ADA0715D5164B187AB5
:1006700006F064F8154905F025FD291C05F022FD5A
:10068000041CFE21201C890505F09CF9002801D1DD
:10069000FE24A405201C70BD5B070BD40A4BD8793F
:1006A00006F04CF8094905F00DFD011C281C05F069
:1006B00009FD051CA46A291C201C05F06FF90028FF
:1006C000DFD12C1CDDE7C046880100200AD7233C7F
:1006D000054BDA6F1A661A1DD26F5A661A00083275
:1006E000D26F9A667047C046A8010020F7B50F0088
:1006F00000250E4E01907C590021201C05F048F980
:1007000000280DD1019B211C585905F00FFB440016
:100710006408311C201C05F055F9002800D1261C66
:1007200004350C2DE7D1301CFEBDC0469976967E6F
:10073000B022044B196891431960596A0A435A62FE
:100740007047C04600440041B0220C4B1B6A134066
:100750000B4A1278520601D4B02253400020834243
:100760000AD0D806C00F9A0601D5022210435BB208
:10077000002B01DA042318437047C04600440041AF
:1007800074010020F8B505000E000024054F305913
:1007900005F0D4FFE15905F0C9FA285104340C2CB6
:1007A000F5D1F8BD2C01002010B502490248FFF731
:1007B000E9FF10BD240200204C020020F8B505001E
:1007C00000240A4E2F590021381C05F0FBF80028A0
:1007D0000AD1A319596A381C05F0E0F8002803D1A2
:1007E00004340C2CEED1F8BD0120FCE72C010020D4
:1007F000024A1378034313707047C0467402002006
:1008000010B5FFF71BFF002802D00220FFF7F0FF12
:1008100010BD024A1378034313707047750200201D
:10082000024A1378034313707047C04676020020D3
:1008300030B5FA240025064BA4001A6D01321A6562
:10084000986DD96D001969419865D96530BDC0466C
:100850002802002070B506F059F8041C05F0FEFFD0
:10086000002811D0EFF30581EFF31085174B02003C
:100870001B68DB439B0720D129431ED1144A116D0D
:10088000136D5B1A8342FBD306F000F8011C201C99
:1008900005F058FD0021041C05F094F800280BD049
:1008A0000C49201C05F00EFC05F0D8FF002803D0F1
:1008B000000101D00138FDD170BDFA2189010B0082
:1008C000013BFDD1013A002AF9D1DDE710E000E05B
:1008D0002802002000007A4410B50400002C00D14A
:1008E00010BD00200249013CFFF7B4FFA4B2F5E7B8
:1008F0000000F03F10220021164B10B51A73164A63
:10090000164C1170164A174B10782200603212787C
:10091000FF2814D161331978CBB200290FD1802A76
:1009200010D04C342278520701D5012253400821BF
:100930000D4A002B0AD013691943116110BD002321
:10094000042AEED0FFF7C8FF0123EAE713698B43BF
:100950001361F3E7002C00428802002028010020E8
:100960005F0100202802002000440041102010B543
:10097000114B124C1B7803421AD1FFF739FFFFF7D6
:1009800097FC0F4A0F4913690B40136106212C2273
:100990000D4B18781B7902400B40134308D061348B
:1009A000042806D12278002A00D12170FFF7A2FF87
:1009B00010BD03222270F9E77402002028020020F3
:1009C00000440041FFFFFDFF88010020C046FDE715
:1009D0001E2317494A689A431C3B134322224B604B
:1009E000144B1A621A3AD9681142FCD000225A629A
:1009F0001032D9681142FCD080210F4A8900126858
:100A0000920E92020A439A6202225A620E32D96808
:100A10001142FCD00022094B9A605A7852B2002A47
:100A2000FBDB074A5A605A7852B2002AFBDB704758
:100A3000004000410008004020608000000C0040A1
:100A400000070300F8B510239749984D8B73984B16
:100A50001B78002B00D020E10727964E964832697C
:100A6000C37BBA433B401343336137698026837BA2
:100A7000B6045A063240914E914C374080263A4394
:100A800036059F0637403A4380279B067F053B404B
:100A9000884E1A433261427B8A4B1A82DA7B52B209
:100AA000002AFBDB0222188802431A80DA7B52B24A
:100AB000002AFBDB2B00012260331A7062B6200093
:100AC00098300768002F50D16326B4462B00AC4401
:100AD000664662331A783678964200D1D0E02A0012
:100AE0001B786432DB00D218026052880A83CA7B0A
:100AF00052B2002AFBDB2A0021006432D05A743142
:100B0000D218888310798A7F82420ED0142627005B
:100B1000887770436C4A6D491218126A94375208EC
:100B200009183960E267A2676267220027009432E1
:100B300012686748117C407F74374140F97329007F
:100B40006431CB18106859792700C8400837F86716
:100B500050682700C8409268883738602000CA4033
:100B60008C3002609879FFF7F3FB5A4A564B1178A4
:100B70005748012913D14F49096A19007931097879
:100B800000290CD00021117002007C337C32C2CAD3
:100B9000C2C32A0040234C3211780B431370270044
:100BA0002200002374370832D26FBB73636F9B1827
:100BB0002200943212686367D1688B4209D90126FA
:100BC0005B1A6367BE73177CC36F374266D0013B05
:100BD000C36720008830A36F00681B18A367994281
:100BE0000ED2270002267437B87B5B1A3043B873E5
:100BF000A3673948177CC36F374251D0013BC367A5
:100C000020008C30E36F00681B18E36799420ED216
:100C1000270004207437BE7B5B1A0643E367BE736C
:100C20002E49127CCB6F02423CD0013BCB672300A4
:100C300060331A78042A05D1220074329979937BA3
:100C40000B40937322007432938B013B9BB29383CE
:100C5000002B0BD1220029009832623113600A78F0
:100C60000132D2B20A70062A00D10B70184A7434CD
:100C7000A37B127F60355340A37300232B700CE0DD
:100C80009434FFF737FE23685B7C002B02D03800DA
:100C9000FFF75EFB0420FFF7ABFDF8BD013397E7DC
:100CA0000133ACE70133C1E7002C004228020020E9
:100CB00088020020004400419C010020FFFFFFE566
:100CC0002801002000300042A8020020BC020020C1
:100CD000A801002020030020AC010020B00100206A
:100CE000012330B58025104910488B73104BAD049B
:100CF0001A7F046953062B400E4D2C408025234358
:100D00002D0594062C40234380249206640522403E
:100D10001343022203610B8893430B80CB7B5BB2AE
:100D2000002BFBDB30BDC0460030004200440041D8
:100D3000A8010020FFFFFFE50C4B70B51C691C618A
:100D4000B0231C420BD00A4B1B78012B07D0094D56
:100D50002B78002B03D1FFF709FE01232B70064BE4
:100D60001C4201D0054B1B6A70BDC04600180040F4
:100D7000880100208902002001C0000000440041D9
:100D800070B50C4A137A0133DBB2692B00D1002312
:100D90000124094903E08D7D254200D18C75557AE7
:100DA0009D42F8D016000C75157A0A3670551372EC
:100DB0008C7570BD280300200014004210B504009B
:100DC0000134631E1878002800D110BDFFF7D8FF4A
:100DD000F6E710B50148FFF7F1FF10BDC97D00002F
:100DE00070B50400632815D90A2105F05FFF303182
:100DF0002000CDB20A2105F0D3FEC4B220000A21A2
:100E000005F054FF30312000CEB20A2105F0C8FEB3
:100E1000C4B203E000252E000928EFD83034E0B238
:100E2000FFF7AEFF002E02D03000FFF7A9FF002D24
:100E300002D02800FFF7A4FF70BD10B504000448DD
:100E4000FFF7BCFF2000FFF7CBFFFFF7C2FF10BD8D
:100E5000F47C000010B5002803D10348FFF7AEFF73
:100E600010BDFFF7EAFFFBE7FB7C0000F0B50E00CA
:100E700087B00021041C04F091FD002805D02D202E
:100E8000FFF77EFF80231B06E4183500012D39D8BB
:100E9000F30704D5201C2E4905F014F9041CFC218D
:100EA000201C890504F0A2FD05F028FC00240500A3
:100EB0000A27002D2ED12F00A6426F41FFB23A0023
:100EC000331BDBB20193531E9A41019B52421A40DD
:100ED00002AB3021E01805F09FFD002F01D06B46DA
:100EE0001D796419E4B2A64204D13023741C02AA0D
:100EF0009355E4B2631E02AA9B181D00002C1AD160
:100F000007B0F0BD201C134905F0DCF8023D041CBD
:100F1000EDB2BBE7631CDBB228003900019305F09A
:100F2000C5FE02AB303119552800390005F038FEF6
:100F3000019C0500BDE7B44202D12E20FFF720FF3F
:100F40002878013CFFF71CFFE4B2013DD6E7C0461C
:100F5000000020410000C84210B5064B03211B7859
:100F6000DB0703D5044905F0ADF80421FFF77EFF48
:100F700010BDC046740100208B42213D10B5074BC7
:100F800001241B7819002140234203D0044905F0B5
:100F900099F82100FFF76AFF10BDC04674010020D8
:100FA0008B42213D10B55D20FFF7EAFEFFF711FFF0
:100FB00010BD10B504000068FFF7CEFF2C20FFF72E
:100FC000DFFE6068FFF7C8FF2C20FFF7D9FEA0689E
:100FD000FFF7C2FF10BD70B505000C002420FFF71D
:100FE000CFFE2800FFF7FCFE3D20FFF7C9FEE0B270
:100FF000FFF7F6FEFFF7EDFE70BD70B506001500B9
:1010000024200C1CFFF7BCFE3000FFF7E9FE3D205A
:10101000FFF7B6FE2900201CFFF728FFFFF7D9FED7
:1010200070BDF7B5574B584C19780020FFF7D3FF28
:101030002300373319780120FFF7CDFF2300353324
:1010400019780220FFF7C7FF230025000126363359
:101050004C3519780320FFF7BEFF29780420890852
:101060003140FFF7B8FF2978052089093140FFF7A3
:10107000B2FF002169560620C90FFFF7ACFF23001D
:10108000383319780A20FFF7A6FF03220B20E16B03
:10109000FFF7B3FF03220C20216CFFF7AEFF297886
:1010A0000D203140FFF797FF29781420490931407E
:1010B000FFF791FF29781520C9083140FFF78BFF12
:1010C0002978162009093140FFF785FF23004D33A9
:1010D00019781720FFF77FFF03221820216DFFF7F3
:1010E0008CFF03221920616DFFF787FF230058331F
:1010F00019881A20FFF76FFF03221B20E16DFFF70D
:101100007CFF00221E20616CFFF777FF00221F206A
:10111000A16CFFF772FF29782020F1403140FFF7E2
:101120005AFF00260A237343DBB21D006733643580
:10113000DBB2EDB2271D0193022E15D0032E1AD07B
:101140000322012E0ED039682800FFF756FF013523
:10115000019BEDB204379D42EED10136F6B2042E6A
:10116000E0D1F7BDF968EFE70849B86904F0DEFDA2
:101170000322011CE8E78023796A1B063200C918A4
:10118000E2E7C0465C010020280100200000614524
:101190001FB50A48FFF712FE094901A8FFF7F2FA46
:1011A00001A8FFF706FF3A20FFF7EAFD054B587943
:1011B000FFF716FEFFF7F6FE05B000BD007D00004C
:1011C000240300208801002070B5434C237EDDB24B
:1011D0005B0725D5208D83B2C0B23F2834D019D803
:1011E00018281BD0212833D01B065DD584381C2835
:1011F00016D805F015FB2F311515151515151515F4
:101200001515373B3D3F4143454715494D4F515318
:10121000551557007E28E7D1022016E0FFF7A6FB00
:1012200001210D420FD02D4A507A157AC3B2854262
:101230004FD011000A31C95C0133DBB22185692B23
:1012400000D10023537270BD0120FFF7D1FAE7E708
:101250000820FAE72020F8E7214B40201B789B0666
:10126000DED5F2E70120FFF7D4FAD9E70220FAE74A
:101270000420F8E70820F6E71020F4E72020F2E742
:101280004020F0E78020EEE70120FFF7C9FAC7E72A
:101290000220FAE70420F8E70820F6E71020F4E738
:1012A0002020F2E74020F0E70E4B0C4A1B78013378
:1012B000DBB2812B00D100231100743109789942EF
:1012C000AED073321178084E7054BFF35F8F137035
:1012D000A6E72175B7E7C0460014004228030020A6
:1012E000880100209B0300207407002010B5012412
:1012F000A522E140044B120202431C75D9611A6019
:101300001A7D2242FCD010BD0040004170B504009F
:101310000D0044200021FFF7E9FF220023004032A6
:101320002D1BE95A198002339342FAD1BFF34F8F34
:1013300004202100FFF7DAFF70BD8023F0B55B01C8
:101340000E00D3B0984248D2FC239B02C4182378E5
:101350008B4242D03F252700AF434022390002A8EC
:1013600005F0B4FB254002AB5E55FF2325009D43ED
:10137000791B0A004032019202A8EA1B12180023CE
:101380009446EA5C994207D80198984204D960468D
:10139000C05C0240904209D1802201335200934246
:1013A000EFD1380002A9FFF7B1FF16E0802212AF9B
:1013B00029005200641B380005F088FB3E552900C7
:1013C00002208026FFF792FF0024760039192819A1
:1013D0004034FFF79BFFB442F8D153B0F0BDF7B5EE
:1013E00006000F0004000025131801936B00ED099F
:1013F0001D43BB1B195D20006D18FFF79EFF019B6D
:101400000134EDB29C42F1D129002000FFF795FF95
:10141000F7BD10B50A210020FFF78FFF5C220120E5
:101420000149FFF7DCFF10BD2C010020F0B5FC26C0
:101430000023FF255218B602401A80242F006401B1
:10144000A14200D28F5D5C00DB0923434754DB19C6
:101450000131DBB29142F0D18020FF224001814274
:1014600002D2FC2292028A5C981A43425841F0BD93
:1014700010B5044C2078002800D110BD0134FFF7CE
:101480007FFCF7E79D030020F7B5354B019101780C
:1014900000905A185B5C2D2B1BD101275378961CAA
:1014A000002101240A000D000800A4460434303B4A
:1014B000DBB2092B19D80132D2B2082A10D8002980
:1014C00001D0013D6DB260434000181833780136F9
:1014D000EDE7561C2B2B01D15378961C0027DFE734
:1014E0000029F3D101356DB2F0E7FE2B03D10029BD
:1014F00001D16146EAE7002A14D005F0C7F90021BE
:10150000041C04F045FA002815D0002F02D08023D7
:101510001B06E4180122019B1C60114BF61A009B6C
:10152000013E1E701000FEBD201C0E4904F0CAFDD5
:101530000235041C6DB26B1CF6DB6B1C05D1201C44
:10154000094904F0BFFD041CDFE7002DDDD0201C9D
:10155000064904F0B7FD013D041C6DB2F5E7C04635
:101560009D0300200AD7233CCDCCCC3D0000204178
:1015700070B5FFF7BFF9382200211B481B4D05F05D
:101580004BFA1B4E28223000002105F045FA0022BC
:10159000184B194901200A70190063310A70174964
:1015A00060332A6208701A70FEF734FF2A7F6C7F5E
:1015B00080251349F4735306AD0408692B40114D7F
:1015C0002840802503432D059006284003438020B2
:1015D000920640050240134307220B610B699343B7
:1015E00023430B6170BDC046CC010020A801002040
:1015F0009C010020280200208A020020ED03002028
:1016000000440041FFFFFFE510B50A4C1C220021F9
:10161000094805F001FA210000225E310A7021001C
:10162000230001205C310A7004495D3308701A7090
:1016300010BDC046A801002008020020EE030020D3
:10164000F7B5224C224BA56C666C0190311C281C0E
:101650005F7A04F0C1F900280FD1380005F06EF868
:101660001C4904F02FFD019904F02CFD071C011CFE
:10167000301C04F09DF9002802D0FF202667FEBD33
:10168000391C281C04F0A8F900280CD00026381CAE
:10169000311C04F07DF9002802D000202667EEE717
:1016A00001202567EBE7291C2767381C04F04AFE58
:1016B000216804F007FD03F0B9F8FE21890504F064
:1016C00095F905F0CBF8C0B2D9E7C0462801002053
:1016D000880100200AD7233C70B5154A03005278D0
:1016E000144C081C002A08D1002B07D100232367C3
:1016F000FEF7DEFD00236034E37270BD0E4A102B4E
:1017000010D111690D4D2940116122004C3212781F
:10171000920702D5202B00D10020FFF791FFFEF7A2
:1017200017FEE7E78021156949002943ECE7C04629
:10173000880100202801002000440041FFFEFFFF37
:101740000300F7B50400060000250C330193376849
:101750000021381C04F01CF9002808D1391C381C61
:1017600004F0B0FC011C281C04F040F9051C019B8E
:1017700004369E42EBD1281C02F002FF061C011C1D
:10178000FE20800504F0D2FA051C011C206804F03C
:1017900099FC291C2060606804F094FC291C60609E
:1017A000A06804F08FFCA060301CFEBDF0B5D94BE2
:1017B00093B01B79DB0700D5E8E0D74B1193119B61
:1017C000D64A1B781278D64F0E92934200D1DDE0B4
:1017D000D04BD44D1B7905932B6A002B55D1042295
:1017E000059B13400293059B134200D1C8E02B00D8
:1017F00034245C331B785C43CB4BE4182C626B1DA8
:101800000635EE7F012231001140DB7F0191164247
:1018100000D1BDE00023EB770023FC20C14D800503
:10182000EB63E369191C019304F080FA02232A0098
:10183000059903900598276A19403832184200D15B
:101840000AE1137064690398211C04F03BFC011C3D
:10185000381C04F077FD0021061C04F09FF80028D6
:1018600000D1F5E00199081C04F0C0F8391C04F01F
:1018700029FC011C201C04F065FD02F081FEA86417
:1018800008220599A34B0A431A71A84BA54C1B7853
:10189000616B0C930C9AA64BD2009B18A54AD27F81
:1018A0001A71236A02931B6A181C0A9304F04AFDFA
:1018B00000210D9004F072F8002801D000230D9350
:1018C000636C00260393E36C256C05932300383387
:1018D0001B7805980193236D974C191C0B9304F00A
:1018E00057F8431E9841431C10938E4B0996DA6BB0
:1018F0009B6C07920F930A9B089404930023069312
:10190000019B012B00D117E2032B00D186E1002BB4
:1019100000D1C1E1029B201CD96904F0D3FB291C32
:10192000061C04F03BF8002816D0FC21301C890569
:1019300004F0C8FB011C281C04F004FD211C04F069
:10194000C1FB011C049804F0FDFC0799071C04F07E
:1019500039F8002800D09AE10799049804F0F2FCC5
:10196000011C04F043F8291C041C0F9804F03EF8F5
:10197000011C201C04F0DAF90F9D079F041CD9E11B
:10198000FEF75CFE041E286200D038E713B0F0BDFD
:101990000133DBB2052B00D00193664B019A01990C
:1019A000DA77664B664A039314234B43D218BA6422
:1019B000039A217CD3185A1DD1772268E068D2009F
:1019C0005A616268574DD2009A61A2680827D20016
:1019D000DA61C2001A6204F059FF216AE86204F079
:1019E000A5F9011C2863574804F0A0F90023AB6255
:1019F0000223059A6863134032003A40134322D011
:101A0000A86CBE432864011C04F05CFB06356061D1
:101A1000EE771423019A5343039AD5180023063511
:101A2000EB77494B1B789B0700D4F5E6637C9B065C
:101A300000D4F1E6FE20E16A800504F077F9394E22
:101A400001237065E7E6606902F09AFD2864E0E72B
:101A50000023EE63AB6413E7029B1170EF64002B6D
:101A600053D15E352B780133DBB2102B00D00293BB
:101A7000364B029A1B78934245D0342202992A4B66
:101A80004A439B185B690293029802F079FD079024
:101A9000079B244D2000AB64FEF7E2FD011C06907D
:101AA00004F010FB6369061C191C049303F076FF15
:101AB00000285AD0311C049804F044FC039904F027
:101AC00001FB011C381C04F03DFC0021E8642C00E3
:101AD00003F06EFF383400283AD0022301992370B6
:101AE000081C03F083FF391C04F0ECFA011C049875
:101AF00004F028FC02F044FD0823A8640635EA7FC0
:101B00001343EB77BCE60023BDE700230793029362
:101B1000BEE7C046880100208A020020ED030020B5
:101B2000A8030020A8010020340400208B0200201C
:101B30008C020020AD0100203EC32E39A8020020F7
:101B4000BC0200200000A03F74010020040200201D
:101B50000299301C04F0F6FB039904F0B3FA069BDB
:101B600028656B64032323708AE60299049804F0C5
:101B7000E9FB039904F0A6FA391C03F037FFFC21B6
:101B8000890504F09FFA0021041C03F01BFF0028C4
:101B90003FD0391C201C03F001FF002836D00299E9
:101BA000301C04F0CFFB039904F08CFA011C28656B
:101BB000201C03F007FF002818D0069B04996B64D3
:101BC000301C03F0E5FE002803D0012338352B70CC
:101BD00056E60499301C04F0B5FB039904F072FA40
:101BE000011C381C04F0AEFBE86449E60199EC6482
:101BF000081C2C6503F0FAFE211C04F063FA02991C
:101C000003F0F4FE02F0BCFC686439E602233835C8
:101C1000DDE70023EB64079B6B6431E6029B201C2D
:101C2000D96904F04FFA0399061C281C04F08AFBBA
:101C3000011C301C03F0D0FE002817D005990A982B
:101C400004F080FB011C03F0D1FE291C041C039846
:101C500003F0CCFE0126011C201C04F067F83300C1
:101C6000039D059F041C0996019347E0FC21301C4D
:101C7000890504F027FA011C281C04F063FB211CD1
:101C800004F020FA011C049804F05CFB071C311CD2
:101C9000281C04F057FB4CE0029B201CD96904F07F
:101CA00011FAFC218905061C04F00CFA291C03F02A
:101CB0009DFE211C04F006FA011C049804F042FB6E
:101CC000071C011C059803F07DFE00282DD0059906
:101CD0000A9804F037FB011C03F088FE291C041C41
:101CE000039803F083FE011C201C04F01FF801265A
:101CF000109B039D059F041C019309960698211CC7
:101D000003F074FE0899069003F048FE00282ED0D8
:101D10000699089804F016FB391C041C079803F078
:101D20003DFE002829D00497EAE5311C281C03F069
:101D30005DFE051C0126E1E70399201C04F0C2F9B1
:101D4000011C049804F0FEFA0B99071C03F026FE10
:101D50000028D3D00B99049804F0F4FA039903F007
:101D6000E5FF01230B9F0993041CDB187CE70D9909
:101D7000381C03F027FE002859D1724B002E00D0EA
:101D80001D64099A002A02D0019A38331A7008207B
:101D90006D4B6E499B6C5A7C6D4B1B790340134312
:101DA0001ED0029B5C7C3023200018401C4245D092
:101DB000029B1C6B002A09D0624B596D186C04F011
:101DC00081F9011C201C04F07DF9041C201CFFF784
:101DD00037FC08215F4B5E4A187013798B431371EF
:101DE0000C9B5C4ADB0004935B4D1278554CEB185E
:101DF0009A71216B381C04F065F9039002F006FC1F
:101E00000190E06A02F002FC0199041C04F09AFAC5
:101E100004F024FD049B86B25E53002E11D14C4A7F
:101E200011798B070DD501230B431371AEE54B4997
:101E3000089803F0DBFD069908906BE700230B6719
:101E4000C7E7404B0698996A03F0D0FD0399051C3B
:101E5000201C04F077FA011C281C03F067FF40499E
:101E6000041C04F02FF902F0D1FB04F0F7FC0C9AEB
:101E70003C4BD200984232D80021374B9B18597105
:101E800080B20E9B0133DBB2062B00D10023324916
:101E90002C4D8A1850800E99334A1170334A039999
:101EA0001370029B1F62019BEB62181C04F04AFA3C
:101EB000211C04F007F9391CA862079803F068FD9B
:101EC000002800D17BE4224E0021381C347903F035
:101ED00079FD002818D001232343337156E52449A6
:101EE0000123884204D9234B83429B415B42023346
:101EF00019499E408D18D8406B7180238E525B0229
:101F00009842BDD31C48BCE704222300134014426E
:101F1000E1D12A005E3211782A005C3212782B62FD
:101F20008A4200D14BE44A1CD2B2102A00D01300DE
:101F30002A005D321078884200D113705E352B7014
:101F40003DE4C046A8010020A8030020280100208D
:101F500088010020000200208C0200203EC32E39A0
:101F600050A92B4F6F1700008B020020ED030020BB
:101F7000DF2E0000BF5D0000FFFF0000F0B5C04B8A
:101F800091B00193BF4BC04F1B78DCB2002B16D031
:101F90003B0001226033BD481A70FEF70FFF20009E
:101FA000FEF71EFFFEF715FFFA20013C4000FEF78A
:101FB00093FC012C17D90022019B61331A70019BFD
:101FC0004C331B78DAB20292002B00D1B2E210221D
:101FD000029B0299134003930123114215D06037ED
:101FE0007B7011B0F0BDAA48FEF7E8FEA948FEF7E5
:101FF000E5FEFEF7D7FF1021019B4C331A788A4388
:102000001A701A780A42FCD0D5E7029A1A40059253
:10201000029A1A4200D1BCE007A90A009E4B31CBBC
:1020200031C23C001000FEF7ADFB60343C20FEF7EF
:10203000A7FE2078102812D804F006FC05011E0126
:1020400020011A001C011A001A001A0009011A00C6
:102050001A001A001A001A001A001A000B01402870
:1020600000D141E1802800D14CE1202800D1FFE0DF
:102070003B0038331A7801231100194004911A42A9
:1020800000D141E13B0060331B7B002B00D13BE1E1
:102090008248FEF793FE0AA8FEF78BFF3B00383319
:1020A0001B789B071FD57E48FEF788FE7D4B7E4A36
:1020B0001B781078834200D24FE10F30C01AC0B2B3
:1020C000FEF78EFE2C20FEF75BFE784B784A1978DF
:1020D0001278CBB2D0B2914200D240E18038C01A1F
:1020E000C0B2FEF77DFE7348FEF768FE3B0060332A
:1020F0001A787C2300201A4201D06F4B186CFEF72F
:102100003DFF2C20FEF73CFE0021386FFEF7AEFEAF
:10211000FEF71AFB694D04002B6A2B6A684B1E7888
:1021200003003343DBB2002B18D06648FEF746FEAF
:10213000002E02D05020FEF723FE002C0ED0E30725
:1021400002D55820FEF71CFEA30702D55920FEF742
:1021500017FE640702D55A20FEF712FE3A006032DD
:10216000137B002B00D1FCE0013B13733B00603379
:10217000DC7A002C00D109E1013CDC723E20FEF744
:10218000FFFDFEF726FE0121019A4C3213788B43A6
:1021900013701723029A9A4300D16DE13D006B46FC
:1021A000082660352C789E57A30700D04FE12823DE
:1021B0001C4200D12CE1AB7803933F2B0BD8FEF7E8
:1021C00059F902232B71202C05D1002E03DB039A31
:1021D000823B1343AB704023029A1A4206D0A206F8
:1021E00004D43A00603291780B439370029B1B0732
:1021F00005D51F2C03D83B00102260331A70029BB8
:102200009B0600D423E12248FEF7D8FD2E48FEF7B6
:10221000D5FDFEF7C7FE3B000221603359569A7880
:10222000002900DA0DE11978402900D006E11107F4
:1022300004D51C218A431A390A439A703B00402274
:1022400060331A70FDE02148FEF7B8FD10E7204822
:10225000FAE73C006034A3787F2B09D81D48FEF7CD
:10226000ADFDA378DB074BD53020FEF789FDFFE6F7
:102270001948E9E71948E7E71948E5E71948E3E7A6
:10228000280200208902002028010020067D00008D
:102290000D7D0000137D000024020020557D00000C
:1022A000637D000004020020060200209B03002042
:1022B0009C030020687D0000A8010020004400412C
:1022C000210300206D7D0000817D0000257D000040
:1022D0002A7D00002E7D0000347D0000387D000046
:1022E0003D7D0000437D00004C48FEF767FDA3786C
:1022F00033201A07B9D432205A07B6D59B06B3D576
:102300003120B2E746489FE7019C0DAD08340AAE84
:10231000616BA06A03F06AFB039B011C2860022B1F
:1023200004D1404B986C03F061FB0F90049B002B91
:1023300004D13068296804F005F83060039B043448
:102340000133DBB2039304350436032BE0D1049B45
:10235000002B00D09CE634489BE60138AEE60138FD
:10236000BDE67C2311780922194200D014323B00CB
:1023700060331A73DA7A002A01D10132DA722B48FB
:10238000FEF71CFD0DA8FEF714FEEFE67C2219787F
:102390000923114200D00A333E0025486036F3720B
:1023A000FEF70CFDF079FEF71BFD2C20FEF7E8FC94
:1023B000307AFEF715FD2C20FEF7E2FC707AFEF76E
:1023C0000FFD1C4B1A6802231A4204D02A69059C8F
:1023D000D20500D51C0080232D699B021D402B00D7
:1023E0005A1E93419B01234300D1C7E61248FEF7D2
:1023F000E5FC002C05D05320012C00D04320FEF733
:10240000BFFC002D00D1B9E64620FEF7B9FCB5E6C9
:10241000002C00D0DFE60123DCE6C046497D000049
:102420004F7D0000280200205C7D0000727D0000CE
:10243000787D0000002000427D7D0000802900D0D2
:10244000FCE63A002023603291780B439370002E13
:102450000CDA3B0060331A78012A03D199780432F0
:102460000A439A703B00802260331A701721019A48
:102470004C3213780B401370029B9B072DD56823B9
:10248000029A1A4223D1390060310B78402B09D1CE
:102490008B78202218001040134203D1DA0600D4B2
:1024A000F2E008703B0060331A78002A00D1F2E0B5
:1024B000D1060CD59978C90709D5102A00D0EAE0D1
:1024C000997A002900D1E6E0083A0A439A7202217B
:1024D000019A4C3213788B431370029B5B0729D50A
:1024E0003C0002222F2160342378A2568B4300D176
:1024F000EDE0E378002B00D0E9E0002A00DAE8E024
:10250000FDF7B8FFAA4AAB4B12781A70FDF7C6FF69
:1025100023799A0703D50122A1780A43A2703A00D1
:10252000062160328B4313710421019A4C321378D7
:102530008B431370019A4D321178C8B2002951D0E3
:10254000002313703B006033D9796423C20700D4A1
:102550000B00820701D50A33DBB2420701D50A3BE3
:10256000DBB2020701D50133DBB2C20601D5013B64
:10257000DBB21A1CC82B01D98F4B1A78D3B20A2BA5
:1025800000D20A223B00603364241D7AD2B2830653
:1025900000D42C00430600D5322440B2002800DAD3
:1025A0001924914201D1AC421CD03B006033DA7156
:1025B00000221C72DA727E4B804E1B780293804B95
:1025C000029C1B7804937F4B0393049B9C4200D096
:1025D0009EE07D4CA667FDF74DFF029B5D342370A6
:1025E000FDF75CFF019B794D4E331A78D4B2002A77
:1025F00000D1D6E000221A702B006033597A642390
:10260000E20700D40B00A20701D50A33DBB2620750
:1026100001D50A3BDBB2220701D50133DBB2E2066A
:1026200001D5013BDBB21A1CC82B01D9624B1A78C9
:10263000131CD2B20A2A00D20A23DAB291420FD076
:102640002A00603211785372002900D086E0019B85
:10265000587C5969FFF740F82B0000226033DA728A
:10266000290060310B78A20600D498E0102B00D02E
:1026700095E08A7A002A00D089E00E3B8B723F2CCD
:1026800076D8FFF793F8ACE45A0700D40AE708229B
:1026900013438B7006E73C00002360342371FDF781
:1026A000CDFF00280DD0A2784023110019401A4216
:1026B00007D1383BA1702370FFF778F8FDF780FE53
:1026C00005E73B00002260339A701A70FFE6002A8B
:1026D0000BDA3B00002260331A71FEF795FFFEF71C
:1026E00047FFFEF761F8FDF7F3FF380060308378AD
:1026F00020211A000A400B4207D07F2213407E3A65
:1027000013438370402303700EE7827002700BE75F
:1027100034206043039BC018FDF7A2FF311C051C49
:1027200003F050F9002816D0311C301C342603F079
:10273000C9FC6643039B9E19776AB061391C03F09C
:1027400041F9002800D0B7610134E4B2102C00D167
:1027500000242E1C39E7291C281CE7E708231179DF
:102760000B43137178E7002B02D03822134218D0A4
:1027700040221400019B1B7C1C43134201D0934355
:102780001C002000FDF7FEFD114B1C7409E0D3076F
:1027900002D5042313438B723F2CE9D801E03F2C70
:1027A000E1D860352B78032B01D8FFF71AFC68E7D6
:1027B0000602002005020020B87E00009976967E71
:1027C0000402002034040020A80100202801002079
:1027D00028020020F8B50D000F4903F073FC01F04A
:1027E00015FF04F03BF8022784B2002C13D00B4EE7
:1027F0007378002B0FD1002D08D100F013F80020C2
:102800000749013CFEF726F8A4B2EEE7FFF7B6FB56
:10281000B3783B42F3D0F8BD0000A041880100200E
:1028200000004940F0B585B0FFF7A8FB7B4B7C4D1D
:102830009B78002B5CD0FDF701FF002834D1794B49
:10284000597C1A7C5B691143019102932B004C3334
:102850001B789B0702D52020FDF7E2FF2C00603497
:10286000A378002B44D06678002E41D10122134278
:1028700017D022783F2A00D883E004271900394076
:1028800003913B421CD10B00A17218000021FEF7FE
:1028900023FF0398FDF776FD0222A37893433B4381
:1028A000A370FFF76BFBD9E730215F4B427C1B69BC
:1028B0000A409B03DB0F9B0113430193036BC4E7A7
:1028C000802A1AD15948FEF779FA5948FEF776FA64
:1028D000FEF768FB00213000FEF7FEFE3000FDF73A
:1028E00051FDFEF707F82B0060335B78002B01D019
:1028F00005B0F0BDFFF742FBF5E7402A02D1203AD0
:102900009343A3702A000823603290781842C8D0FD
:10291000444C617C00290AD00221084207D12800DA
:102920004C300078084220D011790B431371237C7E
:10293000002B0ED02B0060339B789B0709D43F23DC
:1029400001989843FDF71EFDFE2001218005FFF749
:1029500041FF2A000220603291780142A1D1102368
:102960000B439370FDF744FF9BE73020019B0299D6
:102970001840FEF7B1FE81200121C005FFF72AFFB4
:10298000D5E7A37A002B3AD002273B420AD0254B49
:102990005B7C002B27D000213000FEF79DFE012339
:1029A000A3727EE70C22134200D17AE71D4B5B7CB9
:1029B000002B10D01D48FEF701FA1E48FEF7FEF965
:1029C000FEF7F0FA2B004C331B783B4210D0082363
:1029D0002279134323712B0060339B7A1B0702D5A6
:1029E0000220FDF705FF2B00002260339A7258E7A2
:1029F0003020019B02991840FEF76EFEEBE7082697
:102A00002379334200D14CE73020019B02991840D2
:102A1000FEF762FE2379B343237142E78801002069
:102A20002801002028020020004400410D7D000004
:102A30008C7D0000957D000010B5FDF7E1FE074C90
:102A4000FFF7F0FE6378002B06D1FDF7F7FD0028B5
:102A5000F6D12378082BF3D010BDC04688010020A2
:102A600070B55124C02344430A4E9B00E418502201
:102A700021003000FEF7DAFC05000120002D08D10E
:102A80003570FFF7D9FF200050223100FEF7A7FC78
:102A9000280070BD9D030020064B70B51B78040014
:102AA0000D1C022B05D0FFF7C7FF2000291CFEF7E5
:102AB00013FE70BD8801002070B505000C00FFF703
:102AC000BBFF0D20802368439B000C222100C0180F
:102AD000FEF785FC70BD30B5040085B0C30706D590
:102AE0005C221A491A4803F0F1FFFEF792FCA30793
:102AF0000DD50C22002101A803F08EFF002528002F
:102B0000013501A9EDB2FFF7D7FF082DF7D1630713
:102B100010D5C02000218000FEF70FFC00210D48D9
:102B2000FEF70BFC00210C48FEF707FC00210B48C8
:102B3000FEF703FC240707D500210948FEF7FDFB3B
:102B400000210848FEF7F9FB05B030BD0C78000005
:102B50002C0100200103000051030000520300007B
:102B6000AE030000AF03000070B50D000D218023FF
:102B700041439B0006000C222800C918FEF756FCB2
:102B800004000120002C09D10C222100280003F0B0
:102B900043FF30002900FFF78FFF200070BD10B504
:102BA000FFF74AFF0022014B1A7310BD8801002075
:102BB000F0B5A14B95B01B78342204911900514314
:102BC0009E4E06908E193000002101939C4C03F01C
:102BD00023FF0222049B1B7A02937374049B0299C5
:102BE0005B683363029B134003930BAB114200D12C
:102BF000BCE07C3423CC23C3002434232700019A77
:102C0000534307938F4BE3580593069B0598195937
:102C100003F058FA01F04CFC34210EABE0500BAB42
:102C2000E358019DC01AC3176943C2185A40834B29
:102C300032515918CD68954200D21500079A9B1859
:102C4000DD6003F07BFD059903F070F808AB00210F
:102C5000E05002F0A3FE00280ED00122002F03D086
:102C60009218012F00D0023234210198734B414356
:102C70005B18197C0A431A740137FFB20434032F1E
:102C8000C0D1002085426FD0342408A8FEF758FD3B
:102C9000019B6A4F5C436C4B3C19206208A9051CE0
:102CA0006A480593FDF722FDE061059808A91030F8
:102CB000FDF71CFD029BA062DB0707D4049B18688C
:102CC000029B1B0702D5291C03F0FCF93423019A4F
:102CD0005F495A43BA18D062097801980024584ACB
:102CE000814202D00399002942D0019A5343FB1834
:102CF0005C615C62039B002B35D13000FDF7B0FCBA
:102D00004F4C051CA66F011C301C02F047FE00282A
:102D100000D18DE0311C301C342603F0D3F9019B27
:102D20005E43BE19776AB061391C02F04BFE002881
:102D300000D0B7612300A56708AA6C3323CA23C358
:102D400023000EAA603323CA23C3424B5C341B7892
:102D5000414A23700133DBB2102B00D100234632ED
:102D60001370FDF79BFB012015B0F0BD603441E707
:102D70006032039D0492049BEB18DB68029308AB5E
:102D8000EB580298191C039303F09CF9011C201CBA
:102D900003F0D8FA0299041C039803F0D3FA242212
:102DA00008AB9B18585104350C2DE4D12B49201C3D
:102DB00002F008FE002832D12949201C02F0EEFD65
:102DC000002833D111A8FEF7BBFC059811A91C30CF
:102DD000FDF78CFC051CFE20211C800503F0B2FAD7
:102DE000FC21890503F06EF901F0CAFB059B041C68
:102DF000D96B281C03F066F9211C03F063F9051C4C
:102E0000FE20211C800503F09DFA011C281C02F005
:102E10008DFF0021041C02F0C1FD002800D0002419
:102E20003423019A5343FB185C6266E70D4CF7E7C5
:102E3000291C281C70E7C04604020020340400202E
:102E4000A80100202C0100202801002044010020BE
:102E500006020020EE030020A8030020EFFF7F3FC2
:102E6000EFFF7FBF9976967EF7B5284C019023003F
:102E70004C33274E1B780D0037789B0610D5202F3A
:102E800013D0FDF79BFC00280AD00123F370082F14
:102E90001FD0FDF76BFD02221E4B1A70FFF7C2FC1C
:102EA000230060331B78022B12D0FFF7BBFC2300FA
:102EB00060335B78002B0BD1174A184B12781B78C4
:102EC0009A4214D029000198FFF772FE002811D011
:102ED000F7BD3800FDF78CFCFFF7A4FC230060333E
:102EE0005A78002ADCD11B78002BF5D1D1E7FDF709
:102EF00087FCDAE74C3423789B07E9D510202B7A3E
:102F00000342E5D06968FFF7C7FDE1E7280100202B
:102F1000880100208902002006020020EE03002024
:102F2000F0B5884B91B00293874B04905C78002CED
:102F300000D0B7E00DAD28000C22210003F06CFD9D
:102F400006232B72029B002704331E0001250193E8
:102F50002B00002C03D00223012C00D0DB1809AA7F
:102F60001355049B23412B420AD07849706A03F021
:102F7000A9F8391C039002F011FD002800D1039F2D
:102F800001340436032CE3D1029B023C5B6D0593B4
:102F9000042302936E4B0AA819000693FDF7F2FB77
:102FA00000206C4B05001B7807930300049A012155
:102FB0001A410A4219D0079A40181A41C0B2039721
:102FC0000A4206D0002C06D080221206BA180392BC
:102FD00001E0002CF8D00022069E99007250039E5A
:102FE0000AAA8E5009AA9A5C15430133032BDDD13E
:102FF00003F04CFC01F0C4FA534F011CBD7105985D
:1030000003F060F80DA90D900AA8FFF7D1FD042385
:103010003B71FEF7CBFBFDF7D3F9002C11D0FDF788
:1030200093FB002309A95A5C154205D0060001272D
:103030001E413E4200D095430133032BF3D1424B56
:103040009D71FEF7B3FB3421434B444E1A780A427C
:1030500000D16BE01A78D3B2D20603D532002E39F4
:10306000613211709A0603D5320007216132117066
:10307000002C05D05B070CD533000922613307E033
:10308000FDF762FB049B034203D033000822613347
:103090001A70330061331B78002B05D0FDF766FCF6
:1030A000FFF7C0FB11B0F0BD04224C3633789343D8
:1030B0003370FEF75DFA2A4B224D1888FDF70CFCA1
:1030C00001235C4036D02749E86D02F0FBFF2B6DF1
:1030D000071C0593029B013BDBB20293002B00D03F
:1030E00058E71C000126049B2341334214D0019B66
:1030F000E86D1F682B004D331B78234133421CD0F1
:10310000019B596A02F072FC391C02F0DBFF01F0EE
:10311000CFF90F4BA200D050019B0134043301932F
:10312000032CE0D1002360352B71BBE76B0700D087
:1031300073E7BEE7EF6D6B6DCBE780231B06C0180E
:10314000E2E7C04628010020880100200000C0BF3F
:1031500024020020750100207402002028020020B3
:10316000800100200000A040F0B59B4D9B4C99B021
:1031700040220021280003F04FFC20000B22984938
:103180004D3003F0A3FC974B1A7800230393242AB5
:1031900004D1233AAB706A7003330392002710AA5C
:1031A000D370904B0797089702970497059324E1F3
:1031B000019A413A192A01D901F0B4F810AA013351
:1031C00011A9D01CD370FEF75FF9002801D101F0DE
:1031D000ACF8119D281C01F0B1FB03F03FFBC4B219
:1031E000200003F0ABFA011C281C03F0ABF87E4969
:1031F00002F068FF01F0E6F903F030FB019A83B2B8
:10320000472A1DD04D2A00D133E1019846381428B1
:103210006DD803F019FB69016C006C0084018B010F
:103220008F0197016C009B016C00A2016C00A6014C
:10323000AA01AE016C006C006C00BA01C201CA01A7
:103240003D2C56D8252C21D81E2C50D8092C3BD8E3
:10325000032C4AD8049A002A01D001F069F80232FE
:1032600004925D4E01257470262C7AD11A00143A0E
:1032700092B21E2A3BD85D49D140294237D00A215B
:10328000180003F08DFC763870705FE0200026385F
:1032900017282CD803F0CEFADEFF2B009E002B005F
:1032A0002B0083002B002B002B002B002B00830016
:1032B0002B002B002B0047009500950095009500F2
:1032C000950095002B009A0020000A3814280ED88B
:1032D00003F0A6FA200D0D0D0D0D0D4343435F5F66
:1032E0000D0D0D0D0D0D200D2000042C1BD01423F1
:1032F0003AE020005038C2B20E2AF8D80E28F6D88C
:1033000003F084FAAFF5F5F5F5F5F5F5F5F5343498
:1033100008414100002B06D1049A002A01D001F097
:1033200007F8013204922C4920000C7002212B4A2C
:1033300088431C2802D000255C2C12D1002B01D020
:103340000A2BD4D100254C32E3181370079A0123BD
:103350002A411A424CD0152306E002251E4A113C90
:103360005471002BF2D0172301937BE3002B04D17F
:10337000194B5A3C03251C71E8E70A2BB7D15A2C8C
:10338000B5D00425E2E75E21134A091B052591709B
:10339000E7E71521104A091B0625D170E1E7049AD9
:1033A000002A01D000F0C4FF312C03D00A2B9ED19B
:1033B00001230493084B049A08259A71032304936C
:1033C000C4E7054A363C0925D471CAE7002B8ED1E3
:1033D0000A25BBE70725C4E7F4030020A803002063
:1033E000300200209D0300200000C842010410406C
:1033F000AB40079A1A4393B2079310ABDB78059A58
:10340000D25C0192002A00D0D2E6029B002B04D0AD
:10341000049B002B01D102330493BB0606D5B44BA9
:10342000B44ADB6E934201DD00F08EFF039B002B5C
:1034300000D1C2E0FB0700D4D2E0AF4BAC4CDB784C
:10344000012B04D1A06DAD4902F03CFEA065A84B54
:10345000FA0502D4AA4A52699A671A004C321278C5
:10346000042A00D0CAE03C32174200D0C5E01C2339
:103470007AE7002B00D076E7092C12D8072C27D842
:10348000022C14D9E31E022B00D930E72023042C90
:1034900003D0631F5A1E93411B01974A93720C225B
:1034A0000AE01E2C00D022E7934B1C7203E0002C94
:1034B0000AD0012CF8D10B2207990123114119429E
:1034C00000D048E7934094E703228B4B1A72F2E74F
:1034D000874A092C04D013004C33597A40230B43FC
:1034E0004C3253720D22E7E70024814B9D653B006F
:1034F00001222341134201D000F020FF814B2341E0
:10350000134207D00021281C02F048FA002801D0FD
:1035100000F017FF0123A3401F43BFB26DE7012452
:10352000734BDD65089B23430893E0E7704B02244F
:103530001D66F7E76E4B089A5D6604231A43032461
:103540000892D4E76C4B1C770424D0E7281C03F0C6
:10355000D5F8674CE0660524C9E7654B06241D676E
:10356000C5E7634B07245D67C1E7614B08249D678E
:10357000BDE76549281C02F025FA002801D000F0BB
:10358000DAFE624B1C700924B1E7614B029ADD67D9
:1035900001231A430A240292A9E75E4B029ADD67CF
:1035A00002231A430B240292A1E75B4B029A1D608F
:1035B00004231A430C24029299E74F4A4C4993780A
:1035C000012B0FD10499022900D040E75278502AEC
:1035D00000D13CE7002A00D139E71F4200D036E78E
:1035E0001623C1E6464B5A7A002A00D02FE7FA0785
:1035F00000D522E79B698B6529E797434C335B79BC
:103600000593002B08D0012B48D000230D930233E3
:103610000993013B059303E002230D93013B0993BA
:10362000354CE678012E3FD0049B032B08D1324B5A
:103630009B79012B04D1029B042B01D000F087FE63
:1036400012A90800354B2E4A70CB70C0079B9B0512
:1036500039D4294C264B227806920A2A42D05C2A79
:1036600000D1BBE0049B032B00D0E2E0069B204985
:103670001E2B00D118E1352B00D128E11C2B00D0E6
:10368000D1E006205C31FFF76FFA002828D0029BBA
:10369000002B00D00BE10A9304938BE0059B0D9364
:1036A000002309930233B5E70025029B2B413342E7
:1036B00004D0606B114902F005FD606301350434EC
:1036C000032DF2D1B0E70C4BD879062801D91D2380
:1036D0004AE6937B8342BCD0FFF746FA0028B8D174
:1036E000072341E6029A002A1AD11A233CE6C04673
:1036F000A803002080969800F40300203333CB41C8
:10370000280200206103000000007F432404002001
:10371000AC030020B0030020300400205802002039
:103720005022174200D1A2E6186F01F007F903F00A
:1037300095F8C0B20628CAD8237F142B05D0022BD7
:1037400000D0D4E53B0600D5D1E5C84900283ED0DD
:103750000138C3B20C000A930A985C314C34FFF76D
:1037600003FA0028BCD00025237FC14E0B93029B97
:1037700001222B41134216D0636B06930B9B142B33
:1037800029D1716BF06902F0DDFD069902F0DAFDD6
:103790002061022D07D1B54B0693B64B996C02F010
:1037A000D1FD069B5866013504340436032DDED165
:1037B00050239F43B04AAD4B52780692502A00D016
:1037C0008BE0029B002B00D1F3E01F23CCE50B0024
:1037D0004C33DB79BEE7069B2361E4E7029B002BB9
:1037E00083D00025A24E029B01222B4113421DD003
:1037F000082110AAAB005218D158F06902F0A2FDBE
:10380000616B02F09FFD6063022D07D19B4B069315
:10381000984B996C02F096FD069B186001350436B2
:103820000434032DDFD100230A93C3E7736B636372
:10383000F4E7029B002B00D118E700258C4E029B79
:1038400001222B41134207D1F3696363013504362A
:103850000434032DF3D109E7069B352BF6D0636BB7
:103860000A93824B0B93844B1B79002B16D1AB0030
:1038700012AA716B985802F0B9F80A9902F0B6F8DA
:10388000011C6063022DE1D10B9B88330A93794BB5
:10389000986C02F0ABF80A9B1860D7E70A99F069B8
:1038A00002F0A4F86063D1E707205C31EBE6002367
:1038B00001206F49704A029C1C41044201D1CC692D
:1038C0001461013304310432032BF4D1ABE74C31E2
:1038D0004B78012BA7D91E2346E5049A022A68D10A
:1038E000069A002A05D1029B5A1E93415B0004935D
:1038F0005FE00021986D02F04BF8002800D06FE6E1
:10390000069B032B06D04FD8012BECD00423039A3F
:103910001A430392029B002B00D1E6E601231A0012
:1039200005998A4009998B401A43029B15001A4257
:1039300001D100F00FFD059B059A4C4C4D4E0C3308
:1039400006329B009200E318B218D168186D02F09D
:10395000F9FC099B099A0C3306329B009200E3188C
:10396000B218D1680B90186D02F0ECFC80233A007D
:103970000C901A401F4200D1FAE0300025000C22C2
:10398000E11824304C3503F0E7F8002800D07DE042
:103990002123E9E406988D38022800D95FE102F07E
:1039A00053FF5A015E015A01069B7433DBB2032BAD
:1039B000F0D90123039C039A1C401A4200D164E110
:1039C000390020339943049B002B01D02C4B194024
:1039D000002901D000F0C7FC15AE0C22300003F026
:1039E0001BF8002C00D153E14923079A9A4301D0D8
:1039F00000F0BCFC204B1D4D1B78352B03D0002B59
:103A000001D000F0B3FC1B4C1E4F63697360237C34
:103A1000627C1A43AB6D15930423134333721A4B24
:103A20001B789B0607D528008030FCF7C7FE0028CE
:103A300001D000F09EFC2800310080306037FFF795
:103A400013FA3B78002B09D1FCF7F8FD002805D0CC
:103A500020233B70FDF7AAFEFCF7B2FC243480352E
:103A60000ECD0EC4019819B0F0BDC046A8030020C9
:103A70003002002028020020F4030020300400203F
:103A8000FFE3FFFF2801002074010020EB78012BE9
:103A900004D1606F894902F015FB60670B99884B70
:103AA000081C5C6F02F00EFB0C99061C081C02F04F
:103AB00009FB81210890C905201C02F003FB211C91
:103AC00002F000FB311C02F03DFC089902F03AFCC8
:103AD0000021051C01F062FF002801D000F03DFC30
:103AE000281C00F04DFD0899051C301C01F07EFFDC
:103AF00000F046FD80231B06011CE81802F016F9B1
:103B0000069B051C032B02D180231B06C518002130
:103B1000201C01F043FF002805D08022684B1206CC
:103B2000A418AD185C6780239F43059B291C0C9843
:103B30009C1C02F0C7FA011C0B9802F003FCFC214C
:103B4000890502F0BFFA5E4EA400099B3419606536
:103B5000291C0B989C1C02F0B5FA0C9901F046FF49
:103B6000FC21890502F0AEFAA4003419606520E753
:103B7000089B2B4200D1F3E30E234C34E6789F439D
:103B8000012E59D0059B4E4A02339B00D3181600D4
:103B90005B6D0B98191C089302F0D4FB099B051C64
:103BA00002339B00F3185B6D0C98191C0B9302F009
:103BB000C9FB291C041C281C02F084FA211C051CCA
:103BC000201C02F07FFA011C281C01F00FFF00F0FE
:103BD000D7FC0899041C081C02F074FA0B99051C08
:103BE000081C02F06FFA011C281C01F0FFFE00F017
:103BF000C7FC011C7067051C201C02F0A3FB4400DD
:103C000064083049201C01F0DDFE002800D1D0E618
:103C1000FC21201C890501F0D5FE002800D0B7E664
:103C20002949281C02F04EFA011C201C01F0CAFE92
:103C3000002800D1BDE6ABE61500089B2B413342BE
:103C400004D020691D4902F03DFA20610135043499
:103C5000032DF2D196E71023039A1A430392069B91
:103C60007233DBB2012B03D80823039A1A43039261
:103C7000029B002B00D138E50C221449144802F0B5
:103C80006BFF002800D094E682E6124939409AE69C
:103C9000114B1B789B0733D5069B013B022B03D9A5
:103CA0004023039A1A430392029B002B16D0049BD5
:103CB000022B13D17E33039A20E0C0463333CB412D
:103CC000A80300200AD7A33B6F12833A28040020E0
:103CD0004C020020DEFCFFFF740100209E4A537C52
:103CE000102B0DD1127A03993033013A0B40022A7E
:103CF00000D9E1E0002B03D020230A001A430392ED
:103D0000964A954BD16E196211004C3189785972DF
:103D1000002902D0082115AB1972936D946F079397
:103D200007998D4B159199615869211C01F030FE5E
:103D3000002802D0039B9B0613D5874B587C002894
:103D40000BD06B461B7B5BB2002B06DB039B002179
:103D50005B0600D4211CFEF79FFE804A7E4B926FCB
:103D60005A61039B5B0602D47B4B5B6916937C4BC9
:103D7000794C1B787B4D2377A87A637C834204D0EF
:103D80001699FEF789FEAB7A6374734B15AA147A01
:103D9000597C0C431472734A1B7C557AAB420CD08D
:103DA000714B1B78022B04D0FEF746FE2800FCF76F
:103DB000E9FA6C4A684B527A1A74674B694A1B7C61
:103DC00012781C4315AB1C72644B042A0AD1664A54
:103DD0001278022A06D01D6FFEF72EFE0021281C45
:103DE000FEF7F8FC5F495C4A48795C4B1073C87871
:103DF00090720498032813D189795173002903D153
:103E00001A0000218832116088331E68524D311C1F
:103E1000A86C01F0BDFD002802D1AE64FEF7BFFE24
:103E2000504BDA794C4B997B914206D09A7312AA87
:103E3000303323CA23C3FEF7B2FE4A4A464D1179F6
:103E40001278464BE972262A69D03AD8022110002E
:103E500088431C284FD00A2A3DD0404B3E4C069345
:103E6000404B5B782372502B0CD0049A022A09D164
:103E7000012B65D13D4815A9FEF7F6FF3C4B3B4AA7
:103E800013CA13C3374B344C1B7AE373002B00D196
:103E9000E8E5FEF7D1FDE27B364B032A00D017E2BE
:103EA00060331B78022B04D00820FCF7A1FCFEF73E
:103EB000B9FC0023E373D5E5002B00D020E72033C5
:103EC000F9E65C2A31D0662A33D0282AC5D12900E8
:103ED0000720243126E05C3319000A981C00FEF705
:103EE000EBFDAB7B0A9A30359342B6D10ECC0EC5B2
:103EF000FEF755FEB1E7012215A922430A72049A82
:103F0000002A03D080331800FEF7AEFF1A4C15A923
:103F10002000FEF7A9FF164B07CC07C39DE7290039
:103F200006202431FEF7C8FD97E780331C003C359E
:103F3000DCE728000C2200213C3002F06DFDD7E7C1
:103F400015AE002B1AD1327A069801331343310093
:103F50003372803090E7C04628020020A80300207A
:103F600024040020F40300208801002028040020FD
:103F70004C0200202801002004040020023B012BF9
:103F800000D94FE1069B069E5B6F24340893059B86
:103F90005C369F00E3190E93F3190F931B6802938D
:103FA000E3191968029801F021FD099B0A909D0010
:103FB0006319099373191C680B93099B201C1968DA
:103FC00001F014FD802212069446029B0A99634474
:103FD0000293A3180493069B0C90DF190437F86F23
:103FE00002F0B0F9069B0C995D190435041CE86FCA
:103FF00002F0A8F9211C051C029802F063F8291CA4
:10400000061C049802F05EF8011C301C01F0EEFC66
:10401000291C061C029802F055F8211C051C049866
:1040200002F050F8011C281C02F08CF9311C00F041
:10403000C5FA039B061C5B0700D4B4E0CE4901F02F
:10404000CBFC002804D0CD49301C02F07BF9061CC3
:10405000CB4B08991C6C081C01F0C8FC211C02F019
:1040600071F9211C02F02EF800F08AFAFC21041CE0
:104070008905301C02F026F8089902F023F8400068
:10408000211C400801F052FE00F0D0FB02F0E6FBDC
:1040900083B20593002B00D1ECE610AB05981D7F91
:1040A000082702F04BFB041C3D4207D0011C079877
:1040B00002F008F8BD4310AB15901D77211C301C91
:1040C00001F034FE0D9BAF4AAF4E9B00F6189B18D3
:1040D00031680390D86F02F035F9211C01F026FEFB
:1040E00003990D90081C01F0EDFF011C8020C00514
:1040F00002F028F9A549041C039801F0E3FF81218F
:10410000051CC905201C01F071FC011C281C01F0D4
:10411000D9FFFC2106908905201C01F0D3FF002463
:1041200001270790059ABBB29A4200D8A2E60C2C50
:1041300044D00299069801F0C5FF0499051C079820
:1041400001F0C0FF011C281C01F050FC0299051C65
:10415000079801F0B7FF04990290069801F0B2FFAA
:10416000011C029802F0EEF801340290E4B20495CA
:1041700002990A9801F03AFC0E9B049918600C9879
:1041800001F034FC099B0D991860306801F02EFC99
:1041900015A930607C48FEF767FE7D4B01375B78E0
:1041A000002BBFD06AE67B4901F002FC002800D159
:1041B0004EE77249301C01F019FC48E7380002F064
:1041C000BDFA039901F07EFF041C00F09DF90490F4
:1041D000201C00F075FB0F9B041C1D6880231B0630
:1041E000ED180B9B04981B68291C089301F06AFFCB
:1041F00008990290201C01F065FF011C029801F053
:10420000F5FB291C0290201C01F05CFF0899041C9E
:10421000049801F057FF011C201C02F093F80024C1
:104220000490A5E70423327A594D134333722B7857
:10423000534F022B00D121E6FEF7FEFB6B78002BDB
:1042400000D01FE6544A06986B711370534D544BBF
:10425000803031001B6AFEF707FE2B000122783305
:1042600004981A70FCF7C4FAFEF7DCFA3B006033DE
:104270005A78002A00D005E61A78002AF4D12A00DC
:1042800078321278012A20D1039BDB0619D52B0046
:10429000444A7C3313CA13C30023783560372B702C
:1042A000FEF7C0FAFDF764F9FDF7AEF9FCF710FA76
:1042B000FCF76EFF7B79002B00D1DFE5FCF774FA89
:1042C000E0E5052361342370E6E701225A71E3E754
:1042D00001220025603322816332DA71324A25736C
:1042E0001A811B78E572A5732582022B11D021005B
:1042F00028003031FEF738FCA84201D1FFF7F0F971
:10430000FEF74DFC28000021FDF7E6F92800FCF738
:1043100039F82648FCF752FD2548FCF74FFDFCF71D
:1043200041FEC6E50123FFF71FF80223FFF71CF843
:104330001823FFF719F82623FFF716F81923FFF7BC
:1043400013F80423FFF710F81B23FFF70DF82523BC
:10435000FFF70AF82023FFF707F82223FFF704F8F6
:104360002323FFF701F82423FEF7FEFF1023FEF7B7
:10437000FBFF0F23FEF7F8FFBD3706B5DB0FC94083
:1043800028010020AC0300204C020020ABAA2A3EEA
:1043900088010020BD37063521030020A802002037
:1043A0000044004124020020646400000D7D0000F0
:1043B000A77D0000F7B500240127154D154E2000FC
:1043C000FEF74EFB002812D12B00753318703E30DB
:1043D000FCF7D6FCFDF74CF83A20FCF7D1FC07209F
:1043E000FCF738FD002C00D0F7BD3C00E7E7337840
:1043F000002BF7D0FEF7B8FE01903E20FCF7C0FC82
:10440000FDF736F83A20FCF7BBFC0198E8E7C04618
:10441000280300209D0300201A4B1B49002210B5E1
:104420001A488B4203D303331A1A92089200184990
:1044300002F04CFBBFF34F8F164B17490022174871
:104440008B4203D303331A1A92089200002102F020
:10445000E3FABFF34F8F124B124CA360BFF34F8FA1
:10446000FCF7B6FA104B114A5A6000229A600732E4
:104470001A60C022236A12061B021B0A134323621E
:1044800002F01AFC28010020FDFFFF1F00000020A1
:10449000D47E0000340900202501002028010020DE
:1044A0000002000000ED00E010E000E07FBB000033
:1044B0004200031C120EC043110010B50224C017A5
:1044C00020407F3901381E290CDC002916DB8024AE
:1044D0005B025B0A24042343162907DD963A9340C6
:1044E000584310BD181C02F009F9FAE78022D203E4
:1044F0000A41D3181722521AD340F1E77E3A5342A9
:104500005A4152421040ECE700B51C4A430083B0C8
:104510005B08934218D9FF22D205934204D3011CB1
:1045200001F010FF03B000BD694600F03BFC03231F
:1045300001991840012813D0022809D0002818D169
:10454000009800F0ABF8EDE7002100F0A7F8E9E7EC
:10455000009800F0A3F880231B069C466044E1E726
:104560000122009800F0A6FB80231B069C466044B5
:10457000D8E70122009800F09DFBD3E7D80F493F10
:1045800070B5041C01F02AF9211C051C201C02F046
:104590009FF8002805D10021201C01F0FFF9002818
:1045A00001D1281C70BD02F08BFA21230021036089
:1045B000081C01F0BBFB051CF3E7C04610B500F07A
:1045C000D7F910BD43001B0E7F3B10B5021C162B04
:1045D00013DC002B09DB0C491941014204D0802077
:1045E000C00318418018884310BDC00FC0070133B5
:1045F000FAD1FE239B051843F6E7802BF4D1011C6A
:1046000001F0F4F9F0E7C046FFFF7F00F0B5C646C1
:1046100044006708240E7F3C060000B5051C162CDC
:104620002CDC8046002C19DB1A4F2741074211D0A1
:10463000194901F0DBF9002101F0C4F9002809D083
:10464000002D04DD80231B0423419846A8444346E3
:10465000BB431E00301C80BCB846F0BD0E4901F0C3
:10466000C5F9002101F0AEF90028F3D0002D0EDBD2
:104670000026002FEED0FE26B605EBE7FF23DB0574
:104680009F42E7D3011C01F0B1F9061CE2E7802646
:104690003606DFE7FFFF7F00CAF24971F8B54746EB
:1046A000CE46C823460080B5051C0F1C76089B0526
:1046B0009E4248D202F022F8002800D19FE0291C37
:1046C000281C01F0FFFC4F49041C01F0FBFC4E4983
:1046D00001F08CF9211C01F0F5FC4C4901F032FE8F
:1046E000211C01F0EFFC4A4901F080F9211C01F086
:1046F000E9FC484901F026FE211C01F0E3FC464993
:1047000001F074F9211C01F0DDFC8046FC21201C25
:10471000890501F0D7FC4146061C201C01F0D2FCA3
:10472000391C041C281C01F0CDFC011C201C01F0CC
:1047300009FE011C301C01F005FE011CFE20800555
:1047400001F000FE53E0011C01F0BCFC2D49041CEB
:1047500001F0B8FC2C4901F049F9211C01F0B2FC30
:104760002A4901F0EFFD211C01F0ACFC284901F0C1
:104770003DF9211C01F0A6FC264901F0E3FD211CB6
:1047800001F0A0FC244901F031F9211C01F09AFC50
:10479000224B80469E42B9D9214B9E422BD8FF2303
:1047A0001B069C46FE206644311C800501F0CAFDB4
:1047B0008146FC21201C890501F084FC311C01F09C
:1047C000C1FD4146061C201C01F07CFC391C041C68
:1047D000281C01F077FC011C201C01F0B3FD011C1A
:1047E000301C01F0AFFD011C484601F0ABFDC0BC20
:1047F000B946B046F8BD0B4B0B4E9946D9E7FE20A3
:104800008005F4E74ED747ADF6740F317CF2933450
:10481000010DD037610BB63AABAA2A3D9999993E62
:104820000000483F0000383F0000903EF0B5C6460B
:1048300044006708240E7F3C060000B5051C162CBA
:1048400028DC8046002C19DB1A4F2741074211D083
:10485000194901F0CBF8002101F0B4F8002809D083
:10486000002D04DA80231B0423419846A8444346C4
:10487000BB431E00301C80BCB846F0BD0E4901F0A1
:10488000B5F8002101F09EF80028F3D0002D0ADBD6
:104890000026EFE7FF23DB059F42EBD3011C01F06D
:1048A000A5F8061CE6E7002F02D180263606E1E7D0
:1048B000024EDFE7FFFF7F00CAF24971000080BFB0
:1048C00000B51D4A430083B05B08934219D9FF220B
:1048D000D205934204D3011C01F034FD03B000BDA6
:1048E000694600F05FFA032301991840012816D0A9
:1048F00002280BD0002816D10122009800F0DAF926
:10490000ECE70022002100F0D5F9E7E7012200984A
:1049100000F0D0F980231B069C466044DEE7009837
:10492000FFF7BCFEDAE70098FFF7B8FE80231B060E
:104930009C466044D2E7C046D80F493F43001B0E57
:104940007F3B10B5162B08DCC20FD207002B0ADB09
:10495000064919410840104310BD802BFCD1011CB1
:1049600001F044F8F8E7101CF6E7C046000080FFAD
:10497000F8B5FF254A00031C5208081CED05AA42A1
:104980002BD859009C464908A94226D8FE24A405E4
:10499000A04234D0022487173C40DF0F3C4300295B
:1049A0001FD0002A24D0AA4231D0A94220D0891A8F
:1049B000C9153C2929DC002834DA3C3132DA0020E0
:1049C000012C40D0022C36D0002C09D0244901F013
:1049D0000DF8244901F0B6FC02E0191C01F006F8BC
:1049E000F8BD022C09D0181C032CF9D11E48F7E79A
:1049F0006346002B07DB1D48F2E71A48F0E7181C56
:104A000000F03CF8ECE71A48EAE71848D8E7013C20
:104A100091421DD00020022CE2D8164BA4001B1995
:104A2000D868DDE7011C181C01F080F900F032FBAA
:104A300000F024F8C4E70A4900F0D8FF011C094837
:104A400001F080FCCCE780231B069C466044C7E74E
:104A5000022C03D8074BA400E058C1E70648BFE783
:104A60002EBDBB33DB0F4940DB0F49C0DB0FC93F15
:104A7000DB0FC9BF68780000DB0F493FF0B5A12309
:104A8000C6464500060000B5041C6D08DB059D42C6
:104A90000BD3FF23DB059D4200D978E0002800DC22
:104AA00088E0704880BCB846F0BD6F4B9D4200D98D
:104AB00082E0C4239B059D426DD301235B4298464F
:104AC000211C201C01F0FEFA011C071C01F0FAFA5F
:104AD0006649051C01F0F6FA654900F087FF291CBC
:104AE00001F0F0FA634900F081FF291C01F0EAFAB5
:104AF000614900F07BFF291C01F0E4FA5F4900F0F6
:104B000075FF291C01F0DEFA5D4900F06FFF391CCA
:104B100001F0D8FA5B49071C281C01F0D3FA5A4966
:104B200001F010FC291C01F0CDFA584901F00AFCF3
:104B3000291C01F0C7FA564901F004FC291C01F0B8
:104B4000C1FA544901F0FEFB291C01F0BBFA011C1B
:104B5000381C00F04BFF211C01F0B4FA434601332E
:104B600048D043464C4D9F00EB19196901F0EAFB10
:104B7000211C01F0E7FB011C785901F0E3FB002E3A
:104B800000DB8FE780231B069C4660448AE7011CFC
:104B900000F02CFF86E7414900F028FFFE2189053F
:104BA00000F010FF0300201C002B00D07AE7013B2F
:104BB000984685E73A4875E700F06CFA394B041CD3
:104BC0009D421CD8384B9D423AD8011C00F00EFF84
:104BD000FE21890501F0B6FB8021051CC905201CBA
:104BE00000F004FF011C281C01F0A0F80023041CA5
:104BF000984665E7011C201C01F0A4FB52E72B4BF3
:104C00009D4215D8FF21890501F09CFBFF21051C61
:104C10008905201C01F056FAFE21890500F0E6FE08
:104C2000011C281C01F082F80223041C984647E767
:104C3000011C1F4801F07AF80323041C98463FE743
:104C4000FE21890501F07EFBFE21051C8905201C43
:104C500000F0CCFE011C281C01F068F80123041CA4
:104C600098462DE7DB0FC93FFFFFDF3ED769853C44
:104C700059DA4B3D356B883D6E2EBA3D2549123EC3
:104C8000ABAAAA3E21A215BD6BF16E3D95879D3D55
:104C9000388EE33DCDCC4C3E80780000CAF249719D
:104CA000DB0FC9BFFFFF973FFFFF2F3FFFFF1B40F9
:104CB000000080BFF8B54746CE4680B51700C82231
:104CC0004300041C0E1C5B089205934205D201F0C0
:104CD00015FD0300201C002B32D0211C201C01F0EC
:104CE000F1F9051C011C201C01F0ECF92749804654
:104CF000281C01F0E7F9264901F024FB291C01F0EA
:104D0000E1F9244900F072FE291C01F0DBF9224987
:104D100001F018FB291C01F0D5F9204900F066FECE
:104D20008146002F10D1011C281C01F0CBF91C4931
:104D300001F008FB414601F0C5F9211C00F056FEC8
:104D4000C0BCB946B046F8BDFC21301C890501F055
:104D5000B9F94946071C404601F0B4F9011C381C5A
:104D600001F0F0FA291C01F0ADF9311C01F0EAFA6A
:104D70000B49051C404601F0A5F9011C281C00F058
:104D800035FE011C201C01F0DDFAD9E7D3C92E2F16
:104D9000342FD7321BEF3836010D50398988083C43
:104DA000ABAA2A3EF0B557464E46DE464546E0B52C
:104DB000A94B89B046000C00071C029076089E4261
:104DC00000D872E0A54B9E4221D8A54EA5490640C9
:104DD000002800DC19E101F0B5FAA34B051C9E4246
:104DE0006FD0A24901F0AEFA011C061C281C01F08C
:104DF000A9FA9E4901F0A6FA012526606060280004
:104E000009B0F0BCBB46B246A946A046F0BD984BDF
:104E10009E4266D9FF23DB059E424BD2F715863FA3
:104E2000FD05751B281C01F069FC01F087FC011CC5
:104E30000590281C01F086FA8721C90501F042F986
:104E4000051C01F05BFC01F079FC011C069080461A
:104E5000281C01F077FA8721C90501F033F90021F8
:104E6000079000F095FD002800D1CCE000214046DD
:104E700000F08EFD4342434101337E4A21000192FE
:104E8000022205A800923A0000F008F9029B0500F2
:104E9000002BB4DA8022120694462368454263440C
:104EA0002360636863446360A9E70023002508600A
:104EB0004B60A4E7011C01F045FA0025606020600A
:104EC0009DE76D4901F03EFA6C49051C01F03AFA84
:104ED000011C061C281C01F035FA684901F032FA61
:104EE0008AE700F0D7F86649804601F0EBF8FC212C
:104EF000890500F07BFD01F001FC050001F01EFCBE
:104F00005849824601F0DEF8011C404601F01AFAC9
:104F100056498146504601F0D5F880461F2D22DCC7
:104F2000584A691E8900584B8A583B4093421AD010
:104F30004146484601F006FA071C391C48462760DE
:104F400001F000FA414601F0FDF9029B6060002B80
:104F500000DB54E780231B069C46674460442760BF
:104F600060606D424BE74146484601F0EBF9FF2295
:104F7000C30DF61513409346071CF31A082BDCDD0E
:104F80003D49504601F09EF8071C011C484601F0BF
:104F9000D9F9011C0390484601F0D4F9391C01F0FD
:104FA000D1F93649071C504601F08CF8391C01F044
:104FB000C9F9039B011C8046181C994601F0C2F9EF
:104FC0005A46C30D1A40B31A071C4E46192BB4DDBE
:104FD0002E49504601F076F8071C011C484601F0A6
:104FE000B1F9011C8146301C01F0ACF9391C01F00B
:104FF000A9F92749071C504601F064F8391C01F053
:10500000A1F9804694E7032337E700F0EFFC164B45
:10501000051C9E420FD0154900F0E8FC011C061C3F
:10502000281C01F08FF9114900F0E0FC01252660F1
:1050300060606D42E3E6104900F0D8FC0F49051CA2
:1050400000F0D4FC011C061C281C01F07BF90B4964
:1050500000F0CCFCEAE7C046D80F493FE3CB16404E
:10506000F0FFFF7F800FC93FD00FC93F4344353762
:10507000800F4943207900000044353708A3852E6E
:1050800084F9223FA078000000FFFF7F00A3852E57
:1050900032318D24400040087047C046F0B5DE46EE
:1050A00057464E4645461C00E0B5DFB00290689872
:1050B0000A91B749079383000D91C9582300013B1A
:1050C0009B460C920491131D00DABCE20723033ABD
:1050D000D1170B409B18DB1001930133DB000B93BE
:1050E0000B9A0C9B9B1A5A460393019B9C1A049B98
:1050F0009E180ED40136699F22AD36190020002C6F
:1051000003DBA300F85801F019FB013401C5B442D8
:10511000F4D1049B002B00DA46E34AAB9A46059390
:105120005B46079A9F00944622AB9846029A049BDE
:10513000B844634494465A469946043767440092FB
:105140005B460026002B0EDB45460026029C2968A4
:1051500001CC00F0B7FF011C301C00F047FC043DFF
:10516000061CBC42F3D1534640C39A4604239C46D6
:10517000009BE044013300934B45E1D10EA904228A
:105180008C46524262449446049FBB009C44624653
:105190008C460992699A083B634494460893019BA4
:1051A000BA469B0063440193079B9E00029B9C466A
:1051B00066445346059A9B00D45800935346002BEF
:1051C00026DD744BB14653449B00D5180EAB904678
:1051D0001E00EE21201C890500F074FF01F08EFAFC
:1051E00001F0ACFA8721C905071C00F06BFF011C18
:1051F000201C01F0A7F801F081FA296801C6381CCB
:1052000000F0F4FB2B00041C043D9845E1D14E4610
:10521000039D201C290000F04DFBF8218905071C87
:1052200000F050FFFFF702FB8221C90500F04AFFA2
:10523000011C381C01F086F8071C01F05FFA81465A
:1052400001F07CFA011C381C01F07CF88046002D2E
:105250007ADD53465A1E92000EAB9B580820190067
:10526000401B0141894481405B1A0EA98B500722E3
:10527000521B13410693002B00DD28E1002140461C
:1052800000F086FB002800D1BFE0049B9A450FDDAB
:105290000EAA944600223F4B099853449B00634456
:1052A0001968043B0A438342FAD1002A00D02BE15B
:1052B000049B0EAA013B9B00D358002B00D01CE19D
:1052C0000122089B1968043B01320029FAD001230E
:1052D0005244534498469146079B22A953449B004D
:1052E0008C461A00059962448C46009B63449A469A
:1052F000434690460093009B019A9B00D05801F0D2
:105300001DFA434618605B46002B1BDB4546002711
:10531000029C296801CC00F0D5FE011C381C00F06D
:1053200065FB043D071CB442F3D104225346944666
:105330005F60009BE04401330093E2449945DADA70
:10534000CA4636E70027F0E7039B002B00D0B4E005
:105350005346013B0EAA9B00D358DA1106927F2BCD
:105360008CDD01239C465346E144002B00DC16E211
:105370000EAB1800002251460E9F002F00D195E081
:105380008A4680214900C91B01605446FF2006E07F
:10539000387C0000FFFFFF3F1968411A1960013295
:1053A00004339442F8DCA2460127039B002B0EDD58
:1053B000039B012B00D196E0022B08D15346013B01
:1053C0009B000EAAD1583F220A400EA9CA50069B44
:1053D000022B00D052E7FE204146800500F0B2FFCC
:1053E0008046002F00D149E7FE200399800500F098
:1053F00061FA011C404600F0A5FF804600214046AE
:1054000000F0C6FA002800D03FE70B9B0C9A4046FC
:10541000991A00F04FFA8721C9055746041C00F07D
:10542000DBFA002800D199E1EE21201C890500F06B
:1054300049FE01F063F901F081F98721C905061CD5
:1054400000F040FE011C201C00F07CFF01F056F92A
:10545000009A0EAB9850039B301C0833039301F065
:105460004DF97C1CA7000EABD851FE200399800596
:1054700000F020FA002C64DA689B022B00DD96E134
:10548000002B00DD9BE10020002B05D1069B002BAB
:1054900000D074E10A9B18604B46072018405FB0AB
:1054A000F0BCBB46B246A946A046F0BD013204336B
:1054B000914227DD18001F685FE7FC21890500F095
:1054C0008BFA002800D0AEE000230693D6E6012335
:1054D0009C4653460027E144002B00DD48E7039B30
:1054E000012B00D068E75346013B9B000EAAD15820
:1054F0007F220A400EA9CA5069E701235344984607
:105500009946E9E68A4650E757467C1E039AA3006F
:105510000EA9CB58083A0392002B0BD18C46AE4B08
:10552000FB189B0063441968043B013C083A0029BE
:10553000F9D00392FE200399800500F0BBF9002CFE
:105540009ADBA3000EAA94461E0066449C46059F63
:10555000A04667443D000293041C306801F0EEF859
:10556000211C00F0AFFDEE2128608905201C00F011
:10557000A9FD0EAA3300041C043E043D9A42ECD15E
:105580000C2236AB9B460193002394464446984632
:105590000D9B009463449A464B460393049B0594E9
:1055A000444698464346002B7EDB00260023A14656
:1055B0001D1C340002E004344E450CDC53463959BE
:1055C000E05800F07FFD011C281C00F00FFA0136A6
:1055D000051CB045EFDA4C46A9465B464A4604C373
:1055E0009B46009B0134043F5A1E0092DAD2039B73
:1055F000059C9946689B022B59DC002B28DC00D0C7
:105600004AE7019B00209C46029C6444216800F00C
:10561000EDF9019A2300043C9A42F7D1069B002B36
:1056200000D137E7ABE001239C4601330693534694
:10563000E144002B00DD9BE6FE204146800500F0A2
:1056400081FE80461AE608230B930023019347E569
:10565000019B00259C46029E281C6644316800F090
:10566000C5F9019A3300043E9A42F7D1011C051C8A
:10567000369800F067FE069B002B77D10A9B1D60D1
:10568000002C0ED0012537AE02CE013500F0AEF968
:10569000AC42F9DA069B002B03D080231B069C4604
:1056A00060440A9B5860F7E60023994695E7689B9B
:1056B000032B00D0F0E6002C7FD0019B02991A004A
:1056C0008C4662449C460D1F654490462E00AA46B7
:1056D000A34617683568381C291C009600F086F927
:1056E0003C1C011C071C281C00F02CFE211C00F097
:1056F0007DF9019B009A70603760043E9342E9D1C6
:105700005C465546012C58D043461C682F68201C27
:10571000391C00F06BF9261C011C041C381C00F01D
:1057200011FE311C00F062F9019B68602C60043DA1
:10573000AB42EBD1444600201D1D2168043C00F023
:1057400055F9A542F9D1019B0699369A5B68002963
:105750001AD10A990A604B6088609DE6201C00F00F
:10576000CDFF009A0EAB3C009850E3E680231B0669
:105770009C460A9B65441D60002C83D18DE78023E5
:105780001B069C46604485E6802109068C460A99E2
:105790006244634460440A604B6088607CE6069B18
:1057A000022B00D06AE547E74AAB0593E6E436AB47
:1057B0000193689B032B00D06EE60020C3E7069B95
:1057C0003698002B03D100230A9A136069E78023DF
:1057D0000A9A1B06136060E7FEFFFF3FFF21F8B542
:1057E00043000200041C5B08C9058B424ED2002B0B
:1057F0004BD0002851DBC315014208D18021002382
:10580000090452001C0001330A42FAD0634280248A
:105810001E005202520A24047F3E1443DB0700D4C8
:1058200064008022192100270025761064005204AC
:10583000A8182300A04202DC8518231ABF180139DA
:105840005C0052080029F3D1002B17D0184C2068B7
:10585000616800F077FD2568011C281C00F0A8F89D
:1058600000280BD02068616800F0C0F82468011C93
:10587000201C00F093F8002816D00237FC239B056B
:105880009C467F106744F005C019F8BD011C00F06C
:1058900019FC211C00F0AAF8F7E7011C00F052FDEA
:1058A000011C00F043FAF0E7012301379F43E5E7CD
:1058B000707C0000420070B5031C0C000600550807
:1058C000002A1AD0FF21C9058D4217D2084219D1EA
:1058D0009821C90500F0F6FB204A031C94422CDBFA
:1058E00042001F49120E0600193A8C420EDD1D4877
:1058F000002B1DDB1B4900F0E5FB70BD011C00F017
:1059000075F8FAE71649120E8C42F0DC1119FE29DF
:10591000EDDC002915DC0A00163217DB1931C80549
:10592000CC21114B89051E40304300F0CBFBE4E74E
:105930000C490E4800F0C6FBDFE70D4900F0C2FB42
:10594000DBE70948C90530400843D6E70848002B83
:1059500000DA0848064900F0B5FBCEE7B03CFFFF8F
:1059600050C30000CAF24971FFFF7F80CAF249F1BB
:105970006042A20D6042A28D844608006146FFE7A6
:105980001FB500F057FB002801D40021C8421FBDFD
:1059900010B500F0DDFA4042013010BD10B500F046
:1059A00049FB002801DB002010BD012010BDC046CE
:1059B00010B500F03FFB002801DD002010BD0120E4
:1059C00010BDC04610B500F0EBFA002801DC002045
:1059D00010BD012010BDC04610B500F0E1FA00284E
:1059E00001DA002010BD012010BDC046F0B5C6464A
:1059F00043025B0A9C461F00DE004B025A0A450028
:105A000090464A002D0E120EC40F00B5C90F9B0917
:105A1000A81A8C4221D000280DDD002A2DD1002BA0
:105A200000D195E0421E012800D131E1FF2800D1CC
:105A300094E0100027E0002862D0501B002D00D019
:105A4000E1E0002E00D181E0441E012800D142E1B6
:105A5000FF2800D119E12000DAE0002800DC9CE0FA
:105A6000002A69D0FF2D00D178E08022D2041343B0
:105A70001B2800DC7DE001362AE0FF2D00D16DE01F
:105A80008022D204134301221B2807DC2021091A9B
:105A90001A008B40C240591E8B411A43B61A73013B
:105AA00000D477E0B601B709380000F091FE053860
:105AB0008740854200DD82E020223B00401B013010
:105AC000121A3E009340C6405A1E934100251E43C1
:105AD000730704D00F233340042B00D00436730126
:105AE00037D5681CFE2D52D08E4BC0B233409B017F
:105AF0005F0AC0053843E407204380BCB846F0BDC8
:105B0000FE206A1C104274D1002D00D0AAE0002EA5
:105B100000D1DAE00020002BEBD08022F71AD2046B
:105B2000174200D1ECE09B1B134200D1F2E07D4A0A
:105B30000C0013400130DAE7002B09D0421E012887
:105B400000D196E0FF2809D0100091E70C001E005C
:105B50000500F3089C46FF2D00D091E06346002B22
:105B600015D080276346FF031F437F02FF207F0A73
:105B7000BFE72021091A1A008B40C240591E8B41F1
:105B80001343F618730105D50135FF2D54D1FF20BD
:105B90000027AEE773079DD1DBE7002813D0501B29
:105BA000002D50D1002ED2D0411E012840D0FF2818
:105BB0006CD008001B286EDD15005E1C88E7594E6E
:105BC0002D1A3E4084E7FE216A1C114241D1002D6E
:105BD0006CD1002E00D190E00020002B00D188E78E
:105BE000F318DF087F027F0A5B0100D481E7012000
:105BF0007FE7F71A7A0132D4002F00D054E700244F
:105C00000020002775E7FF2A3FD08024E4042643C4
:105C100001241B2808DC35001F34241AA640C54087
:105C2000741EA6412C0034431E1B15000C0036E7E1
:105C3000F6180235730120D501233B4A334076081C
:105C400016401E4344E7FF2A20D08021C9040E439A
:105C5000B0E7FF2A9BD0F6181500760838E70C004D
:105C60009F1B21E7002E3AD1002B4ED0C4460C00DA
:105C700077E7F61802257301DED4F3089C46012568
:105C800063465F027F0AE8B233E70C00C44665E76B
:105C90000125F61A03E731002025C140281A864065
:105CA000701E86410E431500F6186BE7002EEDD0EE
:105CB000002B00D155E78023DB039C4500D250E741
:105CC000984500D34DE7C4464BE7002B97D00C0016
:105CD000474600200DE70C009E1B0135DFE6002B38
