:100200003819002005450000290A0000290A0000CD
:1002100000000000000000000000000000000000DE
:10022000000000000000000000000000290A00009B
:100230000000000000000000290A00008D080000F6
:10024000290A0000290A0000290A0000290A0000E2
:10025000950D0000290A0000290A0000290A000063
:10026000290A0000290A0000290A0000290A0000C2
:100270004D120000290A0000290A0000290A000086
:10028000290A0000290A0000A10A00003D0D000013
:10029000290A0000290A0000290A0000290A000092
:1002A000290A0000290A0000290A0000290A000082
:1002B0000221044B1A688A431A60DA680A42FCD1A8
:1002C0007047C0460020004240231A4A10B511680A
:1002D0000B431360802318495B00086A03430B62D9
:1002E0001649174B4B804B785BB2002BFBDBA021F0
:1002F000144BC90019600821D8680842FCD10221BA
:100300009964FD31D9643F39D8680842FCD1802313
:1003100011680D4C5B000B431360A16C606C06F020
:1003200087F8011C094805F077FD2060FFF7C0FF42
:1003300010BDC0460044004100040040000C0040D5
:100340001A400000002000422801002000007E43E7
:1003500080220B4B52001865D9681142FCD1022251
:100360001968002805D191431960D9681142FCD160
:10037000704711431960D9681142FCD1F8E7C046B3
:10038000002000420A4B0B4A5B78002B0BD10A4B32
:10039000400609D5802118698902014319611300BB
:1003A00000226033DA727047196904480140F5E7AA
:1003B000880100202801002000440041FFFFFDFFCC
:1003C0000F4A082110780F4B0F4A400713D51069C8
:1003D0000143116119000D4A7431127F34338A735D
:1003E0001A783023023A53431022DB085B424B73E6
:1003F000074B5A737047106988431061EAE7C0469B
:10040000740100202801002000440041A8010020C0
:10041000002C0042002370B501251349134A0B77C5
:100420004B771078124A147802001A412A4209D0F8
:100430000122002B03D09218012B00D002320E7F34
:1004400032430A7722001A412A4209D00122002BA6
:1004500003D09218012B00D002324E7F32434A77EC
:100460000133032BE0D170BDA80100205D01002005
:100470005E01002070B5084C256A002D0BD00123C9
:10048000A21DD17F206C0B43D377011C05F090FE99
:1004900000236861236270BDA80100200023F0B52D
:1004A00087B00393604B10240593604B1B78029335
:1004B000002B00D01C00059B013C5D331B78E4B28F
:1004C0000193A34276D034252E006643584FBE19BF
:1004D000F069B369011C049305F0FEFA316A05F076
:1004E00067FE061C011C049805F0CEFA002800D017
:1004F000049E65437D196E611025002C00D02500F7
:10050000013D019BEDB2AB4236D034235C433B1935
:100510000493049B464C059334236B431B192E1EF6
:10052000049300D11035434B013D1B78EDB2AB4233
:1005300001D1FFF79FFF34235E43A419A7696069C7
:10054000391C05F09BFA002812D1E069011C05F066
:10055000C3FA216A05F02CFE059B596905F0BCFA27
:10056000061C011C381C05F0A3FA002824D0666183
:10057000019BAB42CDD107E0059B019A5E331B780E
:10058000934201D1FFF776FF3425019B5D43284B51
:10059000ED18019B5C1CE4B2102C00D10024002754
:1005A000234B0593029BA34208D1002F02D0224B7C
:1005B000039A1A7007B0F0BD6761D9E73426664325
:1005C000059BF6186B69019373690198191C0493D4
:1005D00005F05AFA002813D0E869011C05F07CFAEE
:1005E000296A05F0E5FD019905F076FA051C011C64
:1005F000049805F05DFA002802D001277561039484
:1006000034236343059AD3189969586905F036FA7B
:10061000002801D0012703940134E4B2102C00D14A
:1006200000243500BEE7C046A801002004020020D7
:10063000340400200602002005020020054B064A73
:100640001B78127800209A4203D034305843034B71
:10065000C018704706020020040200203404002065
:1006600070B5437C0400C56ADA0715D5164B187AB5
:1006700006F0DAF8154905F09BFD291C05F098FDF8
:10068000041CFE21201C890505F012FA002801D166
:10069000FE24A405201C70BD5B070BD40A4BD8793F
:1006A00006F0C2F8094905F083FD011C281C05F07D
:1006B0007FFD051CA46A291C201C05F0E5F9002813
:1006C000DFD12C1CDDE7C046880100200AD7233C7F
:1006D000054BDA6F1A661A1DD26F5A661A00083275
:1006E000D26F9A667047C046A8010020F7B50F0088
:1006F00000250E4E01907C590021201C05F0BEF90A
:1007000000280DD1019B211C585905F085FB4400A0
:100710006408311C201C05F0CBF9002800D1261CF0
:1007200004350C2DE7D1301CFEBDC0469976967E6F
:10073000B022044B196891431960596A0A435A62FE
:100740007047C04600440041B0220C4B1B6A134066
:100750000B4A1278520601D4B02253400020834243
:100760000AD0D806C00F9A0601D5022210435BB208
:10077000002B01DA042318437047C04600440041AF
:10078000740100200022074B1A72074A12787F2A50
:1007900001D801221A72002803D00122197A4A4096
:1007A0001A72704728020020740100200B4B10B50C
:1007B0001B6A07249B0BDBB2DA431000D1B2204046
:1007C00022420AD001224808104090409B18134052
:1007D00018430423194200D0184310BD00440041BF
:1007E000F8B505000E000024054F305906F01CF83E
:1007F000E15905F011FB285104340C2CF5D1F8BD5A
:100800002C01002010B502490248FFF7E9FF10BD96
:100810002402002050020020F8B5050000240A4EF2
:100820002F590021381C05F043F900280AD1A319DB
:10083000596A381C05F028F9002803D104340C2C1F
:10084000EED1F8BD0120FCE72C010020024A13780C
:10085000034313707047C0467802002010B5FFF7BD
:10086000EDFE002802D00220FFF7F0FF10BD024A83
:10087000137803431370704779020020024A1378FB
:10088000034313707047C0467A02002030B5FA2443
:100890000025064BA4005A6D01325A65986DD96D3A
:1008A000001969419865D96530BDC046280200200D
:1008B00070B506F0A1F8041C06F046F8002811D027
:1008C000EFF30581EFF31085174B02001B68DB4344
:1008D0009B0720D129431ED1144A516D536D5B1AD9
:1008E0008342FBD306F048F8011C201C05F0A0FD54
:1008F0000021041C05F0DCF800280BD00C49201C5A
:1009000005F056FC06F020F8002803D0000101D0C5
:100910000138FDD170BDFA2189010B00013BFDD1E9
:10092000013A002AF9D1DDE710E000E028020020BA
:1009300000007A4410B50400002C00D110BD002046
:100940000249013CFFF7B4FFA4B2F5E70000F03F15
:1009500010220021164B10B51A73164A164C11704E
:10096000164A174B1078220060321278FF2814D1F3
:1009700061331978CBB200290FD1802A10D04C34C2
:100980002278520701D50122534008210D4A002B3D
:100990000AD013691943116110BD0023042AEED057
:1009A000FFF7C8FF0123EAE713698B431361F3E7FD
:1009B000002C004288020020280100205F01002056
:1009C0002802002000440041102010B5114B124CA9
:1009D0001B7803421AD1FFF739FFFFF769FC0F4A72
:1009E0000F4913690B40136106212C220D4B187817
:1009F0001B7902400B40134308D06134042806D110
:100A00002278002A00D12170FFF7A2FF10BD032237
:100A10002270F9E7780200202802002000440041FB
:100A2000FFFFFDFF88010020C046FDE71E23174998
:100A30004A689A431C3B134322224B60144B1A62B0
:100A40001A3AD9681142FCD000225A621032D96891
:100A50001142FCD080210F4A89001268920E920246
:100A60000A439A6202225A620E32D9681142FCD0BD
:100A70000022094B9A605A7852B2002AFBDB074ADF
:100A80005A605A7852B2002AFBDB7047004000419E
:100A90000008004020608000000C004000070300B8
:100AA000F8B510239749984D8B73984B1B78002B02
:100AB00000D020E10727964E96483269C37BBA439F
:100AC0003B401343336137698026837BB6045A0663
:100AD0003240914E914C374080263A4336059F066E
:100AE00037403A4380279B067F053B40884E1A4398
:100AF0003261427B8A4B1A82DA7B52B2002AFBDBDC
:100B00000222188802431A80DA7B52B2002AFBDBE9
:100B10002B00012260331A7062B6200098300768FB
:100B2000002F50D16326B4462B00AC446646623396
:100B30001A783678964200D1D0E02A001B786432C9
:100B4000DB00D218026052880A83CA7B52B2002AA4
:100B5000FBDB2A0021006432D05A7431D21888831A
:100B600010798A7F82420ED014262700887770433E
:100B70006C4A6D491218126A943752080918396084
:100B8000E267A26762672200270094321268674812
:100B9000117C407F74374140F97329006431CB18D0
:100BA000106859792700C8400837F867506827004F
:100BB000C8409268883738602000CA408C30026094
:100BC0009879FFF7C5FB5A49564B0A785748D7B270
:100BD000012A12D14E4A2E7A126A3A4096420CD01D
:100BE00000220A7002007C337C32C2CAC2C32A00CF
:100BF0004023503211780B4313702700220000234A
:100C000074370832D26FBB73636F9B182200943223
:100C100012686367D1688B4209D901265B1A636742
:100C2000BE73177CC36F374266D0013BC367200099
:100C30008830A36F00681B18A36799420ED2270063
:100C400002267437B87B5B1A3043B873A367394800
:100C5000177CC36F374251D0013BC36720008C30F3
:100C6000E36F00681B18E36799420ED22700042047
:100C70007437BE7B5B1A0643E367BE732E49127C52
:100C8000CB6F02423CD0013BCB67230060331A7824
:100C9000042A05D1220074329979937B0B40937317
:100CA00022007432938B013B9BB29383002B0BD1B8
:100CB000220029009832623113600A780132D2B2E0
:100CC0000A70062A00D10B70184A7434A37B127F75
:100CD00060355340A37300232B700CE09434FFF76E
:100CE00037FE23685B7C002B02D03800FFF730FB17
:100CF0000420FFF7ABFDF8BD013397E70133ACE704
:100D00000133C1E7002C00422802002088020020A5
:100D1000004400419C010020FFFFFFE52801002066
:100D200000300042A8020020BC020020A8010020E0
:100D300020030020AC010020B0010020012330B5C9
:100D40008025104910488B73104BAD041A7F04693D
:100D500053062B400E4D2C40802523432D05940631
:100D60002C40234380249206640522401343022230
:100D700003610B8893430B80CB7B5BB2002BFBDBC7
:100D800030BDC0460030004200440041A8010020B0
:100D9000FFFFFFE5164B70B51C691C61B0231C42B8
:100DA0000BD0144B1B78012B07D0134D2B78002B45
:100DB00003D1FFF709FE01232B70104B1C4215D005
:100DC000FFF7F4FC041E11D0C30701D5FFF7FCFDAB
:100DD000630704D502230A4A11780B431370A40752
:100DE00004D50823064A11780B43137070BDC04622
:100DF00000180040880100208902002001C0000086
:100E00007802002070B50C4A137A0133DBB2692BEB
:100E100000D100230124094903E08D7D254200D142
:100E20008C75557A9D42F8D016000C75157A0A36E5
:100E3000705513728C7570BD280300200014004299
:100E400010B504000134631E1878002800D110BDCD
:100E5000FFF7D8FFF6E710B50148FFF7F1FF10BD27
:100E6000A57E000070B50400632815D90A2105F09D
:100E700093FF30312000CDB20A2105F007FFC4B244
:100E800020000A2105F088FF30312000CEB20A216F
:100E900005F0FCFEC4B203E000252E000928EFD8BF
:100EA0003034E0B2FFF7AEFF002E02D03000FFF783
:100EB000A9FF002D02D02800FFF7A4FF70BD10B5D8
:100EC00004000448FFF7BCFF2000FFF7CBFFFFF74B
:100ED000C2FF10BDD07D000010B5002803D103482B
:100EE000FFF7AEFF10BDFFF7EAFFFBE7D77D00007D
:100EF000F0B50E0087B00021041C04F0C5FD0028E9
:100F000005D02D20FFF77EFF80231B06E418350057
:100F1000012D39D8F30704D5201C2E4905F048F9D6
:100F2000041CFC21201C890504F0D6FD05F05CFCA6
:100F3000002405000A27002D2ED12F00A6426F4164
:100F4000FFB23A00331BDBB20193531E9A41019B5F
:100F500052421A4002AB3021E01805F0D3FD002FB9
:100F600001D06B461D796419E4B2A64204D1302346
:100F7000741C02AA9355E4B2631E02AA9B181D00BA
:100F8000002C1AD107B0F0BD201C134905F010F950
:100F9000023D041CEDB2BBE7631CDBB22800390044
:100FA000019305F0F9FE02AB3031195528003900E4
:100FB00005F06CFE019C0500BDE7B44202D12E2075
:100FC000FFF720FF2878013CFFF71CFFE4B2013D4A
:100FD000D6E7C046000020410000C84210B5064BCD
:100FE00003211B78DB0703D5044905F0E1F8042150
:100FF000FFF77EFF10BDC046740100208B42213DEB
:1010000010B5074B01241B7819002140234203D05F
:10101000044905F0CDF82100FFF76AFF10BDC04676
:10102000740100208B42213D10B55D20FFF7EAFEE0
:10103000FFF711FF10BD10B504000068FFF7CEFFE9
:101040002C20FFF7DFFE6068FFF7C8FF2C20FFF7BA
:10105000D9FEA068FFF7C2FF10BD70B505000C00F7
:101060002420FFF7CFFE2800FFF7FCFE3D20FFF70E
:10107000C9FEE0B2FFF7F6FEFFF7EDFE70BD70B5FA
:101080000600150024200C1CFFF7BCFE3000FFF703
:10109000E9FE3D20FFF7B6FE2900201CFFF728FFE0
:1010A000FFF7D9FE70BDF7B5574B584C19780020A3
:1010B000FFF7D3FF2300373319780120FFF7CDFF67
:1010C0002300353319780220FFF7C7FF23002500DE
:1010D000012636334C3519780320FFF7BEFF2978F7
:1010E000042089083140FFF7B8FF297805208909D5
:1010F0003140FFF7B2FF002169560620C90FFFF704
:10110000ACFF2300383319780A20FFF7A6FF03222B
:101110000B20E16BFFF7B3FF03220C20216CFFF7DC
:10112000AEFF29780D203140FFF797FF2978142072
:1011300049093140FFF791FF29781520C90831404E
:10114000FFF78BFF2978162009093140FFF785FF4B
:1011500023004D3319781720FFF77FFF0322182053
:10116000216DFFF78CFF03221920616DFFF787FFC8
:101170002300583319881A20FFF76FFF03221B2022
:10118000E16DFFF77CFF00221E20616CFFF777FF07
:1011900000221F20A16CFFF772FF29782020F14068
:1011A0003140FFF75AFF00260A237343DBB21D00CC
:1011B00067336435DBB2EDB2271D0193022E15D0E3
:1011C000032E1AD00322012E0ED039682800FFF713
:1011D00056FF0135019BEDB204379D42EED1013639
:1011E000F6B2042EE0D1F7BDF968EFE70849B86917
:1011F00004F012FE0322011CE8E78023796A1B0633
:101200003200C918E2E7C0465C0100202801002036
:10121000000061451FB50A48FFF712FE094901A801
:10122000FFF7DEFA01A8FFF706FF3A20FFF7EAFD15
:10123000054B5879FFF716FEFFF7F6FE05B000BD27
:10124000DC7D0000240300208801002070B5434CA1
:10125000237EDDB25B0725D5208D83B2C0B23F2847
:1012600034D019D818281BD0212833D01B065DD5BF
:1012700084381C2816D805F049FB2F311515151593
:10128000151515151515373B3D3F41434547154984
:101290004D4F5153551557007E28E7D1022016E0D7
:1012A000FFF792FB01210D420FD02D4A507A157A9B
:1012B000C3B285424FD011000A31C95C0133DBB2A1
:1012C0002185692B00D10023537270BD0120FFF7E7
:1012D000BDFAE7E70820FAE72020F8E7214B402095
:1012E0001B789B06DED5F2E70120FFF7C0FAD9E7AD
:1012F0000220FAE70420F8E70820F6E71020F4E7D8
:101300002020F2E74020F0E78020EEE70120FFF701
:10131000B5FAC7E70220FAE70420F8E70820F6E765
:101320001020F4E72020F2E74020F0E70E4B0C4AB3
:101330001B780133DBB2812B00D100231100743103
:1013400009789942AED073321178084E7054BFF3C9
:101350005F8F1370A6E72175B7E7C04600140042FF
:1013600028030020880100209B0300207407002030
:1013700010B50124A522E140044B120202431C7562
:10138000D9611A601A7D2242FCD010BD0040004194
:1013900070B504000D0044200021FFF7E9FF220092
:1013A000230040322D1BE95A198002339342FAD1AF
:1013B000BFF34F8F04202100FFF7DAFF70BD8023B9
:1013C000F0B55B010E00D3B0984248D2FC239B02DB
:1013D000C41823788B4242D03F252700AF434022D8
:1013E000390002A805F0E8FB254002AB5E55FF235B
:1013F00025009D43791B0A004032019202A8EA1B96
:10140000121800239446EA5C994207D80198984242
:1014100004D96046C05C0240904209D18022013369
:1014200052009342EFD1380002A9FFF7B1FF16E056
:10143000802212AF29005200641B380005F0BCFB6B
:101440003E55290002208026FFF792FF00247600F7
:10145000391928194034FFF79BFFB442F8D153B033
:10146000F0BDF7B506000F00040000251318019326
:101470006B00ED091D43BB1B195D20006D18FFF7C4
:101480009EFF019B0134EDB29C42F1D12900200066
:10149000FFF795FFF7BD10B50A210020FFF78FFF7A
:1014A0005C2201200149FFF7DCFF10BD2C01002068
:1014B000F0B5FC260023FF255218B602401A8024FE
:1014C0002F006401A14200D28F5D5C00DB09234341
:1014D0004754DB190131DBB29142F0D18020FF2269
:1014E0004001814202D2FC2292028A5C981A434255
:1014F0005841F0BD10B5044C2078002800D110BD33
:101500000134FFF77FFCF7E79D030020F7B5354B6B
:101510000191017800905A185B5C2D2B1BD101279B
:101520005378961C002101240A000D000800A446EF
:101530000434303BDBB2092B19D80132D2B2082A6D
:1015400010D8002901D0013D6DB260434000181849
:1015500033780136EDE7561C2B2B01D15378961CBE
:101560000027DFE70029F3D101356DB2F0E7FE2B4C
:1015700003D1002901D16146EAE7002A14D005F021
:10158000FBF90021041C04F079FA002815D0002F83
:1015900002D080231B06E4180122019B1C60114B22
:1015A000F61A009B013E1E701000FEBD201C0E4965
:1015B00004F0FEFD0235041C6DB26B1CF6DB6B1CE7
:1015C00005D1201C094904F0F3FD041CDFE7002DC0
:1015D000DDD0201C064904F0EBFD013D041C6DB27A
:1015E000F5E7C0469D0300200AD7233CCDCCCC3D77
:1015F0000000204170B5FFF7ABF9382200211B48ED
:101600001B4D05F07FFA1B4E28223000002105F00B
:1016100079FA0022184B194901200A701900633128
:101620000A70174960332A6208701A70FEF7F2FEDA
:101630002A7F6C7F80251349F4735306AD04086933
:101640002B40114D2840802503432D05900628404E
:1016500003438020920640050240134307220B619A
:101660000B69934323430B6170BDC046CC0100203E
:10167000A80100209C010020280200208A020020EE
:10168000ED03002000440041FFFFFFE510B50A4CC8
:101690001C220021094805F035FA210000225E31A4
:1016A0000A702100230001205C310A7004495D3377
:1016B00008701A7010BDC046A80100200802002062
:1016C000EE030020F7B5224C224BA56C666C01900E
:1016D000311C281C5F7A04F0F5F900280FD138007E
:1016E00005F0A2F81C4904F063FD019904F060FDC7
:1016F000071C011C301C04F0D1F9002802D0FF2087
:101700002667FEBD391C281C04F0DCF900280CD02B
:101710000026381C311C04F0B1F9002802D000204A
:101720002667EEE701202567EBE7291C2767381CB1
:1017300004F07EFE216804F03BFD03F0EDF8FE218D
:10174000890504F0C9F905F0FFF8C0B2D9E7C04631
:1017500028010020880100200AD7233C70B5154AD3
:1017600003005278144C081C002A08D1002B07D122
:1017700000232367FEF79CFD00236034E37270BDF5
:101780000E4A102B10D111690D4D29401161220014
:101790004C321278920702D5202B00D10020FFF79F
:1017A00091FFFEF7D5FDE7E7802115694900294340
:1017B000ECE7C046880100202801002000440041D9
:1017C000FFFEFFFF0300F7B50400060000250C3301
:1017D000019337680021381C04F050F9002808D123
:1017E000391C381C04F0E4FC011C281C04F074F9BA
:1017F000051C019B04369E42EBD1281C02F036FFEB
:10180000061C011CFE20800504F006FB051C011CC3
:10181000206804F0CDFC291C2060606804F0C8FC3E
:10182000291C6060A06804F0C3FCA060301CFEBDF1
:10183000F0B5D94B93B01B79DB0700D5E8E0D74B67
:101840001193119BD64A1B781278D64F0E92934271
:1018500000D1DDE0D04BD44D1B7905932B6A002BD2
:1018600055D10422059B13400293059B134200D1DE
:10187000C8E02B0034245C331B785C43CB4BE4186A
:101880002C626B1D0635EE7F012231001140DB7F9B
:101890000191164200D1BDE00023EB770023FC202C
:1018A000C14D8005EB63E369191C019304F0B4FAA0
:1018B00002232A00059903900598276A19403832B7
:1018C000184200D10AE1137064690398211C04F0E6
:1018D0006FFC011C381C04F0ABFD0021061C04F059
:1018E000D3F8002800D1F5E00199081C04F0F4F8C1
:1018F000391C04F05DFC011C201C04F099FD02F071
:10190000B5FEA86408220599A34B0A431A71A84B97
:10191000A54C1B78616B0C930C9AA64BD2009B18BC
:10192000A54AD27F1A71236A02931B6A181C0A9374
:1019300004F07EFD00210D9004F0A6F8002801D0EF
:1019400000230D93636C00260393E36C256C0593D1
:10195000230038331B7805980193236D974C191C8D
:101960000B9304F08BF8431E9841431C10938E4B4D
:101970000996DA6B9B6C07920F930A9B0894049369
:1019800000230693019B012B00D117E2032B00D10A
:1019900086E1002B00D1C1E1029B201CD96904F033
:1019A00007FC291C061C04F06FF8002816D0FC2147
:1019B000301C890504F0FCFB011C281C04F038FDD8
:1019C000211C04F0F5FB011C049804F031FD07997B
:1019D000071C04F06DF8002800D09AE107990498DC
:1019E00004F026FD011C04F077F8291C041C0F9854
:1019F00004F072F8011C201C04F00EFA0F9D079FE2
:101A0000041CD9E1FEF71AFE041E286200D038E754
:101A100013B0F0BD0133DBB2052B00D00193664B50
:101A2000019A0199DA77664B664A039314234B4374
:101A3000D218BA64039A217CD3185A1DD177226830
:101A4000E068D2005A616268574DD2009A61A2687C
:101A50000827D200DA61C2001A6204F08DFF216A01
:101A6000E86204F0D9F9011C2863574804F0D4F95E
:101A70000023AB620223059A6863134032003A40A8
:101A8000134322D0A86CBE432864011C04F090FBD1
:101A900006356061EE771423019A5343039AD518F3
:101AA00000230635EB77494B1B789B0700D4F5E6FE
:101AB000637C9B0600D4F1E6FE20E16A800504F019
:101AC000ABF9394E01237065E7E6606902F0CEFD9F
:101AD0002864E0E70023EE63AB6413E7029B117018
:101AE000EF64002B53D15E352B780133DBB2102B22
:101AF00000D00293364B029A1B78934245D0342291
:101B000002992A4B4A439B185B690293029802F0A0
:101B1000ADFD0790079B244D2000AB64FEF7A0FDB0
:101B2000011C069004F044FB6369061C191C049315
:101B300003F0AAFF00285AD0311C049804F078FC66
:101B4000039904F035FB011C381C04F071FC0021E2
:101B5000E8642C0003F0A2FF383400283AD00223B6
:101B600001992370081C03F0B7FF391C04F020FB17
:101B7000011C049804F05CFC02F078FD0823A864C2
:101B80000635EA7F1343EB77BCE60023BDE700236D
:101B900007930293BEE7C046880100208A02002016
:101BA000ED030020A8030020A80100203404002039
:101BB0008B0200208C020020AD0100203EC32E3994
:101BC000A8020020BC0200200000A03F74010020F9
:101BD000040200200299301C04F02AFC039904F04E
:101BE000E7FA069B28656B64032323708AE6029953
:101BF000049804F01DFC039904F0DAFA391C03F090
:101C00006BFFFC21890504F0D3FA0021041C03F0CA
:101C10004FFF00283FD0391C201C03F035FF00285F
:101C200036D00299301C04F003FC039904F0C0FA8A
:101C3000011C2865201C03F03BFF002818D0069BE0
:101C400004996B64301C03F019FF002803D00123B2
:101C500038352B7056E60499301C04F0E9FB0399E3
:101C600004F0A6FA011C381C04F0E2FBE86449E623
:101C70000199EC64081C2C6503F02EFF211C04F074
:101C800097FA029903F028FF02F0F0FC686439E645
:101C900002233835DDE70023EB64079B6B6431E6F4
:101CA000029B201CD96904F083FA0399061C281CA6
:101CB00004F0BEFB011C301C03F004FF002817D009
:101CC00005990A9804F0B4FB011C03F005FF291CD8
:101CD000041C039803F000FF0126011C201C04F0E3
:101CE0009BF83300039D059F041C0996019347E070
:101CF000FC21301C890504F05BFA011C281C04F04F
:101D000097FB211C04F054FA011C049804F090FB8A
:101D1000071C311C281C04F08BFB4CE0029B201C90
:101D2000D96904F045FAFC218905061C04F040FA43
:101D3000291C03F0D1FE211C04F03AFA011C04987E
:101D400004F076FB071C011C059803F0B1FE002887
:101D50002DD005990A9804F06BFB011C03F0BCFE22
:101D6000291C041C039803F0B7FE011C201C04F07E
:101D700053F80126109B039D059F041C01930996AF
:101D80000698211C03F0A8FE0899069003F07CFE3B
:101D900000282ED00699089804F04AFB391C041C30
:101DA000079803F071FE002829D00497EAE5311C5A
:101DB000281C03F091FE051C0126E1E70399201C75
:101DC00004F0F6F9011C049804F032FB0B99071C8F
:101DD00003F05AFE0028D3D00B99049804F028FB96
:101DE000039904F019F801230B9F0993041CDB18D5
:101DF0007CE70D99381C03F05BFE002859D1724B2B
:101E0000002E00D01D64099A002A02D0019A3833AE
:101E10001A7008206D4B6E499B6C5A7C6D4B1B7978
:101E2000034013431ED0029B5C7C302320001840EB
:101E30001C4245D0029B1C6B002A09D0624B596D95
:101E4000186C04F0B5F9011C201C04F0B1F9041C55
:101E5000201CFFF737FC08215F4B5E4A187013798E
:101E60008B4313710C9B5C4ADB0004935B4D12782F
:101E7000554CEB189A71216B381C04F099F90390BA
:101E800002F03AFC0190E06A02F036FC0199041C71
:101E900004F0CEFA04F058FD049B86B25E53002E87
:101EA00011D14C4A11798B070DD501230B431371C6
:101EB000AEE54B49089803F00FFE069908906BE7D2
:101EC00000230B67C7E7404B0698996A03F004FEAE
:101ED0000399051C201C04F0ABFA011C281C03F01C
:101EE0009BFF4049041C04F063F902F005FC04F078
:101EF0002BFD0C9A3C4BD200984232D80021374B34
:101F00009B18597180B20E9B0133DBB2062B00D1B6
:101F1000002332492C4D8A1850800E99334A117093
:101F2000334A03991370029B1F62019BEB62181CDA
:101F300004F07EFA211C04F03BF9391CA8620798D2
:101F400003F09CFD002800D17BE4224E0021381CC8
:101F5000347903F0ADFD002818D0012323433371F9
:101F600056E524490123884204D9234B83429B41EF
:101F70005B42023319499E408D18D8406B71802313
:101F80008E525B029842BDD31C48BCE7042223005A
:101F900013401442E1D12A005E3211782A005C32EB
:101FA00012782B628A4200D14BE44A1CD2B2102A2A
:101FB00000D013002A005D321078884200D11370DF
:101FC0005E352B703DE4C046A8010020A803002028
:101FD0002801002088010020000200208C0200203F
:101FE0003EC32E3950A92B4F6F1700008B020020E3
:101FF000ED030020DF2E0000BF5D0000FFFF0000AA
:10200000F0B5C44B91B00193C34BC44C1B78DDB207
:10201000002B16D0230001226033C1481A70FEF74E
:102020000FFF2800FEF71EFFFEF715FFFA20013D07
:102030004000FEF77FFC012D17D90022019B613380
:102040001A70019B50331B78DAB20292002B00D138
:10205000CEE21022029B0299134003930123114206
:1020600015D06034637011B0F0BDAE48FEF7E8FEE5
:10207000AD48FEF7E5FEFEF7D7FF1021019B503378
:102080001A788A431A701A780A42FCD0D5E7029A65
:102090001A400592029A1A4200D1D8E007A90A0014
:1020A000A24B61CB61C225001000FEF799FB6035A1
:1020B0003C20FEF7A7FE2878102812D804F03AFC3E
:1020C0002301650167011A0063011A001A001A0052
:1020D00027011A001A001A001A001A001A001A0022
:1020E0005201402800D154E1802800D15FE120282E
:1020F00000D146E1230038331A780123110019403A
:1021000004911A4200D154E1230060331B7B002B61
:1021100000D14EE18648FEF793FE0AA8FEF78BFF3A
:10212000230038331B789B071FD58248FEF788FEB3
:10213000814B824A1B781078834200D262E10F30D3
:10214000C01AC0B2FEF78EFE2C20FEF75BFE7C4B61
:102150007C4A19781278CBB2D0B2914200D253E1C6
:102160008038C01AC0B2FEF77DFE7748FEF768FEE1
:102170007C236034227800201A4201D0734B186C03
:10218000FEF73EFF2C20FEF73DFE644C0021206F41
:10219000FEF7AEFEFEF7D8FA0600FEF707FB0123B6
:1021A0006B4F05003A6A1A40019B03921B7A049315
:1021B0003300049903434A401343DBB2002B2BD076
:1021C0006448FEF73DFE039B049A934202D05020E0
:1021D000FEF718FE002E0ED0F30702D55820FEF7AA
:1021E00011FEB30702D55920FEF70CFE760702D583
:1021F0005A20FEF707FE002D0ED0EB0702D5522025
:10220000FEF700FEAB0702D54820FEF7FBFD6D0789
:1022100002D55320FEF7F6FD22006032137B002B1F
:1022200000D1F3E0013B137323006033DD7A002D0E
:1022300000D100E1013DDD723E20FEF7E3FDFEF737
:102240000AFE0121019A503213788B431370172331
:10225000029A324C9A4300D16DE126006B466036FB
:102260001B7A35785BB20393AB0700D04DE128238E
:102270001D4200D120E1B7783F2F0CD8FEF7FAF8C5
:1022800002233371202D06D1039B002B03DB802317
:102290005B423B43B3704023029A1A4206D0AA061F
:1022A00004D42200603291780B439370029B1B0789
:1022B00005D51F2D03D82300102260331A70029B0E
:1022C0009B0600D421E11748FEF7BAFD2248FEF72D
:1022D000B7FDFEF7A9FE23000221603359569A7814
:1022E000002900DA0BE11978402900D004E1110738
:1022F00004D51C218A431A390A439A7023004022CC
:1023000060331A70FBE01548FEF79AFDF2E61448B8
:10231000FAE7C04628020020890200202801002098
:10232000E27D0000E97D0000EF7D00002402002036
:10233000317E00003F7E00000402002006020020E3
:102340009B0300209C030020447E0000A801002085
:1023500000440041497E00005D7E0000017E0000D7
:10236000067E000025006035AB787F2B09D85548E4
:10237000FEF766FDAB78DB0717D53020FEF742FD90
:10238000B8E65148C0E75148BEE75148BCE751485C
:10239000BAE75148FEF754FDAB7833201A07EDD465
:1023A00032205A07EAD59B06E7D53120E6E74B48AD
:1023B000AAE7019D0DAE0C350AAF696BA86A03F060
:1023C0008BFB039B011C3060022B04D1444BD86C67
:1023D00003F082FB0F90049B002B04D13868316816
:1023E00004F026F83860039B04350133DBB2039315
:1023F00004360437032BE0D1049B002B00D089E680
:10240000384888E601389BE60138AAE67C23117833
:102410000922194200D01432230060331A73DA7A89
:10242000002A01D10132DA722F48FEF709FD0DA80A
:10243000FEF701FEF8E67C2219780923114200D04C
:102440000A3360342948E372FEF7FAFCE079FEF7BC
:1024500009FD2C20FEF7D6FC207AFEF703FD2C2088
:10246000FEF7D0FC607AFEF7FDFC214B1A680223D0
:102470001A4204D03A69059DD20500D51D0080237B
:102480003C699B021C4023005A1E93419B012B4335
:1024900000D1D1E61748FEF7D3FC002D05D053201C
:1024A000012D00D04320FEF7ADFC002C00D1C3E687
:1024B0004620FEF7A7FCBFE6002D00D0EBE6012387
:1024C000E8E6C0460A7E0000107E0000147E000090
:1024D000197E00001F7E0000257E00002B7E00007C
:1024E00028020020387E00004E7E0000547E00004E
:1024F00000200042597E0000802900D0FEE6220024
:102500002023603291780B439370039B002B0CDAED
:10251000230060331A78012A03D1997804320A43E0
:102520009A702300802260331A701721019A50326A
:1025300013780B401370029B9B072DD56823029ADA
:102540001A4223D1210060310B78402B09D18B78BE
:10255000202218001040134203D1DA0600D4EEE026
:102560000870230060331A78002A00D1EEE0D1060B
:102570000CD59978C90709D5102A00D0E6E0997AD8
:10258000002900D1E2E0083A0A439A720221019A36
:10259000503213788B431370029B5B0728D52500BC
:1025A00002222F2160352B78AA568B4300D1E9E017
:1025B000EB78002B00D0E5E0002A00DAE4E0FDF73C
:1025C00059FFA94AA94B12781A70FDF767FF2B79BA
:1025D0009A0703D50122A9780A43AA70062260341B
:1025E000934323710421019A503213788B43137063
:1025F000019A51321178C8B200294ED000231370CD
:102600009B4B9C49DC796423C20700D423008207DA
:1026100001D50A33DBB2420701D50A3BDBB2020720
:1026200001D50133DBB2C20601D5013BDBB21A1C76
:10263000C82B01D9904B1A78D3B20A2B00D20A22A8
:102640000B00603364251E7AD2B2830600D43500B5
:10265000430600D5322540B2002800DA19259442FD
:1026600001D1B54219D0804B60311F78CA71002268
:102670003C00824B824E1B780D720493814BCA72D0
:102680000393049B9C4200D09CE07F4CA6675D3482
:10269000FDF7F0FE2770FDF701FF019B754D5233EA
:1026A0001A78D4B2002A00D1D7E000221A702B0089
:1026B0006033597A6423E20700D40B00A20701D5E6
:1026C0000A33DBB2620701D50A3BDBB2220701D530
:1026D0000133DBB2E20601D5013BDBB21A1CC82B89
:1026E00001D9654B1A78131CD2B20A2A00D20A23E8
:1026F000DAB291420FD02A00603211785372002969
:1027000000D087E0019B587D9969FFF727F82B00DF
:1027100000226033DA72290060310B78A20600D4FF
:1027200099E0102B00D096E08A7A002A00D08AE047
:102730000E3B8B723F2C77D8FFF77AF893E45A0759
:1027400000D40EE7082213438B700AE7250000230C
:1027500060352B71FDF772FF00280DD0AA78402359
:10276000110019401A4207D1383BA9702B70FFF7AE
:102770005FF8FDF725FE09E72300002260339A7019
:102780001A7003E7002A0BDA2300002260331A7163
:10279000FEF77CFFFEF72EFFFEF734F8FDF798FFFB
:1027A0006034A37820211A000A400B4207D07F2210
:1027B00013407E3A1343A3704023237012E7A270A4
:1027C00022700FE734206043039BC018FDF748FFD9
:1027D000311C051C03F06CF9002818D0311C301C8A
:1027E000342603F0E5FC6643039B9E19736AB061CF
:1027F000191C029303F05CF9002801D0029BB3611D
:102800000134E4B2102C00D100242E1C39E7291C1D
:10281000281CE5E7082311790B43137177E7002B98
:1028200002D03822134218D040221400019B1B7D95
:102830001C43134201D093431C002000FDF7A2FD6E
:10284000124B1C7509E0D30702D5042313438B7286
:102850003F2CE9D801E03F2CE1D860352B78032BE1
:1028600001D8FFF700FC67E7060200200502002000
:102870008801002028010020947F0000040200202D
:102880009976967E34040020A801002028020020BA
:10289000F8B50D000F4903F08BFC01F02DFF04F09B
:1028A00053F8022784B2002C13D00B4E7378002B00
:1028B0000FD1002D08D100F013F800200749013C8A
:1028C000FDF7F6FFA4B2EEE7FFF79AFBB3783B42C1
:1028D000F3D0F8BD0000A04188010020000049406D
:1028E000F0B585B0FFF78CFB7B4B7C4D9B78002BC4
:1028F0005CD0FDF7A3FE002834D1794B597D1A7DB9
:102900009B691143019102932B004C331B789B0769
:1029100002D52020FDF7B2FF2C006034A378002BF5
:1029200044D06678002E41D10122134217D022787C
:102930003F2A00D883E004271900394003913B4225
:102940001CD10B00A17218000021FEF707FF0398AD
:10295000FDF718FD0222A37893433B43A370FFF7D2
:102960004FFBD9E730215F4B427C1B690A409B0338
:10297000DB0F9B0113430193036BC4E7802A1AD139
:102980005948FEF75DFA5948FEF75AFAFEF74CFB34
:1029900000213000FEF7E2FE3000FDF7F3FCFDF70A
:1029A000D7FF2B0060335B78002B01D005B0F0BD62
:1029B000FFF726FBF5E7402A02D1203A9343A370A4
:1029C0002A000823603290781842C8D0444C617DB8
:1029D00000290AD00221084207D128004C30007893
:1029E000084220D011790B431371237D002B0ED0A8
:1029F0002B0060339B789B0709D43F2301989843B1
:102A0000FDF7C0FCFE2001218005FFF741FF2A00F1
:102A10000220603291780142A1D110230B439370C0
:102A2000FDF714FF9BE73020019B02991840FEF749
:102A300095FE81200121C005FFF72AFFD5E7A37A83
:102A4000002B3AD002273B420AD0254B5B7D002B5E
:102A500027D000213000FEF781FE0123A3727EE71C
:102A60000C22134200D17AE71D4B5B7D002B10D066
:102A70001D48FEF7E5F91E48FEF7E2F9FEF7D4FA25
:102A80002B004C331B783B4210D008232279134390
:102A900023712B0060339B7A1B0702D50220FDF7C0
:102AA000D5FE2B00002260339A7258E73020019B3C
:102AB00002991840FEF752FEEBE7082623793342CD
:102AC00000D14CE73020019B02991840FEF746FEEA
:102AD0002379B343237142E78801002028010020B5
:102AE0002802002000440041E97D0000687E0000CB
:102AF000717E000010B5FDF7B1FE074CFFF7F0FE48
:102B00006378002B06D1FDF799FD0028F6D12378D4
:102B1000082BF3D010BDC0468801002070B55124A9
:102B2000C02344430A4E9B00E41850222100300089
:102B3000FEF7BEFC05000120002D08D13570FFF71F
:102B4000D9FF200050223100FEF78BFC280070BD19
:102B50009D030020064B70B51B7804000D1C022B52
:102B600005D0FFF7C7FF2000291CFEF7F7FD70BD59
:102B70008801002070B505000C00FFF7BBFF0D2099
:102B8000802368439B000C222100C018FEF769FCDB
:102B900070BD30B5040085B0C30706D55C221A4964
:102BA0001A4804F009F8FEF776FCA3070DD50C22AD
:102BB000002101A803F0A6FF00252800013501A986
:102BC000EDB2FFF7D7FF082DF7D1630710D5C0206E
:102BD00000218000FEF7F3FB00210D48FEF7EFFB1C
:102BE00000210C48FEF7EBFB00210B48FEF7E7FB4A
:102BF000240707D500210948FEF7E1FB002108481A
:102C0000FEF7DDFB05B030BDE87800002C010020A8
:102C1000010300005103000052030000AE03000056
:102C2000AF03000070B50D000D21802341439B00D0
:102C300006000C222800C918FEF73AFC0400012007
:102C4000002C09D10C222100280003F05BFF30008A
:102C50002900FFF78FFF200070BD10B5FFF74AFF76
:102C60000022014B1A7310BD88010020F0B5A14B62
:102C700095B01B7834220491190051439E4E069062
:102C80008E193000002101939C4C03F03BFF02227F
:102C9000049B1B7A02937374049B02995B683363F1
:102CA000029B134003930BAB114200D1BCE07C3478
:102CB00023CC23C3002434232700019A53430793D2
:102CC0008F4BE3580593069B0598195903F070FA4A
:102CD00001F064FC34210EABE0500BABE358019DD6
:102CE000C01AC3176943C2185A40834B325159184E
:102CF000CD68954200D21500079A9B18DD6003F05D
:102D000093FD059903F088F808AB0021E05002F02C
:102D1000BBFE00280ED00122002F03D09218012FF5
:102D200000D0023234210198734B41435B18197C67
:102D30000A431A740137FFB20434032FC0D10020B4
:102D400085426FD0342408A8FEF73CFD019B6A4FF2
:102D50005C436C4B3C19206208A9051C6A4805932A
:102D6000FDF7C4FCE061059808A91030FDF7BEFC32
:102D7000029BA062DB0707D4049B1868029B1B0719
:102D800002D5291C03F014FA3423019A5F495A43EF
:102D9000BA18D062097801980024584A814202D0BA
:102DA0000399002942D0019A5343FB185C615C628D
:102DB000039B002B35D13000FDF752FC4F4C051C16
:102DC000A66F011C301C02F05FFE002800D18DE0D0
:102DD000311C301C342603F0EBF9019B5E43BE1915
:102DE000776AB061391C02F063FE002800D0B76139
:102DF0002300A56708AA6C3323CA23C323000EAAA5
:102E0000603323CA23C3424B5C341B78414A23708E
:102E10000133DBB2102B00D1002346321370FDF7D3
:102E20003DFB012015B0F0BD603441E76032039DE9
:102E30000492049BEB18DB68029308ABEB580298F2
:102E4000191C039303F0B4F9011C201C03F0F0FAE1
:102E50000299041C039803F0EBFA242208AB9B1898
:102E6000585104350C2DE4D12B49201C02F020FED2
:102E7000002832D12949201C02F006FE002833D157
:102E800011A8FEF79FFC059811A91C30FDF72EFC38
:102E9000051CFE20211C800503F0CAFAFC218905CF
:102EA00003F086F901F0E2FB059B041CD96B281C9A
:102EB00003F07EF9211C03F07BF9051CFE20211C88
:102EC000800503F0B5FA011C281C02F0A5FF0021C3
:102ED000041C02F0D9FD002800D000243423019AFC
:102EE0005343FB185C6266E70D4CF7E7291C281C6E
:102EF00070E7C0460402002034040020A80100202E
:102F00002C0100202801002044010020060200209E
:102F1000EE030020A8030020EFFF7F3FEFFF7FBFFD
:102F20009976967EF7B5284C019023004C33274EB6
:102F30001B780D0037789B0610D5202F13D0FDF796
:102F40006BFC00280AD00123F370082F1FD0FDF777
:102F50003BFD02221E4B1A70FFF7C2FC23006033B8
:102F60001B78022B12D0FFF7BBFC230060335B7889
:102F7000002B0BD1174A184B12781B789A4214D0A9
:102F800029000198FFF772FE002811D0F7BD380024
:102F9000FDF75CFCFFF7A4FC230060335A78002A9D
:102FA000DCD11B78002BF5D1D1E7FDF757FCDAE730
:102FB0004C3423789B07E9D510202B7A0342E5D0C7
:102FC0006968FFF7C7FDE1E72801002088010020BC
:102FD0008902002006020020EE030020F0B5884B95
:102FE00091B00293874B04905C78002C00D0B7E03E
:102FF0000DAD28000C22210003F084FD06232B7266
:10300000029B002704331E00012501932B00002C96
:1030100003D00223012C00D0DB1809AA1355049B0E
:1030200023412B420AD07849706A03F0C1F8391C59
:10303000039002F029FD002800D1039F01340436DB
:10304000032CE3D1029B023C5B6D059304230293A6
:103050006E4B0AA819000693FDF7C2FB00206C4BCB
:1030600005001B7807930300049A01211A410A42C4
:1030700019D0079A40181A41C0B203970A4206D0E5
:10308000002C06D080221206BA18039201E0002C10
:10309000F8D00022069E99007250039E0AAA8E5014
:1030A00009AA9A5C15430133032BDDD103F064FCBC
:1030B00001F0DCFA534F011CBD71059803F078F85C
:1030C0000DA90D900AA8FFF7D1FD04233B71FEF76F
:1030D000AFFBFDF775F9002C11D0FDF735FB002390
:1030E00009A95A5C154205D0060001271E413E423F
:1030F00000D095430133032BF3D1424B9D71FEF772
:1031000097FB3421434B444E1A780A4200D16BE0BE
:103110001A78D3B2D20603D532002E39613211703B
:103120009A0603D53200072161321170002C05D0B8
:103130005B070CD533000922613307E0FDF704FB80
:10314000049B034203D03300082261331A7033001A
:1031500061331B78002B05D0FDF736FCFFF7C0FB71
:1031600011B0F0BD04225036337893433370FEF72C
:1031700041FA2A4B224D1888FDF7DCFB01235C4005
:1031800036D02749E86D03F013F82B6D071C059323
:10319000029B013BDBB20293002B00D058E71C00DE
:1031A0000126049B2341334214D0019BE86D1F6824
:1031B0002B004D331B78234133421CD0019B596AAD
:1031C00002F08AFC391C02F0F3FF01F0E7F90F4B23
:1031D000A200D050019B013404330193032CE0D1B1
:1031E000002360352B71BBE76B0700D073E7BEE7A8
:1031F000EF6D6B6DCBE780231B06C018E2E7C0467E
:1032000028010020880100200000C0BF2402002007
:103210007501002078020020280200208001002093
:103220000000A040F0B59B4D9B4C99B0402200217E
:10323000280003F067FC20000B2298494D3003F072
:10324000BBFC974B1A7800230393242A04D1233A1A
:10325000AB706A7003330392002710AAD370904BAF
:103260000797089702970497059324E1019A413A3A
:10327000192A01D901F0E4F810AA013311A9D01CD0
:10328000D370FEF743F9002801D101F0DCF8119D5D
:10329000281C01F0C9FB03F057FBC4B2200003F067
:1032A000C3FA011C281C03F0C3F87E4902F080FF1A
:1032B00001F0FEF903F048FB019A83B2472A1DD0C2
:1032C0004D2A00D133E10198463814286DD803F017
:1032D00031FB69016C006C0084018B018F01970147
:1032E0006C009B016C00A2016C00A601AA01AE015A
:1032F0006C006C006C00BA01C201CA013D2C56D8AA
:10330000252C21D81E2C50D8092C3BD8032C4AD868
:10331000049A002A01D001F099F8023204925D4E1D
:1033200001257470262C7AD11A00143A92B21E2A02
:103330003BD85D49D140294237D00A21180003F01B
:10334000A5FC763870705FE02000263817282CD84E
:1033500003F0E6FADEFF2B009E002B002B0083001B
:103360002B002B002B002B002B0083002B002B00AD
:103370002B0047009500950095009500950095005D
:103380002B009A0020000A3814280ED803F0BEFA49
:10339000200D0D0D0D0D0D4343435F5F0D0D0D0D04
:1033A0000D0D200D2000042C1BD014233AE020002A
:1033B0005038C2B20E2AF8D80E28F6D803F09CFA7C
:1033C000AFF5F5F5F5F5F5F5F5F5343408414100BF
:1033D000002B06D1049A002A01D001F037F80132FF
:1033E00004922C4920000C7002212B4A88431C288F
:1033F00002D000255C2C12D1002B01D00A2BD4D195
:1034000000254C32E3181370079A01232A411A420F
:103410004CD0152306E002251E4A113C5471002BA6
:10342000F2D0172301937BE3002B04D1194B5A3CB4
:1034300003251C71E8E70A2BB7D15A2CB5D0042517
:10344000E2E75E21134A091B05259170E7E7152184
:10345000104A091B0625D170E1E7049A002A01D021
:1034600000F0F4FF312C03D00A2B9ED101230493EA
:10347000084B049A08259A7103230493C4E7054A6C
:10348000363C0925D471CAE7002B8ED10A25BBE74B
:103490000725C4E7F4030020A8030020340200201D
:1034A0009D0300200000C84201041040AB40079A71
:1034B0001A4393B2079310ABDB78059AD25C019262
:1034C000002A00D0D2E6029B002B04D0049B002BE4
:1034D00001D102330493BB0606D5B44BB44ADB6E6C
:1034E000934201DD00F0BEFF039B002B00D1C2E040
:1034F000FB0700D4D2E0AF4BAC4CDB78012B04D1FE
:10350000A06DAD4902F054FEA065A84BFA0502D4A7
:10351000AA4A92699A671A004C321278042A00D09B
:10352000CAE03C32174200D0C5E01C237AE7002BEA
:1035300000D076E7092C12D8072C27D8022C14D9F2
:10354000E31E022B00D930E72023042C03D0631F95
:103550005A1E93411B01974A93720C220AE01E2CBB
:1035600000D022E7934B1C7203E0002C0AD0012C00
:10357000F8D10B22079901231141194200D048E7E5
:10358000934094E703228B4B1A72F2E7874A092C87
:1035900004D013004C33597A40230B434C325372FE
:1035A0000D22E7E70024814B9D653B00012223416A
:1035B000134201D000F050FF814B2341134207D04A
:1035C0000021281C02F060FA002801D000F047FF1B
:1035D0000123A3401F43BFB26DE70124734BDD6598
:1035E000089B23430893E0E7704B02241D66F7E72E
:1035F0006E4B089A5D6604231A4303240892D4E7AD
:103600006C4B1C770424D0E7281C03F0EDF8674CC2
:10361000E0660524C9E7654B06241D67C5E7634BD3
:1036200007245D67C1E7614B08249D67BDE76549D5
:10363000281C02F03DFA002801D000F00AFF624B7E
:103640001C700924B1E7614B029ADD6701231A431C
:103650000A240292A9E75E4B029ADD6702231A430D
:103660000B240292A1E75B4B029A1D6004231A43CC
:103670000C24029299E74F4A4C499378012B0FD1C1
:103680000499022900D040E75278502A00D13CE743
:10369000002A00D139E71F4200D036E71623C1E6E1
:1036A000464B5A7B002A00D02FE7FA0700D522E7C5
:1036B000DB698B6529E797434C335B790593002BD6
:1036C00008D0012B48D000230D9302330993013B0E
:1036D000059303E002230D93013B0993354CE678F3
:1036E000012E3FD0049B032B08D1324B9B79012B39
:1036F00004D1029B042B01D000F0B7FE12A90800F0
:10370000354B2E4A70CB70C0079B9B0539D4294C92
:10371000264B227806920A2A42D05C2A00D1BBE0CE
:10372000049B032B00D0E2E0069B20491E2B00D116
:1037300018E1352B00D128E11C2B00D0D1E0062068
:103740005C31FFF76FFA002828D0029B002B00D0D5
:103750000BE10A9304938BE0059B0D9300230993DF
:103760000233B5E70025029B2B41334204D0606B46
:10377000114902F01DFD606301350434032DF2D1BF
:10378000B0E70C4BD879062801D91D234AE6937C73
:103790008342BCD0FFF746FA0028B8D1072341E6A0
:1037A000029A002A1AD11A233CE6C046A803002038
:1037B00080969800F40300203333CB412802002088
:1037C0006103000000007F4324040020AC030020BC
:1037D000B0030020300400205C0200205022174279
:1037E00000D1A2E6186F01F01FF903F0ADF8C0B2E6
:1037F0000628CAD8237F142B05D0022B00D0D4E58D
:103800003B0600D5D1E5C84900283ED00138C3B2F7
:103810000C000A930A985C314C34FFF703FA002835
:10382000BCD00025237FC14E0B93029B01222B416C
:10383000134216D0636B06930B9B142B29D1716B2B
:10384000F06902F0F5FD069902F0F2FD2061022D0B
:1038500007D1B54B0693B64BD96C02F0E9FD069B38
:103860005866013504340436032DDED150239F43BE
:10387000B04AAD4B52780692502A00D08BE0029BA2
:10388000002B00D1F3E01F23CCE50B004C33DB7998
:10389000BEE7069B2361E4E7029B002B83D0002553
:1038A000A24E029B01222B4113421DD0082110AAD7
:1038B000AB005218D158F06902F0BAFD616B02F00A
:1038C000B7FD6063022D07D19B4B0693984BD96CD3
:1038D00002F0AEFD069B1860013504360434032D5A
:1038E000DFD100230A93C3E7736B6363F4E7029BA2
:1038F000002B00D118E700258C4E029B01222B41A2
:10390000134207D1F3696363013504360434032D90
:10391000F3D109E7069B352BF6D0636B0A93824BF4
:103920000B93844B1B79002B16D1AB0012AA716B41
:10393000985802F0D1F80A9902F0CEF8011C6063A1
:10394000022DE1D10B9B88330A93794BD86C02F09E
:10395000C3F80A9B1860D7E70A99F06902F0BCF82F
:103960006063D1E707205C31EBE6002301206F495B
:10397000704A029C1C41044201D1CC69146101339C
:1039800004310432032BF4D1ABE74C314B78012BDB
:10399000A7D91E2346E5049A022A68D1069A002A6E
:1039A00005D1029B5A1E93415B0004935FE0002106
:1039B000986D02F063F8002800D06FE6069B032B99
:1039C00006D04FD8012BECD00423039A1A4303925C
:1039D000029B002B00D1E6E601231A0005998A40DC
:1039E00009998B401A43029B15001A4201D100F03D
:1039F0003FFD059B059A4C4C4D4E0C3306329B0007
:103A00009200E318B2181169186D02F011FD099BBC
:103A1000099A0C3306329B009200E318B218116920
:103A20000B90186D02F004FD80233A000C901A40B0
:103A30001F4200D1FAE0300025000C22E1182830A6
:103A40004C3503F0FFF8002800D07DE02123E9E4A5
:103A500006988D38022800D960E102F06BFF5B0107
:103A60005F015B01069B7433DBB2032BF0D90123AA
:103A7000039C039A1C401A4200D165E139002033AF
:103A80009943049B002B01D02C4B1940002901D0F5
:103A900000F0F7FC15AE0C22300003F033F8002CD8
:103AA00000D154E14923079A9A4301D000F0ECFC7D
:103AB000204B1D4D1B78352B03D0002B01D000F07F
:103AC000E3FC1B4C1E4FA3697360237D627D1A4388
:103AD000AB6D15930423134333721A4B1B789B066B
:103AE00007D528008030FCF797FE002801D000F0B1
:103AF000CEFC2800310080306037FFF713FA3B78A6
:103B0000002B09D1FCF79AFD002805D020233B703B
:103B1000FDF78EFEFCF754FC283480350ECD0EC424
:103B2000019819B0F0BDC046A8030020340200205F
:103B300028020020F403002030040020FFE3FFFFF0
:103B40002801002074010020EB78012B04D1606F64
:103B5000894902F02DFB60670B99884B081C5C6F4C
:103B600002F026FB0C99061C081C02F021FB8121A7
:103B70000890C905201C02F01BFB211C02F018FB59
:103B8000311C02F055FC089902F052FC0021051C82
:103B900001F07AFF002801D000F06DFC281C00F035
:103BA00065FD0899051C301C01F096FF00F05EFDD4
:103BB00080231B06011CE81802F02EF9069B051C49
:103BC000032B02D180231B06C5180021201C01F005
:103BD0005BFF002805D08022684B1206A418AD18A0
:103BE0005C6780239F43059B291C0C989C1C02F05A
:103BF000DFFA011C0B9802F01BFCFC21890502F086
:103C0000D7FA5E4EA400099B34196065291C0B98F5
:103C10009C1C02F0CDFA0C9901F05EFFFC21890595
:103C200002F0C6FAA4003419606520E7089B2B4215
:103C300001D100F023FC0E234C34E6789F43012E83
:103C400059D0059B4D4A02339B00D31816005B6D7B
:103C50000B98191C089302F0EBFB099B051C02331F
:103C60009B00F3185B6D0C98191C0B9302F0E0FBA2
:103C7000291C041C281C02F09BFA211C051C201C7A
:103C800002F096FA011C281C01F026FF00F0EEFC61
:103C90000899041C081C02F08BFA0B99051C081CDF
:103CA00002F086FA011C281C01F016FF00F0DEFC71
:103CB000011C7067051C201C02F0BAFB440064085C
:103CC0002F49201C01F0F4FE002800D1CFE6FC2192
:103CD000201C890501F0ECFE002800D0B6E6294939
:103CE000281C02F065FA011C201C01F0E1FE0028EE
:103CF00000D1BCE6AAE61500089B2B41334204D054
:103D000020691D4902F054FA206101350434032D65
:103D1000F2D196E71023039A1A430392069B72335B
:103D2000DBB2012B03D80823039A1A430392029BA8
:103D3000002B00D137E50C221349144802F082FF12
:103D4000002800D093E681E61149394099E6114BED
:103D50001B789B0732D5069B013B022B03D94023DE
:103D6000039A1A430392029B002B15D0049B022B4B
:103D700012D17E33039A1FE03333CB41A8030020D6
:103D80000AD7A33B6F12833A280400205002002078
:103D9000DEFCFFFF74010020924A537D102B0DD1F1
:103DA000127B03993033013A0B40022A00D9CAE052
:103DB000002B03D020230A001A4303928A4A894B1E
:103DC000D16E596211004C3189785973002902D0A3
:103DD000082115AB1972936D946F06930699814B68
:103DE0001591D9619869211C01F048FE002802D084
:103DF000039B9B0613D57B4B587D00280BD06B464D
:103E00001B7B5BB2002B06DB039B00215B0600D40F
:103E1000211CFEF79FFE744A724B926F9A61039BBE
:103E20005B0602D46F4B9B691693704A704B1278F5
:103E30006C4C704DDA77A87A637D834204D0169972
:103E4000FEF788FEAB7A6375664B15AA147A597D26
:103E50000C431472674A1B7D557AAB420CD0664BFB
:103E60001B78022B04D0FEF745FE2800FCF78AFAE7
:103E7000604A5C4B527A1A755A4B5E4A1B7D127827
:103E80001C4315AB1C72584B042A0AD15A4A1278AB
:103E9000022A06D01D6FFEF72DFE0021281CFEF71A
:103EA000F7FC54494F4A48794F4B1074C8789073C7
:103EB0000498032813D189795174002903D11A0079
:103EC00000218832116088331E68464D311CE86C31
:103ED00001F0D4FD002802D1EE64FEF7BEFE454B92
:103EE000DA79404B997C914206D09A7412AA343305
:103EF00023CA23C3FEF7B1FE3E4A3A4D1179127828
:103F0000394BE973262A51D022D802211000884368
:103F10001C2837D00A2A25D0364B324E5B78324FD8
:103F20003373502B00D1E5E1049A022A00D0E1E17D
:103F3000012B4CD1314815A9FEF7F4FF304B2F4A25
:103F400013CA13C3D6E1002B00D037E7203311E7A3
:103F50005C2A31D0662A33D0282ADDD129000720F7
:103F6000283126E05C3319000A981C00FEF702FE97
:103F7000AB7C0A9A34359342CED10ECC0EC5FEF7F7
:103F80006CFEC9E7012215A922430A72049A002A8D
:103F900003D080331800FEF7C5FF1A4C15A9200086
:103FA000FEF7C0FF164B07CC07C3B5E72900062074
:103FB0002831FEF7DFFDAFE780331C004035DCE73A
:103FC00028000C220021403002F09CFDD7E715AC00
:103FD000002B19D13800227A0133134321002372B8
:103FE0008030A9E728020020A80300202404002034
:103FF00029020020F403002088010020280400206A
:104000005002002004040020023B012B00D94CE1A7
:104010007B6F28360793059B9D0073190E93E34B26
:104020005B1908931B68029373191968029801F0D1
:1040300053FD099B0A909C0033190993DB4B7D19B2
:104040001B191E680B93099B301C196801F044FD75
:10405000802212069446029B043563440A990C9010
:104060000293E86FB318049302F0E2F93C190434A8
:104070000C99051CE06F02F0DBF9291C041C029866
:1040800002F096F8211C061C049802F091F8011C1D
:10409000301C01F021FD211C061C029802F088F85A
:1040A000291C041C049802F083F8011C201C02F057
:1040B000BFF9311C00F0F8FA039B061C5B0700D423
:1040C000B4E0BB4901F0FEFC002804D0B949301C23
:1040D00002F0AEF9061CB84B07991C6C081C01F0E5
:1040E000FBFC211C02F0A4F9211C02F061F800F095
:1040F000BDFAFC21041C8905301C02F059F807990F
:1041000002F056F84000211C400801F085FE00F046
:1041100003FC02F019FC83B20593002B00D109E7E0
:1041200010AB05981D7F082702F07EFB041C3D4262
:1041300007D0011C069802F03BF8BD4310AB159068
:104140001D77211C301C01F067FE0D9B9B4A9C4E85
:104150009B00F6189B1831680390D86F02F068F93D
:10416000211C01F059FE03990F90081C02F020F861
:10417000011C8020C00502F05BF99249041C0398E1
:1041800002F016F88121051CC905201C01F0A4FCD1
:10419000011C281C02F00CF8FC2106908905201C4B
:1041A00002F006F8002401270790059ABBB29A4254
:1041B00000D8BFE60C2C44D00299069801F0F8FF15
:1041C0000499051C079801F0F3FF011C281C01F05D
:1041D00083FC0299051C079801F0EAFF04990290FC
:1041E000069801F0E5FF011C029802F021F9013464
:1041F0000290E4B2049502990A9801F06DFC0E9BBE
:10420000049918600C9801F067FC099B0F991860DD
:10421000306801F061FC15A930606948FEF782FE44
:10422000694B01375B78002BBFD087E6674901F007
:1042300035FC002800D14EE75E49301C01F04CFCF3
:1042400048E7380002F0F0FA039901F0B1FF041CCE
:1042500000F0D0F90490201C00F0A8FB089B041C7F
:104260001D6880231B06ED180B9B04981B68291CF6
:104270000D9301F09DFF0D990290201C01F098FF15
:10428000011C029801F028FC291C0290201C01F05E
:104290008FFF0D99041C049801F08AFF011C201C5B
:1042A00002F0C6F800240490A5E70422237A464DC4
:1042B000134323722B78022B00D13FE6FEF71AFC42
:1042C0006B780293002B15D16B710125039BD808E5
:1042D0002840FCF757FA3E4B327A1B6A2B409A4231
:1042E00023D03300042261331A70FEF7F9FA0298E2
:1042F000FCF748FA374B384C1B7AE374002B01D19A
:10430000FFF70EFCFEF7F6FBE27C2B4B032A6DD188
:1043100060331B78022B04D00820FCF797FAFEF7D5
:10432000DFFA0023E374FFF7FBFB38002100803045
:10433000FEF7F8FD294B0498294C1D70FCF786FA0E
:10434000FEF7CEFA204B1C4D5A78002AD2D11A78AB
:10435000002AF5D1220078321278012A22D1039B5B
:10436000DB061BD523001F4A7C3343CA43C300200E
:10437000783460352070FCF705FAFEF7B1FAFDF7E6
:1043800039F9FDF783F9FCF7A3F9FCF743FF6B79E3
:10439000002B00D1D2E5FCF735FAABE70522124B32
:1043A0001A70E4E701225A71E1E7C04604040020D4
:1043B000BD3706B5DB0FC94028010020AC03002043
:1043C00050020020ABAA2A3E88010020BD370635E6
:1043D00000440041F40300202802002020030020B4
:1043E000A8020020240200208902002001220025CA
:1043F0006033A2816332DA71264A25741A811B78F0
:10440000E573A574A582022B11D021002800343158
:10441000FEF708FCA84201D1FFF7C0F9FEF71DFC2A
:1044200028000021FDF79AF92800FBF7ABFF1A4896
:10443000FCF706FD1948FCF703FDFCF7F5FD70E7F6
:104440000123FEF7EFFF0223FEF7ECFF1823FEF730
:10445000E9FF2623FEF7E6FF1923FEF7E3FF042317
:10446000FEF7E0FF1B23FEF7DDFF2523FEF7DAFF53
:104470002023FEF7D7FF2223FEF7D4FF2323FEF7E6
:10448000D1FF2423FEF7CEFF1023FEF7CBFF0F232F
:10449000FEF7C8FF64640000E97D0000837E000031
:1044A000F7B500240127154D154E2000FEF736FB09
:1044B000002812D12B00753318703E30FCF7A2FC97
:1044C000FDF718F83A20FCF79DFC0720FCF704FDE7
:1044D000002C00D0F7BD3C00E7E73378002BF7D085
:1044E000FEF7A0FE01903E20FCF78CFCFDF702F8E1
:1044F0003A20FCF787FC0198E8E7C0462803002033
:104500009D0300201A4B1B49002210B51A488B420C
:1045100003D303331A1A92089200184902F04CFB95
:10452000BFF34F8F164B1749002217488B4203D316
:1045300003331A1A92089200002102F0E3FABFF343
:104540004F8F124B124CA360BFF34F8FFCF76EFAE4
:10455000104B114A5A6000229A6007321A60C0223A
:10456000236A12061B021B0A1343236202F01AFC81
:1045700028010020FDFFFF1F00000020B07F000089
:10458000340900202501002028010020000200003D
:1045900000ED00E010E000E07FBB00004200031CE3
:1045A000120EC043110010B50224C01720407F39FD
:1045B00001381E290CDC002916DB80245B025B0A13
:1045C00024042343162907DD963A9340584310BD2F
:1045D000181C02F009F9FAE78022D2030A41D31825
:1045E0001722521AD340F1E77E3A53425A415242BF
:1045F0001040ECE700B51C4A430083B05B089342CF
:1046000018D9FF22D205934204D3011C01F010FFF8
:1046100003B000BD694600F03BFC0323019918403C
:10462000012813D0022809D0002818D1009800F0E2
:10463000ABF8EDE7002100F0A7F8E9E7009800F0FB
:10464000A3F880231B069C466044E1E70122009802
:1046500000F0A6FB80231B069C466044D8E701229D
:10466000009800F09DFBD3E7D80F493F70B5041CBC
:1046700001F02AF9211C051C201C02F09FF80028DB
:1046800005D10021201C01F0FFF9002801D1281CD0
:1046900070BD02F08BFA212300210360081C01F099
:1046A000BBFB051CF3E7C04610B500F0D7F910BD01
:1046B00043001B0E7F3B10B5021C162B13DC002B96
:1046C00009DB0C491941014204D08020C003184184
:1046D0008018884310BDC00FC0070133FAD1FE23F4
:1046E0009B051843F6E7802BF4D1011C01F0F4F987
:1046F000F0E7C046FFFF7F00F0B5C64644006708FC
:10470000240E7F3C060000B5051C162C2CDC8046D0
:10471000002C19DB1A4F2741074211D0194901F02B
:10472000DBF9002101F0C4F9002809D0002D04DDD7
:1047300080231B0423419846A8444346BB431E00E4
:10474000301C80BCB846F0BD0E4901F0C5F900210F
:1047500001F0AEF90028F3D0002D0EDB0026002F6B
:10476000EED0FE26B605EBE7FF23DB059F42E7D33D
:10477000011C01F0B1F9061CE2E780263606DFE7EE
:10478000FFFF7F00CAF24971F8B54746CE46C823FD
:10479000460080B5051C0F1C76089B059E4248D23A
:1047A00002F022F8002800D19FE0291C281C01F00B
:1047B000FFFC4F49041C01F0FBFC4E4901F08CF951
:1047C000211C01F0F5FC4C4901F032FE211C01F0E6
:1047D000EFFC4A4901F080F9211C01F0E9FC48494D
:1047E00001F026FE211C01F0E3FC464901F074F9BA
:1047F000211C01F0DDFC8046FC21201C890501F014
:10480000D7FC4146061C201C01F0D2FC391C041CBC
:10481000281C01F0CDFC011C201C01F009FE011C2C
:10482000301C01F005FE011CFE20800501F000FE99
:1048300053E0011C01F0BCFC2D49041C01F0B8FC44
:104840002C4901F049F9211C01F0B2FC2A4901F080
:10485000EFFD211C01F0ACFC284901F03DF9211CC1
:1048600001F0A6FC264901F0E3FD211C01F0A0FCAB
:10487000244901F031F9211C01F09AFC224B8046B9
:104880009E42B9D9214B9E422BD8FF231B069C4642
:10489000FE206644311C800501F0CAFD8146FC21E2
:1048A000201C890501F084FC311C01F0C1FD41464A
:1048B000061C201C01F07CFC391C041C281C01F087
:1048C00077FC011C201C01F0B3FD011C301C01F021
:1048D000AFFD011C484601F0ABFDC0BCB946B04677
:1048E000F8BD0B4B0B4E9946D9E7FE208005F4E747
:1048F0004ED747ADF6740F317CF29334010DD037AB
:10490000610BB63AABAA2A3D9999993E0000483FFF
:104910000000383F0000903EF0B5C64644006708EE
:10492000240E7F3C060000B5051C162C28DC8046B2
:10493000002C19DB1A4F2741074211D0194901F009
:10494000CBF8002101F0B4F8002809D0002D04DADA
:1049500080231B0423419846A8444346BB431E00C2
:10496000301C80BCB846F0BD0E4901F0B5F80021FE
:1049700001F09EF80028F3D0002D0ADB0026EFE7B7
:10498000FF23DB059F42EBD3011C01F0A5F8061CB9
:10499000E6E7002F02D180263606E1E7024EDFE788
:1049A000FFFF7F00CAF24971000080BF00B51D4AB9
:1049B000430083B05B08934219D9FF22D20593428A
:1049C00004D3011C01F034FD03B000BD694600F0C2
:1049D0005FFA032301991840012816D002280BD052
:1049E000002816D10122009800F0DAF9ECE7002245
:1049F000002100F0D5F9E7E70122009800F0D0F996
:104A000080231B069C466044DEE70098FFF7BCFE4F
:104A1000DAE70098FFF7B8FE80231B069C46604447
:104A2000D2E7C046D80F493F43001B0E7F3B10B56D
:104A3000162B08DCC20FD207002B0ADB06491941EE
:104A40000840104310BD802BFCD1011C01F044F83C
:104A5000F8E7101CF6E7C046000080FFF8B5FF2518
:104A60004A00031C5208081CED05AA422BD8590025
:104A70009C464908A94226D8FE24A405A04234D069
:104A8000022487173C40DF0F3C4300291FD0002A37
:104A900024D0AA4231D0A94220D0891AC9153C2974
:104AA00029DC002834DA3C3132DA0020012C40D0F5
:104AB000022C36D0002C09D0244901F00DF82449ED
:104AC00001F0B6FC02E0191C01F006F8F8BD022C5A
:104AD00009D0181C032CF9D11E48F7E76346002BB8
:104AE00007DB1D48F2E71A48F0E7181C00F03CF815
:104AF000ECE71A48EAE71848D8E7013C91421DD094
:104B00000020022CE2D8164BA4001B19D868DDE760
:104B1000011C181C01F080F900F032FB00F024F8B1
:104B2000C4E70A4900F0D8FF011C094801F080FCE5
:104B3000CCE780231B069C466044C7E7022C03D8C1
:104B4000074BA400E058C1E70648BFE72EBDBB33C2
:104B5000DB0F4940DB0F49C0DB0FC93FDB0FC9BF8B
:104B600044790000DB0F493FF0B5A123C64645005C
:104B7000060000B5041C6D08DB059D420BD3FF2326
:104B8000DB059D4200D978E0002800DC88E0704811
:104B900080BCB846F0BD6F4B9D4200D982E0C42373
:104BA0009B059D426DD301235B429846211C201C2E
:104BB00001F0FEFA011C071C01F0FAFA6649051C17
:104BC00001F0F6FA654900F087FF291C01F0F0FAC0
:104BD000634900F081FF291C01F0EAFA614900F005
:104BE0007BFF291C01F0E4FA5F4900F075FF291CE6
:104BF00001F0DEFA5D4900F06FFF391C01F0D8FAD0
:104C00005B49071C281C01F0D3FA5A4901F010FC3B
:104C1000291C01F0CDFA584901F00AFC291C01F0C9
:104C2000C7FA564901F004FC291C01F0C1FA5449A5
:104C300001F0FEFB291C01F0BBFA011C381C00F03E
:104C40004BFF211C01F0B4FA4346013348D04346E0
:104C50004C4D9F00EB19196901F0EAFB211C01F092
:104C6000E7FB011C785901F0E3FB002E00DB8FE726
:104C700080231B069C4660448AE7011C00F02CFF41
:104C800086E7414900F028FFFE21890500F010FF6A
:104C90000300201C002B00D07AE7013B984685E7F3
:104CA0003A4875E700F06CFA394B041C9D421CD859
:104CB000384B9D423AD8011C00F00EFFFE218905B9
:104CC00001F0B6FB8021051CC905201C00F004FF83
:104CD000011C281C01F0A0F80023041C984665E77D
:104CE000011C201C01F0A4FB52E72B4B9D4215D860
:104CF000FF21890501F09CFBFF21051C8905201C73
:104D000001F056FAFE21890500F0E6FE011C281C80
:104D100001F082F80223041C984647E7011C1F4853
:104D200001F07AF80323041C98463FE7FE21890529
:104D300001F07EFBFE21051C8905201C00F0CCFE45
:104D4000011C281C01F068F80123041C98462DE77B
:104D5000DB0FC93FFFFFDF3ED769853C59DA4B3D8A
:104D6000356B883D6E2EBA3D2549123EABAAAA3E50
:104D700021A215BD6BF16E3D95879D3D388EE33DBB
:104D8000CDCC4C3E5C790000CAF24971DB0FC9BF43
:104D9000FFFF973FFFFF2F3FFFFF1B40000080BF3B
:104DA000F8B54746CE4680B51700C8224300041C1C
:104DB0000E1C5B089205934205D201F015FD03001D
:104DC000201C002B32D0211C201C01F0F1F9051C05
:104DD000011C201C01F0ECF927498046281C01F039
:104DE000E7F9264901F024FB291C01F0E1F92449E7
:104DF00000F072FE291C01F0DBF9224901F018FBDA
:104E0000291C01F0D5F9204900F066FE8146002FEB
:104E100010D1011C281C01F0CBF91C4901F008FB42
:104E2000414601F0C5F9211C00F056FEC0BCB94650
:104E3000B046F8BDFC21301C890501F0B9F949469E
:104E4000071C404601F0B4F9011C381C01F0F0FACF
:104E5000291C01F0ADF9311C01F0EAFA0B49051CDF
:104E6000404601F0A5F9011C281C00F035FE011C8C
:104E7000201C01F0DDFAD9E7D3C92E2F342FD73209
:104E80001BEF3836010D50398988083CABAA2A3E01
:104E9000F0B557464E46DE464546E0B5A94B89B0CB
:104EA00046000C00071C029076089E4200D872E073
:104EB000A54B9E4221D8A54EA5490640002800DCFE
:104EC00019E101F0B5FAA34B051C9E426FD0A2492F
:104ED00001F0AEFA011C061C281C01F0A9FA9E493B
:104EE00001F0A6FA012526606060280009B0F0BC38
:104EF000BB46B246A946A046F0BD984B9E4266D935
:104F0000FF23DB059E424BD2F715863FFD05751B3F
:104F1000281C01F069FC01F087FC011C0590281C8D
:104F200001F086FA8721C90501F042F9051C01F05C
:104F30005BFC01F079FC011C06908046281C01F006
:104F400077FA8721C90501F033F90021079000F0B5
:104F500095FD002800D1CCE00021404600F08EFDF8
:104F60004342434101337E4A21000192022205A8B7
:104F700000923A0000F008F9029B0500002BB4DA19
:104F80008022120694462368454263442360636886
:104F900063446360A9E70023002508604B60A4E731
:104FA000011C01F045FA0025606020609DE76D4915
:104FB00001F03EFA6C49051C01F03AFA011C061C8E
:104FC000281C01F035FA684901F032FA8AE700F04E
:104FD000D7F86649804601F0EBF8FC21890500F01E
:104FE0007BFD01F001FC050001F01EFC58498246E2
:104FF00001F0DEF8011C404601F01AFA56498146DC
:10500000504601F0D5F880461F2D22DC584A691E13
:105010008900584B8A583B4093421AD04146484633
:1050200001F006FA071C391C4846276001F000FA17
:10503000414601F0FDF9029B6060002B00DB54E764
:1050400080231B069C4667446044276060606D4275
:105050004BE74146484601F0EBF9FF22C30DF61538
:1050600013409346071CF31A082BDCDD3D495046DC
:1050700001F09EF8071C011C484601F0D9F9011CFB
:105080000390484601F0D4F9391C01F0D1F93649B2
:10509000071C504601F08CF8391C01F0C9F9039B3C
:1050A000011C8046181C994601F0C2F95A46C30DEE
:1050B0001A40B31A071C4E46192BB4DD2E49504630
:1050C00001F076F8071C011C484601F0B1F9011CFB
:1050D0008146301C01F0ACF9391C01F0A9F92749CF
:1050E000071C504601F064F8391C01F0A1F9804614
:1050F00094E7032337E700F0EFFC164B051C9E42B4
:105100000FD0154900F0E8FC011C061C281C01F01A
:105110008FF9114900F0E0FC0125266060606D42C6
:10512000E3E6104900F0D8FC0F49051C00F0D4FC60
:10513000011C061C281C01F07BF90B4900F0CCFC7B
:10514000EAE7C046D80F493FE3CB1640F0FFFF7FA8
:10515000800FC93FD00FC93F43443537800F4943C3
:10516000FC7900000044353708A3852E84F9223FDE
:105170007C79000000FFFF7F00A3852E32318D2453
:10518000400040087047C046F0B5DE4657464E46E0
:1051900045461C00E0B5DFB0029068980A91B74917
:1051A000079383000D91C9582300013B9B460C9245
:1051B0000491131D00DABCE20723033AD1170B4018
:1051C0009B18DB1001930133DB000B930B9A0C9BB4
:1051D0009B1A5A460393019B9C1A049B9E180ED45B
:1051E0000136699F22AD36190020002C03DBA30095
:1051F000F85801F019FB013401C5B442F4D1049B05
:10520000002B00DA46E34AAB9A4605935B46079AC1
:105210009F00944622AB9846029A049BB84463448C
:1052200094465A4699460437674400925B460026E6
:10523000002B0EDB45460026029C296801CC00F0BD
:10524000B7FF011C301C00F047FC043D061CBC42AB
:10525000F3D1534640C39A4604239C46009BE04446
:10526000013300934B45E1D10EA904228C465242F2
:1052700062449446049FBB009C4462468C4609925B
:10528000699A083B634494460893019BBA469B0085
:1052900063440193079B9E00029B9C4666445346D1
:1052A000059A9B00D45800935346002B26DD744B7F
:1052B000B14653449B00D5180EAB90461E00EE211C
:1052C000201C890500F074FF01F08EFA01F0ACFAA1
:1052D0008721C905071C00F06BFF011C201C01F091
:1052E000A7F801F081FA296801C6381C00F0F4FB28
:1052F0002B00041C043D9845E1D14E46039D201C23
:10530000290000F04DFBF8218905071C00F050FF33
:10531000FFF702FB8221C90500F04AFF011C381C7F
:1053200001F086F8071C01F05FFA814601F07CFA73
:10533000011C381C01F07CF88046002D7ADD5346B4
:105340005A1E92000EAB9B5808201900401B0141C9
:10535000894481405B1A0EA98B500722521B1341CE
:105360000693002B00DD28E10021404600F086FB7B
:10537000002800D1BFE0049B9A450FDD0EAA944699
:1053800000223F4B099853449B0063441968043B37
:105390000A438342FAD1002A00D02BE1049B0EAAD3
:1053A000013B9B00D358002B00D01CE10122089B3D
:1053B0001968043B01320029FAD0012352445344B6
:1053C00098469146079B22A953449B008C461A009D
:1053D000059962448C46009B63449A464346904636
:1053E0000093009B019A9B00D05801F01DFA4346A0
:1053F00018605B46002B1BDB45460027029C296892
:1054000001CC00F0D5FE011C381C00F065FB043D0A
:10541000071CB442F3D10422534694465F60009BBC
:10542000E04401330093E2449945DADACA4636E7AC
:105430000027F0E7039B002B00D0B4E05346013B6C
:105440000EAA9B00D358DA1106927F2B8CDD012324
:105450009C465346E144002B00DC16E20EAB1800DC
:10546000002251460E9F002F00D195E08A468021F0
:105470004900C91B01605446FF2006E0147D00006E
:10548000FFFFFF3F1968411A19600132043394424B
:10549000F8DCA2460127039B002B0EDD039B012BAA
:1054A00000D196E0022B08D15346013B9B000EAA87
:1054B000D1583F220A400EA9CA50069B022B00D0A9
:1054C00052E7FE204146800500F0B2FF8046002FE3
:1054D00000D149E7FE200399800500F061FA011C24
:1054E000404600F0A5FF80460021404600F0C6FA85
:1054F000002800D03FE70B9B0C9A4046991A00F019
:105500004FFA8721C9055746041C00F0DBFA002832
:1055100000D199E1EE21201C890500F049FE01F03F
:1055200063F901F081F98721C905061C00F040FEEE
:10553000011C201C00F07CFF01F056F9009A0EAB14
:105540009850039B301C0833039301F04DF97C1CE9
:10555000A7000EABD851FE200399800500F020FA79
:10556000002C64DA689B022B00DD96E1002B00DD45
:105570009BE10020002B05D1069B002B00D074E19D
:105580000A9B18604B46072018405FB0F0BCBB4632
:10559000B246A946A046F0BD01320433914227DD50
:1055A00018001F685FE7FC21890500F08BFA0028CE
:1055B00000D0AEE000230693D6E601239C46534676
:1055C0000027E144002B00DD48E7039B012B00D0BE
:1055D00068E75346013B9B000EAAD1587F220A4040
:1055E0000EA9CA5069E70123534498469946E9E653
:1055F0008A4650E757467C1E039AA3000EA9CB5853
:10560000083A0392002B0BD18C46AE4BFB189B0043
:1056100063441968043B013C083A0029F9D003921D
:10562000FE200399800500F0BBF9002C9ADBA30053
:105630000EAA94461E0066449C46059FA0466744F9
:105640003D000293041C306801F0EEF8211C00F0CC
:10565000AFFDEE2128608905201C00F0A9FD0EAAEF
:105660003300041C043E043D9A42ECD10C2236ABBC
:105670009B46019300239446444698460D9B009414
:1056800063449A464B460393049B059444469846CC
:105690004346002B7EDB00260023A1461D1C340060
:1056A00002E004344E450CDC53463959E05800F012
:1056B0007FFD011C281C00F00FFA0136051CB045C7
:1056C000EFDA4C46A9465B464A4604C39B46009B1C
:1056D0000134043F5A1E0092DAD2039B059C99467E
:1056E000689B022B59DC002B28DC00D04AE7019B89
:1056F00000209C46029C6444216800F0EDF9019A68
:105700002300043C9A42F7D1069B002B00D137E7D7
:10571000ABE001239C46013306935346E144002B42
:1057200000DD9BE6FE204146800500F081FE8046BC
:105730001AE608230B930023019347E5019B0025FC
:105740009C46029E281C6644316800F0C5F9019A07
:105750003300043E9A42F7D1011C051C369800F034
:1057600067FE069B002B77D10A9B1D60002C0ED094
:10577000012537AE02CE013500F0AEF9AC42F9DAC0
:10578000069B002B03D080231B069C4660440A9B8B
:105790005860F7E60023994695E7689B032B00D0F5
:1057A000F0E6002C7FD0019B02991A008C466244DF
:1057B0009C460D1F654490462E00AA46A3461768D6
:1057C0003568381C291C009600F086F93C1C011C29
:1057D000071C281C00F02CFE211C00F07DF9019B09
:1057E000009A70603760043E9342E9D15C465546AA
:1057F000012C58D043461C682F68201C391C00F02F
:105800006BF9261C011C041C381C00F011FE311C15
:1058100000F062F9019B68602C60043DAB42EBD163
:10582000444600201D1D2168043C00F055F9A542A6
:10583000F9D1019B0699369A5B6800291AD10A9919
:105840000A604B6088609DE6201C00F0CDFF009A46
:105850000EAB3C009850E3E680231B069C460A9B57
:1058600065441D60002C83D18DE780231B069C4678
:10587000604485E6802109068C460A9962446344A7
:1058800060440A604B6088607CE6069B022B00D077
:105890006AE547E74AAB0593E6E436AB0193689BBC
:1058A000032B00D06EE60020C3E7069B3698002B42
:1058B00003D100230A9A136069E780230A9A1B0622
:1058C000136060E7FEFFFF3FFF21F8B543000200D1
:1058D000041C5B08C9058B424ED2002B4BD000281C
:1058E00051DBC315014208D1802100230904520075
:1058F0001C0001330A42FAD0634280241E00520287
:10590000520A24047F3E1443DB0700D46400802243
:10591000192100270025761064005204A8182300DE
:10592000A04202DC8518231ABF1801395C00520816
:105930000029F3D1002B17D0184C2068616800F0C3
:1059400077FD2568011C281C00F0A8F800280BD062
:105950002068616800F0C0F82468011C201C00F079
:1059600093F8002816D00237FC239B059C467F1035
:105970006744F005C019F8BD011C00F019FC211C9A
:1059800000F0AAF8F7E7011C00F052FD011C00F03E
:1059900043FAF0E7012301379F43E5E74C7D000020
:1059A000420070B5031C0C0006005508002A1AD0EE
:1059B000FF21C9058D4217D2084219D19821C90586
:1059C00000F0F6FB204A031C94422CDB42001F49E6
:1059D000120E0600193A8C420EDD1D48002B1DDB0D
:1059E0001B4900F0E5FB70BD011C00F075F8FAE7FB
:1059F0001649120E8C42F0DC1119FE29EDDC00294B
:105A000015DC0A00163217DB1931C805CC21114B01
:105A100089051E40304300F0CBFBE4E70C490E48FB
:105A200000F0C6FBDFE70D4900F0C2FBDBE70948E9
:105A3000C90530400843D6E70848002B00DA08487B
:105A4000064900F0B5FBCEE7B03CFFFF50C30000B5
:105A5000CAF24971FFFF7F80CAF249F16042A20D8C
:105A60006042A28D844608006146FFE71FB500F042
:105A700057FB002801D40021C8421FBD10B500F01B
:105A8000DDFA4042013010BD10B500F049FB00289E
:105A900001DB002010BD012010BDC04610B500F094
:105AA0003FFB002801DD002010BD012010BDC046D5
:105AB00010B500F0EBFA002801DC002010BD012039
:105AC00010BDC04610B500F0E1FA002801DA002050
:105AD00010BD012010BDC046F0B5C64643025B0AAA
:105AE0009C461F00DE004B025A0A450090464A00C1
:105AF0002D0E120EC40F00B5C90F9B09A81A8C42B7
:105B000021D000280DDD002A2DD1002B00D195E0F9
:105B1000421E012800D131E1FF2800D194E010009D
:105B200027E0002862D0501B002D00D0E1E0002EBD
:105B300000D181E0441E012800D142E1FF2800D1BC
:105B400019E12000DAE0002800DC9CE0002A69D09E
:105B5000FF2D00D178E08022D20413431B2800DC03
:105B60007DE001362AE0FF2D00D16DE08022D204D5
:105B7000134301221B2807DC2021091A1A008B403D
:105B8000C240591E8B411A43B61A730100D477E004
:105B9000B601B709380000F091FE0538874085420C
:105BA00000DD82E020223B00401B0130121A3E0043
:105BB0009340C6405A1E934100251E43730704D0EC
:105BC0000F233340042B00D00436730137D5681CF3
:105BD000FE2D52D08E4BC0B233409B015F0AC005F0
:105BE0003843E407204380BCB846F0BDFE206A1C61
:105BF000104274D1002D00D0AAE0002E00D1DAE0CE
:105C00000020002BEBD08022F71AD204174200D1DB
:105C1000ECE09B1B134200D1F2E07D4A0C001340E4
:105C20000130DAE7002B09D0421E012800D196E0AE
:105C3000FF2809D0100091E70C001E000500F308B2
:105C40009C46FF2D00D091E06346002B15D08027A5
:105C50006346FF031F437F02FF207F0ABFE7202127
:105C6000091A1A008B40C240591E8B411343F61883
:105C7000730105D50135FF2D54D1FF200027AEE774
:105C800073079DD1DBE7002813D0501B002D50D1A6
:105C9000002ED2D0411E012840D0FF286CD0080031
:105CA0001B286EDD15005E1C88E7594E2D1A3E40FC
:105CB00084E7FE216A1C114241D1002D6CD1002ED7
:105CC00000D190E00020002B00D188E7F318DF0816
:105CD0007F027F0A5B0100D481E701207FE7F71A8A
