:020000040800F2
:1000000000800020FD3F0008250E00082D0E00088E
:10001000350E00083D0E0008450E000800000000E7
:10002000000000000000000000000000250E000895
:10003000250E000800000000250E0008A50D000890
:10004000250E0008250E0008250E0008250E0008C4
:10005000250E0008250E0008250E0008250E0008B4
:10006000250E0008250E0008250E0008D1100008F6
:10007000ED100008250E00082511000841110008A8
:100080005D11000879110008250E0008250E0008F2
:10009000250E000809110008250E0008250E00088D
:1000A000250E0008250E0008250E0008250E000864
:1000B000250E0008250E0008250E0008250E000854
:1000C000250E0008250E0008250E0008250E000844
:1000D000250E0008250E0008250E0008250E000834
:1000E000250E0008250E0008250E0008250E000824
:1000F000250E00084D0E0008A5100008250E00086A
:10010000250E0008250E0008000000000000000079
:1001100000000000930C0008250E000800000000FD
:100120000000000000000000250E0008250E000859
:04013000250E000890
:10013400054B58631A6A18B922F001021A62704713
:1001440042F00102FAE700BF002C0140074B5A7845
:1001540052B910F0400F14BF4FF400514FF000514A
:10016400034A91610022DA72704700BF50000020F8
:100174000008024210B50B4A117D4B1CDBB2692BFF
:1001840008BF0023947D9C4208D011441375064A8D
:10019400C875136843F08003136002E0547DE406DD
:1001A400F0D510BD50000020001001400F4A92F815
:1001B400C83013F0040F14BF40214FF480010C4BDE
:1001C4009961FA2192F8043182F8EA3092F8B03059
:1001D400023B4B43DB105B4282F8E9304FF0804234
:1001E400D36843F00103D360704700BF5000002080
:1001F40000000242002330B5164A92F8B10092F88A
:10020400B24082F8043182F8053140FA03F1CD0797
:1002140009D5D3B1012B0CBF0221042192F804515A
:10022400294382F8041144FA03F1CD0709D573B1C7
:10023400012B0CBF1021202192F80551294382F88B
:1002440005110133032BE0D130BD0121E6E708217C
:10025400F2E700BF50000020094BD3F8081171B138
:10026400D3ED4A7A67EEA77A93F80D21C1ED057AAA
:1002740042F0010283F80D210022C3F808217047DF
:10028400500000202DE9F74F0027574E96F844817F
:1002940096F84501B84514BF43461023013BDBB231
:1002A400984269D04FF0340B0BFB0362D2ED597ABC
:1002B400D2ED5A6A77EEA77A92ED587A67EEA67A6B
:1002C400B4EE677AF1EE10FA48BFF0EE477ABB421B
:1002D40014BF1C461024013CE4B2A042C2ED577A7C
:1002E40006F5A47934D003FB0B95002C14FB0BF317
:1002F400A24608BF10242A46013C09EB030596F8E0
:100304008834E4B2A34203D10192FFF7A5FF019A16
:100314000BFB0A63D3ED586AD3ED577AF4EE667A91
:10032400F1EE10FA11D0D3ED597A93ED5A6A37EE03
:10033400A77AD2ED057AE7EE067AF4EEE76AF1EEF3
:1003440010FA77FEA67AC3ED577AA042CDD105E024
:1003540096F88834834201D1FFF77EFF3424431C8E
:10036400DBB2102B08BF0023002200FB0491984548
:1003740005D10AB186F8457103B0BDE8F08F04FBDE
:100384000365D1ED057AD5ED576AF4EEE67AF1EE20
:1003940010FA13FB04F0484410D591ED077A91ED5F
:1003A400086A37EE077AE7EE067AF4EEE76AF1EECA
:1003B40010FAC2BFC5ED577A1F46012204FB036140
:1003C40091ED577AD1ED587AB4EE677AF1EE10FADE
:1003D40008BF1F4603F10103DBB208BF0122102B43
:1003E40008BF00230146C2E750000020064890F8E9
:1003F400882490F8441191421DBF342300F5A47061
:1004040002FB03000020704750000020437C90ED65
:100414000B7ADA0714D5164BDFED166A1B7A07EE52
:10042400903AF8EEE77A67EEA67A67EE877AB7EE47
:10043400000AF4EEC07AF1EE10FA37FE800A704733
:100444005B070BD40A4BDFED0B6ADB7907EE903ABE
:10045400F8EEE77A67EEA67A27EE277AD0ED0A7AE5
:10046400F4EEC77AF1EE10FA58BFF0EE477ADEE701
:10047400500000200AD7233C064BD3F8A824C3F825
:100484008C24D3F8AC24C3F89024D3F8B024C3F854
:100494009424704750000020064B00B97047D3F8ED
:1004A400B414D3F8B424914202D0013880B2F4E7F2
:1004B40000BFF6E7500000204FF08043DA6810B523
:1004C40022F00102DA600022124C9A6294F8B3001E
:1004D40084F8B824FF28227811D194F8B91401F0D3
:1004E400FF0361B9802A0CD094F8C820520748BF92
:1004F40083F00103084A53B14023936110BD042AD9
:1005040003D0FFF7C9FF0123EEE70023ECE74FF424
:100514008003F2E750000020000002429FED0D0A24
:1005240000F10C03B1EC017AB5EE407AF1EE10FA69
:100534000BD0D0ED006AC6EE877AF0EEE77AF4EEDF
:10054400C07AF1EE10FA30FE270A04309842E9D15D
:10055400704700BF9976967E0A4B18690A4B00F0E3
:10056400030093F8C8305A0658BF80F0030038B12E
:10057400830704D500F0010040F002007047012019
:10058400704700BF000402425000002010B504462A
:1005940014F8010B00B910BDFFF7ECFDF8E7632870
:1005A40038B51CD90A22B0FBF2F302FB1300303039
:1005B400C4B2D8B20A22B0FBF2F302FB130030300B
:1005C400C5B2D8B23030C0B2FFF7D4FD15B1284659
:1005D400FFF7D0FD4CB12046BDE83840CAE50928F4
:1005E4004FF00004E6D82546ECE738BDB5EEC00A66
:1005F400F1EE10FA7FB5054604D52D20FFF7BAFDBC
:10060400B1EE400A2B46DFED2B7A012B33D86B0871
:10061400C3EBC31305EB4303DBB21BB1F2EE047A65
:1006240020EE270AF6EE007A30EE270AFDEEC07AB5
:10063400002417EE903A0A22601CE4B203BB2E1B7E
:10064400F6B2A54238BF00260DEB0400344432460E
:100654003021E4B204F0FEFCA54207D1302205F1BA
:1006640010036C1C6B4403F8102CE4B20DEB04066D
:10067400A4B904B070BD023B20EE270ADBB2C4E784
:1006840004F110010DEB0104B3FBF2F102FB113391
:10069400303304F8103C0B460446CDE7AC4202D19B
:1006A4002E20FFF767FD16F8010D013CFFF762FDF0
:1006B400E4B2DDE70000C842064BF0EE407A93F85E
:1006C400C830DB0743BF9FED040A042027EE800AED
:1006D40003208BE7500000208B42213D064BF0EEB7
:1006E400407A93F8C80010F001001EBF9FED030A82
:1006F400012027EE800A79E7500000208B42213D3B
:10070400004843E76962000808B55D20FFF732FD41
:10071400BDE80840F4E710B5044690ED000AFFF781
:10072400CBFF2C20FFF726FD94ED010AFFF7C4FF51
:100734002C20FFF71FFD94ED020ABDE81040BBE733
:1007440038B505460C462420FFF714FD2846FFF76C
:1007540026FF3D20FFF70EFDE0B2FFF720FFBDE8C6
:100764003840CDE738B505460C462420FFF702FD96
:100774002846FFF714FF3D20FFF7FCFC2046FFF757
:1007840035FFBDE83840BBE72DE9F0412DED028B84
:100794005C4C002094F8B010FFF7D2FF012094F8CD
:1007A400B310FFF7CDFF022094F8B110FFF7C8FF94
:1007B400032094F8B210FFF7C3FF94F8C810042084
:1007C400C1F38001FFF7BCFF94F8C8100520C1F302
:1007D4008011FFF7B5FF94F9C8100620C90FFFF781
:1007E400AFFF0A2094F8B410FFF7AAFF032194ED99
:1007F4002E0A0B20FFF7B6FF032194ED2F0A0C20DD
:10080400FFF7B0FF94F8C8100D2001F00101FFF7C5
:1008140097FF94F8C8101420C1F34011FFF790FF1C
:1008240094F8C8101520C1F3C001FFF789FF94F8AC
:10083400C8101620C1F30011FFF782FF172094F8A7
:10084400C910FFF77DFF032194ED330A1820FFF749
:1008540089FF032194ED340A1920FFF783FF1A203E
:10086400B4F8D410FFF76CFF032194ED360A1B2073
:10087400FFF778FF002194ED300A1E20FFF772FF86
:1008840000211F2094ED310AFFF76CFF94F8C81083
:100894002020C1F34001FFF753FF002764259FED9B
:1008A4001A8A2C4605F10308184E5FFA88F8022FBD
:1008B4001CD0032F20D0012F4FF0030114BF96ED5D
:1008C400000A96ED030A20460134E4B2FFF74AFF1A
:1008D400444506F10406EAD10A35EDB28C2D07F140
:1008E4000107DED1BDEC028BBDE8F08196ED060A6E
:1008F400032180EE080AE6E796ED090A3946B1EECF
:10090400400AE0E75000002000006145D0000020CC
:1009140010B504460448FFF739FE2046FFF73FFEB2
:10092400BDE81040ECE600BF9461000808B9014836
:100934002CE6EDE79B610008094B1869C043C3B27C
:1009440010F078000AD0C3F3001040001A0748BF23
:1009540040F001009B0648BF40F00400704700BF10
:1009640000040242084A0B1F0831D3ED017AF2EC6D
:10097400016AF8EEE77A87EEA67A04338B42A0EC9C
:10098400017AF2D1704700BFD0000020024800F580
:10099400956100F59B60E5E7500000201FB50B4C06
:1009A4000B48FFF7F3FD04F5A06101A8FFF7DAFF98
:1009B40001A8FFF7B0FE3A20FFF7DCFB6079FFF7F0
:1009C400EEFD04B0BDE810409EE600BF50000020DC
:1009D400A06100080B4B00F10C02F0EC017AF5EE7B
:1009E400C07AF1EE10FA0ADCB3EC017AF4EEC77ABD
:1009F400F1EE10FA03D49042EFD1002070470120A9
:100A0400704700BFF4000020EFF3108172B6034A70
:100A1400537D1843507581F31088704750000020AF
:100A240008B5FFF7E3FC18B1BDE808400220EBE786
:100A340008BDEFF3108172B6034A537D23EA000028
:100A4400507581F31088704750000020EFF3108335
:100A540072B6034A82F8B90483F31088704700BF62
:100A64005000002010B5134C637DDB0620D4102009
:100A7400FFF7CAFF104A136A23F0010313624FF011
:100A840000520E4B9A612278237902F02C0103F074
:100A940006030B430CD0042A08D194F8B93413B9D3
:100AA4000620FFF7D3FFBDE8104005E50320F8E773
:100AB40010BD00BF50000020002C0140000802427D
:100AC40010B5FFF739FF044688B1C10701D5FFF718
:100AD400C9FF620741BF064A537D43F002035375C1
:100AE400A30741BF024A537D43F00803537510BD69
:100AF4005000002008B5074B1A78012A08D093F853
:100B0400B9342BB9FFF7AEFFBDE8084001209DE7DB
:100B140008BD00BF50000020EFF3108172B6044AF4
:100B240092F80C35184382F80C0581F3108870474D
:100B340050000020EFF3108172B6044A92F80D358C
:100B4400184382F80D0581F3108870475000002087
:100B54002DE9F041002201250326022705FA02FEB1
:100B64001EEA010F1AD00468530006FA03FC24EAB3
:100B74000C040460D0F8008005FA03F444EA080485
:100B84000460446807FA03F324EA0E0444608468AA
:100B940024EA0C0484608468234383600132102AAD
:100BA400DCD1BDE8F08110B54FF480711948FFF72E
:100BB400CFFF194A194CD2F898304FF4005143F43E
:100BC4000063C2F898300023FF222360A362E2622C
:100BD4006822A2614FF400422362626463630123CA
:100BE40000F580602360FFF7B3FF0D4BDFED0D6A66
:100BF40093ED317AD3ED307A77EEC77A86EEA77A21
:100C040003F5A262236A82ED007A23F001032362D2
:100C140010BD00BF00000242000C0244002C014041
:100C24005000002000007E4370B5002301250326F8
:100C340005FA03F20A420AD004685A0006FA02F2DC
:100C440024EA02040460C46824EA0202C260013394
:100C5400102BEDD170BDF0B500220125032705FA54
:100C640002F30B420FD00468530007FA03F624EA98
:100C740006040460C46805FA03F324EA0604C460A5
:100C8400C4682343C3600132102AE8D1F0BD38B5EB
:100C9400414CE369980626D5606AC3B23F2B38D02D
:100CA40010F0C00F19D1182B1BD0212B35D0010601
:100CB4005FD5843B1C2B16D8DFE803F031331515C0
:100CC4001515151515151515393D3F41434547496A
:100CD400154B4F515355571559007E2BE7D1022020
:100CE40018E0FFF7BFFEE3691B0611D52B4A937D7D
:100CF400D1180133DBB2692B08BF0023C97DA1627F
:100D04009375127D9A4202BF236823F08003236007
:100D140038BD0120FFF778FEE5E70820FAE7202038
:100D2400F8E71E4B1B789A06DDD54020F2E7012038
:100D3400FFF7F2FED7E70220FAE70420F8E70820DD
:100D4400F6E71020F4E72020F2E74020F0E78020C7
:100D5400EEE70120FFF7EEFEC5E70220FAE70420E4
:100D6400F8E70820F6E71020F4E72020F2E7402017
:100D7400F0E70A4A92F8141592F815554B1CDBB2A9
:100D8400812B08BF00239D421EBF891881F81605D8
:100D940082F81435A7E700BF00100140500000207E
:100DA400034AD2F8B4340133C2F8B434704700BFF4
:100DB400500000208FB572B67022154B4FF4000717
:100DC4009A614FF0807280269A610023114C124D73
:100DD400DFF848C00022A76101930199A9420FD905
:100DE400A66102930299A9420ED901329042F2D12E
:100DF4000393039A6245EDD8039A01320392F8E70C
:100E0400019901310191E8E7029901310291E9E781
:100E140000000242000402423F0D03007F841E00D2
:100E2400092008B5FFF7C6FF012008B5FFF7C2FF88
:100E3400022008B5FFF7BEFF032008B5FFF7BAFF8D
:100E4400042008B5FFF7B6FF38B54FF08041002302
:100E54008D4C0B6194F8B834002B40F004818B4A1C
:100E640094F8EB30506903F0380320F03800034362
:100E74005361536994F8EA0023F007030343536171
:100E840094F8E920824B42F47F425A621A6842F095
:100E940001021A60012384F8B83462B6D4F8005110
:100EA400002D4DD194F8973594F898259A4200F086
:100EB400DB8094F8973504F29A5202EBC302C4F82B
:100EC4000021DA0004EBC303B3F89C05C862B3F84D
:100ED4009A1593F89E35A4F8F81094F8FA109942EC
:100EE40013D003EB830004F2CC5101EB8001C4F86E
:100EF400FC10142184F8FA3001FB0343D3F8D835ED
:100F04005B08C4E93833C4F8DC30D4F8FC1094F836
:100F140005010B7C434084F8EB30A31893F89F053C
:100F24000A68C240C4F8EC204A68C240C4F8F02001
:100F34008A68C24093F8A005C4F8F420FFF7F8F8D3
:100F440094F83036012B11D1524B1B6994F8313689
:100F540063B1002384F830364F4BA3F1580207CA1B
:100F640083E80700637D43F0400363750023D4F8EE
:100F7400EC2084F8EA30D4F8FC10D4F8DC301344C4
:100F8400CA68C4F8DC3093420FD901209B1A84F854
:100F9400EA00087CC4F8DC30D4F8A83405074CBF58
:100FA40003F1FF330133C4F8A834D4F8E030D4F8A3
:100FB400F00003449A42C4F8E03012D294F8EA00F4
:100FC4009B1A40F0020084F8EA00087CC4F8E03080
:100FD400D4F8AC34C0064CBF03F1FF330133C4F87A
:100FE400AC34D4F8E430D4F8F40003449A42C4F89E
:100FF400E43012D29B1A0A7C94F8EA00C4F8E43074
:10100400D4F8B034920640F004004CBF03F1FF332F
:10101400013384F8EA00C4F8B0342378042B01BF08
:10102400A37994F8EA20134084F8EA30B4F8F8304D
:10103400013B9BB2A4F8F8305BB994F89725C4F847
:1010440000310132D2B2062A84F8972508BF84F809
:10105400973594F8EA3094F80421534084F8EA3040
:10106400002384F8B83438BDFFF726FAD4F8FC30EE
:101074005B7C2BB1094B5D631A6A22F001021A6290
:101084000420BDE83840BFE45000002000000242C4
:10109400000400400008024250050020002C0140DA
:1010A4000022074B074908481A614A6990F804016D
:1010B40060F302024A611A6822F001021A60704762
:1010C400000400400000024250000020054B1A6951
:1010D400D9680A43D20703D501221A61DA6009E507
:1010E400704700BF00200244054B1A69D9680A43BF
:1010F400920703D502221A61DA60FBE4704700BF4D
:1011040000200244054B1A69D9680A43520504D5E4
:101114004FF480621A61DA60ECE470470020024404
:10112400054B1A69D9680A43120703D508221A61C4
:10113400DA60C5E4704700BF00200244054B1A6919
:10114400D9680A43D20603D510221A61DA60B7E4DB
:10115400704700BF00200244054B1A69D9680A434E
:10116400920603D520221A61DA60A9E4704700BF11
:1011740000200244054B1A69D9680A43520603D574
:1011840040221A61DA609BE4704700BF00200244E9
:101194004FF400520C4B10B5C3F83426D3F838265C
:1011A40012B90A4AC3F83826D3F838260849094838
:1011B400013A11F8014B814202F8014FF9D10122A1
:1011C400002083F83C2610BD500000202407002096
:1011D40000E001080000020838B50A4D044695F8FD
:1011E4003C3633B1D5F83436013B9C4206D9FF2056
:1011F40038BDFFF7CDFF0028F4D0F8E7D5F838362E
:10120400185DF5E7500000202DE9F84304460E462A
:101214001546002700EB0208A1EB000904EB0900C6
:10122400FFF7DAFF002F0CBF0346431C04F8010B41
:10123400A045DFB2F2D17019FFF7CEFFC31B5842AD
:101244005841BDE8F88310B5034C14F8010B00B9FC
:1012540010BDFEF78FFFF8E78D0600202DE9F0435F
:10126400002401260F27224A224DD2F89C30DFF8B1
:1012740088C043F00203C2F89C3006FA04FE1EEA5A
:10128400000F2FD004F0FC0202F1884204F00301A5
:10129400D2F80884890007FA01F928EA0908C2F893
:1012A4000884D2F8088406FA01F141EA0801C2F878
:1012B40008146A68E3B24EEA02026A602A6822EA03
:1012C4000E022A60D5F880204EEA0202C5F880207A
:1012D4005A1E0E2A8EBF0B230B33DBB206FA03F31E
:1012E400CCF800300134102CC7D1BDE8F08300BF26
:1012F400000C02440020024400E100E070B500212B
:10130400012440F20345114A114E04FA01F32B4221
:1013140018D0D2F8800020EA0300C2F88000506898
:1013240020EA03005060106820EA03031360CBB284
:10133400581E0E288EBF0B230B33DBB204FA03F3C3
:10134400C6F8803001311029DFD170BD002002447D
:1013540000E100E008B540F203410848FFF764FCEF
:10136400FFF779FC064B93F8C8301B0703D5BDE89B
:101374000840084672E7BDE80840BFE7000402429F
:1013840050000020F0B5344F02780646BC5CBB1810
:101394002D2C1CD14FF0010C5C789D1C4FF0000EDD
:1013A400704673467246303CE4B2092C1DD80130B5
:1013B400C0B2082813D8BEF1000F01D0013B5BB2C4
:1013C40002EB820204EB420215F8014BEBE72B2CF3
:1013D4004FF0000C0ABF5C785D1C9D1CDEE7BEF17B
:1013E400000FF1D101335BB2EEE7FE2C05D1BEF163
:1013F400000F02D14FF0010EE6E7E0B107EE902AAC
:10140400F8EE677AF5EE407AF1EE10FA08D09FED27
:10141400137A5A1C10DB14D19FED117A67EE877A88
:10142400BCF1000F01D0F1EE677A0120ED1B013D04
:10143400C1ED007A3570F0BD023367EE877A5BB296
:10144400E7E7002BECD0B2EE047A013B5BB267EE27
:10145400877A002BF9D1E3E78D0600200AD7233CD5
:10146400CDCCCC3D70B50C4E044696F83C360D46BA
:101474002BB1D6F83436013BA34205D270BDFFF739
:1014840087FE0028F5D0F9E7D6F838361A5DAA4267
:1014940018BF1D55F2E700BF500000202DE9F843A6
:1014A40006460C461546002701EB0208A0EB01098D
:1014B40004EB090014F8011B002F0CBF0B464B1C56
:1014C400DFB2FFF7CFFFA045F2D139467019BDE86E
:1014D400F843C7E708B50A210020FFF7C3FFBDE8BA
:1014E40008405C2201200149D8E700BFD000002059
:1014F40010B5174CFEF7E0FF3822002104F5867082
:1015040003F0A8FD0021282204F1DC0003F0A2FD71
:101514000023012284F89735C4F8083184F89835FB
:1015240084F88D2684F8B834FEF764FE94F8051127
:10153400084A84F8EB10536994F8040123F0070374
:1015440003435361536923F038030B43536110BDC4
:10155400500000200000024210B5094C1C2200215A
:1015640004F28C4003F076FD0023012284F88834D1
:1015740084F8443184F88E2684F8453110BD00BFC8
:1015840050000020244B82B093ED317AD3ED306AC1
:10159400B4EEE67AF1EE10FA5A7A07EE902A0CDAF3
:1015A400F8EEE77A9FED1D6A67EE867A27EE800AE9
:1015B400F4EEC06AF1EE10FA04D8C3ED046AFF2019
:1015C40002B07047B4EEC07AF1EE10FA0CDBB5EE5F
:1015D400400AF1EE10FA07BF0022002083ED047ADE
:1015E400012008BF1A61EBE783ED040A03F5A26347
:1015F400D3ED007A30EE470A20EE270AF7EE007AA0
:10160400BBFE400A30EE270AFCEEC07ACDED017A2B
:101614009DF80400D4E700BF500000200AD7233C03
:1016240008B512494B784BB948B90023104A0B61ED
:10163400136A23F0010313620023CB7208BD102840
:101644000CBF4FF000524FF400520A4B9A6191F8CC
:10165400C8309B0704D5DFED087A202807FE800AEE
:10166400FFF790FFFEF764FDE6E700BF500000209F
:10167400002C0140000402420000000010B50346A3
:1016840004469FED140A00F10C02F3EC017AF5EE26
:10169400407AF1EE10FA18BFA7EEA70A9342F4D1EC
:1016A40002F050FDF7EE006AD4ED007A86EE807AFF
:1016B40067EE877AC4ED007AD4ED017A67EE877A13
:1016C400C4ED017AD4ED027A67EE877AC4ED027A2A
:1016D40010BD00BF000000002DE9F84F2DED068B72
:1016E400CE4C2379D90700F1C680DFEDCD8ADFF82F
:1016F4003C8394F8973594F88D76BB4200F0BB8018
:10170400D4F8083194F804A0002B43D11AF004094A
:1017140000F0A980342394F84421C24D02FB035500
:10172400C4F8085194F80D2194F80C3112F0010614
:101734000AF0020B00F0A380002384F80D3195ED2C
:10174400078AF6EE00AAC4ED498A8AEE88AA95EDC6
:10175400089A0BF0FF03BBF1000F00F0FF80022397
:1017640084F8203195ED050AF0EE497AEAEE407AE4
:10177400F5EEC07AF1EE10FA40F1EB8038EE088A0B
:10178400A8EE490A02F0DEFC84ED4C0A4AF0080A8D
:1017940084F804A0D4F8085194ED475A95ED082A2A
:1017A40032EE455A94ED4D4AB5EE405AD4ED4E1AF8
:1017B400F1EE10FAB4EE614A94F8983594F80C21DD
:1017C4004FEAC30104EBC3039FED977A83F89E2588
:1017D40048BFB0EE685A0023F1EE10FAD4ED4B4A3C
:1017E400D4ED4A7A0CBF02260126D4ED493AD4ED51
:1017F4004C0AF0EE426A18469FED893AF0EE472A09
:10180400B0EE470AB6EE001A94F82021012A00F03F
:10181400AB81032A95ED076A00F04F81002A00F09E
:10182400808127EE066AB4EEE76AF1EE10FA0DD570
:10183400B0EE678AF0EE665AA6EE418AE7EE485AA1
:10184400F4EEE35AF1EE10FA00F3688176EEE36AFF
:1018540070EEA77A76EEA66AF0EE635A86EEA77A61
:10186400F0EE607A7EE1FEF7C1FD0546C4F808019A
:1018740000287FF457AFBDEC068BBDE8F88F013329
:10188400DBB2052B18BF1E46142106EB860301FBB1
:10189400064108EB8303C4F890362B7C84F80C6172
:1018A40081F8DC352B68D5ED086ADB00C1F8CC354E
:1018B4006B68C4ED448ADB00C1F8D035AB68DB004B
:1018C400C1F8D435EB6807EE903AF8EE677A87EE04
:1018D400A67AF7EE046AC4ED457AC6EE877AD80094
:1018E40002F008035BEA030384ED467AC4ED477A09
:1018F400C1F8D80526D0D4ED4C7AC4ED4A7A67EE07
:10190400A77AC5ED057A22F0080284F80D21142384
:1019140003FB0646002386F8DD3594F8C8309A07A1
:101924007FF50DAF6B7C9B067FF509AF95ED0B7AC8
:10193400F7EE006A0123C6EE877A86F8DD35C4ED3A
:101944004F7AFCE695ED050A02F0FCFB84ED4A0AA9
:10195400DDE7C4ED497AC4ED4C8A17E784ED4D9A6E
:1019640084F82031B9F1000F46D194F8883401335A
:10197400DBB2102B18BF994694F844314B451BBF7A
:10198400342303FB0949DFED269AD9ED579AB0EECB
:10199400690A02F0D7FBB0EE406A284684ED4C6A2F
:1019A400FEF734FD60EE007AF0EE406A95ED050A2C
:1019B400F4EEC07AF1EE10FA3CD530EE676AB0EE80
:1019C400497AAAEE467AB5EEC07AF1EE10FA84EDC1
:1019D4004D7A16D838EE088A0223A8EE490A84F80C
:1019E400203102F0AFFB94F80D3184ED4C0A43F042
:1019F400080384F80D31C9E6B0EE686AF0EE689A1F
:101A0400CBE777EEE97A67EE8A7AC4ED4B6AC4EDE8
:101A14004E7A032384F82031B8E600BF500000203A
:101A240000000000980100203EC32E391C0600204F
:101A3400AC23FC4E70EE695AB0EE497AAAEE257AD0
:101A440027EE2A7AB5EEC07AF1EE10FA30DDB4EE64
:101A5400C97AF1EE10FA29D537EEE96A26EE0A6A58
:101A6400B4EEC67AF1EE10FA84ED4E6A0FDDF4EEB0
:101A7400407AF1EE10FAC4ED4B6A01D10123C9E7B3
:101A840077EEC07AAAEE679A84ED4D9A7EE638EE38
:101A9400088AB0EE690AA7EE080A84ED4D7A84ED4F
:101AA4004E7A02F04FFB84ED4B0A6FE60223B1E756
:101AB400C4ED4D8A84ED4B6A68E627EE066A77EE3C
:101AC400E45AB4EEE56AF1EE10FA1FDB32EE447A22
:101AD40074EEA77A012377EE076AF0EE445A86EE95
:101AE400A77A1846F0EE647A1A4633EE073AB4EE53
:101AF400E23AF1EE10FA49D5F4EEE53AF1EE10FAD5
:101B040032EEC37A47D5F0EE656A7FE6B0EE678AB7
:101B1400A6EE418AE7EE486AF0EE665A77EEC67A98
:101B240020E027EE066AB0EE678AA6EE018AE7EEA9
:101B3400486AB4EEE64AF1EE10FAF0EE665A0FDDAA
:101B440032EE447A74EEA77A77EE076A012386EEC2
:101B5400A77A3246F0EE647AF0EE445A1846C4E7A7
:101B640077EE867A0123C0E7F0EE665AE7EE645A10
:101B7400F4EEE15AF1EE10FAB7D576EEE16A1046CA
:101B840086EEA47AF0EE615A0222AEE7F4EEC55A6C
:101B9400F1EE10FA44DC0BB1C4ED4A7A08B184F8D2
:101BA4002021D4F890365A7C237903F00803134398
:101BB40016D0687C10F0300035D095ED0C0A3AB19F
:101BC400D4ED4A7A94ED4F7A67EE877A20EE270AAD
:101BD400FFF7D8FC237984F8400123F0080323712C
:101BE40094ED466AD4ED456A25EE866AFAFE666A85
:101BF400BAFE467A76EEC77AFCEEE77A94F840218C
:101C0400631883F8A02517EE902A92B2A3F89A25B8
:101C140062B92379980709D543F0010323712AE6B1
:101C240072EE802A68E7C4ED048AD3E7D4ED447ADF
:101C340076EEC66A73EE277A87EEA65A5FED847A4B
:101C440065EE277AFAFE677AFCEEE77A47F611200A
:101C540017EE903A834240D80020621882F89F051C
:101C64009BB284ED457AF4EE653A37EE467A7A1CF7
:101C7400D2B2062A08BF002227EE057AF1EE10FA46
:101C84002144A1F89C3584ED447AC5ED085A84F8C2
:101C9400987584F88D267FF42CADF5EEC05AF1EEDC
:101CA40010FA2379B8DC13F00402B5D194F888143F
:101CB40094F84431C4F808218B423FF41AAD4B1C0C
:101CC400DBB2102B18BF1A4694F8453184F88824E7
:101CD4008B4208BF84F8452109E54FF22340834233
:101CE40011D90A48834294BF02200320C3406618D6
:101CF4008240B3F5803F86F89F05A6F89A25AFD3B6
:101D04004FF6FF73ADE70120F0E700BF47E801009D
:101D14002DE9F043AB4C8BB094F8B93403F0FF05D4
:101D2400C3B10123A8482370FEF730FC2846FEF710
:101D340036FC013DFEF7E4FC4FF4FA70FEF7ACFB11
:101D4400012D14D9EFF3108372B6002284F8B9245C
:101D540083F31088637D03F0FF05002B00F07B8282
:101D6400E80613D5012363700BB0BDE8F0839748F0
:101D7400FEF70CFC9648FEF709FCFEF7C5FC1020A4
:101D8400FEF757FE637DDD06FCD5DBE715F00106A3
:101D940000F0C9808F4A01AB07CA83E807001946DF
:101DA40004A8FEF7DFFD3C20FEF7E4F92378102BAE
:101DB40014D8102B1BD8DFE813F0FE0033013501D3
:101DC4001A0031011A001A001A0002011A001A003E
:101DD4001A001A001A001A001A002101402B00F000
:101DE4002381802B00F03081202B00F0158194F8A2
:101DF400B43013F0010300F02981227B002A00F0A3
:101E040025817548FEF7C2FB04A8FEF784FC94F80C
:101E1400B430990720D57148FEF7B8FB94F84431E3
:101E240094F8880483422CBF0F3000F1FF30C01AAD
:101E3400C0B2FEF7B4FB2C20FEF79CF994F81525EC
:101E440094F81435D0B29A4294BF803800F1FF3030
:101E5400C01AC0B2FEF7A3FB6148FEF797FB2378D4
:101E640013F07C0F14BF94ED4A0A9FED5E0AFEF74F
:101E740035FC2C20FEF77EF9002094ED040AFEF7D1
:101E8400B5FBFEF769FB8046FEF756FD564B94F80A
:101E940031961B6948EA000349EA0303DBB20746AB
:101EA4006BB35248FEF772FBB9F1000F02D0502019
:101EB400FEF760F9B8F1000F11D018F0010F02D04D
:101EC4005820FEF757F918F0020F02D05920FEF7F8
:101ED40051F918F0040F02D05A20FEF74BF977B1EC
:101EE400FA0702D55220FEF745F9BB0702D5482070
:101EF400FEF740F97F0702D55320FEF73BF9237B19
:101F0400002B00F0CE80013B2373E77A002F00F012
:101F1400DA80013FE7723E20FEF72CF9FEF7F0FB72
:101F24000120FEF786FD15F0E80F00F048812078C7
:101F34006FB2810740F0358110F0280F00F0028164
:101F4400A6783F2E0AD8FEF787F9022320282371AA
:101F540004D1002F02DB66F07F06A6706A0605D561
:101F640083065EBFA37843F04003A3702E0703D516
:101F74001F289CBF10232370A90640F11281134827
:101F8400FEF704FB1A48FEF701FBFEF7BDFB94F9CC
:101F94000220A378002AC0F200812278402A40F06F
:101FA400F9801A0704D523F01C0343F00203A3703D
:101FB40040232370F1E00F48FEF7E8FA17E70E48D4
:101FC400FAE700BF50000020A6610008AD610008D8
:101FD400B3610008F8040020F561000803620008FA
:101FE4000862000800000000000802420D620008B8
:101FF40021620008C5610008CA61000894F9023032
:10200400002B09DB5248FEF7C1FAA378D90717D58C
:102014003020FEF7AFF8EAE64E48CDE74E48CBE76E
:102024004E48C9E74E48C7E74E48FEF7AFFAA378D3
:102034001A0701D53320ECE75F0703D59806E7D5E7
:102044003120E6E73220E4E74748B5E70022474F6E
:1020540007A804A9F7EC017A97ED027A022A08BFCF
:10206400DFF828C177EE877A08BF9CED107AE0ECA0
:10207400017A04BF77EE277ACDED097A3BB9D1ED29
:10208400007A10ED017A77EEC77AC1ED007A013259
:10209400032A01F10401DDD1002B7FF4B2AE3448F0
:1020A400B0E6237813F07C0F0CBF09231D232373A0
:1020B400E37A0BB90123E3722E48FEF767FA07A807
:1020C400FEF729FB21E723782B4813F07C0F0CBF84
:1020D40009231323E372FEF759FAE079FEF75FFA56
:1020E4002C20FEF747F8207AFEF759FA2C20FEF749
:1020F40041F8607AFEF753FA204B1B6AD80706D5DD
:102104001F4B5B6913F4005F0CBF374602271D4B5E
:102114005B6903F40056C3F3403357EA83133FF477
:10212400FAAE1948FEF732FA2FB1012F0CBF532033
:102134004320FEF71FF8002E3FF4EDAE4620FEF7D5
:1021440019F8E8E600287FF409AF0123A37005E736
:10215400CE610008D4610008D8610008DD61000880
:10216400E3610008E9610008EF610008340500201C
:10217400FC6100081262000818620008002C01408B
:1021840000040242000802421D6200080C050020FF
:102194009976967E802A7FF40BAFA37843F02003D0
:1021A400A370002F08DA2378012B02BFA37843F031
:1021B4000503A37080232370E820FEF73AFCAE07E2
:1021C40023D515F0680F1DD12378402B07D1A378B0
:1021D40013F0200203D1D80640F1E2802270237864
:1021E400002B00F0E380DA060CD5A278D70709D5D6
:1021F400102B40F0DB80A37A002B00F0D78043F053
:102204000803A3720220FEF714FC6E0723D522787C
:1022140094F9023012F0D00F00F0DD80E278002A49
:1022240040F0D980002BC0F2D880FEF715F894F85E
:10223400883484F84531FEF725F823799D0748BF93
:10224400A27823F0060344BF42F00102A270237176
:102254000420FEF7EEFB94F80C3503F0FF02002B8C
:1022640050D0EFF3108372B6002184F80C1583F379
:102274001088E57912F0010F0CBF2B4664239007F8
:1022840044BF0A33DBB2570744BF0A3BDBB216072D
:1022940044BF0133DBB2D00644BF03F1FF33DBB2EA
:1022A400C82B28BFC8230A2B38BF0A23207A12F070
:1022B400200F14BF6421014612F0400F18BF3221D1
:1022C40012F0800F18BF19219D4201D1814219D00B
:1022D40094F88854E371002321721FED536A294650
:1022E400342694F84471DFF8BC81E372B94240F0BB
:1022F4008D806A4B83ED066AFDF7AEFF84F8455185
:10230400FDF7C0FF94F80D3503F0FF05002B00F036
:10231400BF80EFF3108372B6002284F80D2583F397
:102324001088627A15F0010F0CBF13466423A907C5
:1023340044BF0A33DBB26F0744BF0A3BDBB22E074C
:1023440044BF0133DBB2E80644BF03F1FF33DBB221
:10235400C82B28BFC8230A2B38BF0A239A420CD0A3
:1023640022786372002A73D14D4B94F8C50493ED1F
:10237400030AFFF755F90023E372A906237840F115
:102384008580102B40F08280A37A002B76D1022323
:102394003F2DA37265D80BB0BDE8F043FFF79CB99D
:1023A400590744BF43F00803A37018E700232371BF
:1023B400FEF71CF858B1A37813F0400307D1A370BB
:1023C40008232370FFF788F9FDF7F0FE1AE70023CE
:1023D400A370237016E7002B09DA00232371FFF79B
:1023E400BBF8FFF785F8FEF7D1FAFEF745F8A378B6
:1023F40013F020021FBF03F07F0343F00103A37017
:1024040040230ABFA2702370227021E701FB0680DB
:10241400FDF7FCFFB4EEC60AF1EE10FA06FB014329
:10242400CCBF26EE066A20EE006AD3ED5B7AB4EEEA
:10243400676AF1EE10FA01F10101C9B237FE866A4A
:10244400102983ED586A08BF0021B0EE406A4DE7B9
:10245400237943F0080323718DE713B113F0380F88
:1024640016D094F8C40443064CBF00F0BF0040F0FB
:102474004000FDF76BFE84F8C40409E0DA0702D5D6
:1024840043F00403A3723F2DEBD801E03F2DE4D8C1
:102494002378032B7FF668AC7DE700BFDC040020C3
:1024A4000C05002098010020F3EE047A20EE270AA0
:1024B400BAFE400ABCEEC00A10EE103A70B50646E9
:1024C4000C4D9CB29CB16B788BB95EB900F014F8DA
:1024D400D5F8B424D5F8B4349B1A312B08D9013C6F
:1024E400A4B2EFE7FFF714FCAB789B07F0D570BDFF
:1024F40000BFEFE7500000202DE9F041724C2DEDB4
:10250400028BFFF705FCA378002B58D0FDF76EFF74
:1025140098B994F8C43494F8C5541D4304F2BC43E8
:1025240093ED038A94F8C830990702D52020FEF76A
:1025340001FB0026DFED658A27E0654B457C5B697E
:1025440005F03005C3F3403390ED0C8A45EA83155A
:10255400E8E767789FBBDA0715D522783F2A6FD959
:1025640013F0040815D14046B0EE680A84F80A80D6
:10257400FFF756F84046FDF7E9FDA37823F0020380
:1025840043F00403A370FFF7C3FBA378002BE0D14F
:1025940015E0802A1AD14F48FDF7F8FF4E48FDF7A1
:1025A400F5FF9FED4A0AFEF7AFF83846FFF738F813
:1025B4003846FDF7CBFDFDF77FFF63781BB1BDEC1B
:1025C400028BBDE8F081FFF7A3FBF6E7402A04BFC6
:1025D40023F02003A370A3781807D4D594F8C52456
:1025E4004AB1990707D494F8C8309A071CD52379BF
:1025F40043F00803237194F8C4345BB1A3789B07B8
:1026040008D405F0C000FDF7A1FDB7EE000A0120D3
:10261400FFF74AFFA3789F07B5D443F010030220C5
:10262400A370FEF7F1F9AEE7B0EE480A05F030000A
:10263400FEF7F6FF0120B1EE000AFFF735FFDAE7F7
:10264400A37A8BB398070AD594F8C5341BB39FEDCE
:102654001F0A3846FEF7E4FF0123A37293E713F041
:102664000C0F90D094F8C5347BB11A48FDF78EFF57
:102674001A48FDF78BFFFEF747F894F8C83099071E
:102684000BD5237943F008032371A37A1A0702D5E3
:102694000220FEF7B9F9A67275E7B0EE480A05F014
:1026A4003000FEF7BDFFF0E723791B077FF56BAF22
:1026B400B0EE480A05F03000FEF7B2FF237923F0AC
:1026C400080323715FE700BF5000002000000000F2
:1026D40000080242AD6100082C620008356200085F
:1026E40010B5FEF79DF9064CFFF706FF637833B982
:1026F400FDF77CFE0028F7D12378082BF4D010BD19
:102704005000002070B551234FF4407503FB005571
:102714000B4E5022294606F23D60FEF775FD044635
:1027240058B986F83D06FFF7DBFF2846502206F22B
:102734003D61FEF7B3FE204670BD0120FCE700BFFB
:102744005000002010B52DED028B0A4B04461B7877
:10275400B0EE408A022B0AD0FFF7C2FFB0EE480A5F
:10276400BDEC028B2046BDE81040FEF759BFBDEC1E
:10277400028B10BD5000002038B504460D46FFF70B
:10278400AFFF4FF400730D20294600FB0430BDE871
:1027940038400C22FEF782BE30B50546E80785B006
:1027A40006D55C221C491D4802F0ACFCFEF792FEE3
:1027B400A9070AD50024CDE901440394E0B201A994
:1027C4000134FFF7D9FF082CF8D16A0713D500218B
:1027D4004FF44070FEF746FE002140F20130FEF750
:1027E40041FE002140F25130FEF73CFE002140F250
:1027F4005230FEF737FE2B070CD5002140F2AE30E5
:10280400FEF730FE002140F2AF3005B0BDE83040A5
:10281400FEF728BE05B030BD305D0008D0000020B2
:1028240070B54FF400730D460D21064601FB0031CF
:102834000C222846FEF7E8FC044640B9C5E900002E
:10284400A86029463046FFF797FF204670BD012057
:10285400FCE708B5FFF744FF0022014B1A7308BDDB
:10286400500000202DE9F04F2DED048B34278A46CB
:10287400A24D3A4695F8444105F5A47804FB07882F
:1028840007FB045795B006460021404602F0E2FBE0
:102894009AF80890DAF8043087F85991C7F8783133
:1028A400342719F00203009314BF05F5956505F26A
:1028B4008C4595E80700002567430BAB83E80700C8
:1028C4008F4A0EA901960DF1200BA2F18006CDE9E5
:1028D4000218CDF810B0F119CDE90631019BB2EC24
:1028E400018AB3EC010A20EE080A0193059201F073
:1028F400B1FB029B039A43F8040B0293069B06EB7D
:10290400070C53F804EB0799A0EB0E0E07EE90EAC0
:10291400F8EEE77A87EE887AB5EEC07A8EEAEE7042
:10292400A0EBEE7042F8040B0392DCF854219042C1
:1029340038BF1046049AF1EE10FAA2EC017ACCF8F2
:1029440054010492059A0ED5002D00F08680012DC5
:102954000CBF4FF0100C4FF0200C91F858E14CEAEA
:102964000E0C81F858C10135EDB2032DB4D1002805
:102974006ED008AF3846FEF781FE342202FB0462B3
:1029840039466048B0EE406A82ED5A0AFDF7C6FD4A
:1029940039465D4882ED590AFDF7C0FD19F0010F73
:1029A40082ED5C0A06D19AED000A19F0080F18BFEF
:1029B40020EE060A3422DFF844919FED548A02FB8C
:1029C400049181ED5D0A99F88814A14202D0009B1C
:1029D400002B45D002FB049383ED578A83ED5B8A79
:1029E400009BA3BB4046FDF711FD494A3421D2EDBB
:1029F400067AF4EEC07AF1EE10FA01FB04944CBFAF
:102A040067EEA77A60EE007A94ED5B7AF4EE477A8B
:102A1400F1EE10FA134677FE277AC4ED587A3D4C4E
:102A240082ED060A97E8070084E807000EAA07CAA1
:102A340083E8070096F88E3686F844310133DBB21A
:102A4400102B08BF002389F88E36FDF71BFC0120EC
:102A540015B0BDEC048BBDE8F08F4FF0080C7CE79B
:102A640011AA924609F59361B1EC017AFBEC017A63
:102A7400A7EE678A77EEC77A013D15F0FF05E2EC11
:102A8400017AF1D1DFED247AB4EEE78AF1EE10FA9F
:102A940028DCDFED227AB4EEE78AF1EE10FA29D4CD
:102AA4005046FEF7EBFD51461648FDF737FDB7EEED
:102AB400009AF0EE408A39EE488AB6EE000A28EE13
:102AC400000A01F03FFBD6ED2E7A68EEA78A39EEB4
:102AD400409A68EE808AC8EE897AF5EEC07AF1EE03
:102AE40010FA01D5DFED097A342303FB0493C3ED17
:102AF4005B7A77E7DFED0A7AF6E700BF5000002043
:102B0400D0000020E8000020DC00002000000000CD
:102B1400DC040020E8040020EFFF7F3FEFFF7FBFCD
:102B24009976967E70B5234C0D4694F8C8300646C7
:102B34009B0621780FD5202910D0FDF74BFF50B10B
:102B440001230829E37019D0FDF78CFF0220FDF75B
:102B54007DFFFFF7D1FC2378022B0ED0FFF7CCFCCE
:102B6400637853B994F8882494F88E369A4211D035
:102B740029463046FFF776FE78B170BD0846FDF76A
:102B840043FFFFF7B9FC6378002BE4D12378002BD3
:102B9400F7D1D9E7FDF744FFE0E794F8C8309A0786
:102BA400EBD52B7ADB06E8D595ED010ABDE870403C
:102BB4001020C7E5500000202DE9F04F2DED028BC9
:102BC400864C0746637889B0002B40F0FD800622CE
:102BD40004F1800807939FED826A8DF81C20BFEEF4
:102BE400087A4246CDE9053301A9002B00F0908014
:102BF400012B0CBF0220042001F8010B47FA03F05B
:102C0400C5070AD5D2ED097A67EE877AF4EEC67A5B
:102C1400F1EE10FA58BFB0EE676A0133032B02F1EC
:102C24000402E2D194ED348A04254FF001094FF0F7
:102C3400000BDFF8B0A1514602A8FDF793FE002374
:102C44001E461A4694F8C90002A90DF1040C47FA6D
:102C540002FE1EF0010F13D040FA02FE01331EF0F3
:102C6400010FDBB256D0B9F1000F56D0F1EE467A1F
:102C7400C1ED007A12F80CE04AF822B046EA0E06DA
:102C84000132032A01F10401E1D107EE903AB8EED2
:102C9400670A01F057FA28EE008A05A902A88DED0B
:102CA400058AA671FFF7DEFD04232371FEF714FDE8
:102CB400FDF77CFAB9F1000F11D0FDF74DFC0023AC
:102CC40001AA12F8011B314205D040FA03FC1CF0A2
:102CD400010F18BF8E430133032BF2D1A671FEF707
:102CE400FBFC637D13F0340F73D0637DD9B2DB0634
:102CF40002D50620FDF7AAFE8E0602D50720FDF7B1
:102D0400A5FEB9F1000F0BD0480710D509200CE03F
:102D1400012071E7B9F1000FA8D0F0EE467AA7E7D9
:102D2400FDF71AFC384202D00820FDF78FFE94F814
:102D3400B93443B1FDF796FE09B0BDEC028BBDE892
:102D4400F04FFFF7D9BB0420FDF773FEFEF7D0FB6D
:102D5400B4F8D400FDF7A0FB99F0010918BFB1EE57
:102D6400047AD4ED337A94ED366A05F1FF3594EDA7
:102D7400348A1CBF26EE076AB0EE678A15F0FF0599
:102D84007FF459AF174E47FA05F3DA0715D594F8CF
:102D9400C930D4ED367A2B41DB0748BF98ED097A68
:102DA40098ED000A4ABF77EE877A27EEC00A27EE2D
:102DB400800A01F04FF946F825000135032D08F18A
:102DC4000408E0D10023237109B0BDEC028BBDE8F7
:102DD400F08F71077FF46EAFB8E700BF500000209A
:102DE40000000000F80400202DE9F04F2DED0A8BBF
:102DF400DFF8E0A2402200218FB00AF2946002F0D2
:102E040029F90AF2BC4303CB1A889B78CAF89506C1
:102E14008AF89F369AF83D36CAF89916242BAAF8F0
:102E24009D264FF000030AF2BC4940F03882012786
:102E34008AF8963603238AF895760024DFEDA36A90
:102E4400A0462646CDE902448DF81B307CE1A5F16D
:102E54004102192A01F26280013307A90DF11B0016
:102E64008DF81B30FEF78EFA002801F05A80DDED54
:102E7400077AB6EEE77ABCEEC77A8DED017A9DF853
:102E84000430472D07EE103AB8EEC77A37EEC77A0A
:102E940027EE267AB8FE477ABCEEC77A17EE102AD8
:102EA40091B21DD04D2D00F01781463D142D00F236
:102EB4008680DFE815F08301840084009D01A6016B
:102EC400AF01B8018400BC018400C4018400C901BD
:102ED400CE01D301840084008400DF01E601ED010A
:102EE4003D2B6ED8252B20D81E2B68D8092B53D800
:102EF400032B62D8002E41F017800226262B8AF875
:102F0400953640F0E080A1F114039BB21E2B56D8F5
:102F14006F4A22FA03F3DB0751D50A22B1FBF2F31D
:102F2400763B01228AF8953688E0A3F12602172A17
:102F340045D801A050F822F0F92E0008C32F00084C
:102F4400C3300008C32F0008C32F000897300008BF
:102F5400C32F0008C32F0008C32F0008C32F000885
:102F6400C32F000897300008C32F0008C32F0008A0
:102F7400C32F000823300008B1300008B130000826
:102F8400B1300008B1300008B1300008B130000899
:102F9400C32F0008BB300008A3F10A02142A0ED87C
:102FA400DFE802F0380D0D0D0D0D0D525252717106
:102FB4000D0D0D0D0D0D380D3800042B2FD01425DB
:102FC40049E0A3F15002D0B20E28F8D80E2AF6D860
:102FD40001A050F822F000BF012F0008C32F000801
:102FE400C32F0008C32F0008C32F0008C32F0008F5
:102FF400C32F0008C32F0008C32F0008C32F0008E5
:103004006730000867300008193000087F30000876
:103014007F30000819B9002E40F08687012603F09E
:10302400FD021C2A8AF8943601D05C2B49D109B1DF
:103034000A29C4D100220B448AF89436029B134116
:10304400DD077BD5152506E00222113B8AF8993667
:103054000029F3D0172528460FB0BDEC0A8BBDE834
:10306400F08F21B95A3B03228AF89836E6E70A29F9
:10307400A5D15A2BA3D00422E0E7C3F15E030522B5
:103084008AF89636E4E7C3F1150306228AF89736E0
:10309400DEE7002E40F04887312B02D00A298ED17A
:1030A40001268AF89A6608220326C7E7363B0922D6
:1030B4008AF89B36CCE7002981D10A22BEE7072291
:1030C400C6E70022C4E70122C2E700BF0000C842ED
:1030D40001041040500000200029BBD1092B11D855
:1030E400072B1ED8022B13D9DA1E022A3FF667AF2C
:1030F400042B14D0053B18BF01231B010C228AF8B2
:103104009E369BE71E2B7FF45AAF8AF89C3602E06A
:103114001BB1012BF9D10B2290E70323F5E7202300
:10312400ECE7092B0CBF0B469AF89D364FF00D02C5
:1031340018BF43F040038AF89D367FE7012393408C
:10314400029A1A4393B202939DF81B300AEB0302CE
:1031540092F83D56002D7FF47AAEB8F1000F02D0FC
:10316400002E08BF0226A20605D5DAF8B4269D4B28
:103174009A4200F3E586002F00F09380E30740F1C4
:10318400A2809AF89736012B08D1974B9FED977A36
:10319400D3ED037A67EE877AC3ED037AE2055EBF67
:1031A400914BD9F80C20DA629AF89436042B40F04B
:1031B4009C80630600F196801C254CE78A4BC3ED86
:1031C400037A002344FA03F2D00700F1B38640F2F5
:1031D40061321A41D10705D5F5EEC07AF1EE10FA45
:1031E40000F1AB86012202FA03F323439CB2ABE75E
:1031F4007D4BC3ED047A039B43F001030393012346
:10320400E0E7794BC3ED057A039B43F00203039394
:103214000223D7E7744BC3ED067A039B43F0040300
:1032240003930323CEE78AF8B0360423CAE7BDEE3E
:10323400E77A17EE103ACAF8B4360523C2E76A4BA8
:10324400C3ED097A0623BDE7674BC3ED0A7A07236A
:10325400B8E7654BC3ED0B7A0823B3E79FED647AB7
:10326400F4EEC77AF1EE10FA00F361868AF8C436F8
:103274000923A7E75C4B48F00108C3ED0D7A0A2344
:10328400A0E7594B48F00208C3ED0E7A0B2399E7E7
:10329400554B48F00408C3ED0F7A0C2392E71F4600
:1032A400CBE59AF89636012B0FD1022E7FF476AF38
:1032B4009AF89536502B3FF471AF002B3FF46EAF64
:1032C400E0073FF56BAF1625C5E69AF8BD34002B31
:1032D4007FF464AFE1073FF554AFD9F81020424BB7
:1032E400DA605BE724F04004A4B29AF89996B9F145
:1032F400000F3FD0B9F1010F41D000230593022301
:103304004FF0010901939AF89736012B3ED0032E12
:1033140007D19AF89A36012B03D1B8F1040F40F083
:103324001286344A08AB07CA83E80700029A92055A
:1033340042D49AF894360A2B4FD05C2B00F0CB8001
:10334400032E40F0FE801E2B00F04181352B00F04F
:1033540055811C2B40F0ED8006202749FFF760FAC9
:10336400002838D0B8F1000F40F034814646CDF83B
:1033740010809DE00223059301230193C3E70023FA
:10338400CDF8149001934FF00209BCE700239FEDA0
:10339400177A1A4A48FA03F1C90744BFD2ED007AF2
:1033A40067EE877A03F1010348BFC2ED007A032B6D
:1033B40002F10402EED1AAE79AF89B06062801D985
:1033C4001D2548E69AF8C2248242B2D01946FFF776
:1033D40027FA0028ADD107253DE6B8F1000F0FD13B
:1033E4001A2538E680969800E40600203333CB4152
:1033F40000007F4334050020F40600201807002055
:1034040014F0500F3FF4D8AEB04BD3ED097AF6EE7A
:10341400E77AFCEEE77ACDED047A9DF81030062BBE
:10342400CED89AF8B026142A05D0022A7FF4C7AD64
:1034340020063FF5C4AD002B47D0013BDBB2DFF8DB
:1034440090A2049304980AF2A461FFF7E9F9002812
:10345400C1D000239AF8B0C60AF2A4620AF2BC4AA8
:1034640048FA03F1C90719D5BCF1140F92ED097A92
:103474002ED1DAED077ADAED0D6A77EEE67A77EE99
:10348400C77A022BC2ED007A08D19049A1F5EC70FD
:1034940090ED107A77EEC77AC1ED067A0133032BEB
:1034A40002F104020AF1040ADAD124F05004A4B2AD
:1034B400874B93F895B6BBF1500F40F0A680B8F156
:1034C400000F00F012811F25C5E59AF89B36B6E778
:1034D40082ED007AE2E7B8F1000F81D000237D4944
:1034E40008A801F5037248FA03FC1CF0010F23D06D
:1034F40090ED007AD1ED077A77EEC77A92ED007AF3
:1035040077EEC77A022BC2ED007A09D1DFF8BCC18D
:10351400ACF5EC7E9EED107A77EEC77ACCED0F7A9F
:103524000133032B01F1040100F1040002F1040250
:10353400D9D100230493BBE7D1F834C0C2F800C04A
:10354400EEE7B8F1000F3FF4FEAE002062490DF142
:10355400200E01F5F87248FA00FC1CF0010F0DD1A1
:10356400D1F800C0C2F800C00130032801F1040101
:1035740002F104020EF1040EEDD1E4E6352BF3D092
:10358400DFF84CC192ED007A9CF898A6BAF1000FCE
:1035940016D1DEED007AD1ED066A77EEA67A77EEE3
:1035A400877A0228C2ED007ADED10CF2946A0CF21A
:1035B400BC4C9CED107A77EE277ACAED0F7AD3E7EC
:1035C400D1ED007A77EE877AC2ED007ACCE7072056
:1035D4004249C3E600233F4A02F5EC7148FA03F07E
:1035E400C00758BFD06903F1010358BF0861032B1A
:1035F40002F1040201F10401F0D19AE7344B93F88B
:103604009536012B95D91E2525E5022E6DD1BBF1EA
:10361400000F05D1B8F1000618BF0126760064E05A
:1036240003F29463D3ED037AF5EE407AF1EE10FAE7
:103634003FF449AEBBF1030F05D051D8BBF1010FE4
:10364400E8D047F00407B8F1000F3FF4C9AE0123F6
:10365400019A03FA09F19340194318EA010F00F0A3
:1036640075841B4B03F2946A03F2BC4202EB89009B
:103674000AEB890CD0ED077ADCED0D8A019878EE1F
:10368400E78A02EB80020AEB800CD2ED077A9CED0C
:103694000D8A14F0800238EE678A00F0D48003F5B6
:1036A400D96103F59B600C2201F0A2FDAAF2946398
:1036B40000286FD12125CEE4ABF18D03022B00F25B
:1036C4002081DFE813F01C011E011C01E406002028
:1036D400500000200C05002028050020F4060020DE
:1036E4000BF17403DBB2032BE6D917F0010315BF0A
:1036F40024F0210424F44874A4B224F0010416B183
:1037040024F4E054A4B2002C40F02984CDE90C4404
:10371400002B00F01981029B23F04903002B40F099
:103724002184824E96F89436352B02D0002B40F03B
:1037340019847F4C96F8C424E36804F503740C934D
:1037440096F8C534134343F004038DF8343096F8E7
:10375400C83054F8282C13F0200F0B9205D02046C3
:10376400FDF738F9002840F0008420460BA9FFF744
:10377400D9F9337843B9FCF739FE28B120233370E3
:10378400FDF7AAFFFCF712FD94E80700694B83E8F4
:10379400070060E493F8973668EEA8AA012B01BFEE
:1037A400DAED0A7A9FED647A67EE877ACAED0A7ACF
:1037B400F1EE007A9AED0A9AB0EE6A0A69EE277A77
:1037C40028EE08AA99EE270A30EE4A0AB5EEC00A96
:1037D400F1EE10FA00F1BD8300F0B4FCF0EE409A73
:1037E4003AEE8A0A00F0AEFCF1EE699AB5EEC09AA0
:1037F400C9EE807ABBF1030F08BFF1EE677AF1EEF0
:1038040010FAB0EE687A48BFF1EE677AF6EE006A15
:10381400A8EE677AA8EEA78A27EE267A48BFB1EE0B
:10382400499A28EE268A0AEB890383ED047A019BE0
:1038340048BF8AED0A9A24F080040AEB830A8AEDD1
:10384400048AA4B251E70398014200F0858393F8F7
:10385400971624F00E040129A4B23BD00AEB890385
:10386400D3ED049A019B78EEE98A0AEB830393ED86
:10387400049A38EE498A28EE080AA8EEA80A00F04D
:1038840061FCB0EE408A29EE090AA9EEA90A00F00B
:1038940059FC78EE407A9FED297AF0EEE77AF4EE5F
:1038A400C77AF1EE10FA8AED0A0A7FF71EAFB6EE78
:1038B400007AF4EEC77AF1EE10FA3FF7FBAE9FED13
:1038C400207A20EE070AF4EEC07AF1EE10FA7FF7C0
:1038D4000CAFEFE69FED187A03F2A4630399043367
:1038E4001141C90744BF53ED017A67EE877A02F1AB
:1038F400010248BF43ED017A032AEFD1AEE747F056
:1039040010070BF17203DBB2012B98BF47F00807D5
:10391400B8F1000F3FF464AD0A490C22A1F5F87028
:1039240001F066FC00287FF4E0AEC3E650000020FE
:103934000C050020280500203333CB410AD7A33BD4
:103944006F12833A18070020AF4C94F8C8309B07D5
:103954000FD50BF1FF3BBBF1020F88BF47F04007C7
:10396400B8F1000F00F0ED80022E40F0EA8047F03D
:103974008007D4F8B436C4F8D43494F8963684F86E
:10398400BD3413B108238DF83430DFF894A207F066
:103994004008AAF5EC7B9AED0B0ADBED037AF4EE12
:1039A400407A9AED03AAF1EE10FA8BED04AA8DED9C
:1039B4000BAA01D1B8060FD594F8C50440B1390655
:1039C40006D4B8F1000F01D09FED900AFEF7BAFEBD
:1039D400DAF82C30CBF80C30B8F1000F02D1DBF858
:1039E4000C300C9394F8C43694F89E0684F8D034C2
:1039F40094F8C534834207D09DED0C0AFEF7A2FE6D
:103A040094F89E3684F8C5349DF8348094F8C5340F
:103A140094F89D0648EA030894F8C4348DF8348079
:103A2400834202900BD02378022B04D0FEF758FE79
:103A34000298FCF78BFB94F89D3684F8C43494F810
:103A4400C43448EA030894F894368DF83480042B7F
:103A54000BD12378022B08D09AED098AFEF740FE99
:103A64000020B0EE480AFEF71FFD94F89936032EA5
:103A740084F8C03494F8973684F8BE3414D194F89A
:103A84009A3684F8C13413B90023CAF83C30DAED0D
:103A94000F7A9BED107AB4EE677AF1EE10FA03D048
:103AA400CBED107AFEF7D5FE94F89B3694F8C22439
:103AB4009A4208D084F8C234554B08AA07CA83E84E
:103AC4000700FEF7C6FE94F8983684F8BF3494F8DD
:103AD4009436262B7ED04AD803F0FD021C2A63D0EC
:103AE4000A2B4DD094F89536502B84F8BC340DD065
:103AF400022E0BD1012B7ED146480BA9FFF712F8F9
:103B0400454B03F5F87207CA83E8070094F89C361E
:103B140084F8C334002B3FF49EAAFEF7E1FD94F829
:103B2400C334032B237840F0CC81022B04D008202B
:103B3400FCF76AFFFEF7E0FC002384F8C334FFF7C8
:103B44008ABA94F8C534102B7FF413AF94F8BC34BC
:103B540007F04002013B022B05D8002A3FF409AFCD
:103B640047F0200705E7002A7FF403AFF8E75C2B52
:103B740035D0662B38D0282BB4D1072026492BE02A
:103B8400DFF8A08004984146FEF7F6FD94F8C234AD
:103B9400049A9342A6D198E80700A8F5E07383E855
:103BA4000700FEF756FE9DE748F001088DF83480C3
:103BB4001EB118480BA9FEF7B5FFDFF868800BA902
:103BC4004046FEF7AFFF98E80700A8F5E67383E8E0
:103BD400070087E706201049FEF7CEFD82E70F4B6A
:103BE40003F5EC7207CADAE700230C4AC4F8F03490
:103BF400C2E90133D5E7BBB99DF8343043F0010382
:103C04008DF8343078E700BF500000200000000039
:103C14003405002018070020280500204005002056
:103C2400E4060020F4060020023B012B00F2FA8097
:103C3400CF4B019A03F5E67603EB890803EB820B7D
:103C44009AED0ABA06EB890A06EB8206DAED006AF7
:103C5400D6ED000A98ED009ADBED009A04EB890991
:103C640004EB820202F5D96209F5D96992ED007A72
:103C740036EE899A70EEA99A99ED006A37EE697A60
:103C840036EE496AF1EE60AA20EE860A60EEC70AB3
:103C9400A6EEC70AE6EEC60AF1EE66BA00F074FABA
:103CA4007A07B0EE408A40F19180DFEDB27AB4EE4B
:103CB400E70AF1EE10FA03DBDFEDAF7A30EE678A44
:103CC400D4ED2F7AF0EE008AB0EE670A9BEE280A54
:103CD40027EE800A00F036FAF6EE006A28EE267A1D
:103CE40027EE0B7AB0EEC77AC7EE007AFBFE677A4E
:103CF400FCEEE77A17EE903A9BB20193002B3FF467
:103D0400FBAE07EE903AB8EEE77A9DF83420984B74
:103D140012F0080F1EBF6AEE077A22F008028DF82F
:103D24003420059A18BFCDED0B7A03EB820704EB20
:103D3400820202F5D962D2ED007A97ED006AC8EEEC
:103D440007CA77EEC67AECEEEC8A87EE87BA9FED67
:103D54008BCAF1EE007A2CEE8CCA78EEA77A002298
:103D64002CEE27CA68EEA68A4FF00109019B1FFAC0
:103D740089F18B427FF6C0AE0C2A33D028EEAA7AA2
:103D84006AEECC7AACEE2B7AE8EEAB7AF0EE47AA88
:103D9400F0EE67BA0132D2B279EE2B7AC8ED007A2E
:103DA40079EEAA7ACBED007AD7ED007A77EE8B7AAA
:103DB4000BA9C7ED007A6E480292FEF7B3FE617854
:103DC400029A09F101090029D0D099E6DFED6C7A55
:103DD400B4EEE70AF1EE10FA9CBFDFED677A30EE3D
:103DE400278A6DE707EE909AB8EEE7AA2AEE2CAA86
:103DF400B0EE4A0A00F062F9B0EE408AB0EE4A0A28
:103E040000F04AFAD6ED007A9AED007A60EE27BA0D
:103E140067EEC87AE7EE407AE7EE48BAF0EE67AAB2
:103E24000022B9E79DF8343043F004038DF83430B0
:103E34002378022B3FF464AEFEF752FC6378002B28
:103E44007FF464AE637184F831364E4B4E480BA94F
:103E54001B69FEF767FE0123304684F83036FCF711
:103E6400D3FDFEF749FB6378002B7FF44FAE237834
:103E7400002BF6D194F83036012B1FD1FB0619D54F
:103E8400424BA3F1580207CA83E80700002384F8D1
:103E94003036FEF731FBFDF72BFBFDF75DFBFCF73E
:103EA400EBFAFCF77BFD6379002B3FF429AEFCF7BA
:103EB4006DFD2BE60520FCF7C9FDE7E701236371DF
:103EC400E4E70122A4F8BC2464220026E27146F24D
:103ED4006442022B84F8C06484F8BF6484F8C2642A
:103EE400A4F8C464228110D030462949FEF798FC16
:103EF40000283FF470AAFEF7ACFC30469FED250A7B
:103F0400FDF78EFB3046FCF721F92348FCF73EFB16
:103F14002248FCF73BFBFCF7F7FB0DE60125FFF716
:103F24009AB80225FFF797B81825FFF794B8262505
:103F3400FFF791B81925FFF78EB80425FFF78BB862
:103F44001B25FFF788B82525FFF785B82025FFF73F
:103F540082B82225FFF77FB82325FFF77CB82425F4
:103F6400FFF779B81025FFF776B80F25FFF773B878
:103F740028050020BD3706B5DB0FC940ABAA2A3E91
:103F8400BD370635000802421807002050050020FE
:103F94003405002000000000AD61000847620008FD
:103FA40070B50024134E2046FEF7ACFB80B986F8AA
:103FB4003D063E20FCF7DEF8FDF745F93A20FCF714
:103FC400D9F80720FCF7B2FC04B170BD0124EAE77C
:103FD40096F83D36002BF7D0FEF706FF05463E2047
:103FE400FCF7C8F8FDF72FF93A20FCF7C3F8284688
:103FF400E8E700BF5000002008B50F4A0F4B1048F7
:104004009A60104BC11EDA1C121A22F00302994264
:1040140088BF00220C4901F075F80C4B0C48DA1CDF
:10402400121AC11E22F00302994288BF0022002105
:1040340001F010F801F00AF90000000800ED00E0BA
:104044000000002050000020606300086028002069
:104054005000002010EE101AC1F3C7520029A2F13B
:104064007F0CACBF01204FF0FF30BCF11E0F0FDC02
:10407400BCF1000F1CDBC1F31603BCF1160F43F4B3
:1040840000030ADD963A03FA02F202FB00F07047DD
:10409400FDEEC07A17EE900A70474FF48002CCF11F
:1040A400170142FA0CF21A44CA4002FB00F07047AE
:1040B400BCF1FF3F18BF0020704700BF10EE103A5C
:1040C4001E4923F000428A421AD9B2F1FF4F02D3AB
:1040D40030EE400A704700B583B0684600F0E2FA5B
:1040E40000F00300012818D002280DD0F0B9DDED4E
:1040F400010A9DED000A00F049F803B05DF804FBE5
:10410400DFED0F0A00F042B8DDED010A9DED000A73
:1041140000F03CF8B1EE400AEFE7DDED010A9DED59
:10412400000A00F077FAB1EE400AE6E70120DDED7F
:10413400010A9DED000A00F06DFADEE7D80F493F51
:104144000000000008B52DED028BB0EE408A00F0AF
:104154000DFFB4EE488AF1EE10FA06D6DFED098AB7
:10416400B4EEE88AF1EE10FA02D4BDEC028B08BD7D
:1041740000F0C2FF88EEA80A21230360BDEC028B85
:1041840008BD00BF0000000000F0CCB810EE103AEB
:1041940023F00043B3F1485F2CD2FDEEC07A17EE52
:1041A400903A002B60D060EE007ADFED316A9FED2B
:1041B400315ADFED315AA7EEA65A9FED306A9FEDD2
:1041C400307ADFED306AE7EE855AA7EEA56AA7EEEE
:1041D400867AE7EE876A67EEA66A60EEC00AB6EEF4
:1041E400007AB7EE000AE7EEA60AD7EE870A30EEA9
:1041F400600A704760EE007ADFED1D6A9FED1D5A7C
:10420400DFED1D5AA7EEA65A9FED1C6A9FED1C7A9E
:10421400DFED1C6A1C4A9342E5EE275AA5EEA76A15
:10422400A6EE277AE7EE276A66EEA76AD5D9174A7B
:10423400934214D803F17F43B7EE006A07EE103AB5
:1042440036EE476AF6EE005A60EEC00A97EEA57A9B
:10425400E7EEA60A37EE607A36EE470A7047B6EE06
:10426400076AB5EE027AEDE7B7EE000A704700BFC1
:104274004ED747ADF6740F317CF293B4010DD037AD
:10428400610BB6BAABAA2A3D9999993E0000483F02
:10429400BBFE400A704700BF10EE103A1F4923F0DE
:1042A40000428A421BD9B2F1FF4F02D330EE400ADA
:1042B400704700B583B0684600F0F4F900F00300DD
:1042C40001281BD002280FD0F8B90120DDED010A26
:1042D4009DED000A00F09EF903B05DF804FB002098
:1042E400DFED0F0A00F096B90120DDED010A9DED26
:1042F400000A00F08FF9B1EE400AEDE7DDED010AA6
:104304009DED000AFFF742FFE6E7DDED010A9DEDB2
:10431400000AFFF73BFFB1EE400ADDE7D80F493F43
:104324000000000010EE903A30B523F0004583B051
:10433400B5F1FF4F8DED010A01982CDC20F000410E
:10434400B1F1FF4F27DCB3F17E5F38D09C1704F046
:10435400020444EAD07451B9022C2DD0DFED3E7A28
:10436400032C9DED017A07FE870A03B030BDD5B159
:10437400B5F1FF4F28D0B1F1FF4F14D0491BB1F173
:10438400F45F4FEAE1502CDA002B43DA3C3041DA97
:104394009FED320A27E007EE903A9DED017A37EE61
:1043A400870A03B030BDDFED2E7A00289FED2D0A79
:1043B40027FE800A03B030BD9FED2B0AF1E703B05E
:1043C400BDE8304000F058B8B1F1FF4F04F1FF34BC
:1043D40018D0022C39D8254B03EB840393ED030A40
:1043E400DFE79FED1F0A012C28D0022C1DD0002CE2
:1043F400D7D09FED1F7ADFED1C7A30EE070A30EE3E
:10440400670ACEE7022C23D8184B03EB840393ED01
:10441400000AC6E7DDED017A07EE103A87EE870A57
:1044240000F07CFA00F028F8DDE79FED117ADFED6B
:104434000E7A30EE070A37EEC00AB2E710EE103AF1
:1044440003F1004300EE103AABE79FED040AA8E73E
:104454009FED080AA5E700BFDB0F49C0000000007C
:10446400DB0FC93FDB0FC9BFDB0F49408C5D000880
:104474002EBDBB33DB0F493F38B510EE105AF0EEBA
:10448400407A25F00044B4F1A14F0AD3B4F1FF4FB0
:1044940055D8DFED4E7A002D9FED4D7A37FE270A71
:1044A40038BD4C4B9C4259D8B4F1445F4AD34FF0C9
:1044B400FF3227EEA76ADFED481A9FED482A531C06
:1044C400DFED475A66EE066ADFED462A9FED463A6F
:1044D400DFED463AA6EEA12A9FED454AE6EEA52A6F
:1044E400DFED444A9FED445A9FED447ADFED445A90
:1044F400A2EE263AE2EEA63AA3EE264AE3EEA64A56
:10450400A4EE265AA4EEA67AE5EE265A27EE267ADB
:10451400A5EE867A27EE877A35D03A4B002D03EB49
:10452400820393ED046AD3ED006A37EE467A37EEE0
:10453400677A36EEC70AB3DAB1EE400A38BD30EE18
:10454400000A38BD9FED307AF7EE006A30EE077A44
:10455400B4EEE67AF1EE10FAA9DD38BD00F0DEF92A
:104564002A4B9C4212D8A3F5D0039C4223D8F0EEE8
:10457400007A0022BFEE007AA0EE277A30EE270AF6
:10458400C7EE007A95E737EEC70A38BD204B9C4248
:104594000BD8F7EE087A0222B7EE007AA0EE277A5B
:1045A40030EE670AC0EE077A83E7BFEE007A032293
:1045B400C7EE007A7DE7F7EE007A012230EE677AE3
:1045C40030EE270AC7EE007A73E700BFDB0FC9BFDE
:1045D400DB0FC93FFFFFDF3ED769853C59DA4B3D0E
:1045E40021A215BD6BF16EBD356B883D95879DBDD0
:1045F4006E2EBA3D388EE3BD2549123ECDCC4CBE5D
:10460400ABAAAA3EA45D0008CAF24971FFFF973F16
:10461400FFFF1B4010EE103A23F00043B3F1485F54
:1046240004D2FDEEC07A17EE903A5BB360EE007AE6
:104634009FED155ADFED155A9FED156AE7EE855A81
:10464400DFED146A9FED147A20EE275AA5EEA76ACF
:10465400E6EE276AA6EEA77A30B9DFED106AE7EE38
:10466400876AA6EE850A704727EE457ADFED0C6A65
:10467400B6EE006AA0EE867AD7EE270AE5EE260AA1
:1046840030EE600A704700BFD3C92E2F342FD7B243
:104694001BEF3836010D50B98988083CABAA2ABEF5
:1046A400ABAA2A3E10EE103A8C4A70B523F00044AF
:1046B40086B00546944268D9894A1E4694421BD85E
:1046C400884A002BDFED887A02EA0302874940F327
:1046D400E5808A4270EE677A64D0DFED856A37EE52
:1046E400E67A77EEC77A77EEE67A012085ED007AEE
:1046F400C5ED017A06B070BD7E4A94425FD9B4F12B
:10470400FF4F48D2E215DFED7C6A863AA4EBC25330
:1047140007EE903ABDEEE77AB8EEC77A77EEC77A3D
:104724008DED037A67EEA67ABDEEE77AB8EEC77A26
:1047340077EEC77A8DED047A67EEA67AF5EE407AC5
:10474400CDED057AF1EE10FA40F0A380B5EE407A93
:10475400F1EE10FA0CBF01230223684903A801916A
:1047640002210091294600F0E1F8002EC2DA95ED0D
:10477400007A4042D5ED017AB1EE477AF1EE677ADC
:1047840085ED007AC5ED017AB4E7002285ED000AD3
:1047940042600020AEE770EE407AC0ED017AC0EDD1
:1047A400007AF6E79FED567ADFED566A77EEC77A20
:1047B40037EEE67A77EEC77A77EEE67A95E700F099
:1047C400ADF8F6EE007ADFED506A9FED476AE0EE51
:1047D400267A9FED477AFDEEE77A17EE900AF8EE17
:1047E400E76A1F28A6EEC60A66EE877AB1EE666A05
:1047F4001EDC464B411E464A334052F82120934268
:1048040016D030EE677A30EE470A002E85ED007A36
:1048140030EE670A85ED010ABFF66CAFB1EE477A58
:104824004042B1EE400A85ED007A85ED010A61E768
:1048340030EE677AE21517EE103AC3F3C753C3EBB1
:10484400D453082BDFDDF0EE405A9FED2D7A9FED17
:104854002D5AE6EE075A70EE657AE6EE077AD6EE42
:10486400857A35EEE77A17EE103AC3F3C753D21AB6
:10487400192A10DDB0EE650A9FED267A9FED265ABF
:10488400A6EE070A75EEC07AE6EE077AD6EE857ACA
:10489400B7E7032361E7B0EE650AB4E78A4270EE36
:1048A400277A0ED0DFED126A37EEA67A77EEC77A52
:1048B40077EEA67A4FF0FF3085ED007AC5ED017AE8
:1048C40018E79FED0F7ADFED0F6A77EE877A37EE00
:1048D400A67A77EEC77A77EEA67AEBE7D80F493F48
:1048E400E3CB1640F0FFFF7F800FC93FD00FC93FD5
:1048F40043443537800F494300008043445E000839
:104904000044353708A3852E84F9223F00FFFF7F3A
:10491400C45D000800A3852E32318D2410EE103AB8
:1049240023F0004300EE103A704700BF2DE9F04F2A
:1049340094461C460A4682461CF1040F04F1FF38D3
:104944002DED048BDBB068990393C94B53F82160B8
:10495400C0F24382BCF1030348BF0CF10403DB1033
:10496400029301334FEAC30EACEB0E0316EB0800BF
:104974000593029BA3EB080314D401309FEDBD7A89
:104984001EA9699C1844002BF0EE477A05DB54F805
:10499400235007EE905AF8EEE77A0133E1EC017AFE
:1049A4008342F0D1002EC0F2B482039B1EA946AD0F
:1049B400404601EB8304F7184FEA83090AEB8301AD
:1049C400B8F1000FDFEDAB7A09DBA3465346F3ECF5
:1049D400016A3BED017A8B42E6EE877AF7D101302A
:1049E4000434E5EC017AB842EAD10DF1280B0AEB64
:1049F40009049FEDA29A46AF0BEB8601DFED9E8A78
:104A04000BEB8609059804390096CDF820C0049173
:104A1400CDE9062E5AAB002E4FEA860503EB86033A
:104A240013ED140A15DD7B195A4660EE097A73ED0D
:104A3400016AB0EE407ABB42FDEEE77AF8EEE77A1F
:104A4400A7EEE87A37EEA60ABDEEC77AA2EC017AA1
:104A5400EBD1019000F08EFAF4EE007AB0EE408AC9
:104A640020EE270AFFF714FCF2EE007A0198A0EE7C
:104A7400678A0028FDEEC89AF8EEE97A38EE678A6C
:104A84006DDD06F1FF3CC0F10803C0F107015BF8DE
:104A94002C2042FA03FE0EFA03F3019319EE903A26
:104AA400734409EE903A019BD21A4BF82C200A4128
:104AB400002A00F3EF80B5EE408AF1EE10FA40F0E0
:104AC4009C80009B9E420ADD5D44002355F8041D32
:104AD4004D4543EA0103F9D1002B40F0F580009BDA
:104AE400013B5BF82330002B40F0E980049B01215B
:104AF40053F8042D0131002AFAD006F1010E314495
:104B0400F446039B029A33446FF04046724407EB29
:104B14008E0E1644699A02EB86061EAA02EB8305E2
:104B2400D6ED017AB8F1000F06F10406F8EEE77A43
:104B3400E5EC017ADFED4F7A09DB2A465346F3ECC4
:104B4400016A32ED017AA342E6EE877AF7D10CF1DD
:104B5400010CEEEC017A6145E2DA0E465AE740F0C8
:104B64008F80731E5BF82320D211002AA3DD19EE77
:104B7400903A002E03F1010309EE903A40F3D781F5
:104B840059464FF0000E51F8043B002B6AD0C3F590
:104B9400807341F8043C04E00B68C3F1FF0341F85F
:104BA400043B0EF1010E7645F6DC01239E460028F7
:104BB4000ADD01287BD0022806D1711E5BF8213062
:104BC40003F03F0C4BF821C0022A7FF474AFB7EE18
:104BD400000A734630EE488A002B3FF46CAF09920A
:104BE400019000F0C7F938EE408A0198099AB5EEB1
:104BF400408AF1EE10FA3FF464AFDDF820C092462B
:104C0400B0EE480A0196009EDDE9062EAEEB0C00DC
:104C1400009200F0AFF9DFED186AF0EE407AB4EEDE
:104C2400E60ADDE90023F1EE10FAC0F24D819FEDB2
:104C3400137A5C1C059920EE077A0831BDEEC77A19
:104C44000591B8EEC77AE7EE667ABDEEC77AFDEE57
:104C5400E77A17EE901A4BF8231017EE103A4BF838
:104C640024304AE00EF1010EB6458CDB9E469EE7E9
:104C74005C61000800000000000080430000803BED
:104C8400F6EE007AB4EEE78AF1EE10FA80F29A803A
:104C9400002210E719EE903A002E03F1010309EE09
:104CA400903A3FF76DAF002301289E4683D1711ED1
:104CB4005BF8213003F07F0C4BF821C084E706F148
:104CC400010EF44671461CE733469246009E5C1E74
:104CD400DDE90512A1F108005BF82410059061B923
:104CE4006FF0404119440BEB8103014653F8040D66
:104CF400013C08390028F9D00591B7EE000A05985F
:104D0400009200F037F9002CB0EE407A009AC0F21D
:104D14000481601C46AD5FED276A81000BEB8003C4
:104D240005EB800073ED017AF8EEE77A5B4567EEF8
:104D3400877A27EE267A60ED017AF3D10DF1C80E59
:104D44000B1F46A8A446F0460025C7189146002E1E
:104D54006BDB844A3846DFED847A002301E0AB4202
:104D640008DC0133F2EC016AB0EC017A9E42E6EE13
:104D7400877AF4DA0CF1FF3C0135043FE8EC017A60
:104D8400BCF1FF3FE3D1689B4A46022B50DC002B69
:104D940028DC0ED17144DFED747A31ED017A71456E
:104DA40077EE877AF9D15346002B40F0A980C2ED03
:104DB400007A19EE903A03F007005BB0BDEC048B67
:104DC400BDE8F08F19EE903A002E03F1010309EECD
:104DD400903A40F398800222D2E600234FF0080E66
:104DE4000293C1E571449FED607A71ED017A7145DA
:104DF40037EE277AF9D1DDED327A534677EEC77A6A
:104E0400002B76D182ED007A64B133A901230133FA
:104E1400B1EC017A9C4277EE877AF8DA53460BB10B
:104E2400F1EE677AC2ED017AC3E7DFED4F7AA1E7CD
:104E3400689B032BBDD1002C00F085800EEB840011
:104E4400A50090ED007A0346014671ED017AF0EE7B
:104E5400476A37EE277A714577EEC77A81ED007A93
:104E640077EEA67AC1ED017AEFD1012C6BD090EDEB
:104E7400007A0EF1040173ED017AF0EE476A37EE21
:104E8400277A994277EEC77A83ED007A77EEA67A8D
:104E9400C3ED017AEFD12B1D0EF10801DFED327A5B
:104EA4009E443EED017A714577EE877AF9D15346F7
:104EB400DDED326A9DED337A73B9C2ED006A82ED9D
:104EC400017AC2ED027A74E7FDEEC07A1C4617EE51
:104ED400901A4BF8231010E7F1EE666AB1EE477AA8
:104EE400F1EE677AC2ED006A82ED017AC2ED027AD0
:104EF4005FE7B1EE477A82ED007A002C85D18FE727
:104F0400F1EE677A53E7F7EE007A022237EEC88AA9
:104F1400D1E5039B4FEA830967E5689B022B0EDC0E
:104F2400002B13DC7FF445AFDFED0F7A3BE7022A59
:104F34007FF4C1ADF7EE007A37EEC88ABBE5689B13
:104F4400032B7FF436AFDFED087AB0E75346DDED8F
:104F5400327A13B90023136064E74FF000431360FF
:104F64005EE700BF6861000800000000B1EEC00AFF
:104F7400704700BF10EE103A33F000411A4626D0B5
:104F8400B1F1FF4F20D213F0FF4F21D1DFED2A7A88
:104F94002A4A60EE277A904217EE903A31DB4CF2BF
:104FA400503CC3F3C7511A466045A1F1190114DD01
:104FB400DFED237A002B9FED237AB0EE670A67FEBC
:104FC400877A27EE800A704730EE000A70477047F0
:104FD4004CF2503CC90D6045EADC0144FE29E7DC93
:104FE400002915DC11F1160F19DB193122F0FF42EB
:104FF4009FED150A42EAC15207EE902A27EE800A75
:105004007047DFED127A07EE103A27EE270A704751
:1050140022F0FF4242EAC15300EE103A7047DFED3E
:105024000B7A002B9FED0A7AB0EE670A67FE877A47
:1050340027EE800A704700BF0000004CB03CFFFF21
:10504400CAF24971CAF249F1000000336042A20D6C
:105054006042A28D70B5860747D0541E002A3ED008
:10506400CAB2034601E0013C39D303F8012B9D0782
:10507400F9D1032C2CD9CDB20F2C05EB052505EB6A
:10508400054535D9A4F1100C03F1100E1A462CF085
:105094000F064FEA1C1CB644C2E90055C2E902558A
:1050A40010327245F8D10CF1010214F00C0F04F027
:1050B4000F0C03EB021213D0ACF1040323F003032F
:1050C4000433134442F8045B9342FBD10CF0030411
:1050D4002CB1C9B21C4403F8011BA342FBD170BD1F
:1050E40064461346002CF4D1F9E703461446C0E79E
:1050F4001A46A446E0E700BF014B1868704700BF9A
:1051040000000020844641EA000313F0030349D160
:10511400403A23D30B6803604B6843608B68836019
:10512400CB68C3600B6903614B6943618B6983611D
:10513400CB69C3610B6A03624B6A43628B6A836205
:10514400CB6AC3620B6B03634B6B43638B6B8363ED
:10515400CB6BC36340304031403ADBD230320BD3A7
:105164000B6803604B6843608B688360CB68C360E3
:1051740010301031103AF3D20C3205D351F8043BFD
:1051840040F8043B043AF9D2043208D0D2071CBFD9
:1051940011F8013B00F8013B01D30B880380604602
:1051A400704700BF082A13D38B07B1D010F0030354
:1051B400AED0C3F10403D21ADB071CBF11F8013BC4
:1051C40000F8013BA4D331F8023B20F8023B9FE7EF
:1051D400043AD9D3013A11F8013B00F8013BF9D262
:1051E4000B7803704B7843708B78837060467047FC
:1051F400032A30B415D941EA000484460B46A407B7
:1052040004D0541E0FE0043A032A08D91946604614
:1052140053F8044B5CF8045BA542F4D0F1E7604614
:105224001946541E7AB1431E0139021901E09A420B
:1052340009D013F8010F11F801CF6045F7D0A0EBA6
:105244000C0030BC7047002030BC7047AD4A2DE9DB
:105254008048D2F89830002043F48043C2F8983054
:10526400A94B89B01A6822F440221A601A6842F4E1
:1052740000221A605A6A22F0F0025A625A6A42F014
:1052840070025A621A6822F440121A601A6842F4D0
:1052940000121A605A6A22F470625A625A6A42F41C
:1052A400E0625A6240F23D4203F17E43A3F570434B
:1052B400DA602C221A601A6842F001021A604FF474
:1052C4000012924B5A60FBF787FF0A2800F0C78050
:1052D4000720FBF71DFBFF20FDF75EFAFBF754FAEE
:1052E40089480721FBF734FC4021FBF731FC3821C6
:1052F400FBF72EFC834A0026D2F890304FF0FF31A2
:1053040043F00103C2F890304FF080431E609E6268
:10531400D9620121D96019604FF400537B487C4C59
:105324004360D2F8903043F00203C2F89030794BD6
:105334001E609E62D9604FF48043782143607648B2
:10534400FBF772FCFBF787FC0846FBF787FFC4F802
:10535400A864C4F8AC64C4F8B06462B694F8C83005
:10536400C3F3001323701422002120462578FFF78D
:1053740071FE6423E37146F264432570674D94F82B
:10538400149500214422A5F1440084F83066C5E94F
:1053940000666675238184F8B964AE6084F80C6590
:1053A40084F80D6584F81595FFF754FE0020A5F1E7
:1053B4001C01FDF735FA10B90720FBF7A9FA584D7F
:1053C400FBF7F1FB4FF400512846FBF7C1FB4FF00C
:1053D4000053AB61FBF7BEFF4FF400412846FBF7D7
:1053E40023FCFBF738FC84F83166FCF7B5F8FCF7CE
:1053F4007FF8FBF741F8FBF7C9FA4A48FBF7C6F810
:1054040094F8C83018070CD5FBF7A6F848B1012367
:1054140045482370FBF7BAF84448FBF7B7F8FBF7A5
:1054240073F9237813F0810322D03F48FBF7AEF8D9
:105434003F48FBF7ABF8FBF767F90123237000271C
:105444003D4694F815359945DAB240F04884FBF7A7
:10545400E7FAFDF751F86378002BF2D083E75C227A
:1054640001213448FBF7D0FE00287FF439AF2FE741
:105474002370FEF795FDE2E794F83D361BB92E48FC
:10548400FBF784F8DBE7242B40F0F08301238DF84D
:105494000F3094F83E36472B06D019D8E3B1242BAD
:1054A40002D0432B40F0F88094F83F76002F40F070
:1054B4001682472B44D0227800F2E180242B40F05E
:1054C400C98012F0180F40F04382FBF75DF906E043
:1054D4004A2B08D0582BE5E71848FBF757F828461D
:1054E400FBF724FAABE7237813F0DF0F40F03082A8
:1054F40094F83F363D2B40F0F281FDF775FC0546EC
:10550400EDE700BF000C02440000024200E100E0AD
:105514005000002000040040000402425005002016
:10552400000802424F620008AD6100086C62000886
:1055340079620008D00000209B6100088D62000899
:10554400A848FBF723F894F8BC048B2806D9A6488E
:10555400FBF71CF894F8BC047630C0B2FBF71FF8D4
:10556400A248FBF713F894F8C2043630C0B2FBF734
:1055740016F89E48FBF70AF894F8C0041130C0B23C
:10558400FBF70DF89948FBF701F894F8BE04C0F155
:105594001500C0B2FBF703F89448FAF7F7FF94F844
:1055A400BF045A30C0B2FAF7FAFF9048FAF7EEFF98
:1055B40094F8BD04C0F15E00C0B2FAF7F0FF94F8AD
:1055C400C33483B18A48FAF7E1FF94F8C30403288B
:1055D40006D01E2801D0022805D1FAF7E0FF02E028
:1055E4003020FAF7C7FD8248FAF7D0FF94F8C534A3
:1055F400102B25D0202B27D043B37D48FAF7C6FFC4
:1056040094F8C43423B33820FAF7B4FD7948FAF790
:10561400BDFF794F94F8D004FAF7C1FF7748FAF741
:10562400B5FF97ED040AFBF759F87548FAF7AEFF92
:10563400002097ED030AFAF7D9FFFBF765F84EE768
:105644003320FAF797FDD8E73420FAE73520F8E756
:105654003920D9E7022A08D1FBF704FA6948FAF796
:1056640095FF6948FAF792FFE7E7002A40F0708156
:10567400022364482370FAF789FF6448F2E7012A99
:105684007FF42DAF5F48FAF781FF6148FAF77EFF98
:10569400FBF73AF8277022E72278012A00F25881B2
:1056A400232B15D0483BD9B20B2900F253810B2B85
:1056B40000F25081DFE813F05300B8004E014E01B0
:1056C4004E014E0127014E014E014E01FC008200A5
:1056D40094F83F76002F40F00281DFF844A1DFF810
:1056E40044B15FFA87F8404605A9FDF799F818B95F
:1056F4000720FBF70DF9F2E64648FAF747FF062FB5
:1057040007D0072F29D008F13600C0B2FAF747FFB7
:1057140002E05046FAF73AFF3A20FAF72BFD013738
:1057240005A8FAF7F8FFFAF7EFFF082FD9D1324F9F
:105734003948FAF72BFF07F13400FAF7ECFFFAF7D0
:10574400E3FF3648FAF722FF97ED100AFAF7B4FFA1
:10575400FAF7DAFFFBF722F9C1E65846DAE794F8DC
:10576400C830D90640F17A82042794F83F3627706E
:10577400002B40F0B480FBF7C1FD3846FDF71CFA5E
:105784000320FDF719FAFCF7B7FE6378002B7FF4CA
:10579400A6AEFBF7FBF8FAF76FFEFBF7DBFD6378C9
:1057A400002B7FF49CAE2370FAF786FE94F83F3604
:1057B400002B7FF494AEFEF7F3FB90E694F83F36AB
:1057C4004C2B40F08C8094F84036502B40F087806E
:1057D40094F84136002B40F082808020FBF714F9C6
:1057E4007DE600BFD7620008DD620008E1620008C0
:1057F400E4620008E76200080C050020EA62000881
:10580400ED620008AD610008F0620008F96200086A
:1058140001630008136300081C6300082263000886
:105824001663000819630008022394F83F268DF8D4
:105834000F3042BB502240F2AE31C848FBF7E4FCC3
:1058440038B984F83D06502240F2AE30C349FBF724
:1058540025FEC348FAF79AFEFBF7F5FCFAF754FF66
:10586400C048FAF793FE5620FAF784FC2C20FAF786
:1058740081FC0F20FAF793FE2C20FAF77BFC8020A2
:10588400FAF78DFED9E603233D2A8DF80F3026D191
:10589400E11891F83D26013381F83A26DBB2002A5B
:1058A400F6D1502240F2AE30AC49FBF7F7FD16E6D4
:1058B40094F83F36532B12D194F84036542B0ED122
:1058C40094F841363D2B0AD194F843363BB994F809
:1058D4004236242B05D02A2B13D0232B0FD003259B
:1058E400FDE50120FCF758FF9F48FAF74FFE9F485B
:1058F400FAF74CFEFAF708FFFBF7B4F8EFE50220DD
:10590400F0E7FF20EEE7022394F83F768DF80F309E
:10591400EFB9DFF868A25FFA87F84046FCF7F2FEB9
:1059240038B90720FAF7F4FF002F7FF4D8AD012728
:10593400F1E75046FAF72AFE4046FAF730FE3D20DA
:10594400FAF718FCFBF77FFCFAF7DAFEECE752B142
:105954000825C4E5002704A90DF10F00FBF712FD8B
:1059640018B90225BBE50127F5E79DF80F30581C4F
:10597400234493F83D36C0B23D2B8DF80F00AED1D1
:105984003FB30346E21892F83D161A1A2244013333
:1059940082F83D16DBB20029F4D18DF80F30FDF703
:1059A40023FA054600287FF49AAD9DED048AB6EEED
:1059B400C88AFCF795FEFCEEC87ACDED017A512732
:1059C4004FF440709DF80430502207FB03006349F4
:1059D4006BE705A90DF10F00FBF7D4FC0028C0D03C
:1059E4009DF80F30234493F83D36002B7FF477AFB6
:1059F400DDED047A9FED5E7AF4EEC77AF1EE10FAEB
:105A04003FF76DAFFCEEE77ACDED017ADDED057A77
:105A1400F5EEC07AF1EE10FA9DF8043000F1208121
:105A2400632B2FD9643BDBB2022B22D8FFB2022FA7
:105A34000DD0032F16D04F4A012F02EB830214BF5F
:105A4400C2ED207AC2ED237AFBF744FD47E59FEDD2
:105A54004A7A67EE877A67EE877A04EB8303C3EDAD
:105A6400267AF1E7F1EE677A04EB8303C3ED297A32
:105A7400EAE7092B7FF633AF0137042F3FF42FAF4A
:105A84000A3BD0E7B6EEE77ABCEEC77A8DED017A31
:105A94009DF80420202B3FF622AF01A151F823F0FA
:105AA400295B0008355B00083B5B0008455B000888
:105AB4004B5B0008855B0008975B0008E35800080F
:105AC400E3580008E3580008B35B0008B95B00081A
