:1000000017110020130101ACEF702007727000007F
:100010007270000072700000727000007270000058
:100020007270000072700000727000007270000048
:100030007270000072700000727000003671000073
:100040007270000072700000727000007270000028
:100050007270000072700000727000007671000013
:100060007270000072700000727000007270000008
:1000700072700000727000007270000072700000F8
:10008000727000007270000072700000CE7100008B
:1000900072700000727000007270000072700000D8
:1000A00072700000F6700000727000007270000044
:1000B000130101FFB70780009387F7FF13D675017F
:1000C000232481001354750133F7A70023229100E4
:1000D000B3F7B7001374F40F1376F60F232611004D
:1000E0009354F50193D5F501131737009397370013
:1000F000B306C4406390B418635CD008631606026C
:10010000638007029306F4FF63980600B387E70055
:10011000130410006F00C0041306F00F631EC40028
:10012000930707006F00C0101306F00FE30AC4FE28
:1001300037060004B3E7C7009305B00113061000AB
:1001400063CED50013060002B3D5D700B306D64060
:10015000B397D700B337F00033E6F500B307E600F6
:10016000139757006356070C130414001307F00F7E
:10017000630EE42C3707007E93F617001307F7FF92
:1001800093D71700B3F7E700B3E7D7006F00400A33
:1001900063860606B3068640631004026308070CF4
:1001A0009385F6FFE38405F61305F00F6390A6022E
:1001B0001304F00F6F00C0079305F00FE30AB6FEBB
:1001C000B70500043367B700938506001305B00137
:1001D00093061000634EB50093060002B386B64046
:1001E0003355B7003317D7003337E000B366E50067
:1001F000B387D700130406006FF09FF69306140030
:1002000013F6E60F631C060463120404630207027C
:10021000E38807F0B387E70013975700635A070096
:10022000370700FC1307F7FFB3F7E70013041000CC
:1002300013F77700630E072013F7F70093064000CB
:100240006308D720938747006F008020E30207F6FA
:1002500063960716930707006FF09FF51306F00FDC
:100260006384C61E3307F7009357170013840600F4
:100270006FF01FFC635ED00663120606E38207EA96
:100280009306F4FF63980600B307F74013041000C9
:100290006F0040031306F00FE304C4E89305B001B8
:1002A0001306100063CED50013060002B3D5D700A5
:1002B000B306D640B397D700B337F00033E6F50066
:1002C000B307C74013975700E35407F6B706000477
:1002D0009386F6FFB3F6D7006F0080101306F00F79
:1002E000E300C4E437060004B3E7C7006FF01FFB68
:1002F000638E0606B3068640631604026300071C7D
:100300001385F6FF63180500B387E7409384050063
:100310006FF0DFF71303F00F639066021304F00F22
:100320006F00001A1305F00FE30AA6FE370500045C
:100330003367A700138506001303B001930610006E
:10034000634EA30093060002B386A6403353A70072
:100350003317D7003337E000B366E300B387D740E5
:1003600013040600938405006FF0DFF59306140074
:1003700093F6E60F639C0604631C040263180700EF
:1003800063900714930400006F00800CE38A07D881
:10039000B306F74013965600B387E7406342061250
:1003A00093870600E39606E8930700006FF09FFD31
:1003B000E31007EA93840500E39C07DE9304000042
:1003C000B70700021304F00F6F008008B306F74070
:1003D0001396560063580604B386E74093840500DD
:1003E000138506002320D100EF1080318326010001
:1003F0001305B5FFB396A600634E8502330585400D
:1004000013051500130700023307A740B3D7A60052
:10041000B396E600B336D000B3E7D700130400006C
:100420006FF01FE1E39E06FA93070000130400003B
:100430006FF05FF5B70700FC9387F7FF3304A44024
:10044000B3F7F6006FF0DFDE1304F00F9307000040
:1004500013975700635E0700130414001307F00F8F
:100460006304E406370700FC1307F7FFB3F7E70060
:100470001307F00F93D737006318E4006386070073
:10048000B707400093040000131474013707807FFE
:10049000939797003374E40093D797003364F40084
:1004A0001395F4018320C1003365A4000324810067
:1004B00083244100130101016780000013840600BA
:1004C000938405006FF0DFD6930700006FF05FFAAA
:1004D000130181FD93179500232E9100935675010A
:1004E00093D497009357F501232211022320810210
:1004F00093F6F60F2320F100638806081307F00F28
:10050000638AE60A9397340037070004B3E4E700F0
:10051000938616F81303000013D675011394950003
:100520001376F60F1354940093D5F5016304060A6D
:100530001307F00F630EE60C1314340037070004A2
:100540003364E400130616F8130500008327010046
:10055000B386C640131623003366A6001306F6FFC3
:100560009302E00033C7B70063E4C20C9792000027
:10057000938242F413162600330656000326060023
:1005800033065600670006006380040413850400E8
:100590002322B100EF10C0161307B5FF9306A0F891
:1005A00083254100B394E400B386A6401303000002
:1005B0006FF09FF69306F00F13032000E38E04F410
:1005C000130330006FF05FF5930600001303100073
:1005D0006FF09FF463080404130504002326D10080
:1005E000232461002322B100EF1080111307B5FF0F
:1005F0001306A0F83306A64083254100032381009B
:100600008326C1003314E400130500006FF01FF4CB
:100610001306F00F13052000E30A04F2130530005F
:100620006FF0DFF213060000130510006FF01FF2E9
:100630001316540063F4841A9386F6FF93030000A4
:10064000935706012320F1008325010037040100A0
:10065000130404FEB377860013850400232CD10015
:10066000232A71002328E1002326C1002322F10060
:10067000EF00507E930505002324A10003254100CF
:10068000EF00907A83250100130405001385040010
:10069000EF10C0008323410183228100131505015F
:1006A00093D50301B3E5A5000326C100032701018B
:1006B000832681019387020063FE8500B305B6009F
:1006C0009387F2FF63E8C50063F685009387E2FF36
:1006D000B385C5002328F100B38785408325010039
:1006E0001385070013840700232AD1002326E10085
:1006F000232CC100EF001076930505002324A100F0
:1007000003254100EF00507283250100930405008A
:1007100013050400EF009078832381001313050173
:100720000327C1008327010183264101938503002C
:1007300063749302032681019385F3FF3305C3009D
:1007400033346500130305006318040063769500D5
:100750009385E3FF3303C5001394070133039340EC
:100760003364B40033336000336464001385F607E8
:100770006350A00C93777400638A07009377F400AA
:10078000130640006384C700130444009317440019
:1007900063DA0700B70700F89387F7FF3374F400B4
:1007A000138506089307E00F63C2A706935734002A
:1007B00083204102032401029397970013157501CA
:1007C00093D797003365F5001317F7018324C10110
:1007D0003365E50013018102678000009393F40103
:1007E00093D414006FF0DFE50327010013840400A5
:1007F00013050300930730006306F5089307100004
:10080000630AF50893072000E312F5F6930700004A
:100810001305F00F6FF0DFF9138705006FF09FFDF0
:100820003704400013070000130530006FF09FFCF1
:1008300093071000B387A7401306B001634CF6047A
:100840009386E609B357F4003314D40033348000A0
:10085000B3E7870093F67700638A060093F6F70004
:10086000130640006384C6009387470093965700A1
:1008700093D7370063D206029307000013051000D8
:100880006FF01FF3B70740001305F00F13070000C8
:100890006FF01FF293070000130500006FF05FF187
:1008A00093567501B70780009387F7FF13D675013C
:1008B00093F6F60F9302F00F33F3A7001357F501E9
:1008C000B3F7B7001376F60F93D5F50113051000B3
:1008D000639A5600631603006314D600638A070008
:1008E00067800000E30E56FEE39CC6FEE31AF3FEAB
:1008F00013050000E306B7FE13051000E39206FEA1
:100900003335600067800000B70780009387F7FFEA
:100910009356750133F6A7001357F50193F6F60FBA
:1009200013D575011303F00FB3F7B7001375F50F67
:1009300093D5F50163946600631206041303F00F68
:1009400063146500639C0702639A0604631C050236
:10095000631806046382070413051000639E0502F2
:100960001305F0FF67800000E3C8A6FE63E2C7023C
:10097000130500006372F6026FF01FFE1305E0FF1F
:1009800067800000E30A06FC639EE500E35ED5FC99
:100990001305F0FF638C050067800000E31605FE79
:1009A000E39407FE1305F0FFE31807FE130510009C
:1009B00067800000B70780009387F7FF93567501A3
:1009C00033F6A7001357F50193F6F60F13D575010B
:1009D0001303F00FB3F7B7001375F50F93D5F501B7
:1009E00063946600631206041303F00F631465003A
:1009F000639C0702639A0604631C050263180604DD
:100A00006382070413051000639E05021305F0FFBF
:100A100067800000E3C8A6FE63E2C702130500007A
:100A20006372F6026FF01FFE13052000678000005E
:100A3000E30A06FC639EE500E35ED5FC1305F0FFC8
:100A4000638C050067800000E31605FEE39407FE53
:100A50001305F0FFE31807FE130510006780000080
:100A6000130141FE93577501232A81002328910029
:100A700013179500232C110093F7F70F93840500AB
:100A8000135797001354F501638407149306F00F6E
:100A90006384D71613173700B70600043367D700EF
:100AA000138317F81306000093D6740193979400EC
:100AB00093F6F60F93D7970093D4F401638E061440
:100AC0009305F00F638CB618B705000493973700B1
:100AD000B3E7B700938616F893050000B306D3007A
:100AE0002320D1009382160093162600B3E6B600A9
:100AF0001305A000634ED522130520003343940054
:100B0000634ED5169386F6FF13061000637AD61847
:100B1000B7040100935607019383F4FF2322D10009
:100B20003377770093D60701B3F777002324D100FA
:100B30001305070093850700EF00102F130405002D
:100B40008325810013050700EF00102E1307050011
:100B50009385070003254100EF00102D9307050042
:100B60008325810003254100EF00102C93560401DA
:100B70003307F7003387E6006374F7003305950009
:100B8000B3767700B377740093960601B386F600C8
:100B900013570701939766003307A70093D6A60162
:100BA00013176700B337F000B3E7D7009316470079
:100BB000B367F70063DA060013D7170093F717003F
:100BC000B367F70023205100832201006F00C00E9D
:100BD000630E0702130507002320E100EF005032E7
:100BE000032701009307B5FF1303A0F83317F7009D
:100BF0003303A3406FF01FEB1303F00F1306200025
:100C0000E30407EA130630006FF01FEA1303000045
:100C1000130610006FF05FE9638C0704138507006B
:100C20002326E100232461002322C1002320F100B8
:100C3000EF00102D832701009306B5FF0326410026
:100C4000B397D7009306A0F8032381000327C100C0
:100C5000B386A640930500006FF05FE89306F00F9F
:100C600093052000E38C07E6930530006FF01FE743
:100C700093060000930510006FF05FE61305100067
:100C8000B316D50013F50653631E050A13F60624A2
:100C9000631A061093F68608E38C06E613830400B5
:100CA00013072000638CE50413073000638CE50E06
:100CB000130710006380E5101385F207635AA0083C
:100CC00013F77700630A070013F7F7009306400055
:100CD0006304D7009387470013974700635A0700C0
:100CE000370700F81307F7FFB3F7E700138502088B
:100CF0001307E00F93D737006356A7009307000050
:100D00001305F00F8320810103244101939797007D
:100D10001315750193D797003365F5001313F3018D
:100D200083240101336565001301C1016780000060
:100D30001305F0006388A6061305B0001303040032
:100D4000E38EA6F493070700930506006FF05FF5A6
:100D5000130710003307A7409306B00163CCE604E5
:100D60009382E209B392570033D7E700B3325000C1
:100D7000B367570013F77700630A070013F7F7000C
:100D8000930640006304D7009387470013975700EA
:100D900093D7370063520702930700001305100032
:100DA0006FF05FF6B70740001305F00F1303000064
:100DB0006FF05FF593070000130500006FF09FF4DC
:100DC000B7078000130101FF9387F7FF13D6750162
:100DD00033F7A70023248100B3F7B7002322910043
:100DE00013547501232611001376F60F9306F00FA6
:100DF0001374F40F9354F5011317370093D5F501CD
:100E0000939737006314D6006394070093C51500C9
:100E1000B306C44063909518635CD008631606025D
:100E2000638007029306F4FF63980600B387E70028
:100E3000130410006F00C0041306F00F631EC400FB
:100E4000930707006F00C0101306F00FE30AC4FEFB
:100E500037060004B3E7C7009305B001130610007E
:100E600063CED50013060002B3D5D700B306D64033
:100E7000B397D700B337F00033E6F500B307E600C9
:100E8000139757006356070C130414001307F00F51
:100E9000630EE42C3707007E93F617001307F7FF65
:100EA00093D71700B3F7E700B3E7D7006F00400A06
:100EB00063860606B3068640631004026308070CC7
:100EC0009385F6FFE38405F61305F00F6390A60201
:100ED0001304F00F6F00C0079305F00FE30AB6FE8E
:100EE000B70500043367B700938506001305B0010A
:100EF00093061000634EB50093060002B386B64019
:100F00003355B7003317D7003337E000B366E50039
:100F1000B387D700130406006FF09FF69306140002
:100F200013F6E60F631C060463120404630207024F
:100F3000E38807F0B387E70013975700635A070069
:100F4000370700FC1307F7FFB3F7E700130410009F
:100F500013F77700630E072013F7F700930640009E
:100F60006308D720938747006F008020E30207F6CD
:100F700063960716930707006FF09FF51306F00FAF
:100F80006384C61E3307F7009357170013840600C7
:100F90006FF01FFC635ED00663120606E38207EA69
:100FA0009306F4FF63980600B307F740130410009C
:100FB0006F0040031306F00FE304C4E89305B0018B
:100FC0001306100063CED50013060002B3D5D70078
:100FD000B306D640B397D700B337F00033E6F50039
:100FE000B307C74013975700E35407F6B70600044A
:100FF0009386F6FFB3F6D7006F0080101306F00F4C
:10100000E300C4E437060004B3E7C7006FF01FFB3A
:10101000638E0606B3068640631604026300071C4F
:101020001385F6FF63180500B387E7409384050036
:101030006FF0DFF71303F00F639066021304F00FF5
:101040006F00001A1305F00FE30AA6FE370500042F
:101050003367A700138506001303B0019306100041
:10106000634EA30093060002B386A6403353A70045
:101070003317D7003337E000B366E300B387D740B8
:1010800013040600938405006FF0DFF59306140047
:1010900093F6E60F639C0604631C040263180700C2
:1010A00063900714930400006F00800CE38A07D854
:1010B000B306F74013965600B387E7406342061223
:1010C00093870600E39606E8930700006FF09FFD04
:1010D000E31007EA93840500E39C07DE9304000015
:1010E000B70700021304F00F6F008008B306F74043
:1010F0001396560063580604B386E74093840500B0
:10110000138506002320D100EF00805F83260100B5
:101110001305B5FFB396A600634E850233058540DF
:1011200013051500130700023307A740B3D7A60025
:10113000B396E600B336D000B3E7D700130400003F
:101140006FF01FE1E39E06FA93070000130400000E
:101150006FF05FF5B70700FC9387F7FF3304A440F7
:10116000B3F7F6006FF0DFDE1304F00F9307000013
:1011700013975700635E0700130414001307F00F62
:101180006304E406370700FC1307F7FFB3F7E70033
:101190001307F00F93D737006318E4006386070046
:1011A000B707400093040000131474013707807FD1
:1011B000939797003374E40093D797003364F40057
:1011C0001395F4018320C1003365A400032481003A
:1011D000832441001301010167800000138406008D
:1011E000938405006FF0DFD6930700006FF05FFA7D
:1011F00037068000135775019307F6FF1377F70F33
:101200009305E007B3F7A7009356F50163D6E5040D
:101210009305D00963DAE500370500801305F5FF73
:101220003385A6006780000033E5C70093075009A7
:1012300063DCE7001307A7F63315E50063800602B9
:101240003305A0406780000093076009B387E7403B
:101250003355F5006FF09FFE130500006780000016
:10126000B7058000935775019386F5FF93F7F70F45
:101270001306E007B3F6A6001357F5016352F60410
:10128000134617001306E6091305F7FF63DCC702D0
:1012900013050000631807021307500933E5B60071
:1012A0006358F7009387A7F63315F50067800000B1
:1012B00013076009B307F7403355F5006780000056
:1012C0001305000067800000130141FF2324110073
:1012D0002322810023209100930705006300050E5F
:1012E0001357F5413344A7003304E4409354F50108
:1012F00013050400EF00C0409307E009B387A7403F
:10130000130760096340F70413078000630EE50AC2
:10131000130585FF3314A400131494001354940090
:101320009397770183208100B3E78700032441006E
:101330001395F40133E5A700832401001301C100D4
:1013400067800000130790096354F70613075000E5
:101350009306B5013307A740B316D4003357E40012
:10136000B336D0003367D700370400FC1304F4FF12
:101370009376770033748700638A06001377F7004B
:10138000930640006304D70013044400131754006D
:10139000635C0700B70700FC9387F7FF3374F40022
:1013A0009307F009B387A740135434006FF0DFF6BA
:1013B0001307B5FF3317E4006FF01FFB9304000021
:1013C000130400006FF05FF5930760096FF0DFF41E
:1013D000130141FF2322810023241100130405007F
:1013E0001307000063040502EF0080311307E009D2
:1013F0003307A7409307600963CAE7029307800099
:101400006302F50A130585FF3314A4001314940036
:1014100013549400131577018320810033658500F0
:10142000032441001301C100678000009307900965
:1014300063D4E7069307B50193065000B317F40091
:10144000B386A640B337F000B356D400B3E7D70055
:10145000370400FC1304F4FF93F6770033F487009D
:10146000638A060093F7F700930640006384D70071
:10147000130444009317540063DC0700B70700FC13
:101480009387F7FF1307F0093374F4003307A7407D
:10149000135434006FF09FF79307B5FFB317F400B0
:1014A0006FF01FFB130760096FF05FF69397C5009D
:1014B00093D2450193D7970093F2F27F1357D5014A
:1014C000B366F7009387120093F7E77F93D5F50192
:1014D000131335006386070A138602C89307E00FCB
:1014E00063C4C70C634CC006930790FE634CF610B0
:1014F000B70780009303E00133E5F600B383C340F0
:101500009307F00163C47702938222C8B357730034
:101510003313530033336000B31255003363530069
:10152000B3E76700130600006F00C0049306E0FFF6
:10153000B387C64093060002B357F50013070000B7
:101540006386D300138722CA3317E5003367670029
:101550003337E000B3E7E7006FF0DFFC13176500F7
:101560003337E000139536001353D3013367A700D8
:10157000B367670013F77700630C07026F00000979
:10158000B3E7660063960200B337F0006FF09FF98F
:101590001306F00F638E070013973600B70700029B
:1015A000B367F7006FF01FFD930700001306F00FFD
:1015B00013975700635E0700130616001307F00F1A
:1015C0006300E606370700FC1307F7FFB3F7E700F1
:1015D00013D737009307F00F6318F6006306070070
:1015E000370740009305000093177601B706807F08
:1015F000B3F7D700B3E7E7001395F50133E5A7008C
:1016000067800000930710001306000013F7F7002F
:1016100093064000E30ED7F8938747006FF05FF919
:10162000930700006FF0DFFA1306050013050000B2
:1016300093F61500638406003305C50093D51500A5
:1016400013161600E39605FE67800000634005064A
:1016500063C6050613860500930505001305F0FF14
:10166000630C060293061000637AB6006358C0004C
:101670001316160093961600E36AB6FE13050000D3
:1016800063E6C500B385C5403365D50093D6160023
:1016900013561600E39606FE678000009382000052
:1016A000EFF05FFB13850500678002003305A04063
:1016B0006348B000B305B0406FF0DFF9B305B04048
:1016C00093820000EFF01FF93305A040678002000D
:1016D0009382000063CA0500634C0500EFF09FF79A
:1016E0001385050067800200B305B040E35805FE8E
:1016F0003305A040EFF01FF63305B04067800200CD
:10170000B7070100637AF5029337051093B7170006
:1017100093973700130700023307F7403355F5005E
:10172000978700009387C7DCB387A70003C507002E
:101730003305A74067800000370700019307800149
:10174000E37AE5FC930700016FF0DFFC130141FF32
:1017500023209100232281002324110067800200AE
:101760008324010003244100832081001301C10070
:1017700067800000511106C422C226C0EF50902895
:10178000EF302034EF204062EF40907EB70700201A
:101790009387C70023A0070023A2070023A4070004
:1017A00073600430B707002083C7C72337040020C5
:1017B000B70400209183858B230CF40093840400EC
:1017C000130484018347040023200400232204001F
:1017D0002300F40093074006A303F4009967232431
:1017E0000400938747462314F400B70700202380A2
:1017F000076AB7070020A38F0768B7070020238F69
:101800000768B7070020A38E0768B7070020238E5C
:101810000768232604002328040023A0040023A231
:10182000040023A40400EF50B02E8D2BEF10E05ED7
:10183000EF10607BEF30D062EF40A04DEF300051F1
:10184000EF20604DEF30B02B6923EF40206EEF109A
:10185000B0718DBF31113707002022C626C493070F
:10186000471F06C883C787041307471F3704002094
:101870002AC093F707023AC2AE841304840189CBCD
:1018800003470400930700026309F700EF402014A8
:101890000347040089476303F704EF10104A8347A6
:1018A00014008DEFEF30C05801C5EF10807CF5B704
:1018B0000245A685EF30C06C15E1924783C78704C7
:1018C000898B89CF83C78400C18B89CB3244CC40BC
:1018D000C240A244414551016F10406EC2403244A3
:1018E000A24451018280130141FAA6C893942700B3
:1018F000B30796003ED2B387960032CC3AC89043E5
:10190000034701063ED492572EC63ACE8C43034776
:1019100041062ACA328586CC32C0A2CA3AD00344D4
:10192000C10536C2EFE0CFF8E2470A049246A2971B
:101930003ED63257B38786003ED89C430C432ADA02
:101940003E853EC2EFE0CFF60246B7060080D25594
:10195000B3C7C6003EC092472ADCB58F3EC2D2470D
:10196000BE948840EFF0CFC5D247E2552AC43E94DA
:101970000840EFF0EFC42A84A2450245EFF04F8EF5
:10198000AA841245A285EFF0AF8DAA852685EFE0E7
:101990002FF2AA840245A285EFF08F8CA2452A84FB
:1019A0001245EFF0EF8BAA852285EFF06FC1A68577
:1019B000EF60800302572AC43DCFA96783A507EFD4
:1019C000EFE09FF463490500A96783A547EF22452F
:1019D000EFF00FBF2AC4C245B707002003A40723B6
:1019E0002E85EFE0EFECA285EFF08FBDA285EFF042
:1019F0002F87EF50706EA96783A5C7EF2A84224511
:101A0000EFF00F86C245EFF0AF850605A285058190
:101A1000EFE01FACEF60802FEFF09F84931705017C
:101A2000C1833ED09DE75644B2455245E640C64488
:101A30001301C10505B5A96783A587EFEFE09FF7FF
:101A4000E34BA0F8A96783A547EF2245EFE04FE6F7
:101A500051B7B247025583C48700EFF0FF862A844E
:101A600093F7840099CBB247AA85DD988843EFE0CD
:101A70003FFFB24788C3238497002245A285EFE049
:101A80003FA5F24762472AC48A073E973ACE52479B
:101A9000BA97724788430C43EFF08FB2A285EFE00C
:101AA0003FA3A245AAC62E85EFE09FFBA967AA85A2
:101AB00003A507F0EFF0CFB0A96783A547F02A840C
:101AC0002245EFE0FFF9A96783A587F0AA84228564
:101AD000EFE00FDEAA852685EFE09FF8A96783A5D2
:101AE000C7EF2ADE2285EFE0BFF78547AAC03EC8D0
:101AF0008144835701010257E3F7E7F2B147638856
:101B0000F4080245F255850493F4F40FEFE05FF515
:101B10002A8486451245EFE0BFF4AA852285EFE0CE
:101B20002FD986452A840245EFE09FF3F2552AC05B
:101B30001245EFE0FFF2AA850245EFF06FA82AC038
:101B400022C2D2550245EFE0AFD69257E25588C384
:101B50001245EFE0EFD5B257B64588C3F247884348
:101B6000EFE00FD5F247B24588C36245E531C24781
:101B700085073EC8B70700209387870183C71700F2
:101B8000ADDBE6405644C6441301C10582804245A0
:101B9000EFF08FF3A245EFE0BFEC2A84EF60400E38
:101BA000AAC22285EF604066A2579645AAC4804328
:101BB000B70700803D8CC25722859C433EC2EFE0B0
:101BC0003FEAAA84A6451245EFE09FE9AA8526854B
:101BD000EFE00FCEA6452AC02285EFE07FE89645CC
:101BE0002A8412458144EFE0BFE7AA852285EFF001
:101BF0002F9D2AC2B9B7B707002003C7870141113B
:101C000006C62AC08947630AF700EF10B04E0245A6
:101C1000B240814541016F309008B240410182805D
:101C2000511106C4EF30F0221145EF3050300D4510
:101C3000EF30F02FEF107010B707002083C7970127
:101C400081EB412AEF30A06BA24031016F3050216F
:101C5000A24031018280211122C83704002026C60B
:101C600006CA9304840183C604002AC22EC432C06B
:101C700009470145638BE602EF10D04703C7140004
:101C800005E78247A382040013D537000589EF409A
:101C9000A005EF40A00A19CD1145EF504001EF100B
:101CA000D0090145EF4040040945D2404244B244C6
:101CB000610182801245A245B7040020130484010B
:101CC000513E854709452380F46AEF405046EF10A6
:101CD000D00683471400E9FB83470400EDFB03C7EC
:101CE000046A85476318F7048247C18BA1C3B7050F
:101CF00000203705002031469385C50013050500F7
:101D0000EF50102D01452380046AEF30F07DEF1075
:101D1000D002EF204000EF306003EF30405EEF4034
:101D2000E03B034554003335A00041B71545EF4073
:101D30001078C9BFA302F400F1B7B707002083C72A
:101D4000F769C18BB9EB5111414506C4EF40303EF4
:101D5000EF10A00BEF10002CB7070020938787012E
:101D600003C7070083C747009376C702998BD58FB7
:101D700095C39147631CF700B707002083C7E76945
:101D8000194591C7A24031016F1030400D45EF4019
:101D90001072CDBFA24031018280828037050020C1
:101DA00051118145130640041305C50606C4EF50C2
:101DB0007024B7050020938545090145EF201022C6
:101DC00011E5A2401D4531016F40A007A24031013D
:101DD0008280B7050020370500209385C5001305D4
:101DE00085086F40502C130141F8A6D8B704002095
:101DF0002AC61306000481451385C40286DCA2DAD4
:101E0000EF50501FB70700201384C4029385C70604
:101E10002D4613051400EF50B01BB2479384C40243
:101E200003C70700930740026316F7448547054739
:101E3000A380F400238104008D473ACAA309F1046A
:101E400002CE02D402D802C802CCF1A40257E54661
:101E50001307F7FB1377F70F63F4E6006F00B07515
:101E600032458507D00893053105A309F104EF3009
:101E7000004F19E16F00907456442285EF6080494D
:101E8000EFF00FBE9377F50F3E853ED2EFF0CFC354
:101E9000AA852285EFE0DFF2A96783A5C7F0EFE00E
:101EA0003FBCEF60A03FEFF0AFBB02574205930687
:101EB0007004925741816305D7029306D004630DE5
:101EC000D71C025751469306A7FB93F6F60F6360A3
:101ED000D60829668A061306C69DB2969442828663
:101EE0001307D0036367F706130750026362F70214
:101EF0007947636EF7042547636AF7020D47636508
:101F0000F704624719C36F00D06B09473ACCB1A8F8
:101F10001387A7FD1377F70FDD4663EAE602A9668C
:101F20000A07938606A3369718430287138767FF2D
:101F30001377F70FD14663ECE600A9660A0793868C
:101F400006A936971843028711476381E70A51446F
:101F500049A01307B005636AF70413079005636788
:101F6000F70C13070005E394E7FEA380F400930643
:101F700060020547639DD7049306C5FEC2063AD0AA
:101F8000C182F947E3E5D7FCB707104093871740B4
:101F9000B3D7D700858BC5DFA945EFF0AFEB1305AD
:101FA000A5F8A380A4000547B5A01307C005638961
:101FB000E702138737FA1377F70F8546E3E9E6F868
:101FC0001307E005B307F7402381F400154739C133
:101FD0005D44E65022855654C6541301C1078280E1
:101FE00011E56247E31F075C05473ACC2380F40004
:101FF00013F7D70FF1466307D7009306C0050147D3
:10200000E397D7FC01C52947E313E5F43E95238008
:10201000A4000147A257B3D7E740858BEDC75544CD
:102020004DBFBD17A382F400094755B719E5938743
:1020300067FA2382F4000D47F1BF2947E319E5F061
:102040001307A005E385E7F01147E9B75547B30744
:10205000F740A381F40019479DBF6247E313075679
:10206000130710036387E700A947E312F5EE8547DE
:102070003ECCE24721472383F4008D473ECC59BF35
:102080009387A7FCA383F400254791B7E31105ECE0
:10209000294749B71D4725BF05FDA54663ECF60254
:1020A0001D476367F704894663FCF6021387D7FF71
:1020B0001377F70FE3EDE6E8914613070002638715
:1020C000D7001387B7FF3337E00012072385E400FA
:1020D000314789B77947E39CE7E62384F40029A0D8
:1020E00091C70547E39BE7FE2D472DB78D47F5B711
:1020F00001476386D70003C7940013670704A384CE
:10210000E400354701BF8547B397E7002257D98FD1
:10211000C207C1833ED48347310532473E97034708
:1021200007003AD0E31407D2C24789C7E24799E3D0
:1021300089473ECCF24793F7070289CB9850B7976F
:102140009800938707686D44E3C5E7E8D247638644
:102150000712F247858B6387071403C7340085474E
:102160006319F700A967C84483A547F1EFE05F8FC3
:10217000C8C4F24793F7071099E7B7070020938781
:10218000C706DC47DCD403C7040091476313F71488
:10219000F24793F707046398071271441DBDC0C44A
:1021A00081477247B356F740858AE3930642930608
:1021B0001036B3D6F640858A91CA93050000228571
:1021C0003ED0EFE02FFF8257E34705400547B317A6
:1021D000F7007247D98FC207C1833ECE2DBFC257C9
:1021E00080C893E717003ED8854765BFC257C0C86F
:1021F00093E727003ED889476DB7C25780CC93E755
:1022000047003ED88D4771BF238EF400914751BFE0
:102210002285EFE0FFFD88D0954761B7C0D0994790
:1022200049B780D49D47B5BFC0D4A1479DBFA9661B
:1022300083A506F122853ED0EFE00FEDE346A038FE
:1022400082572388F402A547A9BFC247C0D893E7A5
:1022500017003EC8A947B1B7C24780DC93E7270003
:102260003EC8AD473DBFC247C0DC93E747003EC80C
:10227000B14705BF814702CAD1B603C724008547CD
:102280006314F70262478947E315F7EE83C714002A
:1022900013070005E38FE7ECE38D07ECF247858B2E
:1022A000E39907EC594435B3B70700209387C70675
:1022B00003C71700E31F07EA7247058BE31F07E810
:1022C0009C4BDCC47DB5F24793F7F7FBC207C18393
:1022D0003ECE83C754003ED299CB12578547630F39
:1022E000F70A89473ED602DE85473ED229A08947B4
:1022F0003EDE85473ED603C7340085476305F70AAF
:1023000062478D47631DF70003C764008547631864
:10231000F7004247914713045002E31CF7CAB7077E
:1023200000209385C706314693858502A808EF50A3
:10233000204A370700201307C706A2573AC63707B7
:1023400000201307470993F70720BAC0D9E703C451
:102350000400A946B70700206303D40A9306C0050A
:102360006307D42062478D476317F726F947630058
:10237000F430930750036303F432F1476316F41407
:10238000B70500209385C5031945EF20204535C5C5
:10239000C2476394072E02D002CC3DA285473EDEA1
:1023A00002D6894799B7A96783A547F126870144D3
:1023B0008D46C247B3D78740858B99CB485B3AC6D9
:1023C000EFE00FEA3247A96783A547F148DB8D4666
:1023D00005041107E31FD4FC25B703C57400994712
:1023E00063F4A7007544F5B6B24783C76700E3807E
:1023F000A7F6AC08EF20803E39F91D44D9BEC2478C
:1024000099E36944F9B6F24793F70705E38707D8DC
:10241000C850EF503070EFE0BFE41375F50F9947E7
:10242000E3E2A7FC83C7C4015147638AE700094779
:10243000E39FE7B0F24793F70708E39A07B0630317
:1024400005127D159377F50F3ED00255B705002094
:102450009385C503EF2080384DD183C7C401B246B0
:1024600001443EDAB70700201387C702C24733D6BC
:102470008740058A15CED257D145505B6397B70E7A
:10248000CC5AC84EBAC236DCB2C4EFE07F932646BF
:10249000B285EFE0FF9216470946E25608CB631972
:1024A000C400B247AC43EFE0BF91E256164788CC78
:1024B00005048D4711079106E31AF4FAF24793F7E2
:1024C000F7FAC207C1833ECE03C414009307000588
:1024D000631DF41CC2477D44E39D07AED24713F44D
:1024E0001700F247630A044C93F7E7FD6247C207FF
:1024F000C18309C779771307F73FF98FE390070E78
:1025000082D282D482D6630C044AA257414493F704
:1025100067FBE39007AC83C7040013075003638491
:10252000E700E39807AAB2473247C810DC470347E1
:102530008700BED4B24783C79700D98F2306F10620
:10254000B70700209385C702EF30004E2A84E312BC
:1025500005A8B2473146938544031385C701EF5060
:10256000202785BC83C77400C5B510CB91B74247FF
:10257000E30907E832439387C702B408014442479E
:1025800033568740058A21C68C420325C301B6C253
:102590001ADC3EDAEFE0DF82D257CC5BEFE05F82FD
:1025A000D25709476253C8DB9646631AE400B24724
:1025B000AC43EFE0FF80D25762539646C8DC050477
:1025C0000D47110391079106E31BE4FAF5BD0326BD
:1025D0004303D0DBEDB7C247E38A07D83246B808D9
:1025E000A6873ADA81464247B355D740858989EDB7
:1025F0004C4ECCDB52578506110611073ADA0D47CF
:102600009107E392E6FE9DB313075003E304E4FE53
:10261000D85B83C544003ADC9DEDBEC4D2574C5A0A
:10262000B6C68843B2C2EFD0BFA8E255EFD05FA8CC
:10263000A647B646AA85C8DB09451646E39CA6FA16
:102640003EDCB247B6C4A843EFD09FA6E257164679
:10265000A646C8DC45B7E255484EB6C4BEC232DC19
:10266000EFD01FA59647A6466256C8DB61B7B705EF
:1026700000209385C5031D4509BBB24626878147C7
:102680008D4542463356F640058A19E2D04E10CBAE
:10269000850791061107E396B7FE3DB503C7140001
:1026A00085477944E3F2E7E22DB262478947E317B1
:1026B000F7E219E4C247B337F00086073ECC39BDD4
:1026C000C84493050000EFE0AF9DE30D05BC8D47C6
:1026D000630BF40063E0870A8547E30DF4FCD247FF
:1026E00093E747003ECAC247E38D07D0925785461D
:1026F000130400023397F600B257B397F60033661F
:10270000F700C247B2C2F18FE385078C9257125788
:10271000B246A10711078A070A073697A6974C47C2
:10272000C84BEFE0EFE9B2573257B246A1071107A5
:102730008A070A07A69736972ADA4C47C84BEFE074
:102740002FE8F2472ADC164693F707088546638A86
:102750000718B70500203705002031469385050688
:1027600013058508EF50C00A854635E513041002AD
:102770006FF03F869307E0086300F40263EA870482
:102780009307C008630AF4009307D008E318F4D451
:10279000D24793E707013ECA130424071374F40FCA
:1027A000854763E68700D24793E787003ECAC24762
:1027B000E38907C4B705002037050020314693851B
:1027C000050613058508EF50A004E31905D079BF6D
:1027D0009307F00865BF83C734006399D700A967E2
:1027E000885483A547F1EFE0AFA788D4A967805448
:1027F00083A587F02285EFE0AFA6A285EFE04FA684
:10280000D2552A842E85EFE0AFA5AA852285EFE078
:102810002FDBE2552A842E85EFE08FA4AA8522853E
:10282000EFE00FDA930500002AD8EFE0AF98130429
:102830002002634005FA4255EF50000A2A84E2550F
:102840005255EF20704FB7060080AA8533C5860029
:10285000EFD01FC803C714008D472A84B706008035
:102860006314F70033C4A6009854930500003A851A
:102870003AD8EFE02F94635805004257B70700801D
:102880003D8CB98F9CD4F247E255228593F7F7F738
:10289000C207C1833ECE92578A073387F4003AD8E5
:1028A000EFE00F9CAA855255EFE08FD1A96783A571
:1028B000C7EFEFE0EF9AB2574257D25508CB1397C4
:1028C0002700269722853AD8EFE08F99E255EFD07E
:1028D0002FFEA96783A5C7EFEFE08F98425708CB7B
:1028E000F5BEC25713043002F18F638407EEF2473E
:1028F000C59BC207C1833ECE83C734006383D7081C
:10290000B25762558A07A6978C4BBEC2EFE04FCBF9
:1029100092572A8452551397270026970C4B3AD882
:10292000EFE00FCAA285EF203041964742572A8434
:102930008C4B084BEF205040AA852AD888D422859A
:10294000EFE00FC8A9671314150083A587F1058070
:102950002285EFD07FFBE353A0B8A96783A5C7EF1B
:102960002285EFD07FFAE343A0E0A96783A5C7F1F2
:102970004255EFE0EF8EA285EFE0CF83E35005B63E
:10298000F5B3A96783A547F1268781460D44C25751
:10299000B3D7D740858B81CF084BB6C4BAC2EFE01E
:1029A0002F8C1647A967A64683A547F108CB850655
:1029B0001107E39E86FCA9B793F7E7CD05BEB707DD
:1029C000002083C7C723898BA5C383C71400094789
:1029D000FD1793F7F70F6376F700D24793E70704E5
:1029E0003ECAC24791CB624789476317F700D24777
:1029F00093E707083ECA0DA8B24703C79700C1472F
:102A00006314F702D247894613F70704B24783C716
:102A10000700FD1793F7F70F63E7F60011C7D247DA
:102A200093E70702C1BF65DF9C5032471CCF83C7C5
:102A30002400A300F70081C7A1472306F10632470F
:102A4000DC44CC5448471CCBBED22ECEEFD05FE541
:102A5000D247F24593F707043EC809E5D24793F7FA
:102A600007028DC3B24703C5970011C9830741010F
:102A700063C70700C24799C3930500008123DC5454
:102A800032475CC7C24781E7B247DC47BED483C741
:102A90000403324703C5A400230AF70083479700C5
:102AA0006389A700A655192B83C7A4003247A30446
:102AB000F70032478347C10603C5940003479700D8
:102AC000D98F2306F106B24783C787006388A70022
:102AD000B52B83C7940032472304F700324783475E
:102AE000C10603478700D98F03C704002306F106F8
:102AF00091476315F700C850EFF0EF8F324783C757
:102B000054002302F70083C734002301F700624713
:102B10008D476317F70283C764003247A302F700AB
:102B200081E793070000DCDCB247CC5CA8432EC8E9
:102B3000EFD01FD7C24509C5B247ACC3EF30B05282
:102B4000324783C7740003476700630CF7003247BE
:102B500006453146AC082303F700EF407047EF30DD
:102B6000905083C744003247A301F70083C7040095
:102B700013076002638CE712636FF70813F7D70F30
:102B8000F1466304D70E29476389E70A324783C7B2
:102B900014002300F70013070005638CE702E246E8
:102BA00009476398E602054737050020639AE71254
:102BB000CC1013050506EFE0FFC9B7070020938787
:102BC000C70293854703B24731461385C701EF40DB
:102BD000304083C784003247A303F700638B07BEEE
:102BE000EF005051B2470D4783C67700B70700206A
:102BF00093878701639FE61403C70700894763072C
:102C0000F7002145EF30B052EF003013B247A383F5
:102C100007006FF00FBC1307C0056381E70A1307B5
:102C200060066384E70A13078002E391E7F6B705BD
:102C30000020938585081D45BDA802553707002053
:102C40009305C703EF109023B24782563707002041
:102C500083C76700E39CD7F2064531469305C70357
:102C6000EF401037EF30304015B78347C10693E788
:102C700017002306F106E24781CB37050020CC1070
:102C800013050506EFE01FBDB7070020CC10138524
:102C9000C703EFE03FBCB70700209385C703B247E7
:102CA00031461385C701EF40B032CDB5B7050020DE
:102CB000938585081945EF10701CC9BDB247314690
:102CC000938544031385470361BFB70700209387AB
:102CD000070A23A0070023A2070023A4070059B76F
:102CE00081EB8347C10693E717002306F106C9B5B8
:102CF000F91793F7F70F636AF702D247B706002078
:102D0000370600208983858B3EC4F2579386C6031D
:102D1000130686083EC2B257CC10130505063EC006
:102D200098549257EFE03FBC49BD8347C1065246D5
:102D3000CC1093E74700130505062306F106EFE0E4
:102D40009FF10547E30B05E6E315E5E8EFF06F8833
:102D500049B53247B706002023020700A301070048
:102D600005472396E606324723030700231407008E
:102D700013074006A383E700196713074746239408
:102D8000E70003C7070089476303F702B705002080
:102D9000938545090145EF107024630005E6EF3087
:102DA000902C0145930500006D220145952C21458D
:102DB000EF30A00EA1BD05446FF0AFA109446FF044
:102DC0004FA161446FF0EFA0130460026FF06FA099
:102DD00065446FF00FA011446FF0AF9F13044002E1
:102DE0006FF02F9FB7370140938707C09C53014571
:102DF000858B99CBB717014093870780C847137518
:102E000005023335A00005058280B737014093875E
:102E100007C09853799B98D3828037150140511190
:102E2000A1451305058006C4EF30D074EF40E017CC
:102E3000371501409305000213050580EF309073AC
:102E4000B70700209387471FEC43A843EFD05FF7F5
:102E5000A967AA8503A507F2EFD08FE7A240B707BD
:102E6000002023A2A76A31014DB7B73701409387ED
:102E700007C0C8DB985301E5799B98D3828013671C
:102E80001700E5BF111122CA3704002026C806CC5E
:102E90009304840183C79400370700201307471F5A
:102EA0003EC47C432AC63EC03C430245BE853EC26A
:102EB000EFD09FA5635105042245EFE0EFC02967DD
:102EC000832547F2EFD0DFB9B245EFD07FB9AA85AD
:102ED0002A841245EFD01FAEB707002093878701E1
:102EE000634EA00012471305F00F98CBE240524406
:102EF000C2447101828093078401EDB70245A28527
:102F0000EFD09FA063400502930500002285EFD01B
:102F10003F9909E5930700009CC8C9BF8247054552
:102F20009CC8E9B7824580C82285EFD07FE9B70702
:102F3000002083A5476AEFD0BFB2EF40305DA9679C
:102F400083A587F2EFD0CF96EFE08FB11375F50F21
:102F500071BF511122C23704002006C41307840137
:102F60000347170019EBAA871304840119E9930793
:102F700000001CC8593DA3050400A24012443101C1
:102F8000828037170140C1462E851307078063945E
:102F9000D702B706200014CB370700200347C7230A
:102FA000098B19C7130700026394E700130500009B
:102FB000D13D653DC9B793060002F1BFB7070020B8
:102FC00003C78701311106C82AC22EC08947630989
:102FD000F700EF00301282451245C240510195BF03
:102FE000C2405101828051119305000837150140FC
:102FF00006C4EF303058A240B717014037078000B1
:1030000098CB31018280B7170140C84705811375FD
:1030100005048280B71701403707800098CB828073
:10302000B70700201387870103471700938787019D
:1030300009EF13750504371701409306000819E1DD
:10304000B706800014CBA38507008280B707002055
:1030500003C78701411106C62AC089476308F700E4
:10306000EF0050090245B24041015DBFB24041014D
:103070008280511106C4EF10D05411C5A2400945F9
:1030800031016F30D00AA24031018280B7070020A1
:1030900003C7E769411122C426C2B707002006C64C
:1030A00093848701370400201DC31375F70F05476C
:1030B0002380E4002AC0EF20B05B02450547930758
:1030C000F5FF93F7F70F6375F702EF30B03F034753
:1030D000F4691374F70F630C071E1377040105C717
:1030E0000547A380E400B24022449244410182801B
:1030F0000545EF20905A4145EF3070390347F46998
:10310000418B6DDFD9B71377140011C7EF306030F2
:103110000545EF30D0371377840E6307071003C7D8
:10312000040093178401E1873EC093763700E9E6F7
:10313000137787020DCF83C624001307F00363685B
:10314000D702EF00904983C6040009472382E400B8
:1031500013070002639DE60093178401E18763C8AB
:10316000070003C72400136707F82381E40003C79F
:10317000040001E785462381D4009376040491CAB4
:103180009376070299E683C6240093E6060423811A
:10319000D4009376840099C6FD4663E5E600414776
:1031A0002380E4001377040221CB1945EF20F04E71
:1031B00003C7240093168701E18663C9060283C60C
:1031C000040013060004639FC6009376870091C62F
:1031D0000D9B136727002381E4001307000423805D
:1031E000E40029A013070008E399E6FE03C72400C2
:1031F000136707022381E40093178401E18763D1F9
:10320000070283C6040005476398E60003C724004D
:10321000136757002381E400130700F82380E400BC
:103220001305800EEF30B0261377240031CF1377CB
:10323000840621EB83C6040013070004639DE600A7
:1032400003C724009376070299E693760701638DFE
:10325000061E2380040003C7040063000720937642
:10326000070185C283C62400858A81CEC1466316C4
:10327000D71E03C7A4006302071E136787002385B8
:10328000E4000945EF30B020118831C003C70400C5
:10329000838624001377070D6309071E03C73400D4
:1032A0006315071E63C5061EEF20600903C74400AF
:1032B0009376270099C683C6240093E616002381DF
:1032C000D400659B2382E4001145EF30501C370782
:1032D00000200347D7691374F70F4DC3EF307023F5
:1032E0009376140083C574001307400691E22E877D
:1032F0009376240081C629071377F70F937644004D
:1033000081C659171377F70F9376840081C6050796
:103310001377F70F9376040181C67D171377F70FA4
:103320001306800CBA866374E600930680FC13F6DD
:10333000F60FA94632876373D60029471376040235
:1033400003C584009306400611E2AA86137604049E
:1033500019C2930620036204618463530400E546A6
:103360006394E500638CA600A383E4002384D40067
:10337000A3850400EF10F035EF10707C37070020B4
:103380000347C7691374F70F6303071AEF30D019A7
:103390009376140003C694001307400691E2328727
:1033A0009376240081C629071377F70F937644009C
:1033B00081C659171377F70F9376840081C60507E6
:1033C0001377F70F9376040181C67D171377F70FF4
:1033D0009305800CBA8663F4E500930680FC93F5B0
:1033E000F60FA9462E8763F3D50029479376F70F8A
:1033F0006302D60283C60400A384E400E1EA37072F
:1034000000201307C7064C4703459700EFF07FB431
:10341000A38504009376040203C7040063850610A5
:10342000C1466312D71003C7A4006312070E0947F1
:103430002385E4001307F0036365870A2244B24042
:10344000924441016F00501D93764700E38506E0EA
:10345000136787002381E400FDBB23820400EF1083
:10346000501619CD03C724001377070411EB214729
:103470002380E40023810400EF00101A752111B5A8
:103480002381040023800400EDBB63DC060023825B
:103490000400EF10B00BEF001008EFE09F93EF1067
:1034A000106603C724009376070281CE1377F707CF
:1034B000136717002381E400130700042380E4004E
:1034C00021B52381040023800400FDBB03C7440011
:1034D000136787002382E40025BF01C713778703A2
:1034E00039C7370700209306C70683C68600130432
:1034F000C70613F6060413E5060419C213F5F60B06
:103500002AC0EFF0FFB102452304A4000DA093767A
:10351000170089C6136747002385E4001307F003EB
:10352000E36187FC29A09306F003E3E886FA03C76A
:1035300004008D47E3F9E7BA11B7311122C606C876
:1035400026C437040020EFF07FB49307840183C7BB
:103550002700E9C713048401EF10B00641E1B70763
:1035600000209387C70683C4970003C78700DC4702
:10357000D98C370700203EC09307471F83C78704B5
:103580001307471F3AC2898B89C713050002EF3022
:10359000807683472400D9C30347140041E313F71F
:1035A000170015CB034704009306F00363F4E612FB
:1035B000918BB1E393050000014523050400EFF072
:1035C0005F990145EFF0DFA583472400F59B93E762
:1035D00047002301F400EFF07FAB65BF8344150182
:1035E0002AC0EFF05FA2824793F40403C98C9C5B6E
:1035F00093F4F40FBDBF930700086319F7022D453C
:10360000EF20B009930500000145EFF09F940145BC
:10361000EFF01FA19D2E8347140091C7C240324492
:10362000A24451018280EFF07FA6F5B79307000412
:10363000631BF700EF30C01E19E58347240093F7A2
:10364000F7FD2301F4008347240013F7870041D7D7
:10365000370600201307C6068346970091CE898B54
:1036600081EF924783C78704898BA9C783474400AA
:1036700093E787002302F4008347870099CF8347AD
:103680002400898B99EB13F5040CEFF07F99A9675F
:1036900003A587F28545EF1090608347240013F758
:1036A000270015FB93E7070109452301F400EF30DC
:1036B000002815B7824513F50403EFF09F89A96729
:1036C00003A587F08545EF10905DB70700201387AD
:1036D000C7065DB78347A400A5CB13F7270019CF12
:1036E000B707002083C75707B9C7930500000145F6
:1036F000EFF03F8685472305F400F1BDB18BE38CE5
:1037000007ECB707002083C7570799CF2945EF205B
:10371000C078924783C78704898B8DC38347440051
:1037200093E787002302F4008347A400A18B81C79D
:103730000945EF30C01F2305040071BD824513F514
:103740000403EFF01F81CDB783474400A18BE384CE
:1037500007E8824513F50403EFF0AFFF8347440009
:10376000DD9B2302F40085BDB707002083C7C72374
:10377000411122C406C63704002026C2A18B1304BF
:10378000840191CBEF10307219C585471D45230088
:10379000F400EF2080708347040093F7170891CB63
:1037A0000945EF20806F85472300F40001478144DD
:1037B00049A023000400EF30A00611C937070020FC
:1037C0008347F76993E70702A30FF768BD3337050F
:1037D00000201305050BEF30E004C9BFA9466305BF
:1037E000D500B546631BD5083AC0813B834614001B
:1037F000B5E20247B70700209386070B36972300F0
:103800000700858889C42D45EF20A06345B703C70D
:10381000060019E30145CDBF930640026311D704AA
:10382000B70700201385070BEF302012EF206061EF
:1038300001473AC0EF30D0299306F00F02472A869D
:10384000E31ED5F8EFF0FF82EFF03FCF8346140080
:103850000247E5D2B240224492444101828083472C
:10386000040093F7170299C3254579BFB7070020D5
:103870001385070BEFE02FD741BF99C8930690023D
:10388000E319D5FA93F62400CDD693F4D40F55B7A7
:103890009306F002E30FD5F863E4A6049306000252
:1038A000E3F9A6F8930680026302D5049306E004C8
:1038B00063E0E6049306F5F993F6F60FE54563E554
:1038C000D50001151376F50FB70600209386060B79
:1038D0009305170036972300C70013F7F50F91BF24
:1038E0009306B003E314D5FC9144A1B7894491B782
:1038F000854481B7511122C23704002006C4130445
:103900008401EFF00FF7EFF05FC38347140089EBFA
:10391000EF10204B6DF903470400A147E305F7FEC4
:10392000A240124431018280B70700201387471F4D
:10393000034787049387471F118B39C3371701400B
:103940009306000414CBB706002083C6266B370706
:103950000020130787132307D70083C60703F91630
:1039600093971600B69792078D83B307F040A3068E
:10397000F700370700405C4793E717005CC7828079
:1039800037170140B706400075BFB7070040D8475A
:10399000511122C206C4799BD8C723A40702B707D6
:1039A00000202388076AB70700201387471F0345B5
:1039B00037039306F00F370700200347870113846E
:1039C000471F631CD502B707002083C7E76995E747
:1039D000930700086307F702814703478404118BAC
:1039E00019C393C7170095C3B71701401307000405
:1039F000A240124498CB3101828091468147E30E68
:103A0000D7FCEF10B0308547C9BFB7170140370763
:103A10004000F9BF511126C0B704002083C7046BD2
:103A200006C422C2639607203704002013078413BC
:103A30008347F700B7160140D0468E0793F78703F8
:103A4000137676FCD18FDCC6DC460346E700E19BAB
:103A5000D18FDCC68346D700B7F700E094C7944304
:103A600093E6160094C385472388F46A7360043094
:103A70005C5313048413C5E7B70700203706002002
:103A800083C6576B0346466B6309D61A83C6576BCA
:103A900037070020930707168E06B69783D52700B1
:103AA0005CD0370600404CD603D607001307071634
:103AB000231EC40003C647008347E4016383C70293
:103AC00093172600B297230FC400370600208A07F9
:103AD00013060619B2971CD0DC4785831CC45CC052
:103AE0001CC01050B705002083C5156B8347060125
:103AF000AD8FA307F400B307D70083C65700184261
:103B000003C567003357D70018C858423357D7004A
:103B100058C818463357D70018CCEFF00FB5B70781
:103B2000002003C7076A85476314F700EF2080224F
:103B30001C40184823070400BA9718501CC054476B
:103B400063F3F602834507010546958F2307C400FA
:103B5000370600201CC01306C60085891C426382FC
:103B60000510FD171CC25C405048B2975CC063F55D
:103B7000F6020346E40083450701958F136626008D
:103B80002307C400370600205CC01306C6008989DD
:103B90005C42F1C9FD175CC21C44104CB2971CC4B6
:103BA00063F5F6020346E40003470701958F1366A9
:103BB0004600B70600201CC49386C6002307C40035
:103BC000118B9C465DC3FD179CC6B70700209387E9
:103BD000870183C6070011476399E6000347E400A5
:103BE00083C76700F98F2307F4008357C401FD17CB
:103BF000C207C183231EF4008DE3370700208347EB
:103C0000576B232204029946850793F7F70FA30AFF
:103C1000F76A6394D700A30A076A3707002083472F
:103C2000E4000347276B2388046AB98F2307F40055
:103C3000A2401244824431018280EFF01FD5B707C1
:103C40000020138787131C5383C7170181C70145C1
:103C5000EFF0AFA11244A2408244114531016F2020
:103C6000104D850701B785073DB78507B1BFB7166A
:103C70000140B7070020D84683C7276B619B9D8B07
:103C8000D98FDCC637F700E01C43F99B1CC3828048
:103C9000411122C4370600203704002026C206C680
:103CA0002309046AA308066A814493F7F40F3EC00F
:103CB000B70700201387471F034717039385471F44
:103CC00033579740058B11CF13F5F40FEF00D061F8
:103CD0000347246BB70700209385471F598D23099D
:103CE000A46A03C7250333579740058B01CF13F50B
:103CF000F40FEF00B060370600200347166B598DB4
:103D0000A308A66A85040D47E391E4FAB240224471
:103D1000924441018280511106C422C2EFF0FFC6D5
:103D20003705002013068003814513050510EF3089
:103D3000702C37050020130485131306800281457B
:103D400013058513EF30102BB707002023A6076A51
:103D5000B7070020A38A076AB70700200547238A10
:103D6000076AB7070020A389E76AB70700202388FE
:103D7000076A393FB707002083C6176B3717014022
:103D800037060020A307D4005C470346266BA240F9
:103D9000E19BD18F5CC75C4712448E0693F777FC9A
:103DA000D58F5CC73101828051119D453715014087
:103DB00006C4EF20307C9305000437150140EF2046
:103DC000707B9305800337150140EF20B07AEF3008
:103DD0000018A24031016F30201B511122C237045C
:103DE000002026C08324C46A06C495C0B7070020FB
:103DF0009387071003C71700CC4F13671700A380E2
:103E0000E7002E85EFC0DFC5C8C82326046AA2409C
:103E100012448244310182801D71370700209307CC
:103E2000870186CEA2CCA6CA83C7470013078701A5
:103E30003AC6858B639A076AB707002037070020C8
:103E400083C7576B0347376B6300F76A3707002058
:103E5000B2470327C76A83C7470045EF918B638F3B
:103E6000071CEF001074370700202326A76AAA87D3
:103E7000630C0566370700209306071003C616007B
:103E80009304071013741600630D041AA380040032
:103E90001307000098CC2964D84F0325C4EF3EC017
:103EA000BA853AC4EFC0CFE2B2472AC203C747007F
:103EB0008247945336C093762700638A06280947C1
:103EC000238AE400DC4BAA853E853EC8EFC05FB97B
:103ED000AA850245EFC0DFEE930500002A84EFC0FB
:103EE0007FAD63510526A2452E85EFC06F9C8245AC
:103EF000EFC01FB7AA854245EFC09FECEF30D01D41
:103F0000C8D0B247324783C7470093E787002302F0
:103F1000F700B707002003C7476B37040020B7043A
:103F200000200E0793070416BA973AD61387041099
:103F3000834607000C4B938404102382D700B707F5
:103F4000002083A7C76A3ECE9C533E853EDEEFC06D
:103F50003FE793050000AAC6EFC0DFA5930704164C
:103F6000BEC06355050093070000BEC69C5003C445
:103F700044013ECA9C543ED2DC5492553ED8425530
:103F8000DC4C3EC0EFC0DF91894711C1854793F7F4
:103F9000F70FBEC89C4C02C802D43EDADC50BEC447
:103FA000F2573ECCA96783A7C7F23EC4930700002F
:103FB0003ED0A2473EDCA96783A7C7EFBEC28547B4
:103FC0006306F4428D476301F4306305043AF24717
:103FD0002245CC4FEFC0DFA882452AC8EFC09F9D85
:103FE0006358050296454245EFC09FA7AA85024542
:103FF000EFC01FDDA245EFC0BFA6AA856245EFC096
:104000003FDC2AC2AA855255EFC0DF9A634F0534C0
:10401000D2556245EFC0DFDAAA85EFC06F898245CD
:104020002AC22645EFC0CF88AA851245EFC04FCAE5
:10403000A6472AC43EC0D2573EC275A6EF007058AC
:104040001DB503C70400954505071377F70F6303F4
:10405000B7003A8413172400B706002022979385EF
:1040600006190A072E97B705002023A4E56A83C521
:10407000070123808400C8472308B7008C4332C45B
:104080003EC08E050CC3CC438E054CC38C478E05B9
:104090000CC7931535004CC7EFD08FB3824788C447
:1040A0008C533EC2EFC0CFC22967AA85C8C403257E
:1040B00007F3EFC0EFC1B247130700002246D8C094
:1040C00003C74700B706002093870619098B93752D
:1040D00086003EC088C84D8F924731CFCC50CCCCA3
:1040E0002E85EFC0FF97224692475D9AC8CBA380EA
:1040F000C400131724003A9402470A043A9437077D
:1041000000200347C723A3080400098BE30207D854
:1041100003C7170113770702E30C07D62967CC57AB
:10412000032587F23EC0EFC0AFBA0547824788D863
:10413000A308E400B1BBC84B3EC2EF30E079924720
:10414000C8CC45BF9307000080CCDCD05DBB824764
:10415000238A0400118B9CD449EFEF0070492AC8D0
:10416000EF308077B7070020C8D003A5C76AEF00FB
:10417000B04DAA852ACEEFC0BF8EB707002083A717
:10418000C76A2AC4AA853ECA9C533ECCD247DC4BA0
:104190003E853EC0EFC04FF7635FA006A2450245D3
:1041A000EFC01FC29245EFC0BF8BAA856245EFC02A
:1041B0003FC188D493050000EFC0CFFF634FA0023A
:1041C0008947238AF400D247CC4F2E85EFB05FEEAB
:1041D000E245EFC0FF88AA850245EFC07FBEEF3001
:1041E000A06F83C71400C8D093E78700A380F400B2
:1041F00009BB130500002AC8B5B7C2452245EFC068
:104200003FBC9245EFC0DF85F247C8D49CD08D47B4
:10421000238AF400FDB1C2450245EFC07FBA924542
:10422000EFC01F84E245EFB0BFE88325C4EFEFC0C5
:104230003F83DC50930500002A843ED0EFC0CFECD2
:104240008257635EA0066245A285EFC0EFEB63561E
:10425000A006C2452245EFC0BFB69245EFC05F80C1
:10426000C8D4A285EFC00FF563580502F247A245F6
:1042700002459CD08054EFC0AFE2854751D98245BA
:104280002245EFC0FFB39245EFC08FFDAA8522857E
:10429000EFC01FB388D4B5B1D24780D4C0D4CC4FBF
:1042A0002E85EFB0FFE0A285EFC08FFBC245EFB0D7
:1042B0003FE0EF30606288D0A9B1894791BF130712
:1042C000000098D49CD035B9F2472245CC4FEFC0BE
:1042D0002FF9D2452AC80245EFC09FAEC245EFC0B4
:1042E0006FED6344A00692557255EFC07FADAA856D
:1042F000EFB01FDC82452A845245EFB07FDBAA85F0
:104300002285EFC0EF9CD2472AC405443EC0925795
:104310003EC285473EC83ED4A2450255EFB05FD9A4
:104320002AD0AA856255EFC02FDE635EA00E8255AB
:104330006255EFC0FFA82AC492455255EFC08FE7DF
:104340006359050E92473ECC9DB996454245EFC054
:104350002FF1AA850245EFC0BFA6A245EFC04FF0DE
:10436000AA856245EFC0DFA52AC2C2450245EFC05B
:104370003FA58DA8F2472245CC4FEFC06FEE964582
:104380002AC8EFC0EFED8245EFB09FD2A245EFC043
:104390002FEDAA856245EFC0BFA22AC2AA85125599
:1043A000EFC08FD6635CA00292557255EFC05FA13B
:1043B000AA85EFB0FFCF82452A845245EFB05FCF88
:1043C000AA852285EFC0CF90D24746442AC43EC07A
:1043D00092573EC285473EC83ED43DBFC2450245C6
:1043E000EFB01FCD2AC085473EC83DB7A245524514
:1043F000EFC00FE7AA856245EFC09F9C2AC2AA853D
:104400004255EFC06FD0E359A0F0C2556245094450
:10441000EFC01F9BD245EFC0AF8BC2572AC43EC22C
:1044200085473ED4D5BDB6451245EFC0EFCD6342BA
:10443000A00CC24799C38247DCCCA25799C3238AF8
:104440008400B707002083A7876A03C71701B24714
:1044500083C74700A18BD98F95CFF24703C51701BA
:104460001375050345C1805B11CB8C58C84CEFC058
:104470002FDFAA852285EFC0AFDE2A842285EFE0F8
:104480007FA0B2473247238AA40283C74700DD9B3F
:104490002302F70032578647CC4412453384E700A5
:1044A00083C744032303F400EFC08FDB2AC4EF303B
:1044B00060752AC08844EF30E07482452AC8EFC096
:1044C0003F90EFC0FFD91317050141832310E4008B
:1044D0001DEFB24783C7470093F627008DCA3247C6
:1044E00093E717002302F700F6406644D64425619F
:1044F0008280A96783A5C7F26255EFB07FBB825562
:104500002ADC05BD3247930700001CCB9DBFCC4081
:1045100002553ACAEFB0DFB92A84A2454245EFC03E
:104520003F8AAA852285EFB0BFFAA96783A547F322
:104530002A84EFC0EFD2EF30E06CEFC07FD2856706
:104540009387F776524763EBA70086473257BA97AF
:10455000A38207001317050141832DA88D6693865A
:10456000F6ED854763F8A60099679387F7DBB3B745
:10457000A7008907864632563317F7003355F500F2
:10458000B296A382F6002390E600C1671387F7FF77
:10459000E362F5FCB25686471946B6972391E700C9
:1045A000370700208346376B9387160093F7F70F82
:1045B0006393C7008147A309F76A37070020832761
:1045C000C76A1247A2453706002098D38247230ABC
:1045D000D66A9CC43E85EFC0AFFEA285EFC04FC82F
:1045E000C8C09245884CEFC0AFABE3170584B24713
:1045F00012459305000003C44700EFC0EFB0370732
:1046000000206358A000B24713641400238287007F
:10461000E1BD93774400E5FB2326076AEF00C074F1
:104620006FF09F81B707002083C787011305000043
:1046300093F7C70789C7B707002003A5C711828072
:10464000411122C406C62A842EC0EFF0AFAA9317E8
:104650002400A29792073385870022448245B24006
:10466000130600051305053041016F30200AAA85A5
:10467000130600051305E03A6F304009411122C4CA
:1046800006C62A842EC0EFF0EFA693171400A29757
:104690008A073385870022448245B240314613059C
:1046A000052041016F3080065111A945014506C41E
:1046B000EF30C003A240B70500201306C005938564
:1046C000451F054531016F306004211122C806CA1B
:1046D00026C6937715002A8489CFA965370500205F
:1046E0001306C005938585B61305451FEF30400EB0
:1046F000653F9377240099CF02C002C202C481446F
:1047000026858A85EFF09FF7850493F4F40FA1477F
:10471000E398F4FE937744008DC78145130500307C
:10472000EF20D07C814513051030EF20307C81458F
:1047300013051035EF20907B814513052035EF20C0
:10474000F07A218819CC81451305E03AEF20107AE0
:104750004244D240B24481451305F03A61016F20D2
:10476000F078D2404244B244610182809317250020
:10477000AA975111920726C0AA97AE8422C21306A7
:1047800000052A8493850730268506C4EF20B07E75
:1047900009ED228523800400A685EFF07FEA01451C
:1047A000A24012448244310182800545D5BF511197
:1047B000130600059305E03A22C206C42A84EF20BE
:1047C000907B19E9228523000400EFF05FEA0145A0
:1047D000A2401244310182800545DDBF93171500C8
:1047E000AA9751118A0722C2AA972E8426C0314661
:1047F000AA8493850720228506C4EF20D07705E19F
:10480000314681452285EF20F07E2685A285EFF096
:10481000FFE60145A24012448244310182800545F1
:10482000D5BF5111014506C4EF20306A2A87A94738
:104830000145631DF700370500201306C0058545B7
:104840001305451FEF2030733335A000A24031011E
:104850008280511126C0AE8422C2930500002A84B2
:10486000268506C4EFC00F956349052493073006DB
:1048700063F587089307C4F993F7F70F8146094654
:10488000254791456360F606370700201307471F49
:104890006381C6020D46638FC6028A0705463E97AE
:1048A0006387C60004C3EFF03FE00145B9AA44C7DF
:1048B000DDBF91078A073304F700A96783A587F353
:1048C0002685EFC0EF99A96783A587F3EFC04F99BD
:1048D00008C4D1BFA1078A073E97B7070080A58FFC
:1048E0005CC3D1B7850693F6F60F637AF71C63882D
:1048F000B61CD91793F7F70F71B72685EF309021C3
:10490000EFC01F96130700029377F50F6369871AAC
:104910002967130747AE0A043A94184002870947EB
:1049200019456374F70E370700202302F722A5BF4D
:1049300037070020A303F722BDB737070020A302E3
:10494000F722EFF0EFB485B7370700202303F722F3
:10495000CDBFB70600209386461F03C7860491C7C4
:10496000136747002384E6043DBF6D9BE5BFB70690
:1049700000209386461F03C7860481C71367070478
:10498000D5B71377F7FBF9BF370700209306471F0A
:1049900003C686041307471F9376F60799C39366E9
:1049A000060801452304D704EF100034EDBD370796
:1049B00000202304F722C5BDB707002023A69722B5
:1049C000DDB5B707002023A89722F1BD37070020E7
:1049D0009306471F03C686041307471F9376E60F07
:1049E00099C3936616002304D704EF10D06765BD02
:1049F000B70600209386461F03C7860481CF9377AE
:104A00000701294513670702B1FFA24012448244FF
:104A1000310182801377F7FDB1B737070020930685
:104A2000471F03C686041307471F9376760F99C363
:104A3000936686002304D704EF009042ADB5B70615
:104A400000209386461F03C7860481C713670701AA
:104A500011BF1377F7FC39B737070020A30EF722F1
:104A600099B5B707002023A0972435BDB7070020CC
:104A700023A297240DBD370700202314F72425B562
:104A8000B707002023A6972439BDB707002023AA23
:104A90009722EFE08FB801BDB707002023AC972223
:104AA000CDBFB70600209386461F03C7860481C783
:104AB0001367270045BD759B75B51145B9B70D4501
:104AC000A9B7511106C4EFF0DFD501ED1D45EF1078
:104AD00040371305F00FEFF05FBFA24031016F10B8
:104AE0002046A24031018280AA8719C505470945A1
:104AF0006385E70011458280054582806FF0DFFE07
:104B00006FF09FFEB707002003C7876B130141FDBD
:104B100006D422D226D002C211E34147B7070020B3
:104B200003C6676B7D171377F70F32C8630DE61462
:104B300013141700B307E4008A07B7040020BA97DC
:104B40009385C4268A07AE97CC4F3AC6984F2E85D8
:104B50003EC43AC0EFB0CFD5A2479384C4268C534D
:104B6000EFB01FF0AA852AC40245EFB0BFE4A2450A
:104B700032474246635305008245B307E4008A0783
:104B8000BA978A07A697CCCBC14711C3BA87FD173E
:104B900093F7F70F630FF6083A940A043A940A045D
:104BA000338784003AC4370700200347676B630AE2
:104BB000F708139717003E970A073E970A072697AC
:104BC0003AC63E8491E3C147370700200347976BFD
:104BD000FD1793F7F70F6316F7003EC0EFF0EF9F56
:104BE00082471317140022970A0722970A07338473
:104BF000E4003EC81C4C4848BE853EC0EFB05FCACA
:104C0000C24715C54C4C2E85EFB08FCA0C50EFB083
:104C10003FE5A247CC4BEFB0AFC9AA852AC40245F5
:104C2000EFB09FCEC2476356A006A2454CC832479C
:104C300095BFB707002083C7976B6394C700EFF059
:104C4000CF99B707002083C7676BC146139717003A
:104C50003E970A073E9785070A0793F7F70F2697AF
:104C60006393D7008147B706002083C6866B02C0D6
:104C700036C8C2466392F602824791C71247B70709
:104C80000020238BE76AA250125482541301C10200
:104C90008280024758C861BF939617003384F6009C
:104CA0000A043E943ECE5C4B0A0426943EC45C4803
:104CB000224536CABE853EC63ACCEFB0BFCFF247DA
:104CC000635B050262474C4F2E85EFB06FBE6247B3
:104CD0000C53EFB0FFD8A245EFB08FBDAA852AC410
:104CE0003245EFB07FC2F2476357A000A2450547A7
:104CF0003EC24CC83AC052473EC43E970A073E9750
:104D00000A0726970C4F484BEFB09FB9A24701E521
:104D100005473EC23AC0850793F7F70F41476393B3
:104D2000E70081472287B1B7B7070020A38C076A45
:104D3000B7070020238C076A0547B7070020A38B1D
:104D4000E76AB7070020238B076A828037050020B7
:104D50005111714681451305052506C4EF209029A0
:104D6000A24031016FF05FFCB7060020B7070020BA
:104D700003C7966B83C7876B6384E70293071700AB
:104D800093F7F70F41466393C7008147370600202A
:104D90008345666B6394E500230BF66AA38CF66A81
:104DA0008280B707002003C7876B370500201305F3
:104DB000C52693171700BA978A07BA978A073E95B0
:104DC0008280B70700203707002083C7976B03470F
:104DD000876B0145630DF700139517003E950A0593
:104DE0003E95B70700200A059387C7263E95828027
:104DF000B707002083C7976B4147850793F7F70FE5
:104E00006393E7008147370700200347876B13054B
:104E10000000630EF700139717003E970A07BA9732
:104E2000B70600208A071387C626BA97C84B828028
:104E3000B707002003C5976BB707002083C7776BC0
:104E40001D8D133515008280511126C006C422C263
:104E500083471501445513F7170021C3B7070020F6
:104E600003C50702EFC04FC6A96783A547F2EFB09D
:104E70003FBFA685EFB0DFBE2A84A96783A487F26F
:104E80002285A685EFB05FA86343A0002684A240D8
:104E900022851244824431018280918B2A848DE3E1
:104EA000B707002003C5F701EFC00FC2A96783A5AC
:104EB00047F2EFB0FFBAAA852685EFB07FBAAA8481
:104EC0000054A6852285EFB0FFAEE34805FA26849C
:104ED0006DB71111B70700203707002026C883C41B
:104EE000976B8347876B296706CC3EC68327C7F33A
:104EF0003707002022CA3EC09307C7263EC4B247E8
:104F0000639C97000247E2405244B707002023A465
:104F1000E726C24471018280139414003305940083
:104F2000A2470A0526950A053E95EFF0FFF12AC231
:104F3000AA850245EFB01FA86352050482452E855D
:104F4000EFB01FB22694A2470A0426940A043E94A6
:104F50005C50AA8508CC3E853EC0EFB0BFA5635427
:104F6000050082471CCC9387140093F4F70FC147C8
:104F70006393F400814492473EC051B79245C1B754
:104F8000130141FAB7070020A6C883C4876BA2CAE1
:104F90003704002093971400A6978A07A697130753
:104FA000C4268A07BA972ACC2EC6130640033E852C
:104FB00081453EC286CCEF20F003B24712479246AD
:104FC00083C787003146A308F7003247898B5843CF
:104FD00098DA1307C4263AC063820716B705002083
:104FE0009385C5006810EF20A07E924701443EC41F
:104FF000B7070020931624009387471FB6979C435A
:1050000036C83ECAE2475245B6978C43EFB05FA51B
:10501000EF201003C2460247938706028A9788C38F
:105020007C10B6979C431D8D9357F54133C6A7005E
:105030001D8EA24790C3939714003EC8A6978A0777
:10504000A6978A07BA97CC4763F3C500B285CCC749
:1050500036CEEFC06FA7D245EFB08FC7F2463C18EF
:1050600093050000BE9688C2EFB0DF94635305023B
:105070001375F40FEFF09FA893971400A6970247BB
:105080008A07A6978A07BA9783C60701558D238892
:10509000A700A247050491073EC48D47E31AF4F424
:1050A00093971400338497000A04824726940A04D5
:1050B0003E945C440145ADCF28187521B707002008
:1050C00008D02C181385C720052348CC37050020AD
:1050D0002C1813050520092B8347140108D413F756
:1050E000170035C348D4370700208346876B37073E
:1050F00000200347976B6384E600898BB5C39397C1
:105100001400A69702478A07A6978A07BA9713073B
:105110000000D8CBD8D3C2470247A6978A07A697E4
:105120008A07BA9703C41701098863090412054561
:10513000E6405644C6441301C1058280B7050020ED
:105140009385052545B532470C4313F787004CD4AA
:1051500059DB08503EC4EFB0BF90A24748D461B7B6
:1051600037070020930700001307072501443EC4BA
:105170005C473ACE3EC63C18338687001C42324517
:10518000BE853ECAEFB0DF8DAA852245EFB05FC372
:105190002AC4B2455245DC003386870032CCEFB0DA
:1051A0003FC262467247110408C2B1461107E311BB
:1051B000D4FCA96783A507F4224513040000EFB0CF
:1051C000AFF46340A008A96783A547F42245EFB078
:1051D0006FFE63410508C8007926B7070020CC00A0
:1051E0001385C7201121A967A2452AC603A587F206
:1051F000EFB01FBD29678325C7EFEFB07F86EF2093
:10520000A06DB70700209387471F8C5F2A84324523
:10521000EFB01F85A285EFB0BF84A9672AC403A59C
:1052200087F2A285EFB0DFB9AA852245EFB04FAA79
:10523000930500002A84EFB0EFF7635405001304D0
:105240000000C2470247A6978A07A6978A07BA971F
:10525000C0D3D1B5A96703A4C7F3E5B71245EFF0F2
:10526000BFBEB7070020938707259C4F2AC2AA8597
:105270003E853EC4EFB00FF463510508A2452E856C
:10528000EFB00FFEC2470247A6978A07A6978A0784
:10529000BA97CC5388CF3EC42EC0EFB0EFE663552B
:1052A000A0008245A2478CCF9246B7070020138703
:1052B0000725BE84938707251385C70031462C1820
:1052C00014CFEF20E05031460C1013850425EF2059
:1052D0002050370700208347776BB7060020238CC8
:1052E000F66A850793F7F70FC1466383D7003E84BC
:1052F000A30B876AEFF01F811DBD924549B73707A1
:1053000000201307C7001443B70700209387072521
:1053100094C354431847D4C398C78280B70700206A
:105320003707002083C7876B0345976B63E7A700A8
:105330003D051D8D1375F50F82807D15DDBF511163
:1053400006C4EFE09FA9B707002003C7976BA240F0
:10535000B7070020238BE76A31016FF0AFFA011124
:1053600006CE22CC26CA83C705002AC22EC4AA971D
:1053700003C7070032C69306D002631BD70403C7D6
:1053800017001384270085473EC0014681468144AB
:105390000145A5451303E00FA142130707FD13774D
:1053A000F70F63EAE504850693F6F60F63EED20283
:1053B00011C69387F4FF93948701E184931325002A
:1053C000AA9386033305770005040347F4FFF1B77A
:1053D0009306B002138417006316D70003C71700A3
:1053E0001384270002C055B765F293871400939485
:1053F0008701E184D1BF6315670019E20546E9B76B
:10540000B9C6EFB0FFFC930500002AC8EFB04FC942
:10541000424705C12966832546F2FD5663CFD40273
:10542000639BD404A96783A587F43A85EFB04FE363
:105430002A87824781C7B70700803D8FB2478546DC
:1054400098C392471D8CA2477D1423808700F240A9
:105450006244D2443685056182803A85EFB04FE0E0
:105460009387240093948701A96783A547F22A872D
:10547000E184FD5665B7D5DCA96683A5C6F43A85F7
:10548000EFB00FDE9387F4FF9394870193F6F70F45
:10549000A96783A5C7F42A87E184F5F259BF4111B2
:1054A000A9672EC083A507F506C622C426C2EFB0A1
:1054B0002FDBEF202075EFB0BFDA13140501418018
:1054C000B70400201DCC9387840103C7170015EB98
:1054D000024711EFEFE06F86A96703A5870583A553
:1054E000C7057D144204EF1010334180E1BFEFD0B7
:1054F000FFB9B70700209387870183C72700898BEF
:10550000E1DFB2402244924441018280511122C223
:1055100026C006C42A84A96411E4A240124482442D
:105520003101828003A5040683A544067D1442044C
:10553000EF10702E4180CDB7511126C0AE84AA85E0
:1055400006C422C2EFB0CFD12A84A6852685EFB04B
:105550002FD1AA852285EFA0BFB51244A240824474
:1055600031016F20603721119307C5003EC49307B6
:10557000000022C826C606CA2A84AA843EC09C40CF
:10558000930500003E853EC2EFB08FB111C9924530
:105590002E85EFB0EFCCAA850245EFA07FB12AC0DF
:1055A000A2479104E39DF4FC0245EF20E032A96795
:1055B000AA84AA8503A587F2EFA09FF1AA852AC035
:1055C0000840EFB0EFC9824508C04840EFB04FC96E
:1055D000824548C00844EFB0AFC808C4D240424436
:1055E0002685B2446101828029678327C7F31111A0
:1055F000370700803EC09307F7FF22CA06CC26C8B3
:105600002AC22EC401443EC6A24793050000338738
:10561000870004432685EFB0AFA815C19247A68541
:10562000338787000843EFA0BFEAB2478245B3F44F
:10563000A7002685EFB04FAD6343A00026C011043C
:10564000B147E313F4FCE24052440245C244710105
:105650008280371501409D45130505406F10900766
:105660003715014051119D451305054006C4EF1043
:10567000A073371501409D4513050540EF100076D6
:10568000B707002083C7C723A18B91CBA240371552
:1056900001409D451305054031016F10C077A240C0
:1056A00031016FF01FFBB71701404111938707408D
:1056B00022C48047B707002083C7C72306C626C277
:1056C00093F707041D8899E313447400814405C4CB
:1056D000814713F5F70F3EC0EFF08FC2618D82470F
:1056E00019C505473317F700D98C93F4F40F8507D4
:1056F0000D47E390E7FEB2402244268592444101E3
:105700008280B707002003C7870185476300F7023F
:10571000B707002083C7E76991EB511106C4EFC0BA
:10572000CFE1A240054531016F106058828013011E
:1057300081FBB70700201387870186C2A2C026DE3F
:1057400003471700938787012AC43EC66316071CC8
:1057500037040020994702D62306F1029307441F1D
:105760009306441F02D202D43EC2930400001304E5
:10577000441F1375F70F36C83AC0EFF0EFB6024773
:10578000C2469307070233862700A2472300A600DC
:1057900033D6E740058A15C2A96783A547F5C852E5
:1057A0003ACAEFB0EFABA6852AC0EFB0AFA0C246B1
:1057B0005247634405000246B28405070D46910630
:1057C000E319C7FA3C483ECA91473EC885473EC0E8
:1057D000B70600209385C6000818EF10C00CB70666
:1057E0000020834294049387C6001383C6000C18DC
:1057F0000145014701463ECC8D43A247B3D6C74081
:10580000858A85CEB3D6C2400505858A1375F50F06
:1058100081CA8247A68681CBB7060080A58E21A0CB
:105820008247A686F5DB9307060294C1B38627005C
:1058300083C6060023200300558F0506110391053A
:10584000E31D76FA3ACEEFB0BFB8EF20E008B247DA
:105850007247AA8552452383E700B7040020EFB0C2
:105860002FA04C102AD20818EFF08FF13247914741
:105870002302F700EFE04FDAEFE00F8B7247824729
:1058800085CF3ACAEFF03FE2524781478D45938674
:1058900007028A9683C6060033F6E60001CA33562D
:1058A000F540058A01C693C6F6FF758F8507E3901C
:1058B000B7FEB2472383E7003ACAEFE0EFD583C7CC
:1058C000F469524793F747036386070E83C7F46969
:1058D00093F4F70FC18B81C71945EF10403D93F743
:1058E000040281C71D45EF10803C824789C791881B
:1058F00099C8254539A0EFF01FDBA2477D8D01C572
:105900002145EF10C03AB707002083C7E76999CB5C
:10591000EFC0AFC2EFD07FC296400644F2541301ED
:10592000810482801145EF108036EFE0CFBE035531
:105930004405EFF0BFBD824793C717003EC0C1C307
:10594000A96783A587F5284CEFB08F917C44AA8482
:105950003ECAC2471387F7FF9377F70F3EC8E39914
:1059600007E68144A24733D79740058B0DCB92477A
:1059700003479404284C9C4333579740058B3EC003
:1059800031C39247CC53EFA0AFF28245EFB04F8DB9
:10599000EF10106BE247139724003E9708C392471D
:1059A00085040D4791073EC2E39EE4FAB247238285
:1059B00007009DB793777700E39307ECBDB7244CBE
:1059C0003C4879B7370700808245398DC1B75111FE
:1059D00006C422C2EF00907021C53704002093074F
:1059E00084010547A381E70003C70700A14713040B
:1059F0008401631DF7002145EF007073EFD0FFB302
:105A00008347140091EF83470400EDFBEFC0EFB232
:105A10000945EF10C0291244A24031016FD0FFB1F7
:105A2000A240124431018280DC45511122C226C0BD
:105A300006C41CC183478500AA841384450393E7E9
:105A400047002304F500B707002083C7C72393F757
:105A500007028DEB2285A68537040020EFB09FDF7B
:105A6000130484018347040081EFEFF08FB509C967
:105A7000930700022300F400EFE00FBAEFD0DFEA53
:105A8000814731A02285EF007065BD4761D5A240F6
:105A9000124482443E8531018280511122C206C4E3
:105AA0002A840345040009E5A240124431018280A2
:105AB0000504EF10007CF5B7511122C206C42A84F8
:105AC00003450400050409E5A24012443101828027
:105AD000EF10207AF5B7411106C622C426C213077B
